:4000000000800020110000001D0100001D01000080B500AF47F2BC63C4F2000344F2FA62C4F2000212681A6000F07CF810B5054C237833B9044810B10448AFF30080012102
:40004000217010BD8881FF1F000000004825000008B5064B1BB106480649AFF300800648016811B1054A02B1904708BD00000000482500008C81FF1F0881FF1F000000009F
:4000800080B590B000AF01F0C9F800F011FD62B64FF0640001F08CFD00F028FD4FF0640001F086FD4FF0000387F83B3018E04FF0000000F043FD0346002B07D000F068FDD8
:4000C0007863786B00F0D0FDF8630DE04FF0050001F06EFD97F83B3003F1010387F83B3097F83B30632BE2D900F014FD4FF0010001F022F94FF000004FF0000101F0A4F825
:400100003B46184642F24C51C0F20001FA6B01F015FE3B46184601F0D3F8BDE780B400AFFEE700BF80B586B000AF40F20103C0F200037B6142F2E453C0F200033B6140F25E
:400140000103C0F200037B6142F2E453C0F200033B613BE03B691B68FB603B695B68BB603B699B683B604FF000037B600FE0FB681A68BB681A60BB6803F10403BB60FB68A3
:4001800003F10403FB607B6803F104037B607A683B689A42EBD13B69DB683B604FF000037B600BE0BB684FF000021A60BB6803F10403BB607B6803F104037B607A683B6834
:4001C0009A42EFD13B6903F110033B617B69002B0CBF00230123DBB27A6902F1FF327A61002BB7D101F072FDFFF74AFFFEE700BF80B582B000AF4EF60C53CEF200034FF4D7
:400200008062C0F2FA521A604EF61453CEF200034EF61452CEF20002126842F400721A604FF000037B6019E07B68032B07D840F20003C0F200037A6853F8223003E040F26A
:400240001D13C0F2000348F20002C1F6FF72796842F821307B6803F101037B607B682F2BE2D947F2BC63C4F200031B78DAB248F20413C1F6FF731A704EF60853CEF2000385
:4002800048F20002C1F6FF721A6000F08DF948F20013C1F6FF734FF000021A6007F10807BD4680BD80B582B000AF7860396078684FF000013A6801F038FD07F10807BD46F9
:4002C00080BD00BF80B584B000AFF860B9607A60F868B9687A6801F01FFD07F11007BD4680BD00BF80B483B000AF0346FB71FEE780B487B000AF786039604FF000033B6108
:400300004FF000037B612CE07B694FEA83037A68D3181B68BB60BB68FB73BB6823F0FF03BB6017E03B694FEA43033A68D3181B781A46BB68D3183A694FEA420239688A1896
:4003400052781A703B6903F101033B61FB7B03F1FF33FB73FB7B002BE4D17B6903F101037B617B690C2BCFD907F11C07BD4680BC704700BF80B582B000AF4FF48143C4F273
:4003800000034FF000021A8044F28203C4F200034FF050021A704FF48240C4F200004FF07401C4F600014FF00402FFF78BFF4FF48643C4F200034FF002021A704FF04023AD
:4003C0004FF008021A704FF48443C4F200034FF003021A7044F2A163C4F200034FF48472C4F600121278D2B21A7044F22223C4F200034FF008021A8044F22023C4F20003C0
:4004000041F251221A804FF00003FB704FF019037B6019E0FB784FEA4303DAB244F22523C4F200031B78DBB203F00103DBB21343DBB203F00303FB704FF4F07001F098FBD9
:400440007B6803F1FF337B607B68002B02D0FB78032BDFD17B68002B03D14FF00300FFF741FF44F20403C4F200034FF480721A8044F20403C4F200034FF007021A7044F24A
:400480000603C4F200034FF000021A7044F20803C4F200034FF048021A7044F20403C4F200034FF000021A7044F20103C4F200034FF002021A7044F20B03C4F200034FF0E5
:4004C00004021A7044F2A233C4F2000344F2A232C4F200021278D2B242F00102D2B21A7044F2A133C4F2000344F2A132C4F200021278D2B242F00102D2B21A7044F2A033B7
:40050000C4F2000344F2A032C4F200021278D2B262F07F02D2B21A7007F10807BD4680BD80B483B000AF40F2CF13C4F600131B78FB7145F66E03C4F20003FA7902F0070243
:40054000D2B21A7045F66F03C4F20003FA794FEA1212D2B21A7045F23D13C4F200034FF003021A704FF4B643C4F200034FF010021A7045F60433C4F200034FF020021A7035
:4005800045F65833C4F200034FF030021A7045F67603C4F200034FF044021A7007F10C07BD4680BC704700BF80B582B000AF72B644F2E863C4F2000344F2E862C4F20002D5
:4005C0001278D2B242F00402D2B21A704FF00003FB7119E0FA7913464FEA43039B184FEA430342F25052C0F200029B183B603B681A683B689B889BB210461946FFF752FE78
:40060000FB7903F10103FB71FB79082BE2D94FF090404FF03401C4F60001FFF769FE45F68303C4F200034FF00A021A7045F20303C4F2010345F20302C4F201021278D2B29C
:4006400042F00202D2B21A7045F21303C4F2010345F21302C4F201021278D2B242F00202D2B21A7044F2A033C4F2000344F2A032C4F200021278D2B242F04002D2B21A70C6
:4006800044F2C233C4F2000344F2C232C4F200021278D2B242F01002D2B21A7045F22210C4F200004FF06401C4F600014FF00802FFF708FE45F23210C4F200004FF06C0176
:4006C000C4F600014FF00802FFF7FCFD44F22233C4F2000344F22232C4F200021278D2B242F00802D2B21A704FF49043C4F200034FF001021A70FFF73DFE4FF49043C4F291
:4007000000034FF081021A704FF00403C4F208034FF001021A70FFF703FF44F2B030C4F2000044F2A031C4F200014FF00E02FFF7C9FD07F10807BD4680BD00BF80B582B09D
:4007400002AF48F20C13C1F6FF734FF001021A7048F2A413C1F6FF734FF000021A704FF0100001F0A9F84FF0100001F0D3F94FF01D004FF0070101F083FA45F69603C4F20D
:4007800000034FF007021A7045F69703C4F200034FF000021A7045F69E03C4F200034FF000021A7045F60733C4F2000345F60732C4F200021278D2B242F01802D2B21A70E9
:4007C00045F69303C4F200034FF000021A7045F68833C4F200034FF000021A7045F68933C4F200034FF000021A704FF4B143C4F200034FF00A021A7045F68103C4F2000372
:400800004FF000021A7045F68303C4F200034FF000021A7045F68803C4F200034FF05B021A7045F68903C4F200034FF05E021A7045F68D03C4F200034FF000021A7044F6D1
:400840000163C4F200034FF014021A704FF0010300934FF0070049F2B9014FF400424FF0140300F05DFB44F60E63C4F2000348F20C12C1F6FF721278D2B202F1FF3248F2F8
:40088000A811C1F6FF714FEA82028A1892781A7044F60C63C4F2000348F20C12C1F6FF721278D2B202F1FF3148F2A812C1F6FF7232F821201A8048F20C13C1F6FF731B781C
:4008C000DBB2184600F03CFABD4680BD80B582B000AF01F057F90346FB7148F20C13C1F6FF731B78BB7144F2AA33C4F2000344F2AA32C4F200021278D2B242F00102D2B2FD
:400900001A7044F2AA33C4F2000344F2AA32C4F200021278D2B242F01002D2B21A7044F2BA33C4F2000344F2BA32C4F200021278D2B242F00102D2B21A7044F2BA33C4F257
:40094000000344F2BA32C4F200021278D2B242F01002D2B21A7044F2F863C4F2000344F2F862C4F200021278D2B242F00202D2B21A7044F2F963C4F2000344F2F962C4F2C4
:4009800000021278D2B242F00202D2B21A7045F69103C4F2000345F69102C4F200021278D2B242F00302D2B21A704FF0030001F023F944F2F863C4F2000344F2F862C4F2A3
:4009C00000021278D2B222F00202D2B21A7044F2F963C4F2000344F2F962C4F200021278D2B222F00202D2B21A7045F67703C4F2000345F67702C4F200021278D2B242F0E3
:400A00000602D2B21A7045F68203C4F200034FF07A021A7044F2A133C4F2000344F2A132C4F200021278D2B242F00102D2B21A7044F2B133C4F2000344F2B132C4F2000269
:400A40001278D2B242F00102D2B21A7044F2A233C4F2000344F2A232C4F200021278D2B242F00102D2B21A7044F2B233C4F2000344F2B232C4F200021278D2B242F0010265
:400A8000D2B21A704EF28023CEF200034FF000521A604FF46143CEF200034FF000521A60FB79184601F072F807F10807BD4680BD80B500AF48F2A613C1F6FF731B78002B90
:400AC00010D148F2A713C1F6FF731B78DBB2002B01D1FFF733FE48F2A613C1F6FF734FF001021A70FFF7F2FE80BD00BF80B400AF4FF49C43C4F200034FF49C42C4F2000253
:400B00001278D2B242F00102D2B21A70BD4680BC704700BF80B400AF4FF49C43C4F200034FF49C42C4F200021278D2B222F00102D2B21A70BD4680BC704700BF80B485B0C9
:400B400000AF0346FB7148F2A513C1F6FF731B78DBB2002B06D048F2A413C1F6FF731B78FB7308E044F60163C4F200031B78DBB203F00103FB73FB7B012B02D0FB79002BE3
:400B8000E1D0FB7B184607F11407BD4680BC704780B483B000AF44F61463C4F200031B78DBB203F00303FB70FB78012B12D844F61263C4F200031B889BB27B607B684FEACB
:400BC000034244F61063C4F200031B889BB213437B6032E0FB78022B1DD144F61263C4F200031B889BB27B607B684FEA034244F61063C4F200031B78DBB213437B6044F604
:400C00001163C4F200031B78DBB24FEA03237A6813437B6011E044F61063C4F200031B889BB27B6044F61263C4F200031B889BB24FEA03437A6813437B6048F2A513C1F640
:400C4000FF731B78DBB2002B06D048F2A413C1F6FF734FF000021A707B68184607F10C07BD4680BC704700BF80B487B000AF786048F20C13C1F6FF731B78DBB2012B03D167
:400C80004FF01403FB731AE048F20C13C1F6FF731B78DBB2022B03D14FF01003FB730EE048F20C13C1F6FF731B78DBB2032B03D14FF01003FB7302E04FF01003FB73FB7BA9
:400CC000102B02D0142B07D00DE047F612237B614FF020033B610FE04FF4FA637B614FF4FA733B6108E044F24023C0F20F037B614FF001033B6100BF48F2B813C1F6FF73F4
:400D00001A683B6992FBF3F33B617B697A6802FB03F23B6992FBF3F248F2BC13C1F6FF731B68796901FB03F13B6991FBF3F3D31ABB60BB68184607F11C07BD4680BC704779
:400D400080B582B000AF0346FB7148F2A513C1F6FF734FF000021A70FB79012B40F0DC804FF49C43C4F200034FF074021A7044F60263C4F200034FF000021A7044F60363B9
:400D8000C4F200034FF00A021A7044F60463C4F200034FF07F021A7044F60563C4F200034FF000021A7044F60663C4F200034FF07F021A7044F60863C4F200034FF0000296
:400DC0001A7044F60963C4F200034FF000021A7044F60A63C4F200034FF000021A7044F61463C4F200034FF001021A7045F68403C4F200034FF050021A7045F68503C4F2CF
:400E000000034FF03C021A7045F68603C4F200034FF022021A7045F68703C4F200034FF000021A7045F68A03C4F200034FF044021A7045F68B03C4F200034FF046021A70D2
:400E400045F68C03C4F200034FF006021A7045F68E03C4F200034FF002021A7045F68F03C4F200034FF012021A7045F69003C4F200034FF028021A7045F69103C4F2000367
:400E80004FF0EB021A704FF0440000F017F945F69403C4F200034FF058021A7045F69503C4F200034FF000021A7045F69A03C4F200034FF002021A7045F69B03C4F2000304
:400EC0004FF002021A7045F69C03C4F200034FF000021A7045F69D03C4F200034FF000021A7048F2B813C1F6FF734FF47A221A604FF005004FF0010100F0DEFB4FF017003D
:400F00004FF0010100F006FD4FF01D0041F26511C0F2000100F084FE07F10807BD4680BD80B586B000AFF871B9807A80BB7197F82030002B00F0BA8097F82030012B00F2F9
:400F4000B580FB7903F1FF33092B63D801A252F823F000BF7D0F000015100000151000007D0F00001510000015100000A30F0000C90F000015100000EF0F0000BB790F2BAD
:400F800007D94FF48C73C4F600131B78DBB2FB7544E04FF48E73C4F600131B78DBB2FB753CE0BB790F2B07D940F21913C4F600131B78DBB2FB7531E040F21D13C4F6001388
:400FC0001B78DBB2FB7529E0BB790F2B07D94FF48D73C4F600131B78DBB2FB751EE04FF48F73C4F600131B78DBB2FB7516E0BB790F2B07D940F21B13C4F600131B78DBB239
:40100000FB750BE040F21F13C4F600131B78DBB2FB7503E04FF00003FB7500BFBA8897F917304FEA4313D3183B617B883A6902FB03F3FB60FB684FEAD333BB82BB790D2BD2
:401040001AD8BA8ABB796FEA030303F10F0342FA03F3BB8297F8203003F1FF33BA7902F10102D1B248F2A812C1F6FF724FEA8303D3180A469A700DE097F8203003F1FF336F
:4010800048F2A812C1F6FF724FEA8303D3184FF00F029A7097F8203003F1FF3248F2A813C1F6FF73B98A23F8221003E04FF0000000F072FD07F11807BD4680BD80B584B01D
:4010C00000AF0346FB7100F05DFD0346FB7344F2F863C4F2000344F2F862C4F200021278D2B242F00302D2B21A7044F2F963C4F2000344F2F962C4F200021278D2B242F0D2
:401100000302D2B21A7045F69203C4F20003FA791A704FF0030000F06FFD44F2F863C4F2000344F2F862C4F200021278D2B222F00302D2B21A7044F2F963C4F2000344F232
:40114000F962C4F200021278D2B222F00302D2B21A70FB7B184600F019FD07F11007BD4680BD00BF80B400AFBD4680BC704700BF80B500AF4FF0280000F01AFD4FF0030015
:4011800000F052FA4FF0050000F012FD4FF0030000F04AFA4FF00F0000F00AFD4FF0030000F042FA4FF0010000F002FD4FF0020000F03AFA4FF0050000F0FAFC4FF0060084
:4011C00000F0BAF84FF00E0000F0B6F84FF02C0000F0B2F84FF0080000F0AEF84FF0010000F0AAF84FF00C0000F0A6F84FF0030000F0A2F84FF0050000F0DAFC80BD00BF03
:4012000080B500AF4FF00C0000F096F848F2AC13C1F6FF734FF001021A7080BD80B500AF48F2AD13C1F6FF731B78002B08D1FFF79FFF48F2AD13C1F6FF734FF001021A70B5
:40124000FFF7DEFF80BD00BF80B582B000AF02460B46FA71BB71FB79032B2BD801A252F823F000BF751200008512000095120000A5120000BB79A3F18003DBB2184600F053
:401280005BF818E0BB79A3F14003DBB2184600F053F810E0BB79A3F16C03DBB2184600F04BF808E0BB79A3F12C03DBB2184600F043F800E000BF07F10807BD4680BD00BFD3
:4012C00080B584B000AF78604FF00103FB737B681B78BB730CE0BB7B184600F011F8FB7B7A68D3181B78BB73FB7B03F10103FB73BB7B002BEFD107F11007BD4680BD00BF21
:4013000080B584B000AF0346FB7100F031F8FB794FEA1313FB73FB7B184600F02DF9FB7903F00F03FB73FB7B184600F025F907F11007BD4680BD00BF80B584B000AF034664
:40134000FB7100F015F8FB794FEA1313FB73FB7B184600F069F9FB7903F00F03FB73FB7B184600F061F907F11007BD4680BD00BF80B582B000AF45F22013C4F2000345F21A
:401380002012C4F200021278D2B222F07F02D2B21A7045F22213C4F200031B78DBB223F00F03FB7145F22213C4F20003FA7942F00F02D2B21A7045F22313C4F200031B781C
:4013C000DBB223F00F03FB7145F22313C4F20003FA791A7045F22413C4F200031B78DBB223F00F03FB7145F22413C4F20003FA791A7045F22013C4F2000345F22012C4F26E
:4014000000021278D2B222F02002D2B21A7045F22013C4F2000345F22012C4F200021278D2B242F04002D2B21A704FF0000000F0E3FB45F22013C4F2000345F22012C4F237
:4014400000021278D2B242F01002D2B21A704FF0010000F0D1FB45F22113C4F200031B78FB7145F22013C4F2000345F22012C4F200021278D2B222F01002D2B21A704FF028
:40148000000000F0B9FBFB7903F00803FB7145F22013C4F2000345F22012C4F200021278D2B242F01002D2B21A704FF0010000F0A3FB45F22013C4F2000345F22012C4F2F6
:4014C00000021278D2B222F01002D2B21A70FB79002BAAD145F22013C4F2000345F22012C4F200021278D2B222F04002D2B21A7045F22013C4F2000345F22012C4F2000298
:401500001278D2B222F07F02D2B21A7045F22213C4F2000345F22212C4F200021278D2B222F00F02D2B21A7045F22313C4F200031B78DBB223F00F03FB7145F22313C4F27B
:401540000003FA7942F00F02D2B21A7045F22413C4F200031B78DBB223F00F03FB7145F22413C4F20003FA7942F00F02D2B21A7007F10807BD4680BD80B582B000AF03463B
:40158000FB71FFF7F5FE45F22013C4F2000345F22012C4F200021278D2B242F02002D2B21A7045F22013C4F2000345F22012C4F200021278D2B222F04002D2B21A7045F237
:4015C0002013C4F2000345F22012C4F200021278D2B222F00F02D2B21A7045F22013C4F2000345F22012C4F200021278D1B2FA790A43D2B242F01002D2B21A704FF0010078
:4016000000F0FAFA45F22013C4F2000345F22012C4F200021278D2B222F01002D2B21A7007F10807BD4680BD80B582B000AF0346FB7145F22013C4F2000345F22012C4F2EE
:4016400000021278D2B222F06002D2B21A7045F22013C4F2000345F22012C4F200021278D2B222F00F02D2B21A7045F22013C4F2000345F22012C4F200021278D1B2FA7991
:401680000A43D2B242F01002D2B21A704FF0010000F0B2FA45F22013C4F2000345F22012C4F200021278D2B222F01002D2B21A7007F10807BD4680BD80B584B000AF024600
:4016C0000B46FA807B7100F015F90346FB7300F0E7F80346BB81FA88BB899A4200F0DC8044F2A233C4F200031B78DBB203F00103FB72FB7B002B32D1BB89002B02D0FB888C
:40170000002B2CD1BB89002B14D14FF48143C4F20003FA881A8044F28203C4F2000344F28202C4F200021278D2B222F04002D2B21A70B1E044F28203C4F2000344F282023C
:40174000C4F200021278D2B242F04002D2B21A704FF48143C4F20003FA881A809CE0FB7A002B5CD044F20103C4F200034FF000021A7044F21003C4F200034FF001021A7071
:4017800044F21403C4F200034FF000021A7044F20803C4F2000344F20802C4F200021278D2B202F07F02D2B21A7044F28203C4F200031B78DBB203F00803002B02D0FB88C5
:4017C000002B2CD144F20203C4F20003BA891A8044F20103C4F200034FF007021A7000BF44F20103C4F200031B78DBB203F00103002BF5D144F2A233C4F2000344F2A232A3
:40180000C4F200021278D2B222F00102D2B21A7044F20103C4F200034FF000021A7044F2A233C4F200031B78DBB203F00103002B1ED044F20203C4F20003FA881A8044F2C7
:401840000103C4F200037A79002A02D04FF0030201E04FF001021A7000BF44F20103C4F200031B78DBB203F00103002BF5D113E04FF48143C4F20003FA881A8044F2A23337
:40188000C4F2000344F2A232C4F200021278D1B2FA7A0A43D2B21A7007F11007BD4680BD80B400AF4FF48143C4F200031B889BB21846BD4680BC704780B483B000AF03463C
:4018C000FB7144F28203C4F2000344F28202C4F200021278D2B2D1B2FA7922F00702D2B20A43D2B2D2B21A7007F10C07BD4680BC704700BF80B400AF44F28203C4F20003FD
:401900001B78DBB203F00703DBB21846BD4680BC704700BF80B584B000AF02460B46FA807B7100F015F90346FB7300F0E7F80346BB81FA88BB899A4200F0DC8044F2A133D2
:40194000C4F200031B78DBB203F00103FB72FB7B002B32D1BB89002B02D0FB88002B2CD1BB89002B14D14FF48243C4F20003FA881A8044F20213C4F2000344F20212C4F265
:4019800000021278D2B222F04002D2B21A70B1E044F20213C4F2000344F20212C4F200021278D2B242F04002D2B21A704FF48243C4F20003FA881A809CE0FB7A002B5CD069
:4019C00044F20103C4F200034FF000021A7044F21403C4F200034FF001021A7044F21003C4F200034FF000021A7044F20803C4F2000344F20802C4F200021278D2B202F098
:401A00007F02D2B21A7044F20213C4F200031B78DBB203F00803002B02D0FB88002B2CD144F20203C4F20003BA891A8044F20103C4F200034FF007021A7000BF44F20103BE
:401A4000C4F200031B78DBB203F00103002BF5D144F2A133C4F2000344F2A132C4F200021278D2B222F00102D2B21A7044F20103C4F200034FF000021A7044F2A133C4F272
:401A800000031B78DBB203F00103002B1ED044F20203C4F20003FA881A8044F20103C4F200037A79002A02D04FF0030201E04FF001021A7000BF44F20103C4F200031B78CB
:401AC000DBB203F00103002BF5D113E04FF48243C4F20003FA881A8044F2A133C4F2000344F2A132C4F200021278D1B2FA7A0A43D2B21A7007F11007BD4680BD80B400AF0F
:401B00004FF48243C4F200031B889BB21846BD4680BC704780B483B000AF0346FB7144F20213C4F2000344F20212C4F200021278D2B2D1B2FA7922F00702D2B20A43D2B25B
:401B4000D2B21A7007F10C07BD4680BC704700BF80B400AF44F20213C4F200031B78DBB203F00703DBB21846BD4680BC704700BF0230800800F0058000BF013800467FF413
:401B8000FCAF7047EFF3108072B6704780F31088704700BFAFF3008080B483B000AF0346FB7101BE07F10C07BD4680BC704700BF80B582B000AF78600BE048F21C13C1F68C
:401BC000FF731B681846FFF7D3FF7B68A3F500437B607B68B3F5004FEFD848F21413C1F6FF731B687A6802FB03F31846FFF7C0FF07F10807BD4680BD80B582B000AF0346F5
:401C0000FB80FA8848F21813C1F6FF731B7803FB02F31846FFF7ACFF07F10807BD4680BD80B584B000AF03463960FB714EF60853CEF200031B68FB60FB791F2B03D94FF0CE
:401C40000000FFF7A9FFFB7903F01F0303F110034FEA8303FA68D3181B68BB60FB7903F01F0303F110034FEA8303FA68D3183A681A60BB68184607F11007BD4680BD00BF45
:401C800080B582B000AF02460B46FA71BB71BB79072B03D94FF00000FFF77EFFFB791F2B03D94FF00000FFF777FFFB7903F01F0303F1604303F56443BA794FEA4212D2B2A2
:401CC0001A7007F10807BD4680BD00BF38B50E4D0E4B0024E81A8510AC4205D00B4951F8242090470134F7E700F06AFC0849094A541AA5100024AC4205D0054B53F82400A7
:401D000080470134F7E738BDCC250000CC250000CC250000D425000010B50023934203D0CC5CC4540133F9E710BD82180346934202D003F8011BFAE7704700000EB400B5A7
:401D40009CB0029006906FF000401DAB049007904FF402710A4853F8042BADF814104FF6FF71ADF81610006802A9019300F062F8029B00221A701CB05DF804EB03B07047DE
:401D80008481FF1F2DE9F8439368064689461446002B41D1928912F4906F3DD0616903254D43236927680220FF1A95FBF0F5791C02F48062A94211B2A8BF3D18304679B111
:401DC000294600F009FB8046A0B13A462169FFF7A3FFA38923F4906040F08002A28113E019462A4600F050FB804668B93046216900F0AEFAA0890C2340F0400233604FF0A7
:401E0000FF30A281BDE8F88308EB07016561ED1BC4F810802160A560A368002B06DD206800F8019BA2682060511EA1600020BDE8F88300002DE9F0479CB003938B890D4690
:401E400003F0800114460AB2064662B12B6953B9402100F0C1FA2860286110B90C213160D3E04020686100272021302209978DF829108DF82A2023461F4613F8010B28B9AC
:401E8000B7EB040A16D04FF000090DE02528F3D1F6E7304614F809102A46FFF773FF013000F0AC8009F10109D145F2DB099901EB0A0209923B78002B00F0A08000244FF03C
:401EC000FF3004940794059006948DF853401A9407F101094F4F4C4638462178052200F0C5FA09F10109049B30B1C41B012707FA04F73B430493EDE7D90602D520218DF880
:401F000053101A0702D52B228DF8532020782A2802D0079B27460EE0039A1768101D002F039001DB079704E0794243F002030791049301340AE03C462178013730390929B0
:401F400003D80A2404FB0313F5E7079322782E2A19D160782A2809D1039802340368021D002B0392B8BF4FF0FF330BE0671C00233C46217801373039092903D80A2404FB63
:401F80000313F5E70593244F21783846032200F06DFA38B1C71B402101FA07F1049B01340B43049314F8011B1C4806228DF8281000F05CFA88B11A4A32B9039FFB1D23F0AD
:401FC00007000830039014E003A90091304604A92A46144BAFF3008007E003A8009004A930462A460F4B00F08FF8B0F1FF3F804604D0099A02EB080109913CE7AB8903F04E
:40200000400002B20AB9099801E04FF0FF301CB0BDE8F0878A250000902500009425000000000000851D00002DE9F047154699468A680B6980469A42A8BF13462B6091F8EF
:4020400043000C46DDF820A008B1591C29602668B20602D52A68931C2B60206810F0060618D094F8437020683E1C18BF012683061AD5A119302281F8432094F84530023662
:4020800081F8443010E04046617E4A46D047013006D00136E1682A688B1A9E42F3DBE0E74FF0FF30BDE8F0870027B74209DAE119404691F843104A46D0470130F0D001374B
:4020C000F3E721682868E66801F00602042A08BFC0EB06052369A6680CBF25EAE57500259E42C4BFC3EB0603ED180026AE4207DA4046A17E4A46D0470130D1D00136F5E7C1
:402100000020BDE8F08700002DE9F0430C46257E85B06E2D9046074699460C9904F1430200F0AA8012D8632D24D009D8002D00F0BB80582D40F0CB8084F84550824D57E09C
:40214000642D20D0692D40F0C2801CE0732D00F0AF8009D86F2D2FD0702D40F0B880256845F0200626603FE0752D25D0782D40F0AE8039E0086804F14206021D0A600168BB
:4021800084F84210A7E020680B6810F0800F02D01E1D0E6008E003F1040510F0400F0D6002D0B3F9001000E0196800293CDA2D20494284F8430037E025680E6815F0800FB1
:4021C00002D0331D0B6007E006F1040015F0400F086001D0318800E03168267E5A4D6F2E14BF0A2308231BE07820584D84F8450020680B6810F0800F03F104060E6003D1DB
:40220000410601D5198800E01968C60744BF40F02000206019B9206820F0200323601023002084F8430001E0474D0A236668002EA66003DB206820F00400206001B96EB146
:4022400004F14200B1FBF3FE03FB1E11695C064600F8011971460029F4D100E01646921B082B22613CD12368D80739D56068904236DC511C616033E026680B6816F0800FEE
:4022800005D01E1D0E601968606908600CE003F1040016F0400F086003D018686369038002E061691E68316000232361164617E00E68321D0A603668304600F019F96368DE
:4022C0002061984288BF23612069606005E004F1420684F8425001232361002184F84310CDF800903846214603AA4346FFF79CFE013002D14FF0FF3022E0002522699542AC
:4023000007DA3846715D4246C8470130F2D00135F4E72168890705D4E06803998842B8BF08460DE00025E068039BC21A9542F3DA3846617E4246C8470130DBD00135F2E719
:4023400005B0BDE8F08300BF9B250000AC25000030B500293CD051F8042C0B1F1D49002AB8BF9B180A6812B95A600B6030BD93420ED219685818904203D15A588918426831
:40238000196014485A60036030BD994203D80A4651680029F9D1146815199D420AD118682318D0188842136012D108681B1813604B680CE002D90C23036030BD18681C18A2
:4023C0008C4203D10C684968001918605960536030BD00BFB081FF1F70B5CD1C25F0030508350C2D38BF0C25002D06462DDB8D422BD31D4B1B681C469CB12268501B0DD497
:402400000B2802D92060241817E0A34203D16068154A10601DE0616859601AE023466468EAE72946304600F053F8431C01460CD0CC1C24F003048C4201D1256009E03046E3
:40244000611A00F045F80130F7D10C203060002070BD04F10B01231D21F00700C31A02D05A42E25070BD70BDB081FF1F10B5C9B2034682189342184604D0047801338C428B
:40248000F8D100E0002010BDF8B5064615460C4621B91146BDE8F840FFF79EBF1AB9FFF757FF2C4612E000F02BF8A8420ED230462946FFF791FF074638B121462A46FFF7B1
:4024C0002BFC30462146FFF743FF3C462046F8BD38B5064C002305460846236000F01AF8431C02D1216801B1296038BDC081FF1F034613F8012B002AFBD1181A01387047A1
:4025000051F8040C002802DA04390B58C018043870470000094A13686BB118186946884202D8106018467047054B0C221A604FF0FF3318467047034B1360EEE7B481FF1F7A
:40254000C081FF1FC881FF1F0000000025640000005100402000405100403000C05100401000F0510040100000000140001000140140000800400140000A004C01400002A0
:4025800000500140200000004300232D302B2000686C4C00656667454647003031323334353637383941424344454600303132333435363738396162636465660000000034
:4025C000F8B500BFF8BC08BC9E46704751000000F1010000F8B500BFF8BC08BC9E4670472D000000F82500000881FF1F8000000040000000000000000000000001000000E8
:4026000000366E01C05D0000180000000000E02E00000000000000000000000000000000000000000000000000000000000000008825000000000000000000000000000005
:40264000000000000000000000000000000000000000000000000000000000000000000000000000000000000000000000000000000000002081FF1F00000000000000009B
:40268000000000000000000000000000000000000000000000000000000000000000000000000000000000000000000000000000000000000000000000000000000000001A
:4026C00000000000000000000000000000000000000000000000000000000000000000000000000000000000000000000000000000000000000000000000000000000000DA
:402700000000000000000000000000000000000000000000000000000000000000000000000000000000000000000000000000000000000000000000000000000000000099
:402740000000000000000000000000000000000000000000000000000000000000000000000000000000000000000000000000000000000000000000000000000000000059
:020000040003F7
:0200000480007A
:4000000001090140040A0140010B014001150140011B0140024401400145014003460140034701400248014001490140014C0140024D0140B502B802BE01D804DF011D02C3
:40004000EC10EC107C01DE01940145089401D001A508B401EC082510C820B510A508B508EC080000007F7F000000000000000000000003001700180100000000000000001D
:400080000000000000000000000000000000000000000000000000000000000000000000000000000000000000000000000000000000000000000000000000000000000040
:4000C0000000000000000000000000000000000000000000000000000000000000000000000000000000000000000000000000000000000000000000000000000000000000
:4001000000000000000000000000000000000000000000000000000000000000000000000000000000000000000000000000000000000000000000000000000000000000BF
:40014000000000000000000000000000000000000000000000000000000000000000000000000000000000000000000000000000000000000000000000000000000000007F
:0200000490006A
:0400000000004005B7
:0200000490105A
:04000000BC90ACAF55
:0200000490303A
:02000000205985
:0200000490402A
:4000000000000000000000000000000000000000000000000000000000000000000000000000000000000000000000000000000000000000000000000000000000000000C0
:400040000000000000000000000000000000000000000000000000000000000000000000000000000000000000000000000000000000000000000000000000000000000080
:400080000000000000000000000000000000000000000000000000000000000000000000000000000000000000000000000000000000000000000000000000000000000040
:4000C0000000000000000000000000000000000000000000000000000000000000000000000000000000000000000000000000000000000000000000000000000000000000
:0200000490501A
:0C00000000012E12306900012E2250C2B7
:00000001FF