:400000000080002011000000C5020000C502000080B500AF47F2BC63C4F2000344F2FA62C4F2000212681A6000F050F910B5054C237833B9044810B10448AFF300800121DB
:40004000217010BD2081FF1F00000000FC41000008B5064B1BB106480649AFF300800648016811B1054A02B1904708BD00000000FC4100002481FF1F0881FF1F00000000CF
:4000800080B586B000AF0346B9607A60FB734FF018004FF0000103F01FF90346FB75FB7D002B05D1FB7B184603F0CAF90346FB7503F08CF94FF018004FF0010103F00CF95D
:4000C0000346BB75BB7D002B0FD14FF0010003F00FFA03461A46BB681A704FF0000003F007FA03461A467B681A7003F06FF907F11807BD4680BD00BF80B58CB000AF02F0E6
:4001000003FE01F065FB02F0DBFA03F0EBFA62B64FF00003BB624FF00003FB704FF00003BB7007F10303BB6107F102037B614FF00003FB619AE04FF005007969BA69FFF7F3
:400140009FFF7B691B7803F01F03DAB27B691A707B691B7803F01003002B1ED07B691B7803F00F03DAB27B691A707B691B781A4613464FEA03739B1A4FEA03131A46BB69E8
:400180001B784FEA1313DBB2D31A03F58073184603F032FE03467B620EE07B691B784FEA0312BB691B784FEA1313DBB2D318184603F022FE03467B62786A4FF00001C4F291
:4001C000C82103F06DFE0346184603F0B9FF0346184600F0F1FF38614FF0000002F092FA4FF002004FF0010102F0DAF801F01EFC4FF0640001F07CF84FF000033B6220E051
:400200004FF0000001F03AFC0346002B11D001F05FFC0346184601F0C7FC0346184603F0EBFD0346FB60F86803F08AFF0346FB620AE04FF0050001F05BF83B6A03F10103A5
:400240003B623B6A632BDBDD01F004FC3A69FB6AD318BB60B86800F0EFFC7860BA6A7B68D318BB62FB6903F10103FB61FB69042B7FF761AF4FF0010003F0C2FA4FF0000016
:400280004FF0000103F044FA44F20020C0F2000003F07AFA4FF000004FF0050103F038FABA6A46F26763C6F2666383FB02134FEA63014FEAE273CB1A9BB2184603F060FC71
:4002C00026E700BF80B400AFFEE700BF80B586B000AF40F20103C0F200037B6144F23C33C0F200033B6140F20103C0F200037B6144F23C33C0F200033B613BE03B691B68D5
:40030000FB603B695B68BB603B699B683B604FF000037B600FE0FB681A68BB681A60BB6803F10403BB60FB6803F10403FB607B6803F104037B607A683B689A42EBD13B69A4
:40034000DB683B604FF000037B600BE0BB684FF000021A60BB6803F10403BB607B6803F104037B607A683B689A42EFD13B6903F110033B617B69002B0CBF00230123DBB2B1
:400380007A6902F1FF327A61002BB7D103F0FEFEFFF7B2FEFEE700BF80B582B000AF4EF60C53CEF200034FF48062C0F2FA521A604EF61453CEF200034EF61452CEF200027C
:4003C000126842F400721A604FF000037B6019E07B68032B07D840F20003C0F200037A6853F8223003E040F2C523C0F2000348F20002C1F6FF72796842F821307B6803F199
:4004000001037B607B682F2BE2D947F2BC63C4F200031B78DAB248F20413C1F6FF731A704EF60853CEF2000348F20002C1F6FF721A6000F0A3FA48F20013C1F6FF734FF02F
:4004400000021A6007F10807BD4680BD80B582B000AF7860396078684FF000013A6803F0C4FE07F10807BD4680BD00BF80B584B000AFF860B9607A60F868B9687A6803F0FC
:40048000ABFE07F11007BD4680BD00BF80B483B000AF0346FB71FEE780B487B000AF786039604FF000033B614FF000037B612CE07B694FEA83037A68D3181B68BB60BB6811
:4004C000FB73BB6823F0FF03BB6017E03B694FEA43033A68D3181B781A46BB68D3183A694FEA420239688A1852781A703B6903F101033B61FB7B03F1FF33FB73FB7B002BF9
:40050000E4D17B6903F101037B617B690F2BCFD907F11C07BD4680BC704700BF80B582B000AF4FF48143C4F200034FF000021A8044F28203C4F200034FF050021A704FF435
:400540008240C4F200004FF0CC01C4F600014FF00402FFF78BFF4FF48643C4F200034FF002021A704FF040234FF008021A704FF48443C4F200034FF003021A7044F2A163A5
:40058000C4F200034FF48472C4F600121278D2B21A7044F22223C4F200034FF008021A8044F22023C4F2000341F251221A804FF00003FB704FF019037B6019E0FB784FEAD4
:4005C0004303DAB244F22523C4F200031B78DBB203F00103DBB21343DBB203F00303FB704FF4F07000F064FE7B6803F1FF337B607B68002B02D0FB78032BDFD17B68002BEF
:4006000003D14FF00300FFF741FF44F20403C4F200034FF480721A8044F20403C4F200034FF007021A7044F20603C4F200034FF000021A7044F20803C4F200034FF048029B
:400640001A7044F20403C4F200034FF000021A7044F20103C4F200034FF002021A7044F20B03C4F200034FF004021A7044F2A233C4F2000344F2A232C4F200021278D2B20F
:4006800042F00102D2B21A7044F2A133C4F2000344F2A132C4F200021278D2B242F00102D2B21A7044F2A033C4F2000344F2A032C4F200021278D2B262F07F02D2B21A70B1
:4006C00007F10807BD4680BD80B483B000AF40F2CF13C4F600131B78FB7145F66E03C4F20003FA7902F00702D2B21A7045F66F03C4F20003FA794FEA1212D2B21A7045F261
:400700006D13C4F200034FF001021A704FF4B543C4F200034FF002021A7045F67603C4F200034FF044021A7007F10C07BD4680BC704700BF80B483B000AF0346FB71FB7978
:40074000012B37D8FA79FB79D318FB71FA7944F20823C0F2000353F82220F97944F20823C0F2000353F821301978F87944F21823C0F200031B5C0B43DBB21370FB7903F161
:400780000103FB71FA7944F20823C0F2000353F82220F97944F20823C0F2000353F821301978F87944F21823C0F200031B5C0B43DBB2137007F10C07BD4680BC704700BFD2
:4007C00080B483B000AF0346FB71FB79012B3DD8FA79FB79D318FB71FA7944F20823C0F2000353F82220F97944F20823C0F2000353F821301978F87944F21823C0F20003D9
:400800001B5C6FEA0303DBB20B40DBB21370FB7903F10103FB71FA7944F20823C0F2000353F82220F97944F20823C0F2000353F821301978F87944F21823C0F200031B5C49
:400840006FEA0303DBB20B40DBB2137007F10C07BD4680BC704700BF80B483B000AF0346FB71FB79012B37D8FA79FB79D318FB71FA7944F21C23C0F2000353F82220F9791D
:4008800044F21C23C0F2000353F821301978F87944F22C23C0F200031B5C0B43DBB21370FB7903F10103FB71FA7944F21C23C0F2000353F82220F97944F21C23C0F20003C3
:4008C00053F821301978F87944F22C23C0F200031B5C0B43DBB2137007F10C07BD4680BC704700BF80B483B000AF0346FB71FB79012B3DD8FA79FB79D318FB71FA7944F224
:400900001C23C0F2000353F82220F97944F21C23C0F2000353F821301978F87944F22C23C0F200031B5C6FEA0303DBB20B40DBB21370FB7903F10103FB71FA7944F21C2344
:40094000C0F2000353F82220F97944F21C23C0F2000353F821301978F87944F22C23C0F200031B5C6FEA0303DBB20B40DBB2137007F10C07BD4680BC704700BF80B586B0D8
:4009800000AF72B644F2E863C4F2000344F2E862C4F200021278D2B242F00402D2B21A704FF00003FB7519E0FA7D13464FEA43039B184FEA430344F23022C0F200029B187F
:4009C0003B613B691A683B699B889BB210461946FFF73CFDFB7D03F10103FB75FB7D082BE2D94FF00003FB7523E0FA7D13464FEA83039B184FEA430344F26822C0F200020D
:400A00009B18FB60FB681B68BB60FB685B687B60FB681A7A5B7A4FEA032313437B807B88B86879681A46FFF721FDFB7D03F10103FB75FB7D002BD8D04FF090404FF04001F8
:400A4000C4F60001FFF728FD45F68303C4F200034FF00A021A7045F20303C4F2010345F20302C4F201021278D2B242F00202D2B21A7045F21303C4F2010345F21302C4F20A
:400A800001021278D2B242F00202D2B21A7044F2A033C4F2000344F2A032C4F200021278D2B242F04002D2B21A7044F2C233C4F2000344F2C232C4F200021278D2B242F0C9
:400AC0001002D2B21A7045F2C010C4F200004FF0B001C4F600014FF00A02FFF7C7FC45F22210C4F200004FF0BC01C4F600014FF00802FFF7BBFC45F26210C4F200004FF000
:400B0000C401C4F600014FF00802FFF7AFFC44F22233C4F2000344F22232C4F200021278D2B242F00802D2B21A704FF49043C4F200034FF001021A70FFF7F0FC4FF49043DA
:400B4000C4F200034FF081021A704FF00403C4F208034FF001021A70FFF7B6FD44F2B030C4F2000044F2A031C4F200014FF00E02FFF77CFC07F11807BD4680BD2DE9F0034D
:400B800084B000AF786039604FF000024FF00003C7E902237B6818464FEAE0713E6832464FEAE27302FB01FC00FB03F66644A0FB0223F1180B46C7E90223C7E90223D7E9F6
:400BC0000223002A73F100011EDAD7E90223524263EB4303C7E90223D7E902234FEA03214FEA126841EA08084FEA136941460A464FEAE273C7E90223D7E90223524263EB81
:400C00004303C7E902230EE0D7E902234FEA03214FEA12640C434FEA136521460A464FEAE273C7E90223BB68184607F11007BD46BDE8F003704700BF2DE9B04FB8B000AFD3
:400C4000786544F27423C0F2000307F160011A464FF07803084611461A4603F0BDFA4FF00003BB6545F2A403FB654FF00003C7F8DC304FF0000387F8DB30BA6D7B6D9A428F
:400C800040F3CE807B6D002B30DA7B6DC3F100037B65796D0A464FEAE27344F21031C0F20001097849B2C1F11801A1F1200002FA00F4C1F1200522FA05F503FA01FCC7F89A
:400CC0004CC0D7F84CC045EA0C0CC7F84CC00028F86CA8BF2046F86402FA01F1B964BB6C7B657B6DC3F100037B6527E0796D0A464FEAE27344F21031C0F20001097849B244
:400D0000C1F11801A1F1200002FA00F4C1F1200522FA05F503FA01FCC7F844C0D7F844C045EA0C0CC7F844C00028786CA8BF2046786402FA01F139643B6C7B654FF00903AD
:400D400087F8DB301CE097F8DB2013464FEA43039B184FEA830307F1E002D318A3F180031A68D7F8DC30D3181846796DFFF706FFC7F8DC0097F8DB3003F1FF3387F8DB30D1
:400D800097F8DB30002BDED144F21433C0F200031B785BB2002B21DA3A6ED7F8DC30D1180A464FEAE27344F21431C0F20001097849B2A1F1200002FA00F4C1F1200522FA3E
:400DC00005F503FA01FB45EA0B0B0028A8BFA34602FA01FA5346C7F8DC30E5E13A6ED7F8DC30D1180A464FEAE27344F21431C0F20001097849B2A1F1200023FA00F4C1F1B9
:400E0000200503FA05F522FA01F845EA08080028A8BFA04623FA01F94346C7F8DC30C3E1FA6D7B6D9A42C0F2E0807B6D002B30DA7B6DC3F100037B65796D0A464FEAE27321
:400E400044F21031C0F20001497849B2C1F11801A1F1200002FA00F4C1F1200522FA05F503FA01FCC7F83CC0D7F83CC045EA0C0CC7F83CC00028F86BA8BF2046F86302FA01
:400E800001F1B963BB6B7B657B6DC3F100037B6527E0796D0A464FEAE27344F21031C0F20001497849B2C1F11801A1F1200002FA00F4C1F1200522FA05F503FA01FCC7F8DB
:400EC00034C0D7F834C045EA0C0CC7F834C00028786BA8BF2046786302FA01F139633B6B7B654FF0090387F8DB301CE097F8DB2013464FEA43039B184FEA830307F1E002FF
:400F0000D318A3F17C031A68D7F8DC30D3181846796DFFF733FEC7F8DC0097F8DB3003F1FF3387F8DB3097F8DB30002BDED144F21433C0F200035B785BB2002B2ADA7A6E7E
:400F4000D7F8DC30D1180A464FEAE27344F21431C0F20001497849B2A1F1200002FA00F4C1F1200522FA05F503FA01FCC7F82CC0D7F82CC045EA0C0CC7F82CC00028F86A7A
:400F8000A8BF2046F86202FA01F1B962BB6AC7F8DC3009E17A6ED7F8DC30D1180A464FEAE27344F21431C0F20001497849B2A1F1200023FA00F4C1F1200503FA05F522FA06
:400FC00001FCC7F820C0D7F820C045EA0C0CC7F820C00028386AA8BF2046386223FA01F179623B6AC7F8DC30DEE07B6D002B30DA7B6DC3F100037B65796D0A464FEAE27317
:4010000044F21031C0F20001897849B2C1F11801A1F1200002FA00F4C1F1200522FA05F503FA01FCC7F81CC0D7F81CC045EA0C0CC7F81CC00028F869A8BF2046F86102FA63
:4010400001F1B961BB697B657B6DC3F100037B6527E0796D0A464FEAE27344F21031C0F20001897849B2C1F11801A1F1200002FA00F4C1F1200522FA05F503FA01FCC7F8DD
:4010800014C0D7F814C045EA0C0CC7F814C000287869A8BF2046786102FA01F139613B697B654FF0090387F8DB301CE097F8DB2013464FEA43039B184FEA830307F1E002A5
:4010C000D318A3F178031A68D7F8DC30D3181846796DFFF753FDC7F8DC0097F8DB3003F1FF3387F8DB3097F8DB30002BDED144F21433C0F200039B785BB2002B2ADABA6E22
:40110000D7F8DC30D1180A464FEAE27344F21431C0F20001897849B2A1F1200002FA00F4C1F1200522FA05F503FA01FCC7F80CC0D7F80CC045EA0C0CC7F80CC00028F868DA
:40114000A8BF2046F86002FA01F1B960BB68C7F8DC3029E0BA6ED7F8DC30D1180A464FEAE27344F21431C0F20001897849B2A1F1200023FA00F4C1F1200503FA05F522FAAB
:4011800001FCC7F800C0D7F800C045EA0C0CC7F800C000283868A8BF2046386023FA01F179603B68C7F8DC30D7F8DC30184607F1E007BD46BDE8B08F2DE9B04F90B000AFD8
:4011C000F86044F2EC23C0F2000307F114041D460FCD0FC40FCD0FC42B6823604FF0000387F83F304FF00003BB63FB68002B19DAFB68C3F10003FB60F9680A464FEAE273F1
:401200004FEAD2514FEA432078607868084378604FEA422139603B68FB60FB68C3F10003FB600DE0F9680A464FEAE2734FEAD2514FEA432B41EA0B0B4FEA422A5346FB602A
:401240004FF0080387F83F3015E097F83F304FEA830307F14002D31853F82C2CBB6BD3181846F968FFF78AFCB86397F83F3003F1FF3387F83F3097F83F30002BE5D17A6981
:40128000BB6BD1180A464FEAE2734FEAC3614FEA521841EA08084FEA53194346BB63BB6B184607F14007BD46BDE8B08F000000000230800800F0058000BF013800467FF430
:4012C000FCAF7047EFF3108072B6704780F31088704700BFAFF3008080B483B000AF0346FB7101BE07F10C07BD4680BC704700BF80B582B000AF78600BE048F21813C1F659
:40130000FF731B681846FFF7D3FF7B68A3F500437B607B68B3F5004FEFD848F21013C1F6FF731B687A6802FB03F31846FFF7C0FF07F10807BD4680BD80B582B000AF0346C1
:40134000FB80FA8848F21413C1F6FF731B7803FB02F31846FFF7ACFF07F10807BD4680BD80B584B000AF03463960FB714EF60853CEF200031B68FB60FB791F2B03D94FF09B
:401380000000FFF7A9FFFB7903F01F0303F110034FEA8303FA68D3181B68BB60FB7903F01F0303F110034FEA8303FA68D3183A681A60BB68184607F11007BD4680BD00BF0E
:4013C00080B582B000AF02460B46FA71BB71BB79072B03D94FF00000FFF77EFFFB791F2B03D94FF00000FFF777FFFB7903F01F0303F1604303F56443BA794FEA4212D2B26B
:401400001A7007F10807BD4680BD00BF80B582B002AF48F21C13C1F6FF734FF001021A7048F23C13C1F6FF734FF000021A704FF0100001F09FFA4FF0100001F0C9FB4FF00D
:401440001D004FF00701FFF7BBFF45F69603C4F200034FF007021A7045F69703C4F200034FF000021A7045F69E03C4F200034FF000021A7045F60733C4F2000345F607329E
:40148000C4F200021278D2B242F01802D2B21A7045F69303C4F200034FF000021A7045F68833C4F200034FF000021A7045F68933C4F200034FF000021A704FF4B143C4F2D5
:4014C00000034FF00A021A7045F68103C4F200034FF000021A7045F68303C4F200034FF000021A7045F68803C4F200034FF05B021A7045F68903C4F200034FF05E021A703E
:4015000045F68D03C4F200034FF000021A7044F60163C4F200034FF014021A704FF0010300934FF0070049F2B9014FF400424FF0140300F08BFF4FF0020300934FF00400A6
:4015400049F2DA014FF400424FF0100300F07EFF4FF0030300934FF0040049F2DA014FF400424FF0100300F071FF4FF0040300934FF0040049F2DA014FF400424FF01003A0
:4015800000F064FF44F60E63C4F2000348F21C12C1F6FF721278D2B202F1FF3248F24011C1F6FF714FEA82028A1892781A7044F60C63C4F2000348F21C12C1F6FF72127891
:4015C000D2B202F1FF3148F24012C1F6FF7232F821201A8048F21C13C1F6FF731B78DBB2184600F04DFBBD4680BD00BF80B582B000AFFFF767FE0346FB7148F21C13C1F6FE
:40160000FF731B78BB7144F2AA33C4F2000344F2AA32C4F200021278D2B242F00102D2B21A7044F2AA33C4F2000344F2AA32C4F200021278D2B242F01002D2B21A7044F266
:40164000BA33C4F2000344F2BA32C4F200021278D2B242F00102D2B21A7044F2BA33C4F2000344F2BA32C4F200021278D2B242F01002D2B21A7044F2F863C4F2000344F203
:40168000F862C4F200021278D2B242F00202D2B21A7044F2F963C4F2000344F2F962C4F200021278D2B242F00202D2B21A7045F69103C4F2000345F69102C4F20002127848
:4016C000D2B242F00302D2B21A704FF00300FFF733FE44F2F863C4F2000344F2F862C4F200021278D2B222F00202D2B21A7044F2F963C4F2000344F2F962C4F200021278D6
:40170000D2B222F00202D2B21A7045F67703C4F2000345F67702C4F200021278D2B242F00602D2B21A7045F68203C4F200034FF07A021A7044F2A133C4F2000344F2A13247
:40174000C4F200021278D2B242F00102D2B21A7044F2B133C4F2000344F2B132C4F200021278D2B242F00102D2B21A7044F2A233C4F2000344F2A232C4F200021278D2B2D7
:4017800042F00102D2B21A7044F2B233C4F2000344F2B232C4F200021278D2B242F00102D2B21A704EF28023CEF200034FF000521A604FF46143CEF200034FF000521A6089
:4017C000FB791846FFF782FD07F10807BD4680BD80B500AF48F23E13C1F6FF731B78002B10D148F23F13C1F6FF731B78DBB2002B01D1FFF70BFE48F23E13C1F6FF734FF060
:4018000001021A70FFF7F2FE80BD00BF80B582B000AFFFF757FD0346FB714FF49C43C4F200034FF49C42C4F200021278D2B222F00102D2B21A7044F60163C4F2000344F6AE
:401840000162C4F200021278D2B242F00402D2B21A7044F2F863C4F2000344F2F862C4F200021278D2B242F00202D2B21A7044F2F963C4F2000344F2F962C4F200021278F7
:40188000D2B242F00202D2B21A7045F69103C4F2000345F69102C4F200021278D2B222F00302D2B21A7045F69203C4F2000345F69202C4F200021278D2B222F00802D2B261
:4018C0001A704FF00300FFF737FD44F2F863C4F2000344F2F862C4F200021278D2B222F00202D2B21A7044F2F963C4F2000344F2F962C4F200021278D2B222F00202D2B2F2
:401900001A7044F2AA33C4F2000344F2AA32C4F200021278D2B222F01002D2B21A7044F2AA33C4F2000344F2AA32C4F200021278D2B222F00102D2B21A7044F2BA33C4F2A7
:40194000000344F2BA32C4F200021278D2B222F00102D2B21A7044F2BA33C4F2000344F2BA32C4F200021278D2B222F01002D2B21A7045F67703C4F2000345F67702C4F28B
:4019800000021278D2B222F00602D2B21A7044F2A133C4F2000344F2A132C4F200021278D2B222F00102D2B21A7044F2B133C4F2000344F2B132C4F200021278D2B222F076
:4019C0000102D2B21A7045F68203C4F2000345F68202C4F200021278D2B222F00802D2B21A7044F2A233C4F2000344F2A232C4F200021278D2B222F00102D2B21A7044F2C1
:401A0000B233C4F2000344F2B232C4F200021278D2B222F00102D2B21A70FB791846FFF755FC07F10807BD4680BD00BF80B400AF4FF49C43C4F200034FF49C42C4F200024F
:401A40001278D2B242F00102D2B21A70BD4680BC704700BF80B400AF4FF49C43C4F200034FF49C42C4F200021278D2B222F00102D2B21A70BD4680BC704700BF80B485B07A
:401A800000AF0346FB7148F23D13C1F6FF731B78DBB2002B06D048F23C13C1F6FF731B78FB7308E044F60163C4F200031B78DBB203F00103FB73FB7B012B02D0FB79002B64
:401AC000E1D0FB7B184607F11407BD4680BC704780B483B000AF44F61463C4F200031B78DBB203F00303FB70FB78012B12D844F61263C4F200031B889BB27B607B684FEA7C
:401B0000034244F61063C4F200031B889BB213437B6032E0FB78022B1DD144F61263C4F200031B889BB27B607B684FEA034244F61063C4F200031B78DBB213437B6044F6B4
:401B40001163C4F200031B78DBB24FEA03237A6813437B6011E044F61063C4F200031B889BB27B6044F61263C4F200031B889BB24FEA03437A6813437B6048F23D13C1F659
:401B8000FF731B78DBB2002B06D048F23C13C1F6FF734FF000021A707B68184607F10C07BD4680BC704700BF80B487B000AF786048F21C13C1F6FF731B78DBB2012B03D170
:401BC0004FF01403FB731AE048F21C13C1F6FF731B78DBB2022B03D14FF01003FB730EE048F21C13C1F6FF731B78DBB2032B03D14FF01003FB7302E04FF01003FB73FB7B3A
:401C0000102B02D0142B07D00DE047F612237B614FF020033B610FE04FF4FA637B614FF4FA733B6108E044F24023C0F20F037B614FF001033B6100BF48F25413C1F6FF7308
:401C40001A683B6992FBF3F33B617B697A6802FB03F23B6992FBF3F248F25813C1F6FF731B68796901FB03F13B6991FBF3F3D31ABB60BB68184607F11C07BD4680BC70478E
:401C800080B582B000AF0346FB7148F23D13C1F6FF734FF000021A70FB79012B40F0DC804FF49C43C4F200034FF078021A7044F60263C4F200034FF000021A7044F60363CE
:401CC000C4F200034FF00A021A7044F60463C4F200034FF07F021A7044F60563C4F200034FF000021A7044F60663C4F200034FF07F021A7044F60863C4F200034FF0000247
:401D00001A7044F60963C4F200034FF000021A7044F60A63C4F200034FF000021A7044F61463C4F200034FF001021A7045F68403C4F200034FF050021A7045F68503C4F27F
:401D400000034FF03C021A7045F68603C4F200034FF022021A7045F68703C4F200034FF000021A7045F68A03C4F200034FF044021A7045F68B03C4F200034FF046021A7083
:401D800045F68C03C4F200034FF006021A7045F68E03C4F200034FF000021A7045F68F03C4F200034FF000021A7045F69003C4F200034FF00A021A7045F69103C4F200034A
:401DC0004FF043021A704FF0440000F00DFC45F69403C4F200034FF058021A7045F69503C4F200034FF000021A7045F69A03C4F200034FF002021A7045F69B03C4F2000364
:401E00004FF002021A7045F69C03C4F200034FF000021A7045F69D03C4F200034FF000021A7048F25413C1F6FF734FF47A221A604FF023004FF0010100F09CFC4FF09100FA
:401E40004FF0010100F0C4FD4FF01D0042F29161C0F20001FFF784FAFB79022B40F0DC804FF49C43C4F200034FF038021A7044F60263C4F200034FF004021A7044F60363F5
:401E8000C4F200034FF007021A7044F60463C4F200034FF000021A7044F60563C4F200034FF000021A7044F60663C4F200034FF03F021A7044F60863C4F200034FF0000247
:401EC0001A7044F60963C4F200034FF000021A7044F60A63C4F200034FF000021A7044F61463C4F200034FF001021A7045F68403C4F200034FF050021A7045F68503C4F2BE
:401F000000034FF027021A7045F68603C4F200034FF02C021A7045F68703C4F200034FF000021A7045F68A03C4F200034FF055021A7045F68B03C4F200034FF05A021A70A7
:401F400045F68C03C4F200034FF005021A7045F68E03C4F200034FF001021A7045F68F03C4F200034FF011021A7045F69003C4F200034FF019021A7045F69103C4F2000368
:401F80004FF097021A704FF0440000F02DFB45F69403C4F200034FF058021A7045F69503C4F200034FF000021A7045F69A03C4F200034FF002021A7045F69B03C4F200032F
:401FC0004FF002021A7045F69C03C4F200034FF000021A7045F69D03C4F200034FF000021A7048F25413C1F6FF734FF4FA421A604FF008004FF0010100F0BCFB4FF0250001
:402000004FF0010100F0E4FC4FF01D0042F29D61C0F20001FFF7A4F9FB79032B40F0DC804FF49C43C4F200034FF038021A7044F60263C4F200034FF004021A7044F60363E8
:40204000C4F200034FF007021A7044F60463C4F200034FF000021A7044F60563C4F200034FF000021A7044F60663C4F200034FF03F021A7044F60863C4F200034FF0000285
:402080001A7044F60963C4F200034FF000021A7044F60A63C4F200034FF000021A7044F61463C4F200034FF001021A7045F68403C4F200034FF050021A7045F68503C4F2FC
:4020C00000034FF027021A7045F68603C4F200034FF02C021A7045F68703C4F200034FF000021A7045F68A03C4F200034FF055021A7045F68B03C4F200034FF05A021A70E6
:4021000045F68C03C4F200034FF005021A7045F68E03C4F200034FF001021A7045F68F03C4F200034FF011021A7045F69003C4F200034FF019021A7045F69103C4F20003A6
:402140004FF097021A704FF0440000F04DFA45F69403C4F200034FF058021A7045F69503C4F200034FF000021A7045F69A03C4F200034FF005021A7045F69B03C4F200034B
:402180004FF001021A7045F69C03C4F200034FF000021A7045F69D03C4F200034FF00A021A7048F25413C1F6FF734FF4FA421A604FF008004FF0010100F0DCFA4FF0250017
:4021C0004FF0010100F004FC4FF01D0042F2A961C0F20001FFF7C4F8FB79042B40F0DC804FF49C43C4F200034FF038021A7044F60263C4F200034FF004021A7044F60363DB
:40220000C4F200034FF007021A7044F60463C4F200034FF000021A7044F60563C4F200034FF000021A7044F60663C4F200034FF03F021A7044F60863C4F200034FF00002C3
:402240001A7044F60963C4F200034FF000021A7044F60A63C4F200034FF000021A7044F61463C4F200034FF001021A7045F68403C4F200034FF050021A7045F68503C4F23A
:4022800000034FF027021A7045F68603C4F200034FF02C021A7045F68703C4F200034FF000021A7045F68A03C4F200034FF055021A7045F68B03C4F200034FF05A021A7024
:4022C00045F68C03C4F200034FF005021A7045F68E03C4F200034FF001021A7045F68F03C4F200034FF011021A7045F69003C4F200034FF019021A7045F69103C4F20003E5
:402300004FF097021A704FF0440000F06DF945F69403C4F200034FF058021A7045F69503C4F200034FF000021A7045F69A03C4F200034FF005021A7045F69B03C4F200036A
:402340004FF001021A7045F69C03C4F200034FF000021A7045F69D03C4F200034FF00A021A7048F25413C1F6FF734FF4FA421A604FF008004FF0010100F0FCF94FF0250036
:402380004FF0010100F024FB4FF01D0042F2B561C0F20001FEF7E4FF07F10807BD4680BD80B582B000AF02460B46FA71BB71FB79002B42D0FB79042B3FD848F23E13C1F662
:4023C000FF731B78002B06D148F23F13C1F6FF734FF001021A7048F21C13C1F6FF73FA791A70FFF713FAFB791846FFF749FC44F60E63C4F20003FA7902F1FF3248F2401130
:40240000C1F6FF714FEA82028A1892781A7044F60C63C4F20003FA7902F1FF3148F24012C1F6FF7232F821201A80BB79012B08D1FFF7CEF9FFF7FAFA03E04FF00000FEF7DA
:402440004BFF07F10807BD4680BD00BF80B586B000AFF871B9807A80BB7197F82030002B00F0BA8097F82030042B00F2B580FB7903F1FF33092B63D801A252F823F000BFF9
:40248000A92400004125000041250000A92400004125000041250000CF240000F5240000412500001B250000BB790F2B07D94FF48C73C4F600131B78DBB2FB7544E04FF4E4
:4024C0008E73C4F600131B78DBB2FB753CE0BB790F2B07D940F21913C4F600131B78DBB2FB7531E040F21D13C4F600131B78DBB2FB7529E0BB790F2B07D94FF48D73C4F635
:4025000000131B78DBB2FB751EE04FF48F73C4F600131B78DBB2FB7516E0BB790F2B07D940F21B13C4F600131B78DBB2FB750BE040F21F13C4F600131B78DBB2FB7503E0C8
:402540004FF00003FB7500BFBA8897F917304FEA4313D3183B617B883A6902FB03F3FB60FB684FEAD333BB82BB790D2B1AD8BA8ABB796FEA030303F10F0342FA03F3BB823E
:4025800097F8203003F1FF33BA7902F10102D1B248F24012C1F6FF724FEA8303D3180A469A700DE097F8203003F1FF3348F24012C1F6FF724FEA8303D3184FF00F029A7008
:4025C00097F8203003F1FF3248F24013C1F6FF73B98A23F8221003E04FF00000FEF77CFE07F11807BD4680BD80B584B000AF0346FB71FEF767FE0346FB7344F2F863C4F284
:40260000000344F2F862C4F200021278D2B242F00302D2B21A7044F2F963C4F2000344F2F962C4F200021278D2B242F00302D2B21A7045F69203C4F20003FA791A704FF050
:402640000300FEF779FE44F2F863C4F2000344F2F862C4F200021278D2B222F00302D2B21A7044F2F963C4F2000344F2F962C4F200021278D2B222F00302D2B21A70FB7BE9
:402680001846FEF723FE07F11007BD4680BD00BF80B400AFBD4680BC704700BF80B400AFBD4680BC704700BF80B400AFBD4680BC704700BF80B400AFBD4680BC704700BF38
:4026C00080B582B000AF4FF00003FB710BE0FB791846FEF775F8FB791846FEF703F9FB7903F10103FB71FB79012BF0D948F21D13C1F6FF734FF0FF021A7007F10807BD468C
:4027000080BD00BF80B582B000AF0346FB7148F21D13C1F6FF731B78FF2B07D048F21D13C1F6FF731B78184600F012F8FB791846FEF700F8FB791846FEF78EF848F21D13B7
:40274000C1F6FF73FA791A7007F10807BD4680BD80B582B000AF0346FB71FB791846FEF72FF8FB791846FEF7BDF807F10807BD4680BD00BF80B584B000AF02460B46FA8086
:402780007B7100F015F90346FB7300F0E7F80346BB81FA88BB899A4200F0DC8044F2A233C4F200031B78DBB203F00103FB72FB7B002B32D1BB89002B02D0FB88002B2CD15E
:4027C000BB89002B14D14FF48143C4F20003FA881A8044F28203C4F2000344F28202C4F200021278D2B222F04002D2B21A70B1E044F28203C4F2000344F28202C4F20002DC
:402800001278D2B242F04002D2B21A704FF48143C4F20003FA881A809CE0FB7A002B5CD044F20103C4F200034FF000021A7044F21003C4F200034FF001021A7044F214030B
:40284000C4F200034FF000021A7044F20803C4F2000344F20802C4F200021278D2B202F07F02D2B21A7044F28203C4F200031B78DBB203F00803002B02D0FB88002B2CD119
:4028800044F20203C4F20003BA891A8044F20103C4F200034FF007021A7000BF44F20103C4F200031B78DBB203F00103002BF5D144F2A233C4F2000344F2A232C4F2000242
:4028C0001278D2B222F00102D2B21A7044F20103C4F200034FF000021A7044F2A233C4F200031B78DBB203F00103002B1ED044F20203C4F20003FA881A8044F20103C4F2F5
:4029000000037A79002A02D04FF0030201E04FF001021A7000BF44F20103C4F200031B78DBB203F00103002BF5D113E04FF48143C4F20003FA881A8044F2A233C4F2000367
:4029400044F2A232C4F200021278D1B2FA7A0A43D2B21A7007F11007BD4680BD80B400AF4FF48143C4F200031B889BB21846BD4680BC704780B483B000AF0346FB7144F282
:402980008203C4F2000344F28202C4F200021278D2B2D1B2FA7922F00702D2B20A43D2B2D2B21A7007F10C07BD4680BC704700BF80B400AF44F28203C4F200031B78DBB2AE
:4029C00003F00703DBB21846BD4680BC704700BF80B584B000AF02460B46FA807B7100F015F90346FB7300F0E7F80346BB81FA88BB899A4200F0DC8044F2A133C4F2000369
:402A00001B78DBB203F00103FB72FB7B002B32D1BB89002B02D0FB88002B2CD1BB89002B14D14FF48243C4F20003FA881A8044F20213C4F2000344F20212C4F200021278C1
:402A4000D2B222F04002D2B21A70B1E044F20213C4F2000344F20212C4F200021278D2B242F04002D2B21A704FF48243C4F20003FA881A809CE0FB7A002B5CD044F20103EA
:402A8000C4F200034FF000021A7044F21403C4F200034FF001021A7044F21003C4F200034FF000021A7044F20803C4F2000344F20802C4F200021278D2B202F07F02D2B2FC
:402AC0001A7044F20213C4F200031B78DBB203F00803002B02D0FB88002B2CD144F20203C4F20003BA891A8044F20103C4F200034FF007021A7000BF44F20103C4F200033A
:402B00001B78DBB203F00103002BF5D144F2A133C4F2000344F2A132C4F200021278D2B222F00102D2B21A7044F20103C4F200034FF000021A7044F2A133C4F200031B78C4
:402B4000DBB203F00103002B1ED044F20203C4F20003FA881A8044F20103C4F200037A79002A02D04FF0030201E04FF001021A7000BF44F20103C4F200031B78DBB203F010
:402B80000103002BF5D113E04FF48243C4F20003FA881A8044F2A133C4F2000344F2A132C4F200021278D1B2FA7A0A43D2B21A7007F11007BD4680BD80B400AF4FF48243B6
:402BC000C4F200031B889BB21846BD4680BC704780B483B000AF0346FB7144F20213C4F2000344F20212C4F200021278D2B2D1B2FA7922F00702D2B20A43D2B2D2B21A7085
:402C000007F10C07BD4680BC704700BF80B400AF44F20213C4F200031B78DBB203F00703DBB21846BD4680BC704700BF80B500AF44F6D613C4F200034FF002021A7044F669
:402C4000C813C4F200034FF081021A7044F6DB13C4F200034FF00F021A7044F6DC13C4F200034FF000021A704EF28013CEF200034FF400421A604FF00F004FF00701FEF7ED
:402C80009FFB4FF00F0042F64151C0F20001FEF767FB48F25C13C1F6FF734FF010021A7000F090FC00F0A8FC00F074FC80BD00BF80B582B000AFFEF705FB0346FB7144F249
:402CC000A533C4F2000344F2A532C4F200021278D2B242F00402D2B21A7044F2B533C4F2000344F2B532C4F200021278D2B242F00402D2B21A70FB791846FEF7E7FA07F18A
:402D00000807BD4680BD00BF80B500AF48F25013C1F6FF731B78002B08D1FFF787FF48F25013C1F6FF734FF001021A70FFF7C0FF4FF46143CEF200034FF400421A6080BD9B
:402D400080B582B000AF44F6D713C4F200031B78FB7148F25C13C1F6FF731B78DBB203F04003DBB2002B00F0A082FB7903F00103002B00F0638248F25C13C1F6FF731B789F
:402D8000DBB2A3F14503052B00F2538201A252F823F000BFAD2D0000A32F00003332000033320000AD2D00004B310000FB7923F02003FB71FB7903F00A03DBB2082B40F0AE
:402DC000858048F25C13C1F6FF731B78DBB2452B6DD148F26513C1F6FF731B78DBB2002B21D044F6D813C4F2000348F26012C1F6FF7212681278D2B21A7044F6D713C4F279
:402E000000034FF004021A7048F26913C1F6FF734FF001021A7048F25C13C1F6FF734FF046021A700AE248F26713C1F6FF731B78DBB203F00203002B1CD048F26413C1F6D2
:402E4000FF731B78DBB243F00A03DAB248F26413C1F6FF731A7048F25C13C1F6FF734FF060021A704EF28013CEF200034FF400421A60E3E144F6D613C4F2000344F6D6123C
:402E8000C4F200021278D2B242F01002D2B21A7044F6D913C4F200034FF010021A7044F6D713C4F200034FF004021A70C6E144F6D713C4F200034FF000021A7048F25C139C
:402EC000C1F6FF734FF04A021A70B7E1FB7903F00A03DBB20A2B5FD148F26413C1F6FF731B78DBB263F05F03DAB248F26413C1F6FF731A7048F26713C1F6FF731B78DBB2FA
:402F000003F00203002B2AD048F25C13C1F6FF731B78DBB203F00803002B02D04FF0090201E04FF00A0248F26413C1F6FF731B78DBB21343DAB248F26413C1F6FF731A70D1
:402F400048F25C13C1F6FF734FF060021A704EF28013CEF200034FF400421A606EE144F6D613C4F2000344F6D612C4F200021278D2B242F01002D2B21A7044F6D913C4F27E
:402F800000034FF010021A7044F6D713C4F200034FF004021A7051E14FF00000FEF79CF94CE1FB7903F00203002B7CD148F26913C1F6FF731B78DAB248F26513C1F6FF73A2
:402FC0001B78DBB29A4228D244F6D813C4F2000348F26012C1F6FF72116848F26912C1F6FF721278D2B28A181278D2B21A7044F6D713C4F200034FF004021A7048F2691329
:40300000C1F6FF731B78DBB203F10103DAB248F26913C1F6FF731A7010E148F26713C1F6FF731B78DBB203F00203002B1CD048F26413C1F6FF731B78DBB243F00A03DAB297
:4030400048F26413C1F6FF731A7048F25C13C1F6FF734FF060021A704EF28013CEF200034FF400421A60E9E000F0E0FA44F6D613C4F2000344F6D612C4F200021278D2B203
:4030800042F01002D2B21A7044F6D913C4F200034FF010021A7044F6D713C4F200034FF004021A70CAE048F26713C1F6FF731B78DBB203F00203002B1CD048F26413C1F63A
:4030C000FF731B78DBB263F06503DAB248F26413C1F6FF731A7048F25C13C1F6FF734FF060021A704EF28013CEF200034FF400421A60A3E044F6D613C4F2000344F6D61280
:40310000C4F200021278D2B242F01002D2B21A7044F6D913C4F200034FF010021A7044F6D713C4F200034FF004021A7048F26413C1F6FF731B78DBB263F06F03DAB248F28C
:403140006413C1F6FF731A7078E048F26C13C1F6FF731A6848F26813C1F6FF731B78DBB2D21844F6D813C4F200031B78DBB2137048F26813C1F6FF731B78DBB203F101030A
:40318000DAB248F26813C1F6FF731A7048F26813C1F6FF731B78DAB248F26613C1F6FF731B78DBB29A4207D244F6D713C4F200034FF010021A7041E048F26713C1F6FF73B7
:4031C0001B78DBB203F00203002B1CD048F26413C1F6FF731B78DBB243F00903DAB248F26413C1F6FF731A7048F25C13C1F6FF734FF060021A704EF28013CEF200034FF4A1
:4032000000421A601AE044F6D613C4F2000344F6D612C4F200021278D2B242F01002D2B21A7044F6D713C4F200034FF000021A7004E04FF00000FEF74FF800BFFB7903F095
:403240002003002B43D048F25C13C1F6FF731B78DBB203F00803002B02D04FF0010201E04FF0020248F26413C1F6FF731B78DBB21343DAB248F26413C1F6FF731A7044F620
:40328000D613C4F2000344F6D612C4F200021278D2B222F01002D2B21A7048F25C13C1F6FF734FF010021A7011E048F25C13C1F6FF731B78DBB203F01003DBB2002B06D12D
:4032C00048F25C13C1F6FF734FF010021A7007F10807BD4680BD00BF80B485B000AF02460B46FA71BB714FF00203FB7348F25C13C1F6FF731B78DBB2102B5FD144F6D9139E
:40330000C4F200031B78DBB203F00803002B52D14EF28013CEF200034FF400421A60FB794FEA4303FB71BB79002B0BD0FB7943F00103FB7148F25C13C1F6FF734FF04902C7
:403340001A7006E048F25C13C1F6FF734FF045021A7044F6D813C4F20003FA791A7044F6D913C4F200034FF001021A7000BF44F6D713C4F200031B78DBB203F00103002B97
:40338000F5D044F6D713C4F200031B78DBB203F00A03DBB20A2B0AD148F25C13C1F6FF734FF010021A704FF00303FB7306E04FF00003FB7302E04FF00103FB73FB7B184651
:4033C00007F11407BD4680BC704700BF80B483B000AF4FF00203FB7144F6D913C4F200031B78DBB203F00403002B22D044F6D913C4F200034FF010021A7044F6D713C4F295
:4034000000034FF004021A7048F25C13C1F6FF734FF010021A7000BF44F6D713C4F200031B78DBB203F02103002BF5D04FF00003FB71FB79184607F10C07BD4680BC7047C9
:4034400080B485B000AF0346FB714FF00203FB7344F6D913C4F200031B78DBB203F00403002B3DD044F6D813C4F20003FA791A7044F6D713C4F200034FF004021A7048F2DB
:403480005C13C1F6FF734FF046021A7000BF44F6D713C4F200031B78DBB203F00103002BF5D044F6D713C4F200031B78DBB203F00203002B0AD148F25C13C1F6FF734FF0B4
:4034C00060021A704FF00003FB7309E048F25C13C1F6FF734FF060021A704FF00303FB73FB7B184607F11407BD4680BC704700BF80B485B000AF0346FB714FF00003FB737E
:4035000044F6D913C4F200031B78DBB203F00403002B38D048F25C13C1F6FF731B78DBB2492B0DD148F25C13C1F6FF734FF04A021A7044F6D713C4F200034FF000021A708C
:4035400000BF44F6D713C4F200031B78DBB203F00103002BF5D044F6D813C4F200031B78FB73FB79002B07D044F6D713C4F200034FF010021A7006E048F25C13C1F6FF73E3
:403580004FF060021A70FB7B184607F11407BD4680BC704780B483B000AF48F26413C1F6FF731B78FB7148F26413C1F6FF734FF000021A70FB79184607F10C07BD4680BC53
:4035C000704700BF80B400AF48F26813C1F6FF734FF000021A7048F26413C1F6FF731B78DBB223F00103DAB248F26413C1F6FF731A70BD4680BC704780B400AF48F2691339
:40360000C1F6FF734FF000021A7048F26413C1F6FF731B78DBB223F00203DAB248F26413C1F6FF731A70BD4680BC704780B400AFBD4680BC704700BF80B500AF4FF02800BB
:40364000FDF756FE4FF0030000F052FA4FF00500FDF74EFE4FF0030000F04AFA4FF00F00FDF746FE4FF0030000F042FA4FF00100FDF73EFE4FF0020000F03AFA4FF005007D
:40368000FDF736FE4FF0060000F0BAF84FF00E0000F0B6F84FF02C0000F0B2F84FF0080000F0AEF84FF0010000F0AAF84FF00C0000F0A6F84FF0030000F0A2F84FF0050073
:4036C000FDF716FE80BD00BF80B500AF4FF00C0000F096F848F25113C1F6FF734FF001021A7080BD80B500AF48F25213C1F6FF731B78002B08D1FFF79FFF48F25213C1F61C
:40370000FF734FF001021A70FFF7DEFF80BD00BF80B582B000AF02460B46FA71BB71FB79032B2BD801A252F823F000BF3D3700004D3700005D3700006D370000BB79A3F1DA
:403740008003DBB2184600F05BF818E0BB79A3F14003DBB2184600F053F810E0BB79A3F16C03DBB2184600F04BF808E0BB79A3F12C03DBB2184600F043F800E000BF07F19E
:403780000807BD4680BD00BF80B584B000AF78604FF00103FB737B681B78BB730CE0BB7B184600F011F8FB7B7A68D3181B78BB73FB7B03F10103FB73BB7B002BEFD107F144
:4037C0001007BD4680BD00BF80B584B000AF0346FB7100F031F8FB794FEA1313FB73FB7B184600F02DF9FB7903F00F03FB73FB7B184600F025F907F11007BD4680BD00BFCB
:4038000080B584B000AF0346FB7100F015F8FB794FEA1313FB73FB7B184600F069F9FB7903F00F03FB73FB7B184600F061F907F11007BD4680BD00BF80B582B000AF45F2F7
:403840002013C4F2000345F22012C4F200021278D2B222F07F02D2B21A7045F22213C4F200031B78DBB223F00F03FB7145F22213C4F20003FA7942F00F02D2B21A7045F296
:403880002313C4F200031B78DBB223F00F03FB7145F22313C4F20003FA791A7045F22413C4F200031B78DBB223F00F03FB7145F22413C4F20003FA791A7045F22013C4F229
:4038C000000345F22012C4F200021278D2B222F02002D2B21A7045F22013C4F2000345F22012C4F200021278D2B242F04002D2B21A704FF00000FDF71FFD45F22013C4F211
:40390000000345F22012C4F200021278D2B242F01002D2B21A704FF00100FDF70DFD45F22113C4F200031B78FB7145F22013C4F2000345F22012C4F200021278D2B222F03E
:403940001002D2B21A704FF00000FDF7F5FCFB7903F00803FB7145F22013C4F2000345F22012C4F200021278D2B242F01002D2B21A704FF00100FDF7DFFC45F22013C4F252
:40398000000345F22012C4F200021278D2B222F01002D2B21A70FB79002BAAD145F22013C4F2000345F22012C4F200021278D2B222F04002D2B21A7045F22013C4F20003B2
:4039C00045F22012C4F200021278D2B222F07F02D2B21A7045F22213C4F2000345F22212C4F200021278D2B222F00F02D2B21A7045F22313C4F200031B78DBB223F00F0305
:403A0000FB7145F22313C4F20003FA7942F00F02D2B21A7045F22413C4F200031B78DBB223F00F03FB7145F22413C4F20003FA7942F00F02D2B21A7007F10807BD4680BD26
:403A400080B582B000AF0346FB71FFF7F5FE45F22013C4F2000345F22012C4F200021278D2B242F02002D2B21A7045F22013C4F2000345F22012C4F200021278D2B222F07A
:403A80004002D2B21A7045F22013C4F2000345F22012C4F200021278D2B222F00F02D2B21A7045F22013C4F2000345F22012C4F200021278D1B2FA790A43D2B242F010025A
:403AC000D2B21A704FF00100FDF736FC45F22013C4F2000345F22012C4F200021278D2B222F01002D2B21A7007F10807BD4680BD80B582B000AF0346FB7145F22013C4F29C
:403B0000000345F22012C4F200021278D2B222F06002D2B21A7045F22013C4F2000345F22012C4F200021278D2B222F00F02D2B21A7045F22013C4F2000345F22012C4F20C
:403B400000021278D1B2FA790A43D2B242F01002D2B21A704FF00100FDF7EEFB45F22013C4F2000345F22012C4F200021278D2B222F01002D2B21A7007F10807BD4680BDB8
:403B800080B586B000AF0346FB804FF00003FB7528E0F87DFA884CF6CD43CCF6CC43A3FB02134FEAD3010B464FEA83035B184FEA4303D31A9BB2DBB203F13003DAB207F11F
:403BC00018010B1803F8102CFA884CF6CD43CCF6CC43A3FB02134FEAD303FB80FB7D03F10103FB75FB88092BD3D8F87DFA884CF6CD43CCF6CC43A3FB02134FEAD3010B4603
:403C00004FEA83035B184FEA4303D31A9BB2DBB203F13003DAB207F118010B1803F8102CFB7DBB7511E0BA7DFB7DD31AFA7D07F118018A1812F8102C07F11801CB1803F85A
:403C4000082CFB7D03F1FF33FB75FB7D002BEAD1BB7D3A7A07F11801CB1803F8082CBB7D03F1010307F11802D3184FF0000203F8082C07F110031846FFF786FD07F11807FF
:403C8000BD4680BD80F0004002E000BF81F0004142001FBF5FEA410392EA030F7FEA226C7FEA236C6AD04FEA1262D2EB1363C1BFD218414048404140B8BF5B42192B88BFEA
:403CC000704710F0004F40F4000020F07F4018BF404211F0004F41F4000121F07F4118BF494292EA030F3FD0A2F1010241FA03FC10EB0C00C3F1200301FA03F100F000433C
:403D000002D5494260EB4000B0F5000F13D3B0F1807F06D340084FEA310102F10102FE2A51D2B1F1004F40EBC25008BF20F0010040EA03007047490040EB000010F4000F1E
:403D4000A2F10102EDD1B0FA80FCACF1080CB2EB0C0200FA0CF0AABF00EBC25052421843BCBFD0401843704792F0000F81F4000106BF80F400000132013BB5E74FEA4103BD
:403D80007FEA226C18BF7FEA236C21D092EA030F04D092F0000F08BF0846704790EA010F1CBF0020704712F07F4F04D1400028BF40F00040704712F100723CBF00F50000F9
:403DC000704700F0004343F0FE4040F4000070477FEA226216BF08467FEA23630146420206BF5FEA412390EA010F40F4800070474FF0000304E000BF10F0004348BF4042DB
:403E00005FEA000C08BF704743F0964301464FF000001CE050EA010208BF70474FF000030AE000BF50EA010208BF704711F0004302D5404261EB41015FEA010C02BF8446B4
:403E40000146002043F0B64308BFA3F18053A3F50003BCFA8CF2083AA3EBC25310DB01FA02FC634400FA02FCC2F12002BCF1004F20FA02F243EB020008BF20F001007047AC
:403E800002F1200201FA02FCC2F1200250EA4C0021FA02F243EB020008BF20EADC7070474FF0FF0C1CEAD0521EBF1CEAD15392EA0C0F93EA0C0F6FD01A4480EA010C400288
:403EC00018BF5FEA41211ED04FF0006343EA501043EA5111A0FB01310CF00040B1F5000F3EBF490041EAD3715B0040EA010062F17F02FD2A1DD8B3F1004F40EBC25008BFB4
:403F000020F00100704790F0000F0CF0004C08BF49024CEA502040EA51207F3AC2BFD2F1FF0340EAC250704740F400004FF00003013A5DDC12F1190FDCBF00F00040704706
:403F4000C2F10002410021FA02F1C2F1200200FA02FC5FEA310040F1000053EA4C0308BF20EADC70704792F0000F00F0004C02BF400010F4000F013AF9D040EA0C0093F0C7
:403F8000000F01F0004C02BF490011F4000F013BF9D041EA0C018FE70CEAD15392EA0C0F18BF93EA0C0F0AD030F0004C18BF31F0004CD8D180EA010000F00040704790F0BF
:403FC000000F17BF90F0004F084691F0000F91F0004F14D092EA0C0F01D142020FD193EA0C0F03D14B0218BF084608D180EA010000F0004040F0FE4040F40000704740F013
:40400000FE4040F4400070474FF0FF0C1CEAD0521EBF1CEAD15392EA0C0F93EA0C0F69D0A2EB030280EA010C49024FEA402037D04FF0805343EA111143EA10130CF0004055
:404040008B4238BF5B0042F17D024FF4000C8B4224BF5B1A40EA0C00B3EB510F24BFA3EB510340EA5C00B3EB910F24BFA3EB910340EA9C00B3EBD10F24BFA3EBD10340EA86
:40408000DC001B0118BF5FEA1C1CE0D1FD2A3FF650AF8B4240EBC25008BF20F0010070470CF0004C4CEA50207F32C2BFD2F1FF0340EAC250704740F400004FF00003013A82
:4040C00037E792F0000F00F0004C02BF400010F4000F013AF9D040EA0C0093F0000F01F0004C02BF490011F4000F013BF9D041EA0C0195E70CEAD15392EA0C0F08D1420213
:404100007FF47DAF93EA0C0F7FF470AF084676E793EA0C0F04D14B023FF44CAF08466EE730F0004C18BF31F0004CCAD130F000427FF45CAF31F000437FF43CAF5FE700BF8E
:404140004FEA4002B2F1FE4F0FD34FF09E03B3EB12620DD94FEA002343F0004310F0004F23FA02F018BF404270474FF00000704712F1610F01D1420205D110F0004008BF7E
:404180006FF0004070474FF00000704738B50E4D0E4B0024E81A8510AC4205D00B4951F8242090470134F7E700F0B6F80849094A541AA5100024AC4205D0054B53F82400BE
:4041C00080470134F7E738BD2443000024430000244300002C43000010B50023934203D0CC5CC4540133F9E710BD82180346934202D003F8011BFAE7704700000000000062
:4042000054656D703A2000006D510040005B0040005B00402443004040040100805A0040045B0040805A0040045B004001020102C84900401900005100402000305100401A
:404240003000F0510040100000000140001000140140000800400140000A004C01400002005001402000000060520040A8000048060000000000000000000000B641E6FF40
:404280000D47280024820200B7446A0296B6F0FFEF41000089359BFAB9AC8BFF721FE5FF8444BC0BF657EAFC4B912401A7F66AF2BA327DF5562C78FAEB5B1E08831C06EC46
:4042C0002EDC770E1FA01EFEA16642ECF8EEA8EA00000000CC36F7F7C9ADC210000000000000000009A688FA000000000000000027500600AC45010079E6FDFF08A01000BC
:404300004BBF67FF48C8980299994BFAF24E02050D0F100007010700F8B500BFF8BC08BC9E4670475100000099030000F8B500BFF8BC08BC9E4670472D00000050430000BF
:404340000881FF1F1800000050000000000000000000000000366E01C05D0000180000000000E02E01FF000000000000000000000000000000000000000000000000000046
:4043800000000000000000000000000000000000000000000000000000000000000000000000000000000000000000000000000000000000000000000000000000000000FD
:4043C00000000000000000000000000000000000000000000000000000000000000000000000000000000000000000000000000000000000000000000000000000000000BD
:40440000000000000000000000000000000000000000000000000000000000000000000000000000000000000000000000000000000000000000000000000000000000007C
:40444000000000000000000000000000000000000000000000000000000000000000000000000000000000000000000000000000000000000000000000000000000000003C
:020000040003F7
:0200000480007A
:4000000001090140040A0140010B014002150140021B01400242014001430140054401400245014004460140044701400348014003490140094C0140084D01400151014018
:40004000B502B802BE01D804DF011D02EA01EC10EA01EC103E10CE209610101014207C01C40CDE0194019830450894019830D0019830A508B401EC0825109610C820AA10D2
:40008000B510EA8010401320148078107C209830A508C40EDE0378407C8098C0AB20B508DC01DE04EC0803C02030000030000000300000003000300000000000007F7F0096
:4000C0000000000000000000000041009200180100000000000000000000000000000000000000000000000000000000000000000000000000000000000000000000000014
:4001000000000000000000000000000000000000000000000000000000000000000000000000000000000000000000000000000000000000000000000000000000000000BF
:40014000000000000000000000000000000000000000000000000000000000000000000000000000000000000000000000000000000000000000000000000000000000007F
:40018000000000000000000000000000000000000000000000000000000000000000000000000000000000000000000000000000000000000000000000000000000000003F
:4001C00000000000000000000000000000000000000000000000000000000000000000000000000000000000000000000000000000000000000000000000000000000000FF
:0200000490006A
:0400000000004005B7
:0200000490105A
:04000000BC90ACAF55
:0200000490303A
:020000000F7D72
:0200000490402A
:4000000000000000000000000000000000000000000000000000000000000000000000000000000000000000000000000000000000000000000000000000000000000000C0
:400040000000000000000000000000000000000000000000000000000000000000000000000000000000000000000000000000000000000000000000000000000000000080
:400080000000000000000000000000000000000000000000000000000000000000000000000000000000000000000000000000000000000000000000000000000000000040
:4000C0000000000000000000000000000000000000000000000000000000000000000000000000000000000000000000000000000000000000000000000000000000000000
:0200000490501A
:0C00000000012E12306900012E303FE696
:00000001FF