:400000000080002011000000410900004109000080B500AF47F2BC63C4F2000344F2FA62C4F2000212681A6000F08EFC10B5054C237833B9044810B10448AFF30080012194
:40004000217010BD8881FF1F000000000C40000008B5064B1BB106480649AFF300800648016811B1054A02B1904708BD000000000C4000008C81FF1F0881FF1F00000000E1
:400080002DE9F047B0B006AF01F0F4FA02F01EFB02F066FB62B642F2107001F095F807F10C03184600F074F83B46184600F0AAFBFB68184603F046FB05463B69184603F0ED
:4000C00041FB04467B69184603F03CFB8246BB69184603F037FB8146FB69184602F080FD02460B461046194627A3D3E9002302F017FC02460B46104619464FF000024FF0DD
:400100000003C4F2590302F0BFFD02460B461046194602F0CBFF80463B6818464FF00001C4F2C82103F048F90346184603F00AFB06467B6818464FF00001C4F2C82103F01A
:400140003BF90346184603F0FDFA024607F12403CDF800A0CDF80490CDF8088003960492184644F21001C0F200012A46234603F047FB07F12403184602F088FB4FF000037F
:4001800087F8A7308BE700BF66666666661271402DE9B0438EB000AF78604FF0040002F0B7FA4FF002004FF0010101F0AFFE01F08FFB4FF0640001F007F84FF0000387F854
:4001C000373021E04FF0000001F0AAFB0346002B10D001F0CFFB0346184601F037FC03463B63386B03F094F80346FB604FF001033B750DE04FF0050000F0E6FF97F837304C
:4002000003F1010387F8373097F83730632BD9D901F072FB4FF0050002F07AFA4FF002004FF0010101F072FE01F052FB4FF0640000F0CAFF4FF0000387F8373021E04FF0BD
:40024000000001F06DFB0346002B10D001F092FB0346184601F0FAFB03463B63386B03F057F803463B614FF001037B750DE04FF0050000F0A9FF97F8373003F1010387F8AC
:40028000373097F83730632BD9D9FB6818464FF00001C4F2C42103F08FF803461A463B691046194603F03CF903461A4648F2BC13C1F6FF731A6048F2BC13C1F6FF731B6857
:4002C000184600F0F5F90346184602F089FC02460B4610461946A2A3D3E9002302F022FB02460B461046194602F008FF0346BB6201F0DEF94FF0000002F00AFA01F0BAF9D5
:400300004FF001004FF0010101F000FE01F0E0FA4FF0640000F058FF4FF0000387F8373034E04FF0000001F0FBFA0346002B23D001F020FB0346184601F0AAFB3863386B49
:4003400002F0E6FF0346184602F04AFC02460B461046194684A3D3E9002302F0BFFD02460B461046194602F0C9FE0346BB614FF0010387F82C300DE04FF0050000F024FFF7
:4003800097F8373003F1010387F8373097F83730632BC6D901F0B0FA4FF0010002F0B8F901F096FA4FF0640000F00EFF4FF0000387F8373034E04FF0000001F0B1FA034647
:4003C000002B23D001F0D6FA0346184601F060FB3863386B02F09CFF0346184602F000FC02460B461046194661A3D3E9002302F075FD02460B461046194602F07FFE034630
:40040000FB614FF0010387F82D300DE04FF0050000F0DAFE97F8373003F1010387F8373097F83730632BC6D901F066FA4FF0020002F06EF901F04CFA4FF0640000F0C4FEDA
:400440004FF0000387F8373075E04FF0000001F067FA0346002B64D001F08CFA0346184601F016FB3863386B02F052FF0346184602F0B6FB02460B46104619463EA3D3E9F0
:40048000002302F02BFD02460B4614461D46BB6A184602F0A5FB02460B461046194638A3D3E9002302F0F0FB02460B4690469946BB6A184602F094FB02460B4640464946AF
:4004C00002F0E2FB02460B4690469946BB6A184602F086FB02460B464046494602F0D4FB02460B4690469946BB6A184602F078FB02460B464046494602F0C6FB02460B464A
:400500002046294602F00EFA02460B461046194602F0F4FD03463B624FF0010387F82E300DE04FF0050000F04FFE97F8373003F1010387F8373097F83730632B85D901F0A0
:40054000DBF94FF0030002F0E3F801F0C1F94FF0640000F039FE4FF0000387F8373089E0666666666612714048E17A14AE873140713D0AD7A3B034406666666666E62940D1
:400580009C6ABEE5C9706E3E4FF0000001F0C8F90346002B64D001F0EDF90346184601F077FA3863386B02F0B3FE0346184602F017FB02460B461046194639A3D3E900239F
:4005C00002F08CFC02460B4614461D46BB6A184602F006FB02460B461046194632A3D3E9002302F051FB02460B4690469946BB6A184602F0F5FA02460B464046494602F023
:4006000043FB02460B4690469946BB6A184602F0E7FA02460B464046494602F035FB02460B4690469946BB6A184602F0D9FA02460B464046494602F027FB02460B462046B1
:40064000294602F06FF902460B461046194602F055FD03467B624FF0010387F82F300DE04FF0050000F0B0FD97F8373003F1010387F8373097F83730632B85D901F03CF92E
:400680007B681C4607F118050FCD0FC495E8030084E80300786807F13807BD46BDE8B083EC51B81E856B26409C6ABEE5C9706E3EB0B5AAB000AF786044F22803C0F20003FD
:4006C00007F10C011A464FF09003084611461A4603F084F86FF03103C7F8A4304FF00003C7F8A0304FF00003C7F89C30FB681846796802F0FFFF0346002B74D177E0D7F81A
:40070000A4306D2B09DDD7F8A4306E2B02DD4FF0320301E04FF0280301E04FF00503C7F89C30D7F8A03003F10103C7F8A030D7F8A0304FEA830307F1A801CB1853F89C3CAF
:400740001846796802F0F4FF0346002B44D0D7F8A40002F0DDFD0446D7F8A03003F1FF334FEA830307F1A802D31853F89C3C7868194602F017FD03461D46D7F89C0002F0C2
:40078000C7FD03462846194602F016FE03461D46D7F8A0304FEA830307F1A801CB1853F89C2CD7F8A03003F1FF334FEA830307F1A801CB1853F89C3C1046194602F0F2FCF8
:4007C00003462846194602F0ABFE03462046194602F0EAFC03460FE0D7F8A420D7F89C30D318C7F8A430D7F8A430F92B87DDD7F8A40002F08DFD0346184607F1A807BD4613
:40080000B0BD00BF80B588B000AF78604FF000033B754FF0070001F07BFF4FF002004FF0010101F073FB01F053F84FF0640000F0CBFC4FF00003FB7727E04FF0000001F093
:400840006FF80346002B18D001F094F80346184601F0FCF80346BB61B86902F055FD034618464FF00001C4F2482102F059FE03463B614FF001033B750AE04FF0050000F09D
:40088000A3FCFB7F03F10103FB77FB7F632BD4D901F032F84FF0060001F03AFF01F018F84FF0640000F090FC4FF00003FB7739E04FF0000001F034F80346002B2AD001F0CE
:4008C00059F80346184601F0C1F80346BB61B86902F01AFD034618464FF00001C4F2F02102F06AFD034618464FF48041C4F29C5102F016FE034618464FF00001C4F220218E
:4009000002F050FC0346FB603B7D03F00103DBB23B750AE04FF0050000F056FCFB7F03F10103FB77FB7F632BC2D97B6807F10C0207CA83E80700786807F12007BD4680BD87
:4009400080B400AFFEE700BF80B586B000AF40F20103C0F200037B6144F2B813C0F200033B6140F20103C0F200037B6144F2B813C0F200033B613BE03B691B68FB603B6963
:400980005B68BB603B699B683B604FF000037B600FE0FB681A68BB681A60BB6803F10403BB60FB6803F10403FB607B6803F104037B607A683B689A42EBD13B69DB683B603F
:4009C0004FF000037B600BE0BB684FF000021A60BB6803F10403BB607B6803F104037B607A683B689A42EFD13B6903F110033B617B69002B0CBF00230123DBB27A6902F133
:400A0000FF327A61002BB7D102F0C2FEFFF738FBFEE700BF80B582B000AF4EF60C53CEF200034FF48062C0F2FA521A604EF61453CEF200034EF61452CEF20002126842F4D5
:400A400000721A604FF000037B6019E07B68032B07D840F20003C0F200037A6853F8223003E040F64113C0F2000348F20002C1F6FF72796842F821307B6803F101037B6073
:400A80007B682F2BE2D947F2BC63C4F200031B78DAB248F20413C1F6FF731A704EF60853CEF2000348F20002C1F6FF721A6000F07BFA48F20013C1F6FF734FF000021A6034
:400AC00007F10807BD4680BD80B582B000AF7860396078684FF000013A6802F088FE07F10807BD4680BD00BF80B584B000AFF860B9607A60F868B9687A6802F06FFE07F1CB
:400B00001007BD4680BD00BF80B483B000AF0346FB71FEE780B487B000AF786039604FF000033B614FF000037B612CE07B694FEA83037A68D3181B68BB60BB68FB73BB689A
:400B400023F0FF03BB6017E03B694FEA43033A68D3181B781A46BB68D3183A694FEA420239688A1852781A703B6903F101033B61FB7B03F1FF33FB73FB7B002BE4D17B696A
:400B800003F101037B617B69132BCFD907F11C07BD4680BC704700BF80B582B000AF4FF48143C4F200034FF000021A8044F28203C4F200034FF050021A7044F28403C4F214
:400BC00000034FF49C721A8044F28603C4F200034FF018021A704FF48240C4F200004FF47E71C4F600014FF00402FFF77DFF4FF48643C4F200034FF002021A704FF0402319
:400C00004FF008021A704FF48443C4F200034FF003021A7044F2A163C4F200034FF48472C4F600121278D2B21A7044F22223C4F200034FF008021A8044F22023C4F2000377
:400C400041F251221A804FF00003FB704FF019037B6019E0FB784FEA4303DAB244F22523C4F200031B78DBB203F00103DBB21343DBB203F00303FB704FF4F07000F084FAA7
:400C80007B6803F1FF337B607B68002B02D0FB78032BDFD17B68002B03D14FF00300FFF733FF44F20403C4F200034FF480721A8044F20403C4F200034FF007021A7044F210
:400CC0000603C4F200034FF000021A7044F20803C4F200034FF048021A7044F20403C4F200034FF000021A7044F20103C4F200034FF002021A7044F20B03C4F200034FF09D
:400D000004021A7044F2A233C4F2000344F2A232C4F200021278D2B242F00302D2B21A7044F2A133C4F2000344F2A132C4F200021278D2B242F00102D2B21A7044F2A0336C
:400D4000C4F2000344F2A032C4F200021278D2B262F07F02D2B21A7007F10807BD4680BD80B483B000AF40F2CF13C4F600131B78FB7145F66E03C4F20003FA7902F00702FB
:400D8000D2B21A7045F66F03C4F20003FA794FEA1212D2B21A7045F62023C4F200034FF025021A7045F69423C4F200034FF010021A7045F60333C4F200034FF001021A703E
:400DC00045F60433C4F200034FF020021A7045F67603C4F200034FF044021A7007F10C07BD4680BC704700BF80B483B000AF0346FB71FB79072B17D8FA7944F2B803C0F22B
:400E0000000353F82220F97944F2B803C0F2000353F821301978F87944F2D803C0F200031B5C0B43DBB2137007F10C07BD4680BC704700BF80B483B000AF0346FB71FB79D2
:400E4000072B1AD8FA7944F2B803C0F2000353F82220F97944F2B803C0F2000353F821301978F87944F2D803C0F200031B5C6FEA0303DBB20B40DBB2137007F10C07BD4660
:400E800080BC704780B483B000AF0346FB71FB79072B37D8FA79FB79D318FB71FA7944F2E003C0F2000353F82220F97944F2E003C0F2000353F821301978F87944F220136C
:400EC000C0F200031B5C0B43DBB21370FB7903F10103FB71FA7944F2E003C0F2000353F82220F97944F2E003C0F2000353F821301978F87944F22013C0F200031B5C0B4301
:400F0000DBB2137007F10C07BD4680BC704700BF80B483B000AF0346FB71FB79072B3DD8FA79FB79D318FB71FA7944F2E003C0F2000353F82220F97944F2E003C0F200030F
:400F400053F821301978F87944F22013C0F200031B5C6FEA0303DBB20B40DBB21370FB7903F10103FB71FA7944F2E003C0F2000353F82220F97944F2E003C0F2000353F8C6
:400F800021301978F87944F22013C0F200031B5C6FEA0303DBB20B40DBB2137007F10C07BD4680BC704700BF80B582B000AF72B644F2E863C4F2000344F2E862C4F2000292
:400FC0001278D2B242F00402D2B21A704FF00003FB7119E0FA7913464FEA43039B184FEA430344F23012C0F200029B183B603B681A683B689B889BB210461946FFF764FDBB
:40100000FB7903F10103FB71FB79062BE2D94FF090404FF05001C4F60001FFF77BFD45F68303C4F200034FF00A021A7045F20303C4F2010345F20302C4F201021278D2B267
:4010400042F00202D2B21A7045F21303C4F2010345F21302C4F201021278D2B242F00202D2B21A7044F2A033C4F2000344F2A032C4F200021278D2B242F04002D2B21A70BC
:4010800044F2C233C4F2000344F2C232C4F200021278D2B242F01002D2B21A7045F20210C4F200004FF47371C4F600014FF00802FFF71AFD45F2F210C4F200004FF47571BB
:4010C000C4F600014FF00802FFF70EFD45F21210C4F200004FF47771C4F600014FF00802FFF702FD45F22210C4F200004FF47971C4F600014FF00802FFF7F6FC45F2301009
:40110000C4F200004FF47B71C4F600014FF00A02FFF7EAFC44F22233C4F2000344F22232C4F200021278D2B242F00802D2B21A704FF49043C4F200034FF001021A70FFF779
:401140002BFD4FF49043C4F200034FF081021A704FF00403C4F208034FF001021A70FFF7FFFD44F2B030C4F2000044F2A031C4F200014FF00E02FFF7B7FC07F10807BD46DB
:4011800080BD00BF000000000230800800F0058000BF013800467FF4FCAF7047EFF3108072B6704780F31088704700BFAFF3008080B483B000AF0346FB7101BE07F10C0768
:4011C000BD4680BC704700BF80B582B000AF78600BE048F21813C1F6FF731B681846FFF7D3FF7B68A3F500437B607B68B3F5004FEFD848F21013C1F6FF731B687A6802FB08
:4012000003F31846FFF7C0FF07F10807BD4680BD80B582B000AF0346FB80FA8848F21413C1F6FF731B7803FB02F31846FFF7ACFF07F10807BD4680BD80B584B000AF03464B
:401240003960FB714EF60853CEF200031B68FB60FB791F2B03D94FF00000FFF7A9FFFB7903F01F0303F110034FEA8303FA68D3181B68BB60FB7903F01F0303F110034FEAAF
:401280008303FA68D3183A681A60BB68184607F11007BD4680BD00BF80B582B000AF02460B46FA71BB71BB79072B03D94FF00000FFF77EFFFB791F2B03D94FF00000FFF7A7
:4012C00077FFFB7903F01F0303F1604303F56443BA794FEA4212D2B21A7007F10807BD4680BD00BF80B582B002AF48F21C13C1F6FF734FF001021A7048F2A413C1F6FF7355
:401300004FF000021A704FF0100001F083F84FF0100001F0ADF94FF01D004FF00701FFF7BBFF45F69603C4F200034FF007021A7045F69703C4F200034FF000021A7045F6FB
:401340009E03C4F200034FF000021A7045F60733C4F2000345F60732C4F200021278D2B242F01802D2B21A7045F69303C4F200034FF000021A7045F68833C4F200034FF043
:4013800000021A7045F68933C4F200034FF000021A704FF4B143C4F200034FF00A021A7045F68103C4F200034FF000021A7045F68303C4F200034FF000021A7045F6880313
:4013C000C4F200034FF05B021A7045F68903C4F200034FF05E021A7045F68D03C4F200034FF000021A7044F60163C4F200034FF014021A704FF0010300934FF0040049F28C
:40140000DA014FF400424FF0140300F0D5FD4FF0020300934FF0060047F602714FF400424FF0140300F0C8FD44F60E63C4F2000348F21C12C1F6FF721278D2B202F1FF32B2
:4014400048F2A811C1F6FF714FEA82028A1892781A7044F60C63C4F2000348F21C12C1F6FF721278D2B202F1FF3148F2A812C1F6FF7232F821201A8048F21C13C1F6FF7389
:401480001B78DBB2184600F06FFBBD4680BD00BF80B582B000AFFFF781FE0346FB7148F21C13C1F6FF731B78BB7144F2AA33C4F2000344F2AA32C4F200021278D2B242F0EE
:4014C0000102D2B21A7044F2AA33C4F2000344F2AA32C4F200021278D2B242F01002D2B21A7044F2BA33C4F2000344F2BA32C4F200021278D2B242F00102D2B21A7044F2A8
:40150000BA33C4F2000344F2BA32C4F200021278D2B242F01002D2B21A7044F2F863C4F2000344F2F862C4F200021278D2B242F00202D2B21A7044F2F963C4F2000344F266
:40154000F962C4F200021278D2B242F00202D2B21A7045F69103C4F2000345F69102C4F200021278D2B242F00302D2B21A704FF00300FFF74DFE44F2F863C4F2000344F2A2
:40158000F862C4F200021278D2B222F00202D2B21A7044F2F963C4F2000344F2F962C4F200021278D2B222F00202D2B21A7045F67703C4F2000345F67702C4F200021278BD
:4015C000D2B242F00602D2B21A7045F68203C4F200034FF07A021A7044F2A133C4F2000344F2A132C4F200021278D2B242F00102D2B21A7044F2B133C4F2000344F2B132A0
:40160000C4F200021278D2B242F00102D2B21A7044F2A233C4F2000344F2A232C4F200021278D2B242F00102D2B21A7044F2B233C4F2000344F2B232C4F200021278D2B216
:4016400042F00102D2B21A704EF28023CEF200034FF000521A604FF46143CEF200034FF000521A60FB791846FFF79CFD07F10807BD4680BD80B500AF48F2A613C1F6FF7319
:401680001B78002B10D148F2A713C1F6FF731B78DBB2002B01D1FFF725FE48F2A613C1F6FF734FF001021A70FFF7F2FE80BD00BF80B582B000AFFFF771FD0346FB714FF4FC
:4016C0009C43C4F200034FF49C42C4F200021278D2B222F00102D2B21A7044F60163C4F2000344F60162C4F200021278D2B242F00402D2B21A7044F2F863C4F2000344F2C8
:40170000F862C4F200021278D2B242F00202D2B21A7044F2F963C4F2000344F2F962C4F200021278D2B242F00202D2B21A7045F69103C4F2000345F69102C4F200021278C7
:40174000D2B222F00302D2B21A7045F69203C4F2000345F69202C4F200021278D2B222F00802D2B21A704FF00300FFF751FD44F2F863C4F2000344F2F862C4F200021278D6
:40178000D2B222F00202D2B21A7044F2F963C4F2000344F2F962C4F200021278D2B222F00202D2B21A7044F2AA33C4F2000344F2AA32C4F200021278D2B222F01002D2B26F
:4017C0001A7044F2AA33C4F2000344F2AA32C4F200021278D2B222F00102D2B21A7044F2BA33C4F2000344F2BA32C4F200021278D2B222F00102D2B21A7044F2BA33C4F2D8
:40180000000344F2BA32C4F200021278D2B222F01002D2B21A7045F67703C4F2000345F67702C4F200021278D2B222F00602D2B21A7044F2A133C4F2000344F2A132C4F2F9
:4018400000021278D2B222F00102D2B21A7044F2B133C4F2000344F2B132C4F200021278D2B222F00102D2B21A7045F68203C4F2000345F68202C4F200021278D2B222F050
:401880000802D2B21A7044F2A233C4F2000344F2A232C4F200021278D2B222F00102D2B21A7044F2B233C4F2000344F2B232C4F200021278D2B222F00102D2B21A70FB790E
:4018C0001846FFF76FFC07F10807BD4680BD00BF80B400AF4FF49C43C4F200034FF49C42C4F200021278D2B242F00102D2B21A70BD4680BC704700BF80B400AF4FF49C4381
:40190000C4F200034FF49C42C4F200021278D2B222F00102D2B21A70BD4680BC704700BF80B485B000AF0346FB7148F2A513C1F6FF731B78DBB2002B06D048F2A413C1F67E
:40194000FF731B78FB7308E044F60163C4F200031B78DBB203F00103FB73FB7B012B02D0FB79002BE1D0FB7B184607F11407BD4680BC704780B483B000AF44F61463C4F212
:4019800000031B78DBB203F00303FB70FB78012B12D844F61263C4F200031B889BB27B607B684FEA034244F61063C4F200031B889BB213437B6032E0FB78022B1DD144F622
:4019C0001263C4F200031B889BB27B607B684FEA034244F61063C4F200031B78DBB213437B6044F61163C4F200031B78DBB24FEA03237A6813437B6011E044F61063C4F289
:401A000000031B889BB27B6044F61263C4F200031B889BB24FEA03437A6813437B6048F2A513C1F6FF731B78DBB2002B06D048F2A413C1F6FF734FF000021A707B6818468C
:401A400007F10C07BD4680BC704700BF80B485B000AF786048F2C413C1F6FF731B687A68D31A7B607B684FF47A7202FB03F248F2C013C1F6FF731B6892FBF3F3FB81FB891F
:401A80001BB2184607F11407BD4680BC704700BF80B487B000AF786048F21C13C1F6FF731B78DBB2012B03D14FF01403FB731AE048F21C13C1F6FF731B78DBB2022B03D11E
:401AC0004FF01403FB730EE048F21C13C1F6FF731B78DBB2032B03D14FF01003FB7302E04FF01003FB73FB7B102B02D0142B07D00DE047F612237B614FF020033B610FE05D
:401B00004FF4FA637B614FF4FA733B6108E044F24023C0F20F037B614FF001033B6100BF48F2C013C1F6FF731A683B6992FBF3F33B617B697A6802FB03F23B6992FBF3F2E5
:401B400048F2C413C1F6FF731B68796901FB03F13B6991FBF3F3D31ABB60BB68184607F11C07BD4680BC704780B582B000AF0346FB7148F2A513C1F6FF734FF000021A7075
:401B8000FB79012B40F0DC804FF49C43C4F200034FF078021A7044F60263C4F200034FF000021A7044F60363C4F200034FF00A021A7044F60463C4F200034FF07F021A70E6
:401BC00044F60563C4F200034FF000021A7044F60663C4F200034FF07F021A7044F60863C4F200034FF000021A7044F60963C4F200034FF000021A7044F60A63C4F2000366
:401C00004FF000021A7044F61463C4F200034FF001021A7045F68403C4F200034FF050021A7045F68503C4F200034FF027021A7045F68603C4F200034FF02C021A7045F6F0
:401C40008703C4F200034FF000021A7045F68A03C4F200034FF055021A7045F68B03C4F200034FF05A021A7045F68C03C4F200034FF005021A7045F68E03C4F200034FF0F7
:401C800000021A7045F68F03C4F200034FF000021A7045F69003C4F200034FF00A021A7045F69103C4F200034FF043021A704FF0440000F04FFA45F69403C4F200034FF0CF
:401CC00058021A7045F69503C4F200034FF000021A7045F69A03C4F200034FF002021A7045F69B03C4F200034FF002021A7045F69C03C4F200034FF000021A7045F69D03B3
:401D0000C4F200034FF000021A7048F2C013C1F6FF734FF4FA221A604FF023004FF0010100F078FA4FF091004FF0010100F0A0FB4FF01D0042F2FD11C0F20001FFF77CFAB2
:401D4000FB79022B40F0DE804FF49C43C4F200034FF078021A7044F60263C4F200034FF000021A7044F60363C4F200034FF00A021A7044F60463C4F200034FF07F021A7021
:401D800044F60563C4F200034FF000021A7044F60663C4F200034FF07F021A7044F60863C4F200034FF000021A7044F60963C4F200034FF000021A7044F60A63C4F20003A4
:401DC0004FF000021A7044F61463C4F200034FF001021A7045F68403C4F200034FF050021A7045F68503C4F200034FF007021A7045F68603C4F200034FF029021A7045F652
:401E00008703C4F200034FF000021A7045F68A03C4F200034FF055021A7045F68B03C4F200034FF05A021A7045F68C03C4F200034FF000021A7045F68E03C4F200034FF03A
:401E400002021A7045F68F03C4F200034FF012021A7045F69003C4F200034FF028021A7045F69103C4F200034FF0EB021A704FF0440000F06FF945F69403C4F200034FF014
:401E800058021A7045F69503C4F200034FF000021A7045F69A03C4F200034FF002021A7045F69B03C4F200034FF002021A7045F69C03C4F200034FF000021A7045F69D03F1
:401EC000C4F200034FF000021A7048F2C013C1F6FF7344F65552C0F201021A604FF001004FF0010100F096F94FF007004FF0010100F0BEFA4FF01D0042F20921C0F200017C
:401F0000FFF79AF907F10807BD4680BD80B582B000AF02460B46FA71BB71FB79002B42D0FB79022B3FD848F2A613C1F6FF731B78002B06D148F2A713C1F6FF734FF0010212
:401F40001A7048F21C13C1F6FF73FA791A70FFF7AFFBFB791846FFF707FE44F60E63C4F20003FA7902F1FF3248F2A811C1F6FF714FEA82028A1892781A7044F60C63C4F274
:401F80000003FA7902F1FF3148F2A812C1F6FF7232F821201A80BB79012B08D1FFF76AFBFFF796FC03E04FF00000FFF701F907F10807BD4680BD00BF80B586B000AFF871B0
:401FC000B9807A80BB7197F82030002B00F0BA8097F82030022B00F2B580FB7903F1FF33092B63D801A252F823F000BF15200000AD200000AD20000015200000AD20000082
:40200000AD2000003B20000061200000AD20000087200000BB790F2B07D94FF48C73C4F600131B78DBB2FB7544E04FF48E73C4F600131B78DBB2FB753CE0BB790F2B07D967
:4020400040F21913C4F600131B78DBB2FB7531E040F21D13C4F600131B78DBB2FB7529E0BB790F2B07D94FF48D73C4F600131B78DBB2FB751EE04FF48F73C4F600131B783B
:40208000DBB2FB7516E0BB790F2B07D940F21B13C4F600131B78DBB2FB750BE040F21F13C4F600131B78DBB2FB7503E04FF00003FB7500BFBA8897F917304FEA4313D3188F
:4020C0003B617B883A6902FB03F3FB60FB684FEAD333BB82BB790D2B1AD8BA8ABB796FEA030303F10F0342FA03F3BB8297F8203003F1FF33BA7902F10102D1B248F2A81222
:40210000C1F6FF724FEA8303D3180A469A700DE097F8203003F1FF3348F2A812C1F6FF724FEA8303D3184FF00F029A7097F8203003F1FF3248F2A813C1F6FF73B98A23F8E1
:40214000221003E04FF00000FFF732F807F11807BD4680BD80B584B000AF0346FB71FFF71DF80346FB7344F2F863C4F2000344F2F862C4F200021278D2B242F00302D2B2AA
:402180001A7044F2F963C4F2000344F2F962C4F200021278D2B242F00302D2B21A7045F69203C4F20003FA791A704FF00300FFF72FF844F2F863C4F2000344F2F862C4F239
:4021C00000021278D2B222F00302D2B21A7044F2F963C4F2000344F2F962C4F200021278D2B222F00302D2B21A70FB7B1846FEF7D9FF07F11007BD4680BD00BF80B400AF51
:40220000BD4680BC704700BF80B400AFBD4680BC704700BF80B584B000AF02460B46FA807B7100F015F90346FB7300F0E7F80346BB81FA88BB899A4200F0DC8044F2A23338
:40224000C4F200031B78DBB203F00103FB72FB7B002B32D1BB89002B02D0FB88002B2CD1BB89002B14D14FF48143C4F20003FA881A8044F28203C4F2000344F28202C4F27D
:4022800000021278D2B222F04002D2B21A70B1E044F28203C4F2000344F28202C4F200021278D2B242F04002D2B21A704FF48143C4F20003FA881A809CE0FB7A002B5CD081
:4022C00044F20103C4F200034FF000021A7044F21003C4F200034FF001021A7044F21403C4F200034FF000021A7044F20803C4F2000344F20802C4F200021278D2B202F08F
:402300007F02D2B21A7044F28203C4F200031B78DBB203F00803002B02D0FB88002B2CD144F20203C4F20003BA891A8044F20103C4F200034FF007021A7000BF44F2010345
:40234000C4F200031B78DBB203F00103002BF5D144F2A233C4F2000344F2A232C4F200021278D2B222F00102D2B21A7044F20103C4F200034FF000021A7044F2A233C4F266
:4023800000031B78DBB203F00103002B1ED044F20203C4F20003FA881A8044F20103C4F200037A79002A02D04FF0030201E04FF001021A7000BF44F20103C4F200031B78C2
:4023C000DBB203F00103002BF5D113E04FF48143C4F20003FA881A8044F2A233C4F2000344F2A232C4F200021278D1B2FA7A0A43D2B21A7007F11007BD4680BD80B400AF05
:402400004FF48143C4F200031B889BB21846BD4680BC704780B483B000AF0346FB7144F28203C4F2000344F28202C4F200021278D2B2D1B2FA7922F00702D2B20A43D2B273
:40244000D2B21A7007F10C07BD4680BC704700BF80B400AF44F28203C4F200031B78DBB203F00703DBB21846BD4680BC704700BF80B584B000AF02460B46FA807B7100F073
:4024800015F90346FB7300F0E7F80346BB81FA88BB899A4200F0DC8044F2A133C4F200031B78DBB203F00103FB72FB7B002B32D1BB89002B02D0FB88002B2CD1BB89002BCF
:4024C00014D14FF48243C4F20003FA881A8044F20213C4F2000344F20212C4F200021278D2B222F04002D2B21A70B1E044F20213C4F2000344F20212C4F200021278D2B2FF
:4025000042F04002D2B21A704FF48243C4F20003FA881A809CE0FB7A002B5CD044F20103C4F200034FF000021A7044F21403C4F200034FF001021A7044F21003C4F2000362
:402540004FF000021A7044F20803C4F2000344F20802C4F200021278D2B202F07F02D2B21A7044F20213C4F200031B78DBB203F00803002B02D0FB88002B2CD144F202030A
:40258000C4F20003BA891A8044F20103C4F200034FF007021A7000BF44F20103C4F200031B78DBB203F00103002BF5D144F2A133C4F2000344F2A132C4F200021278D2B274
:4025C00022F00102D2B21A7044F20103C4F200034FF000021A7044F2A133C4F200031B78DBB203F00103002B1ED044F20203C4F20003FA881A8044F20103C4F200037A7911
:40260000002A02D04FF0030201E04FF001021A7000BF44F20103C4F200031B78DBB203F00103002BF5D113E04FF48243C4F20003FA881A8044F2A133C4F2000344F2A13257
:40264000C4F200021278D1B2FA7A0A43D2B21A7007F11007BD4680BD80B400AF4FF48243C4F200031B889BB21846BD4680BC704780B483B000AF0346FB7144F20213C4F2C3
:40268000000344F20212C4F200021278D2B2D1B2FA7922F00702D2B20A43D2B2D2B21A7007F10C07BD4680BC704700BF80B400AF44F20213C4F200031B78DBB203F00703CF
:4026C000DBB21846BD4680BC704700BF80B582B000AF4FF00003FB710BE0FB791846FEF7A9FBFB791846FEF713FCFB7903F10103FB71FB79072BF0D948F21D13C1F6FF7370
:402700004FF0FF021A7007F10807BD4680BD00BF80B582B000AF0346FB71FFF7D7FFFB79184600F00BF848F21D13C1F6FF73FA791A7007F10807BD4680BD00BF80B582B070
:4027400000AF0346FB71FB791846FEF74DFBFB791846FEF797FB07F10807BD4680BD00BF80B500AF48F2B013C1F6FF731B78002B08D100F00BF848F2B013C1F6FF734FF08E
:4027800001021A7000F02AF880BD00BF80B400AF46F28943C4F200034FF072021A7046F28953C4F200034FF020021A7046F22B53C4F200034FF007021A7046F23B53C4F22C
:4027C00000034FF048021A7046F28A53C4F200034FF000021A70BD4680BC704780B582B000AFFEF7DBFC0346FB7146F29943C4F2000346F29942C4F200021278D2B242F0C5
:402800002002D2B21A7046F29953C4F2000346F29952C4F200021278D2B242F01002D2B21A7046F29A53C4F2000346F29A52C4F200021278D2B242F01002D2B21A7000F046
:4028400049F8FB791846FEF7ADFC07F10807BD4680BD00BF80B483B000AF0346FB7100BF46F26A53C4F200031B78DBB203F00403002BF5D146F24A53C4F20003FA791A70D3
:4028800007F10C07BD4680BC704700BF80B584B000AF78604FF00003FB8148F2B013C1F6FF731B78002B11D00AE0FB897A68D3181B781846FFF7CEFFFB8903F10103FB81FE
:4028C000FB897A68D3181B78002BEED107F11007BD4680BD80B400AF44F2A233C4F2000344F2A232C4F200021278D2B242F00202D2B21A7044F2B233C4F2000344F2B23212
:40290000C4F200021278D2B242F00202D2B21A70BD4680BC704700BF81F0004102E000BF83F0004330B54FEA41044FEA430594EA050F08BF90EA020F1FBF54EA000C55EAA0
:40294000020C7FEA645C7FEA655C00F0E2804FEA5454D4EB5555B8BF6D420CDD2C4480EA020281EA030382EA000083EA010180EA020281EA0303362D88BF30BD11F0004F5B
:402980004FEA01314FF4801C4CEA113102D0404261EB410113F0004F4FEA03334CEA133302D0524263EB430394EA050F00F0A780A4F10104D5F1200E0DDB02FA0EFC22FAFB
:4029C00005F2801841F1000103FA0EF2801843FA05F359410EE0A5F120050EF1200E012A03FA0EFC28BF4CF0020C43FA05F3C01851EBE37101F0004507D54FF0000EDCF1AF
:402A0000000C7EEB00006EEB0101B1F5801F1BD3B1F5001F0CD349085FEA30004FEA3C0C04F101044FEA445212F5800F80F09A80BCF1004F08BF5FEA500C50F1000041EBE6
:402A4000045141EA050130BD5FEA4C0C404141EB010111F4801FA4F10104E9D191F0000F04BF01460020B1FA81F308BF2033A3F10B03B3F120020CDA0C3208DD02F1140C24
:402A8000C2F10C0201FA0CF021FA02F10CE002F11402D8BFC2F1200C01FA02F120FA0CFCDCBF41EA0C019040E41AA2BF01EB0451294330BD6FEA04041F3C1CDA0C340EDC5D
:402AC00004F11404C4F1200220FA04F001FA02F340EA030021FA04F345EA030130BDC4F10C04C4F1200220FA02F001FA04F340EA0300294630BD21FA04F0294630BD94F083
:402B0000000F83F4801306BF81F480110134013D4EE77FEA645C18BF7FEA655C29D094EA050F08BF90EA020F05D054EA000C04BF1946104630BD91EA030F1EBF00210020D3
:402B400030BD5FEA545C05D14000494128BF41F0004130BD14F580043CBF01F5801130BD01F0004545F0FE4141F470014FF0000030BD7FEA645C1ABF194610467FEA655C30
:402B80001CBF0B46024650EA013406BF52EA033591EA030F41F4002130BD00BF90F0000F04BF0021704730B54FF4806404F132044FF000054FF0000150E700BF90F0000F00
:402BC00004BF0021704730B54FF4806404F1320410F0004548BF40424FF000013EE700BF42004FEAE2014FEA31014FEA02701FBF12F07F4393F07F4F81F06051704792F04F
:402C0000000F14BF93F07F4F704730B54FF4607401F0004521F0004120E700BF50EA010208BF704730B54FF000050AE050EA010208BF704730B511F0004502D5404261EB07
:402C400041014FF4806404F132045FEA915C3FF4DCAE4FF003025FEADC0C18BF03325FEADC0C18BF033202EBDC02C2F1200300FA03FC20FA02F001FA03FE40EA0E0021FA1A
:402C800002F11444C1E600BF70B54FF0FF0C4CF4E06C1CEA11541DBF1CEA135594EA0C0F95EA0C0F00F0DEF82C4481EA030621EA4C5123EA4C5350EA013518BF52EA0335C7
:402CC00041F4801143F4801338D0A0FB02CE4FF00005E1FB02E506F00042E0FB03E54FF00006E1FB03569CF0000F18BF4EF0010EA4F1FF04B6F5007F64F5407404D25FEAA8
:402D00004E0E6D4146EB060642EAC62141EA55514FEAC52040EA5E504FEACE2EB4F1FD0C88BFBCF5E06F1ED8BEF1004F08BF5FEA500E50F1000041EB045170BD06F00046BB
:402D400046EA010140EA020081EA0301B4EB5C04C2BFD4EB0C0541EA045170BD41F480114FF0000E013C00F3AB8014F1360FDEBF002001F0004170BDC4F10004203C35DA91
:402D80000C341BDC04F11404C4F1200500FA05F320FA04F001FA05F240EA020001F0004221F0004110EBD37021FA04F642EB06015EEA430E08BF20EAD37070BDC4F10C042C
:402DC000C4F1200500FA04F320FA05F001FA04F240EA020001F0004110EBD37041F100015EEA430E08BF20EAD37070BDC4F1200500FA05F24EEA020E20FA04F301FA05F249
:402E000043EA020321FA04F001F0004121FA04F220EA020000EBD3705EEA430E08BF20EAD37070BD94F0000F0FD101F00046400041EB010111F4801F08BF013CF7D041EA48
:402E4000060195F0000F18BF704703F00046520043EB030313F4801F08BF013DF7D043EA0603704794EA0C0F0CEA135518BF95EA0C0F0CD050EA410618BF52EA4306D1D148
:402E800081EA030101F000414FF0000070BD50EA410606BF1046194652EA430619D094EA0C0F02D150EA013613D195EA0C0F05D152EA03361CBF104619460AD181EA03011C
:402EC00001F0004141F0FE4141F470014FF0000070BD41F0FE4141F4780170BD70B54FF0FF0C4CF4E06C1CEA11541DBF1CEA135594EA0C0F95EA0C0F00F0A7F8A4EB0504C9
:402F000081EA030E52EA03354FEA013100F088804FEA03334FF0805545EA131343EA12634FEA022245EA111545EA10654FEA00260EF000419D4208BF964244F1FD0404F523
:402F4000407402D25B084FEA3202B61A65EB03055B084FEA32024FF480104FF4002CB6EB020E75EB030E22BFB61A754640EA0C005B084FEA3202B6EB020E75EB030E22BF28
:402F8000B61A754640EA5C005B084FEA3202B6EB020E75EB030E22BFB61A754640EA9C005B084FEA3202B6EB020E75EB030E22BFB61A754640EADC0055EA060E18D04FEA04
:402FC000051545EA16754FEA06164FEAC30343EA52734FEAC2025FEA1C1CC0D111F4801F0BD141EA00014FF000004FF0004CB6E711F4801F04BF01430020B4F1FD0C88BFD5
:40300000BCF5E06F3FF6AFAEB5EB030C04BFB6EB020C5FEA500C50F1000041EB045170BD0EF0004E4EEA113114EB5C04C2BFD4EB0C0541EA045170BD41F480114FF0000E13
:40304000013C90E645EA060E8DE60CEA135594EA0C0F08BF95EA0C0F3FF43BAF94EA0C0F0AD150EA01347FF434AF95EA0C0F7FF425AF104619462CE795EA0C0F06D152EAE3
:4030800003353FF4FDAE1046194622E750EA410618BF52EA43067FF4C5AE50EA41047FF40DAF52EA43057FF4EBAE12E74FEA410212F5001215D211D56FF47873B3EB625240
:4030C00012D94FEAC12343F0004343EA505311F0004F23FA02F018BF404270474FF00000704750EA013005D111F0004008BF6FF0004070474FF00000704700BF4FEA41024D
:40310000B2F1E04324BFB3F5001CDCF1FE5C0DD901F0004C4FEAC0024CEA5070B2F1004F40EB830008BF20F00100704711F0804F21D113F13872BCBF01F00040704741F4B0
:4031400080114FEA5252C2F11802C2F1200C10FA0CF320FA02F018BF40F001004FEAC1234FEAD32303FA0CFC40EA0C0023FA02F34FEA4303CCE77FEA625307D150EA0133E9
:403180001EBF4FF0FE4040F44000704701F0004040F0FE4040F40000704700BF80F0004002E000BF81F0004142001FBF5FEA410392EA030F7FEA226C7FEA236C6AD04FEAA1
:4031C0001262D2EB1363C1BFD218414048404140B8BF5B42192B88BF704710F0004F40F4000020F07F4018BF404211F0004F41F4000121F07F4118BF494292EA030F3FD0DD
:40320000A2F1010241FA03FC10EB0C00C3F1200301FA03F100F0004302D5494260EB4000B0F5000F13D3B0F1807F06D340084FEA310102F10102FE2A51D2B1F1004F40EBAE
:40324000C25008BF20F0010040EA03007047490040EB000010F4000FA2F10102EDD1B0FA80FCACF1080CB2EB0C0200FA0CF0AABF00EBC25052421843BCBFD040184370473B
:4032800092F0000F81F4000106BF80F400000132013BB5E74FEA41037FEA226C18BF7FEA236C21D092EA030F04D092F0000F08BF0846704790EA010F1CBF0020704712F092
:4032C0007F4F04D1400028BF40F00040704712F100723CBF00F50000704700F0004343F0FE4040F4000070477FEA226216BF08467FEA23630146420206BF5FEA412390EABC
:40330000010F40F4800070474FF0000304E000BF10F0004348BF40425FEA000C08BF704743F0964301464FF000001CE050EA010208BF70474FF000030AE000BF50EA01021D
:4033400008BF704711F0004302D5404261EB41015FEA010C02BF84460146002043F0B64308BFA3F18053A3F50003BCFA8CF2083AA3EBC25310DB01FA02FC634400FA02FCCB
:40338000C2F12002BCF1004F20FA02F243EB020008BF20F00100704702F1200201FA02FCC2F1200250EA4C0021FA02F243EB020008BF20EADC7070474FF0FF0C1CEAD05281
:4033C0001EBF1CEAD15392EA0C0F93EA0C0F6FD01A4480EA010C400218BF5FEA41211ED04FF0006343EA501043EA5111A0FB01310CF00040B1F5000F3EBF490041EAD371A0
:403400005B0040EA010062F17F02FD2A1DD8B3F1004F40EBC25008BF20F00100704790F0000F0CF0004C08BF49024CEA502040EA51207F3AC2BFD2F1FF0340EAC25070473B
:4034400040F400004FF00003013A5DDC12F1190FDCBF00F000407047C2F10002410021FA02F1C2F1200200FA02FC5FEA310040F1000053EA4C0308BF20EADC70704792F057
:40348000000F00F0004C02BF400010F4000F013AF9D040EA0C0093F0000F01F0004C02BF490011F4000F013BF9D041EA0C018FE70CEAD15392EA0C0F18BF93EA0C0F0AD0D9
:4034C00030F0004C18BF31F0004CD8D180EA010000F00040704790F0000F17BF90F0004F084691F0000F91F0004F14D092EA0C0F01D142020FD193EA0C0F03D14B0218BF3E
:40350000084608D180EA010000F0004040F0FE4040F40000704740F0FE4040F4400070474FF0FF0C1CEAD0521EBF1CEAD15392EA0C0F93EA0C0F69D0A2EB030280EA010CED
:4035400049024FEA402037D04FF0805343EA111143EA10130CF000408B4238BF5B0042F17D024FF4000C8B4224BF5B1A40EA0C00B3EB510F24BFA3EB510340EA5C00B3EB11
:40358000910F24BFA3EB910340EA9C00B3EBD10F24BFA3EBD10340EADC001B0118BF5FEA1C1CE0D1FD2A3FF650AF8B4240EBC25008BF20F0010070470CF0004C4CEA5020D0
:4035C0007F32C2BFD2F1FF0340EAC250704740F400004FF00003013A37E792F0000F00F0004C02BF400010F4000F013AF9D040EA0C0093F0000F01F0004C02BF490011F419
:40360000000F013BF9D041EA0C0195E70CEAD15392EA0C0F08D142027FF47DAF93EA0C0F7FF470AF084676E793EA0C0F04D14B023FF44CAF08466EE730F0004C18BF31F091
:40364000004CCAD130F000427FF45CAF31F000437FF43CAF5FE700BF4FF0FF3C06E000BF4FF0010C02E000BF4FF0010C4DF804CD4FEA40024FEA41037FEA226C18BF7FEA1F
:40368000236C11D001B052EA530C18BF90EA010F58BFB2EB030088BFC81738BF6FEAE17018BF40F0010070477FEA226C02D15FEA402C05D17FEA236CE4D15FEA412CE1D047
:4036C0005DF8040B704700BF844608466146FFE70FB5FFF7C9FF002848BF10F1000F0FBD4DF808EDFFF7F4FF0CBF012000205DF808FB00BF4DF808EDFFF7EAFF34BF01204B
:4037000000205DF808FB00BF4DF808EDFFF7E0FF94BF012000205DF808FB00BF4DF808EDFFF7D2FF94BF012000205DF808FB00BF4DF808EDFFF7C8FF34BF012000205DF86C
:4037400008FB00BF4FEA4002B2F1FE4F0FD34FF09E03B3EB12620DD94FEA002343F0004310F0004F23FA02F018BF404270474FF00000704712F1610F01D1420205D110F0CD
:40378000004008BF6FF0004070474FF00000704738B50E4D0E4B0024E81A8510AC4205D00B4951F8242090470134F7E700F0F2FC0849094A541AA5100024AC4205D0054BF0
:4037C00053F8240080470134F7E738BDA0410000A0410000A0410000A841000010B50023934203D0CC5CC4540133F9E710BD82180346934202D003F8011BFAE77047000015
:403800000EB400B59CB0029006906FF000401DAB049007904FF402710A4853F8042BADF814104FF6FF71ADF81610006802A9019300F062F8029B00221A701CB05DF804EBF6
:4038400003B070478481FF1F2DE9F8439368064689461446002B41D1928912F4906F3DD0616903254D43236927680220FF1A95FBF0F5791C02F48062A94211B2A8BF3D186C
:40388000304679B1294600F009FB8046A0B13A462169FFF7A3FFA38923F4906040F08002A28113E019462A4600F050FB804668B93046216900F0AEFAA0890C2340F04002FE
:4038C00033604FF0FF30A281BDE8F88308EB07016561ED1BC4F810802160A560A368002B06DD206800F8019BA2682060511EA1600020BDE8F88300002DE9F0479CB003934B
:403900008B890D4603F0800114460AB2064662B12B6953B9402100F0C1FA2860286110B90C213160D3E04020686100272021302209978DF829108DF82A2023461F4613F857
:40394000010B28B9B7EB040A16D04FF000090DE02528F3D1F6E7304614F809102A46FFF773FF013000F0AC8009F10109D145F2DB099901EB0A0209923B78002B00F0A080D7
:4039800000244FF0FF3004940794059006948DF853401A9407F101094F4F4C4638462178052200F0C5FA09F10109049B30B1C41B012707FA04F73B430493EDE7D90602D508
:4039C00020218DF853101A0702D52B228DF8532020782A2802D0079B27460EE0039A1768101D002F039001DB079704E0794243F002030791049301340AE03C4621780137AB
:403A00003039092903D80A2404FB0313F5E7079322782E2A19D160782A2809D1039802340368021D002B0392B8BF4FF0FF330BE0671C00233C46217801373039092903D81A
:403A40000A2404FB0313F5E70593244F21783846032200F06DFA38B1C71B402101FA07F1049B01340B43049314F8011B1C4806228DF8281000F05CFA88B11A4A32B9039FD0
:403A8000FB1D23F007000830039014E003A90091304604A92A46144BAFF3008007E003A8009004A930462A460F4B00F08FF8B0F1FF3F804604D0099A02EB080109913CE76F
:403AC000AB8903F0400002B20AB9099801E04FF0FF301CB0BDE8F0875E410000644100006841000000000000493800002DE9F047154699468A680B6980469A42A8BF134653
:403B00002B6091F843000C46DDF820A008B1591C29602668B20602D52A68931C2B60206810F0060618D094F8437020683E1C18BF012683061AD5A119302281F8432094F820
:403B40004530023681F8443010E04046617E4A46D047013006D00136E1682A688B1A9E42F3DBE0E74FF0FF30BDE8F0870027B74209DAE119404691F843104A46D0470130BB
:403B8000F0D00137F3E721682868E66801F00602042A08BFC0EB06052369A6680CBF25EAE57500259E42C4BFC3EB0603ED180026AE4207DA4046A17E4A46D0470130D1D001
:403BC0000136F5E70020BDE8F08700002DE9F0430C46257E85B06E2D9046074699460C9904F1430200F0AA8012D8632D24D009D8002D00F0BB80582D40F0CB8084F84550B5
:403C0000824D57E0642D20D0692D40F0C2801CE0732D00F0AF8009D86F2D2FD0702D40F0B880256845F0200626603FE0752D25D0782D40F0AE8039E0086804F14206021DAD
:403C40000A60016884F84210A7E020680B6810F0800F02D01E1D0E6008E003F1040510F0400F0D6002D0B3F9001000E0196800293CDA2D20494284F8430037E025680E6897
:403C800015F0800F02D0331D0B6007E006F1040015F0400F086001D0318800E03168267E5A4D6F2E14BF0A2308231BE07820584D84F8450020680B6810F0800F03F10406AE
:403CC0000E6003D1410601D5198800E01968C60744BF40F02000206019B9206820F0200323601023002084F8430001E0474D0A236668002EA66003DB206820F00400206003
:403D000001B96EB104F14200B1FBF3FE03FB1E11695C064600F8011971460029F4D100E01646921B082B22613CD12368D80739D56068904236DC511C616033E026680B68CF
:403D400016F0800F05D01E1D0E601968606908600CE003F1040016F0400F086003D018686369038002E061691E68316000232361164617E00E68321D0A603668304600F04B
:403D800019F963682061984288BF23612069606005E004F1420684F8425001232361002184F84310CDF800903846214603AA4346FFF79CFE013002D14FF0FF3022E0002556
:403DC0002269954207DA3846715D4246C8470130F2D00135F4E72168890705D4E06803998842B8BF08460DE00025E068039BC21A9542F3DA3846617E4246C8470130DBD0EC
:403E00000135F2E705B0BDE8F08300BF6F4100008041000030B500293CD051F8042C0B1F1D49002AB8BF9B180A6812B95A600B6030BD93420ED219685818904203D15A58B2
:403E400089184268196014485A60036030BD994203D80A4651680029F9D1146815199D420AD118682318D0188842136012D108681B1813604B680CE002D90C23036030BD30
:403E800018681C188C4203D10C684968001918605960536030BD00BFB481FF1F70B5CD1C25F0030508350C2D38BF0C25002D06462DDB8D422BD31D4B1B681C469CB1226850
:403EC000501B0DD40B2802D92060241817E0A34203D16068154A10601DE0616859601AE023466468EAE72946304600F053F8431C01460CD0CC1C24F003048C4201D125601C
:403F000009E03046611A00F045F80130F7D10C203060002070BD04F10B01231D21F00700C31A02D05A42E25070BD70BDB481FF1F10B5C9B2034682189342184604D004784F
:403F400001338C42F8D100E0002010BDF8B5064615460C4621B91146BDE8F840FFF79EBF1AB9FFF757FF2C4612E000F02BF8A8420ED230462946FFF791FF074638B121463A
:403F80002A46FFF72BFC30462146FFF743FF3C462046F8BD38B5064C002305460846236000F01AF8431C02D1216801B1296038BDC881FF1F034613F8012B002AFBD1181A48
:403FC0000138704751F8040C002802DA04390B58C018043870470000094A13686BB118186946884202D8106018467047054B0C221A604FF0FF3318467047034B1360EEE703
:40400000B881FF1FC881FF1FD081FF1F0000000025642C25642C25642C25642C25642C25642C25640D0A0000B89EA0427B94A4423D8AA8420080AC42A470B0424861B44284
:40404000EC51B842713DBC42142EC0427B14C4420000C84266E6CB42CDCCCF4233B3D3427B94D742C375DB420A57DF425238E3427B14E742A4F0EA42CDCCEE42D7A3F242DF
:40408000E17AF642EC51FA42D723FE42E1FA0043D7E30243CDCC044333B306439A99084300800A43D7630C433D4A0E435C4F1D430AD72F430AD743432C5100402C510040A3
:4040C0002C5100402C5100400C5100400C510040FC510040FC51004080200802080120102D510040244300402D510040244300402D510040244300402D510040244300407B
:404100000D510040945A00400D510040205A0040035B004024430040035B00402443004040001000040001001020044040004000405100403000C0510040100000000140E5
:40414000001000140140000800400140000A004C0140000200500140200000004300232D302B2000686C4C0065666745464700303132333435363738394142434445460033
:404180003031323334353637383961626364656600000000F8B500BFF8BC08BC9E46704751000000150A0000F8B500BFF8BC08BC9E4670472D000000C84100000881FF1F52
:4041C00080000000480000000000000000366E01C05D0000180000000000E02E01FF000000000000000000000000000000000000000000000000000000000000000000000F
:404200005C410000000000000000000000000000000000000000000000000000000000000000000000000000000000000000000000000000000000000000000000000000E1
:40424000000000002081FF1F00000000000000000000000000000000000000000000000000000000000000000000000000000000000000000000000000000000000000007F
:4042800000000000000000000000000000000000000000000000000000000000000000000000000000000000000000000000000000000000000000000000000000000000FE
:4042C00000000000000000000000000000000000000000000000000000000000000000000000000000000000000000000000000000000000000000000000000000000000BE
:40430000000000000000000000000000000000000000000000000000000000000000000000000000000000000000000000000000000000000000000000000000000000007D
:40434000000000000000000000000000000000000000000000000000000000000000000000000000000000000000000000000000000000000000000000000000000000003D
:020000040003F7
:0200000480007A
:400000000252004001640040026500403E0801402E0901400414014004150140511801403A190140591A0140421B01400244014001450140034601400247014002480140F1
:4000400005490140044C0140074D0140045001400C101910897289388A0F05060D020E07100413071401160218041A011B051F0320012206340737073A203B805804590409
:400080005C115F01811085188613880C89088A138C0F8D3F8E10901F9403953C970298019B239C139D1C9E0C9F21A008A127A318A404A80CAB04AC02AD04B31FB40FB538F5
:4000C000B61CBAA2BB08D602D713D804D904DB04DC11DD10DF01002001800220070208A00A600E240F80108013681701188019A01A401B801E042020211C2640270128801E
:4001000029402B043118322033803652370238A83B013E043F805A0269446B047094732988808920C087C27FC41FCA0DCCBECE5FD60139803F4059045F0120018C01E602D7
:40014000EC1002010406060808010C01140616181812221C26012C062E083001321E38023A0858045C015F01800182308504860388048B028C038D04900292109301940320
:40018000960897019A039F02A203A404A803A904AC04AD04B003B104B220B404B501B618B702BE40BF51C036C104C202C401C60CC70EC814C9FFCAFFCBFFCC62CDA0CEF00D
:4001C000CF41D00CD418D804D904DA04DB04DC01DD11DF01E640E702E910EA30EB10ED10EE10EF12004203240480052406400A600B480E24100411441240150A1601180198
:4002000019111B241E201F0222812304280429A02A603080330A38C039283B084041411042204910508053085901628063049080916C92049622974099A09B059C209D5015
:40024000A612A744C0FFC26EC4BFCA0CCC0BCE0ED00FD204D601D80C000902060620081F0E20101211011205140416181A201D022040241F28202C2030033102321C3301DB
:40028000344036203E503F044062410445EC470B481349FF4AFF4BFF4EF04F44500C5401580459045A045B045C115D115F0166C06A406B028404851C87028C038F10910919
:4002C000931094039510970C98019B03A202A914AD0CAF11B003B204B51FB802BE05C004C510C605C806C9FFCA07CBFFCC40CD20CEF0CF05D008D804D904DA04DC10DD0158
:40030000DF01E040E1A8E240E32000020108020203140408060107010A640C0C0E241008110412811502180419801A601D021F0821012206240826202F06310132803404BD
:4003400036223E043F804004430345024808490D4E805304574059815A085B10870891049204950296609B059D049E01A001A210A602A740B021B140C0AFC26EC41FCA3003
:40038000CCE9CE50D085D204D60FE410EC107C01DE01940145089401D0019401A5082510C82063408740B510D840E64008089401A508C2088C019401B008B508E408EA0170
:4003C000EC0800020C0210021C0200000000000000001D0000000000000030001000000000000000000000000000FF00100000101000100000000000920018010000000082
:4004000000000000000000000000000000000000000000000000000000000000000000000000000000000000000000000000000000000000000000000000000000000000BC
:40044000000000000000000000000000000000000000000000000000000000000000000000000000000000000000000000000000000000000000000000000000000000007C
:40048000000000000000000000000000000000000000000000000000000000000000000000000000000000000000000000000000000000000000000000000000000000003C
:4004C00000000000000000000000000000000000000000000000000000000000000000000000000000000000000000000000000000000000000000000000000000000000FC
:0200000490006A
:0400000000004005B7
:0200000490105A
:04000000BC90ACAF55
:0200000490303A
:02000000006D91
:0200000490402A
:4000000000000000000000000000000000000000000000000000000000000000000000000000000000000000000000000000000000000000000000000000000000000000C0
:400040000000000000000000000000000000000000000000000000000000000000000000000000000000000000000000000000000000000000000000000000000000000080
:400080000000000000000000000000000000000000000000000000000000000000000000000000000000000000000000000000000000000000000000000000000000000040
:4000C0000000000000000000000000000000000000000000000000000000000000000000000000000000000000000000000000000000000000000000000000000000000000
:0200000490501A
:0C00000000012E12706900012E2F70D636
:00000001FF