:4000000000800020110000009D0600009D06000080B500AF47F2BC63C4F2000344F2FA62C4F2000212681A6000F03CFB10B5054C237833B9044810B10448AFF30080012135
:40004000217010BD8881FF1F00000000303D000008B5064B1BB106480649AFF300800648016811B1054A02B1904708BD00000000303D00008C81FF1F0881FF1F000000009F
:400080002DE9F0439BB004AF01F024FA02F04EFA02F096FA62B642F2107000F0C5FF07F10C03184600F040F83B46184600F058FAFB68184603F0D8F905463B69184603F03B
:4000C000D3F904467B69184603F0CEF98146BB69184603F0C9F980463B68184603F0C4F906467B68184603F0BFF9024607F12403CDF80090CDF8048002960392184643F678
:400100003451C0F200012A46234603F00BFA07F12403184602F0EAFA4FF0000387F85730BDE700BF00000000B0B58EB000AF78604FF0040002F01CFA4FF002004FF00101C1
:4001400001F014FE01F0F4FA4FF0640000F06CFF4FF0000387F8373021E04FF0000001F00FFB0346002B10D001F034FB0346184601F09CFB03463B63386B02F0D1FF034604
:40018000FB604FF001033B750DE04FF0050000F04BFF97F8373003F1010387F8373097F83730632BD9D901F0D7FA4FF0050002F0DFF94FF002004FF0010101F0D7FD01F074
:4001C000B7FA4FF0640000F02FFF4FF0000387F8373021E04FF0000001F0D2FA0346002B10D001F0F7FA0346184601F05FFB03463B63386B02F094FF03463B614FF0010309
:400200007B750DE04FF0050000F00EFF97F8373003F1010387F8373097F83730632BD9D9FB6818464FF00001C4F2C82102F0CCFF03461A463B691046194603F079F803468A
:400240001A4648F2BC13C1F6FF731A6048F2BC13C1F6FF731B68184602F0F2FB02460B4610461946B0A3D3E9002302F03DFC02460B4610461946AEA3D3E9002302F080FAEB
:4002800002460B4610461946ABA3D3E9002302F079FA02460B461046194602F037FE0346BB6201F035F94FF0000002F061F901F011F94FF001004FF0010101F057FD01F027
:4002C00037FA4FF0640000F0AFFE4FF0000387F8373034E04FF0000001F052FA0346002B23D001F077FA0346184601F001FB3863386B02F015FF0346184602F0A1FB0246B7
:400300000B46104619468EA3D3E9002302F016FD02460B461046194602F0F8FD0346BB614FF0010387F82C300DE04FF0050000F07BFE97F8373003F1010387F8373097F8ED
:400340003730632BC6D901F007FA4FF0010002F00FF901F0EDF94FF0640000F065FE4FF0000387F8373034E04FF0000001F008FA0346002B23D001F02DFA0346184601F06B
:40038000B7FA3863386B02F0CBFE0346184602F057FB02460B46104619466BA3D3E9002302F0CCFC02460B461046194602F0AEFD0346FB614FF0010387F82D300DE04FF0D8
:4003C000050000F031FE97F8373003F1010387F8373097F83730632BC6D901F0BDF94FF0020002F0C5F801F0A3F94FF0640000F01BFE4FF0000387F8373034E04FF0000097
:4004000001F0BEF90346002B23D001F0E3F90346184601F06DFA3863386B02F081FE0346184602F00DFB02460B461046194648A3D3E9002302F082FC02460B4610461946BB
:4004400002F064FD03463B624FF0010387F82E300DE04FF0050000F0E7FD97F8373003F1010387F8373097F83730632BC6D901F073F94FF0030002F07BF801F059F94FF0A1
:40048000640000F0D1FD4FF0000387F8373034E04FF0000001F074F90346002B23D001F099F90346184601F023FA3863386B02F037FE0346184602F0C3FA02460B461046F8
:4004C000194625A3D3E9002302F038FC02460B461046194602F01AFD03467B624FF0010387F82F300DE04FF0050000F09DFD97F8373003F1010387F8373097F83730632B1F
:40050000C6D901F029F97B681C4607F118050FCD0FC495E8030084E80300786807F13807BD46B0BDAFF30080F2B0506B9A7704406666666666F66F40666666666612714052
:4005400048E17A14AE873140713D0AD7A3B034406666666666E62940EC51B81E856B264080B588B000AF78604FF000033B754FF0070001F0FDFF4FF002004FF0010101F086
:40058000F5FB01F0D5F84FF0640000F04DFD4FF00003FB7727E04FF0000001F0F1F80346002B18D001F016F90346184601F07EF90346BB61B86902F0AFFD034618464FF067
:4005C0000001C4F2482102F0B3FE03463B614FF001033B750AE04FF0050000F025FDFB7F03F10103FB77FB7F632BD4D901F0B4F84FF0060001F0BCFF01F09AF84FF06400D3
:4006000000F012FD4FF00003FB7739E04FF0000001F0B6F80346002B2AD001F0DBF80346184601F043F90346BB61B86902F074FD034618464FF00001C4F2F02102F0C4FDC0
:40064000034618464FF48041C4F29C5102F070FE034618464FF00001C4F2202102F0AAFC0346FB603B7D03F00103DBB23B750AE04FF0050000F0D8FCFB7F03F10103FB77F0
:40068000FB7F632BC2D97B6807F10C0207CA83E80700786807F12007BD4680BD80B400AFFEE700BF80B586B000AF40F20103C0F200037B6143F68463C0F200033B6140F221
:4006C0000103C0F200037B6143F68463C0F200033B613BE03B691B68FB603B695B68BB603B699B683B604FF000037B600FE0FB681A68BB681A60BB6803F10403BB60FB6869
:4007000003F10403FB607B6803F104037B607A683B689A42EBD13B69DB683B604FF000037B600BE0BB684FF000021A60BB6803F10403BB607B6803F104037B607A683B68AE
:400740009A42EFD13B6903F110033B617B69002B0CBF00230123DBB27A6902F1FF327A61002BB7D102F0A6FEFFF78AFCFEE700BF80B582B000AF4EF60C53CEF200034FF4DE
:400780008062C0F2FA521A604EF61453CEF200034EF61452CEF20002126842F400721A604FF000037B6019E07B68032B07D840F20003C0F200037A6853F8223003E040F2E5
:4007C0009D63C0F2000348F20002C1F6FF72796842F821307B6803F101037B607B682F2BE2D947F2BC63C4F200031B78DAB248F20413C1F6FF731A704EF60853CEF2000330
:4008000048F20002C1F6FF721A6000F0D3FA48F20013C1F6FF734FF000021A6007F10807BD4680BD80B582B000AF7860396078684FF000013A6802F06CFE07F10807BD46F6
:4008400080BD00BF80B584B000AFF860B9607A60F868B9687A6802F053FE07F11007BD4680BD00BF80B483B000AF0346FB71FEE780B487B000AF786039604FF000033B614C
:400880004FF000037B612CE07B694FEA83037A68D3181B68BB60BB68FB73BB6823F0FF03BB6017E03B694FEA43033A68D3181B781A46BB68D3183A694FEA420239688A1811
:4008C00052781A703B6903F101033B61FB7B03F1FF33FB73FB7B002BE4D17B6903F101037B617B69172BCFD907F11C07BD4680BC704700BF80B582B000AF4FF48143C4F2E3
:4009000000034FF000021A8044F28203C4F200034FF050021A7044F28403C4F200034FF49C721A8044F28603C4F200034FF018021A704FF48240C4F200004FF47F71C4F6E6
:4009400000014FF00402FFF77DFF4FF48643C4F200034FF002021A704FF040234FF008021A704FF48443C4F200034FF003021A7044F2A163C4F200034FF48472C4F600122F
:400980001278D2B21A7044F22223C4F200034FF008021A8044F22023C4F2000341F251221A804FF00003FB704FF019037B6019E0FB784FEA4303DAB244F22523C4F2000385
:4009C0001B78DBB203F00103DBB21343DBB203F00303FB704FF4F07000F006FB7B6803F1FF337B607B68002B02D0FB78032BDFD17B68002B03D14FF00300FFF733FF44F2E1
:400A00000403C4F200034FF480721A8044F20403C4F200034FF007021A7044F20603C4F200034FF000021A7044F20803C4F200034FF048021A7044F20403C4F200034FF05A
:400A400000021A7044F20103C4F200034FF002021A7044F20B03C4F200034FF004021A7044F2A233C4F2000344F2A232C4F200021278D2B242F00302D2B21A7044F2A1337B
:400A8000C4F2000344F2A132C4F200021278D2B242F00102D2B21A7044F2A033C4F2000344F2A032C4F200021278D2B262F07F02D2B21A7007F10807BD4680BD80B483B04C
:400AC00000AF40F2CF13C4F600131B78FB7145F66E03C4F20003FA7902F00702D2B21A7045F66F03C4F20003FA794FEA1212D2B21A7045F69023C4F200034FF020021A70B0
:400B000045F69323C4F200034FF001021A7045F69C23C4F200034FF020021A7045F6D023C4F200034FF085021A704FF4B643C4F200034FF020021A7045F60433C4F200035F
:400B40004FF080021A7045F65833C4F200034FF020021A7045F67603C4F200034FF044021A7007F10C07BD4680BC704780B483B000AF0346FB71FB79072B37D8FA79FB79DC
:400B8000D318FB71FA7943F64C53C0F2000353F82220F97943F64C53C0F2000353F821301978F87943F68C53C0F200031B5C0B43DBB21370FB7903F10103FB71FA7943F68E
:400BC0004C53C0F2000353F82220F97943F64C53C0F2000353F821301978F87943F68C53C0F200031B5C0B43DBB2137007F10C07BD4680BC704700BF80B483B000AF0346B6
:400C0000FB71FB79072B3DD8FA79FB79D318FB71FA7943F64C53C0F2000353F82220F97943F64C53C0F2000353F821301978F87943F68C53C0F200031B5C6FEA0303DBB2F5
:400C40000B40DBB21370FB7903F10103FB71FA7943F64C53C0F2000353F82220F97943F64C53C0F2000353F821301978F87943F68C53C0F200031B5C6FEA0303DBB20B409C
:400C8000DBB2137007F10C07BD4680BC704700BF80B483B000AF0346FB71FB79072B37D8FA79FB79D318FB71FA7943F69C53C0F2000353F82220F97943F69C53C0F200037A
:400CC00053F821301978F87943F6DC53C0F200031B5C0B43DBB21370FB7903F10103FB71FA7943F69C53C0F2000353F82220F97943F69C53C0F2000353F821301978F879C2
:400D000043F6DC53C0F200031B5C0B43DBB2137007F10C07BD4680BC704700BF80B483B000AF0346FB71FB79072B3DD8FA79FB79D318FB71FA7943F69C53C0F2000353F8A2
:400D40002220F97943F69C53C0F2000353F821301978F87943F6DC53C0F200031B5C6FEA0303DBB20B40DBB21370FB7903F10103FB71FA7943F69C53C0F2000353F82220B4
:400D8000F97943F69C53C0F2000353F821301978F87943F6DC53C0F200031B5C6FEA0303DBB20B40DBB2137007F10C07BD4680BC704700BF80B586B000AF72B644F2E863E8
:400DC000C4F2000344F2E862C4F200021278D2B242F00402D2B21A704FF00003FB7519E0FA7D13464FEA43039B184FEA430343F6EC52C0F200029B183B613B691A683B693E
:400E00009B889BB210461946FFF70CFDFB7D03F10103FB75FB7D072BE2D94FF00003FB7523E0FA7D13464FEA83039B184FEA430343F61C62C0F200029B18FB60FB681B6874
:400E4000BB60FB685B687B60FB681A7A5B7A4FEA032313437B807B88B86879681A46FFF7F1FCFB7D03F10103FB75FB7D002BD8D04FF090404FF06001C4F60001FFF7F8FC14
:400E800045F68303C4F200034FF00A021A7045F20303C4F2010345F20302C4F201021278D2B242F00202D2B21A7045F21303C4F2010345F21302C4F201021278D2B242F059
:400EC0000202D2B21A7044F2A033C4F2000344F2A032C4F200021278D2B242F04002D2B21A7044F2C233C4F2000344F2C232C4F200021278D2B242F01002D2B21A704FF465
:400F0000A240C4F200004FF47471C4F600014FF00A02FFF797FC45F2F210C4F200004FF47771C4F600014FF00802FFF78BFC45F21210C4F200004FF47971C4F600014FF091
:400F40000802FFF77FFC45F22210C4F200004FF47B71C4F600014FF00802FFF773FC45F23210C4F200004FF47D71C4F600014FF00802FFF767FC44F22233C4F2000344F208
:400F80002232C4F200021278D2B242F00802D2B21A704FF49043C4F200034FF001021A70FFF7A8FC4FF49043C4F200034FF081021A704FF00403C4F208034FF001021A70AA
:400FC000FFF77CFD44F2B030C4F2000044F2A031C4F200014FF00E02FFF734FC07F11807BD4680BD000000000230800800F0058000BF013800467FF4FCAF7047EFF3108078
:4010000072B6704780F31088704700BFAFF3008080B483B000AF0346FB7101BE07F10C07BD4680BC704700BF80B582B000AF78600BE048F21813C1F6FF731B681846FFF7A6
:40104000D3FF7B68A3F500437B607B68B3F5004FEFD848F21013C1F6FF731B687A6802FB03F31846FFF7C0FF07F10807BD4680BD80B582B000AF0346FB80FA8848F214136F
:40108000C1F6FF731B7803FB02F31846FFF7ACFF07F10807BD4680BD80B584B000AF03463960FB714EF60853CEF200031B68FB60FB791F2B03D94FF00000FFF7A9FFFB79AA
:4010C00003F01F0303F110034FEA8303FA68D3181B68BB60FB7903F01F0303F110034FEA8303FA68D3183A681A60BB68184607F11007BD4680BD00BF80B582B000AF024685
:401100000B46FA71BB71BB79072B03D94FF00000FFF77EFFFB791F2B03D94FF00000FFF777FFFB7903F01F0303F1604303F56443BA794FEA4212D2B21A7007F10807BD46F7
:4011400080BD00BF80B582B002AF48F21C13C1F6FF734FF001021A7048F2A413C1F6FF734FF000021A704FF0100001F083F84FF0100001F0ADF94FF01D004FF00701FFF7DE
:40118000BBFF45F69603C4F200034FF007021A7045F69703C4F200034FF000021A7045F69E03C4F200034FF000021A7045F60733C4F2000345F60732C4F200021278D2B2F5
:4011C00042F01802D2B21A7045F69303C4F200034FF000021A7045F68833C4F200034FF000021A7045F68933C4F200034FF000021A704FF4B143C4F200034FF00A021A7086
:4012000045F68103C4F200034FF000021A7045F68303C4F200034FF000021A7045F68803C4F200034FF05B021A7045F68903C4F200034FF05E021A7045F68D03C4F2000354
:401240004FF000021A7044F60163C4F200034FF014021A704FF0010300934FF0040049F2DA014FF400424FF0140300F0D5FD4FF0020300934FF0060047F602714FF4004250
:401280004FF0140300F0C8FD44F60E63C4F2000348F21C12C1F6FF721278D2B202F1FF3248F2A811C1F6FF714FEA82028A1892781A7044F60C63C4F2000348F21C12C1F66F
:4012C000FF721278D2B202F1FF3148F2A812C1F6FF7232F821201A8048F21C13C1F6FF731B78DBB2184600F06FFBBD4680BD00BF80B582B000AFFFF781FE0346FB7148F248
:401300001C13C1F6FF731B78BB7144F2AA33C4F2000344F2AA32C4F200021278D2B242F00102D2B21A7044F2AA33C4F2000344F2AA32C4F200021278D2B242F01002D2B243
:401340001A7044F2BA33C4F2000344F2BA32C4F200021278D2B242F00102D2B21A7044F2BA33C4F2000344F2BA32C4F200021278D2B242F01002D2B21A7044F2F863C4F27F
:40138000000344F2F862C4F200021278D2B242F00202D2B21A7044F2F963C4F2000344F2F962C4F200021278D2B242F00202D2B21A7045F69103C4F2000345F69102C4F29E
:4013C00000021278D2B242F00302D2B21A704FF00300FFF74DFE44F2F863C4F2000344F2F862C4F200021278D2B222F00202D2B21A7044F2F963C4F2000344F2F962C4F2BF
:4014000000021278D2B222F00202D2B21A7045F67703C4F2000345F67702C4F200021278D2B242F00602D2B21A7045F68203C4F200034FF07A021A7044F2A133C4F20003C7
:4014400044F2A132C4F200021278D2B242F00102D2B21A7044F2B133C4F2000344F2B132C4F200021278D2B242F00102D2B21A7044F2A233C4F2000344F2A232C4F20002DF
:401480001278D2B242F00102D2B21A7044F2B233C4F2000344F2B232C4F200021278D2B242F00102D2B21A704EF28023CEF200034FF000521A604FF46143CEF200034FF04A
:4014C00000521A60FB791846FFF79CFD07F10807BD4680BD80B500AF48F2A613C1F6FF731B78002B10D148F2A713C1F6FF731B78DBB2002B01D1FFF725FE48F2A613C1F6DC
:40150000FF734FF001021A70FFF7F2FE80BD00BF80B582B000AFFFF771FD0346FB714FF49C43C4F200034FF49C42C4F200021278D2B222F00102D2B21A7044F60163C4F223
:40154000000344F60162C4F200021278D2B242F00402D2B21A7044F2F863C4F2000344F2F862C4F200021278D2B242F00202D2B21A7044F2F963C4F2000344F2F962C4F249
:4015800000021278D2B242F00202D2B21A7045F69103C4F2000345F69102C4F200021278D2B222F00302D2B21A7045F69203C4F2000345F69202C4F200021278D2B222F066
:4015C0000802D2B21A704FF00300FFF751FD44F2F863C4F2000344F2F862C4F200021278D2B222F00202D2B21A7044F2F963C4F2000344F2F962C4F200021278D2B222F0D5
:401600000202D2B21A7044F2AA33C4F2000344F2AA32C4F200021278D2B222F01002D2B21A7044F2AA33C4F2000344F2AA32C4F200021278D2B222F00102D2B21A7044F2C5
:40164000BA33C4F2000344F2BA32C4F200021278D2B222F00102D2B21A7044F2BA33C4F2000344F2BA32C4F200021278D2B222F01002D2B21A7045F67703C4F2000345F61A
:401680007702C4F200021278D2B222F00602D2B21A7044F2A133C4F2000344F2A132C4F200021278D2B222F00102D2B21A7044F2B133C4F2000344F2B132C4F200021278E0
:4016C000D2B222F00102D2B21A7045F68203C4F2000345F68202C4F200021278D2B222F00802D2B21A7044F2A233C4F2000344F2A232C4F200021278D2B222F00102D2B2EE
:401700001A7044F2B233C4F2000344F2B232C4F200021278D2B222F00102D2B21A70FB791846FFF76FFC07F10807BD4680BD00BF80B400AF4FF49C43C4F200034FF49C4230
:40174000C4F200021278D2B242F00102D2B21A70BD4680BC704700BF80B400AF4FF49C43C4F200034FF49C42C4F200021278D2B222F00102D2B21A70BD4680BC704700BF2E
:4017800080B485B000AF0346FB7148F2A513C1F6FF731B78DBB2002B06D048F2A413C1F6FF731B78FB7308E044F60163C4F200031B78DBB203F00103FB73FB7B012B02D0CD
:4017C000FB79002BE1D0FB7B184607F11407BD4680BC704780B483B000AF44F61463C4F200031B78DBB203F00303FB70FB78012B12D844F61263C4F200031B889BB27B60FC
:401800007B684FEA034244F61063C4F200031B889BB213437B6032E0FB78022B1DD144F61263C4F200031B889BB27B607B684FEA034244F61063C4F200031B78DBB21343B0
:401840007B6044F61163C4F200031B78DBB24FEA03237A6813437B6011E044F61063C4F200031B889BB27B6044F61263C4F200031B889BB24FEA03437A6813437B6048F24E
:40188000A513C1F6FF731B78DBB2002B06D048F2A413C1F6FF734FF000021A707B68184607F10C07BD4680BC704700BF80B485B000AF786048F2C413C1F6FF731B687A68B1
:4018C000D31A7B607B684FF47A7202FB03F248F2C013C1F6FF731B6892FBF3F3FB81FB891BB2184607F11407BD4680BC704700BF80B487B000AF786048F21C13C1F6FF7379
:401900001B78DBB2012B03D14FF01403FB731AE048F21C13C1F6FF731B78DBB2022B03D14FF01403FB730EE048F21C13C1F6FF731B78DBB2032B03D14FF01003FB7302E00E
:401940004FF01003FB73FB7B102B02D0142B07D00DE047F612237B614FF020033B610FE04FF4FA637B614FF4FA733B6108E044F24023C0F20F037B614FF001033B6100BF5F
:4019800048F2C013C1F6FF731A683B6992FBF3F33B617B697A6802FB03F23B6992FBF3F248F2C413C1F6FF731B68796901FB03F13B6991FBF3F3D31ABB60BB68184607F1C8
:4019C0001C07BD4680BC704780B582B000AF0346FB7148F2A513C1F6FF734FF000021A70FB79012B40F0DC804FF49C43C4F200034FF078021A7044F60263C4F200034FF03C
:401A000000021A7044F60363C4F200034FF00A021A7044F60463C4F200034FF07F021A7044F60563C4F200034FF000021A7044F60663C4F200034FF07F021A7044F60863D7
:401A4000C4F200034FF000021A7044F60963C4F200034FF000021A7044F60A63C4F200034FF000021A7044F61463C4F200034FF001021A7045F68403C4F200034FF050024B
:401A80001A7045F68503C4F200034FF027021A7045F68603C4F200034FF02C021A7045F68703C4F200034FF000021A7045F68A03C4F200034FF055021A7045F68B03C4F251
:401AC00000034FF05A021A7045F68C03C4F200034FF005021A7045F68E03C4F200034FF000021A7045F68F03C4F200034FF000021A7045F69003C4F200034FF00A021A706E
:401B000045F69103C4F200034FF043021A704FF0440000F04FFA45F69403C4F200034FF058021A7045F69503C4F200034FF000021A7045F69A03C4F200034FF002021A70F0
:401B400045F69B03C4F200034FF002021A7045F69C03C4F200034FF000021A7045F69D03C4F200034FF000021A7048F2C013C1F6FF734FF4FA221A604FF023004FF0010197
:401B800000F078FA4FF091004FF0010100F0A0FB4FF01D0042F25D01C0F20001FFF77CFAFB79022B40F0DE804FF49C43C4F200034FF078021A7044F60263C4F200034FF036
:401BC00000021A7044F60363C4F200034FF00A021A7044F60463C4F200034FF07F021A7044F60563C4F200034FF000021A7044F60663C4F200034FF07F021A7044F6086316
:401C0000C4F200034FF000021A7044F60963C4F200034FF000021A7044F60A63C4F200034FF000021A7044F61463C4F200034FF001021A7045F68403C4F200034FF0500289
:401C40001A7045F68503C4F200034FF007021A7045F68603C4F200034FF029021A7045F68703C4F200034FF000021A7045F68A03C4F200034FF055021A7045F68B03C4F2B2
:401C800000034FF05A021A7045F68C03C4F200034FF000021A7045F68E03C4F200034FF002021A7045F68F03C4F200034FF012021A7045F69003C4F200034FF028021A707F
:401CC00045F69103C4F200034FF0EB021A704FF0440000F06FF945F69403C4F200034FF058021A7045F69503C4F200034FF000021A7045F69A03C4F200034FF002021A7068
:401D000045F69B03C4F200034FF002021A7045F69C03C4F200034FF000021A7045F69D03C4F200034FF000021A7048F2C013C1F6FF7344F65552C0F201021A604FF0010001
:401D40004FF0010100F096F94FF007004FF0010100F0BEFA4FF01D0042F26901C0F20001FFF79AF907F10807BD4680BD80B582B000AF02460B46FA71BB71FB79002B42D000
:401D8000FB79022B3FD848F2A613C1F6FF731B78002B06D148F2A713C1F6FF734FF001021A7048F21C13C1F6FF73FA791A70FFF7AFFBFB791846FFF707FE44F60E63C4F274
:401DC0000003FA7902F1FF3248F2A811C1F6FF714FEA82028A1892781A7044F60C63C4F20003FA7902F1FF3148F2A812C1F6FF7232F821201A80BB79012B08D1FFF76AFB8F
:401E0000FFF796FC03E04FF00000FFF701F907F10807BD4680BD00BF80B586B000AFF871B9807A80BB7197F82030002B00F0BA8097F82030022B00F2B580FB7903F1FF331F
:401E4000092B63D801A252F823F000BF751E00000D1F00000D1F0000751E00000D1F00000D1F00009B1E0000C11E00000D1F0000E71E0000BB790F2B07D94FF48C73C4F64B
:401E800000131B78DBB2FB7544E04FF48E73C4F600131B78DBB2FB753CE0BB790F2B07D940F21913C4F600131B78DBB2FB7531E040F21D13C4F600131B78DBB2FB7529E0BC
:401EC000BB790F2B07D94FF48D73C4F600131B78DBB2FB751EE04FF48F73C4F600131B78DBB2FB7516E0BB790F2B07D940F21B13C4F600131B78DBB2FB750BE040F21F1304
:401F0000C4F600131B78DBB2FB7503E04FF00003FB7500BFBA8897F917304FEA4313D3183B617B883A6902FB03F3FB60FB684FEAD333BB82BB790D2B1AD8BA8ABB796FEABF
:401F4000030303F10F0342FA03F3BB8297F8203003F1FF33BA7902F10102D1B248F2A812C1F6FF724FEA8303D3180A469A700DE097F8203003F1FF3348F2A812C1F6FF7207
:401F80004FEA8303D3184FF00F029A7097F8203003F1FF3248F2A813C1F6FF73B98A23F8221003E04FF00000FFF732F807F11807BD4680BD80B584B000AF0346FB71FFF70F
:401FC0001DF80346FB7344F2F863C4F2000344F2F862C4F200021278D2B242F00302D2B21A7044F2F963C4F2000344F2F962C4F200021278D2B242F00302D2B21A7045F60E
:402000009203C4F20003FA791A704FF00300FFF72FF844F2F863C4F2000344F2F862C4F200021278D2B222F00302D2B21A7044F2F963C4F2000344F2F962C4F20002127813
:40204000D2B222F00302D2B21A70FB7B1846FEF7D9FF07F11007BD4680BD00BF80B400AFBD4680BC704700BF80B400AFBD4680BC704700BF80B584B000AF02460B46FA80AD
:402080007B7100F015F90346FB7300F0E7F80346BB81FA88BB899A4200F0DC8044F2A233C4F200031B78DBB203F00103FB72FB7B002B32D1BB89002B02D0FB88002B2CD165
:4020C000BB89002B14D14FF48143C4F20003FA881A8044F28203C4F2000344F28202C4F200021278D2B222F04002D2B21A70B1E044F28203C4F2000344F28202C4F20002E3
:402100001278D2B242F04002D2B21A704FF48143C4F20003FA881A809CE0FB7A002B5CD044F20103C4F200034FF000021A7044F21003C4F200034FF001021A7044F2140312
:40214000C4F200034FF000021A7044F20803C4F2000344F20802C4F200021278D2B202F07F02D2B21A7044F28203C4F200031B78DBB203F00803002B02D0FB88002B2CD120
:4021800044F20203C4F20003BA891A8044F20103C4F200034FF007021A7000BF44F20103C4F200031B78DBB203F00103002BF5D144F2A233C4F2000344F2A232C4F2000249
:4021C0001278D2B222F00102D2B21A7044F20103C4F200034FF000021A7044F2A233C4F200031B78DBB203F00103002B1ED044F20203C4F20003FA881A8044F20103C4F2FC
:4022000000037A79002A02D04FF0030201E04FF001021A7000BF44F20103C4F200031B78DBB203F00103002BF5D113E04FF48143C4F20003FA881A8044F2A233C4F200036E
:4022400044F2A232C4F200021278D1B2FA7A0A43D2B21A7007F11007BD4680BD80B400AF4FF48143C4F200031B889BB21846BD4680BC704780B483B000AF0346FB7144F289
:402280008203C4F2000344F28202C4F200021278D2B2D1B2FA7922F00702D2B20A43D2B2D2B21A7007F10C07BD4680BC704700BF80B400AF44F28203C4F200031B78DBB2B5
:4022C00003F00703DBB21846BD4680BC704700BF80B584B000AF02460B46FA807B7100F015F90346FB7300F0E7F80346BB81FA88BB899A4200F0DC8044F2A133C4F2000370
:402300001B78DBB203F00103FB72FB7B002B32D1BB89002B02D0FB88002B2CD1BB89002B14D14FF48243C4F20003FA881A8044F20213C4F2000344F20212C4F200021278C8
:40234000D2B222F04002D2B21A70B1E044F20213C4F2000344F20212C4F200021278D2B242F04002D2B21A704FF48243C4F20003FA881A809CE0FB7A002B5CD044F20103F1
:40238000C4F200034FF000021A7044F21403C4F200034FF001021A7044F21003C4F200034FF000021A7044F20803C4F2000344F20802C4F200021278D2B202F07F02D2B203
:4023C0001A7044F20213C4F200031B78DBB203F00803002B02D0FB88002B2CD144F20203C4F20003BA891A8044F20103C4F200034FF007021A7000BF44F20103C4F2000341
:402400001B78DBB203F00103002BF5D144F2A133C4F2000344F2A132C4F200021278D2B222F00102D2B21A7044F20103C4F200034FF000021A7044F2A133C4F200031B78CB
:40244000DBB203F00103002B1ED044F20203C4F20003FA881A8044F20103C4F200037A79002A02D04FF0030201E04FF001021A7000BF44F20103C4F200031B78DBB203F017
:402480000103002BF5D113E04FF48243C4F20003FA881A8044F2A133C4F2000344F2A132C4F200021278D1B2FA7A0A43D2B21A7007F11007BD4680BD80B400AF4FF48243BD
:4024C000C4F200031B889BB21846BD4680BC704780B483B000AF0346FB7144F20213C4F2000344F20212C4F200021278D2B2D1B2FA7922F00702D2B20A43D2B2D2B21A708C
:4025000007F10C07BD4680BC704700BF80B400AF44F20213C4F200031B78DBB203F00703DBB21846BD4680BC704700BF80B582B000AF4FF00003FB710BE0FB791846FEF7C1
:402540005BFBFB791846FEF7E9FBFB7903F10103FB71FB79072BF0D948F21D13C1F6FF734FF0FF021A7007F10807BD4680BD00BF80B582B000AF0346FB71FFF7D7FFFB79A5
:40258000184600F00BF848F21D13C1F6FF73FA791A7007F10807BD4680BD00BF80B582B000AF0346FB71FB791846FEF7DFFAFB791846FEF76DFB07F10807BD4680BD00BF94
:4025C00080B500AF48F2B013C1F6FF731B78002B08D100F00BF848F2B013C1F6FF734FF001021A7000F02AF880BD00BF80B400AF46F28543C4F200034FF072021A7046F236
:402600008243C4F200034FF020021A7046F22343C4F200034FF007021A7046F23343C4F200034FF048021A704FF4C943C4F200034FF000021A70BD4680BC704780B582B05E
:4026400000AFFEF7DBFC0346FB7146F29543C4F2000346F29542C4F200021278D2B242F02002D2B21A7046F29243C4F2000346F29242C4F200021278D2B242F01002D2B2CA
:402680001A7046F29043C4F2000346F29042C4F200021278D2B242F01002D2B21A7000F049F8FB791846FEF7ADFC07F10807BD4680BD00BF80B483B000AF0346FB7100BF79
:4026C00046F26043C4F200031B78DBB203F00403002BF5D146F24043C4F20003FA791A7007F10C07BD4680BC704700BF80B584B000AF78604FF00003FB8148F2B013C1F6A8
:40270000FF731B78002B11D00AE0FB897A68D3181B781846FFF7CEFFFB8903F10103FB81FB897A68D3181B78002BEED107F11007BD4680BD80B400AF44F2A233C4F20003DD
:4027400044F2A232C4F200021278D2B242F00202D2B21A7044F2B233C4F2000344F2B232C4F200021278D2B242F00202D2B21A70BD4680BC704700BF81F0004102E000BF45
:4027800083F0004330B54FEA41044FEA430594EA050F08BF90EA020F1FBF54EA000C55EA020C7FEA645C7FEA655C00F0E2804FEA5454D4EB5555B8BF6D420CDD2C4480EA4E
:4027C000020281EA030382EA000083EA010180EA020281EA0303362D88BF30BD11F0004F4FEA01314FF4801C4CEA113102D0404261EB410113F0004F4FEA03334CEA1333E2
:4028000002D0524263EB430394EA050F00F0A780A4F10104D5F1200E0DDB02FA0EFC22FA05F2801841F1000103FA0EF2801843FA05F359410EE0A5F120050EF1200E012A36
:4028400003FA0EFC28BF4CF0020C43FA05F3C01851EBE37101F0004507D54FF0000EDCF1000C7EEB00006EEB0101B1F5801F1BD3B1F5001F0CD349085FEA30004FEA3C0C65
:4028800004F101044FEA445212F5800F80F09A80BCF1004F08BF5FEA500C50F1000041EB045141EA050130BD5FEA4C0C404141EB010111F4801FA4F10104E9D191F0000F0F
:4028C00004BF01460020B1FA81F308BF2033A3F10B03B3F120020CDA0C3208DD02F1140CC2F10C0201FA0CF021FA02F10CE002F11402D8BFC2F1200C01FA02F120FA0CFCB0
:40290000DCBF41EA0C019040E41AA2BF01EB0451294330BD6FEA04041F3C1CDA0C340EDC04F11404C4F1200220FA04F001FA02F340EA030021FA04F345EA030130BDC4F129
:402940000C04C4F1200220FA02F001FA04F340EA0300294630BD21FA04F0294630BD94F0000F83F4801306BF81F480110134013D4EE77FEA645C18BF7FEA655C29D094EACD
:40298000050F08BF90EA020F05D054EA000C04BF1946104630BD91EA030F1EBF0021002030BD5FEA545C05D14000494128BF41F0004130BD14F580043CBF01F5801130BDBA
:4029C00001F0004545F0FE4141F470014FF0000030BD7FEA645C1ABF194610467FEA655C1CBF0B46024650EA013406BF52EA033591EA030F41F4002130BD00BF90F0000F40
:402A000004BF0021704730B54FF4806404F132044FF000054FF0000150E700BF90F0000F04BF0021704730B54FF4806404F1320410F0004548BF40424FF000013EE700BFF7
:402A400042004FEAE2014FEA31014FEA02701FBF12F07F4393F07F4F81F06051704792F0000F14BF93F07F4F704730B54FF4607401F0004521F0004120E700BF50EA010223
:402A800008BF704730B54FF000050AE050EA010208BF704730B511F0004502D5404261EB41014FF4806404F132045FEA915C3FF4DCAE4FF003025FEADC0C18BF03325FEAA9
:402AC000DC0C18BF033202EBDC02C2F1200300FA03FC20FA02F001FA03FE40EA0E0021FA02F11444C1E600BF70B54FF0FF0C4CF4E06C1CEA11541DBF1CEA135594EA0C0FF3
:402B000095EA0C0F00F0DEF82C4481EA030621EA4C5123EA4C5350EA013518BF52EA033541F4801143F4801338D0A0FB02CE4FF00005E1FB02E506F00042E0FB03E54FF0FE
:402B40000006E1FB03569CF0000F18BF4EF0010EA4F1FF04B6F5007F64F5407404D25FEA4E0E6D4146EB060642EAC62141EA55514FEAC52040EA5E504FEACE2EB4F1FD0C69
:402B800088BFBCF5E06F1ED8BEF1004F08BF5FEA500E50F1000041EB045170BD06F0004646EA010140EA020081EA0301B4EB5C04C2BFD4EB0C0541EA045170BD41F48011B1
:402BC0004FF0000E013C00F3AB8014F1360FDEBF002001F0004170BDC4F10004203C35DA0C341BDC04F11404C4F1200500FA05F320FA04F001FA05F240EA020001F0004234
:402C000021F0004110EBD37021FA04F642EB06015EEA430E08BF20EAD37070BDC4F10C04C4F1200500FA04F320FA05F001FA04F240EA020001F0004110EBD37041F1000182
:402C40005EEA430E08BF20EAD37070BDC4F1200500FA05F24EEA020E20FA04F301FA05F243EA020321FA04F001F0004121FA04F220EA020000EBD3705EEA430E08BF20EA3C
:402C8000D37070BD94F0000F0FD101F00046400041EB010111F4801F08BF013CF7D041EA060195F0000F18BF704703F00046520043EB030313F4801F08BF013DF7D043EA6B
:402CC0000603704794EA0C0F0CEA135518BF95EA0C0F0CD050EA410618BF52EA4306D1D181EA030101F000414FF0000070BD50EA410606BF1046194652EA430619D094EA5D
:402D00000C0F02D150EA013613D195EA0C0F05D152EA03361CBF104619460AD181EA030101F0004141F0FE4141F470014FF0000070BD41F0FE4141F4780170BD70B54FF02E
:402D4000FF0C4CF4E06C1CEA11541DBF1CEA135594EA0C0F95EA0C0F00F0A7F8A4EB050481EA030E52EA03354FEA013100F088804FEA03334FF0805545EA131343EA1263E0
:402D80004FEA022245EA111545EA10654FEA00260EF000419D4208BF964244F1FD0404F5407402D25B084FEA3202B61A65EB03055B084FEA32024FF480104FF4002CB6EB3F
:402DC000020E75EB030E22BFB61A754640EA0C005B084FEA3202B6EB020E75EB030E22BFB61A754640EA5C005B084FEA3202B6EB020E75EB030E22BFB61A754640EA9C00A8
:402E00005B084FEA3202B6EB020E75EB030E22BFB61A754640EADC0055EA060E18D04FEA051545EA16754FEA06164FEAC30343EA52734FEAC2025FEA1C1CC0D111F4801FED
:402E40000BD141EA00014FF000004FF0004CB6E711F4801F04BF01430020B4F1FD0C88BFBCF5E06F3FF6AFAEB5EB030C04BFB6EB020C5FEA500C50F1000041EB045170BDDC
:402E80000EF0004E4EEA113114EB5C04C2BFD4EB0C0541EA045170BD41F480114FF0000E013C90E645EA060E8DE60CEA135594EA0C0F08BF95EA0C0F3FF43BAF94EA0C0F65
:402EC0000AD150EA01347FF434AF95EA0C0F7FF425AF104619462CE795EA0C0F06D152EA03353FF4FDAE1046194622E750EA410618BF52EA43067FF4C5AE50EA41047FF453
:402F00000DAF52EA43057FF4EBAE12E74FEA4102B2F1E04324BFB3F5001CDCF1FE5C0DD901F0004C4FEAC0024CEA5070B2F1004F40EB830008BF20F00100704711F0804F29
:402F400021D113F13872BCBF01F00040704741F480114FEA5252C2F11802C2F1200C10FA0CF320FA02F018BF40F001004FEAC1234FEAD32303FA0CFC40EA0C0023FA02F349
:402F80004FEA4303CCE77FEA625307D150EA01331EBF4FF0FE4040F44000704701F0004040F0FE4040F40000704700BF80F0004002E000BF81F0004142001FBF5FEA4103FD
:402FC00092EA030F7FEA226C7FEA236C6AD04FEA1262D2EB1363C1BFD218414048404140B8BF5B42192B88BF704710F0004F40F4000020F07F4018BF404211F0004F41F4C0
:40300000000121F07F4118BF494292EA030F3FD0A2F1010241FA03FC10EB0C00C3F1200301FA03F100F0004302D5494260EB4000B0F5000F13D3B0F1807F06D340084FEA6E
:40304000310102F10102FE2A51D2B1F1004F40EBC25008BF20F0010040EA03007047490040EB000010F4000FA2F10102EDD1B0FA80FCACF1080CB2EB0C0200FA0CF0AABF37
:4030800000EBC25052421843BCBFD0401843704792F0000F81F4000106BF80F400000132013BB5E74FEA41037FEA226C18BF7FEA236C21D092EA030F04D092F0000F08BF4E
:4030C0000846704790EA010F1CBF0020704712F07F4F04D1400028BF40F00040704712F100723CBF00F50000704700F0004343F0FE4040F4000070477FEA226216BF0846E1
:403100007FEA23630146420206BF5FEA412390EA010F40F4800070474FF0000304E000BF10F0004348BF40425FEA000C08BF704743F0964301464FF000001CE050EA01025F
:4031400008BF70474FF000030AE000BF50EA010208BF704711F0004302D5404261EB41015FEA010C02BF84460146002043F0B64308BFA3F18053A3F50003BCFA8CF2083A4D
:40318000A3EBC25310DB01FA02FC634400FA02FCC2F12002BCF1004F20FA02F243EB020008BF20F00100704702F1200201FA02FCC2F1200250EA4C0021FA02F243EB0200A3
:4031C00008BF20EADC7070474FF0FF0C1CEAD0521EBF1CEAD15392EA0C0F93EA0C0F6FD01A4480EA010C400218BF5FEA41211ED04FF0006343EA501043EA5111A0FB013102
:403200000CF00040B1F5000F3EBF490041EAD3715B0040EA010062F17F02FD2A1DD8B3F1004F40EBC25008BF20F00100704790F0000F0CF0004C08BF49024CEA502040EAFA
:4032400051207F3AC2BFD2F1FF0340EAC250704740F400004FF00003013A5DDC12F1190FDCBF00F000407047C2F10002410021FA02F1C2F1200200FA02FC5FEA310040F1D8
:40328000000053EA4C0308BF20EADC70704792F0000F00F0004C02BF400010F4000F013AF9D040EA0C0093F0000F01F0004C02BF490011F4000F013BF9D041EA0C018FE7F3
:4032C0000CEAD15392EA0C0F18BF93EA0C0F0AD030F0004C18BF31F0004CD8D180EA010000F00040704790F0000F17BF90F0004F084691F0000F91F0004F14D092EA0C0FCC
:4033000001D142020FD193EA0C0F03D14B0218BF084608D180EA010000F0004040F0FE4040F40000704740F0FE4040F4400070474FF0FF0C1CEAD0521EBF1CEAD15392EA5E
:403340000C0F93EA0C0F69D0A2EB030280EA010C49024FEA402037D04FF0805343EA111143EA10130CF000408B4238BF5B0042F17D024FF4000C8B4224BF5B1A40EA0C0005
:40338000B3EB510F24BFA3EB510340EA5C00B3EB910F24BFA3EB910340EA9C00B3EBD10F24BFA3EBD10340EADC001B0118BF5FEA1C1CE0D1FD2A3FF650AF8B4240EBC25068
:4033C00008BF20F0010070470CF0004C4CEA50207F32C2BFD2F1FF0340EAC250704740F400004FF00003013A37E792F0000F00F0004C02BF400010F4000F013AF9D040EA88
:403400000C0093F0000F01F0004C02BF490011F4000F013BF9D041EA0C0195E70CEAD15392EA0C0F08D142027FF47DAF93EA0C0F7FF470AF084676E793EA0C0F04D14B02DE
:403440003FF44CAF08466EE730F0004C18BF31F0004CCAD130F000427FF45CAF31F000437FF43CAF5FE700BF4FEA4002B2F1FE4F0FD34FF09E03B3EB12620DD94FEA002308
:4034800043F0004310F0004F23FA02F018BF404270474FF00000704712F1610F01D1420205D110F0004008BF6FF0004070474FF00000704738B50E4D0E4B0024E81A851024
:4034C000AC4205D00B4951F8242090470134F7E700F0C6FC0849094A541AA5100024AC4205D0054B53F8240080470134F7E738BD6C3E00006C3E00006C3E0000743E0000A0
:4035000010B50023934203D0CC5CC4540133F9E710BD82180346934202D003F8011BFAE7704700000EB400B59CB0029006906FF000401DAB049007904FF402710A4853F8D1
:40354000042BADF814104FF6FF71ADF81610006802A9019300F062F8029B00221A701CB05DF804EB03B070478481FF1F2DE9F8439368064689461446002B41D1928912F4DD
:40358000906F3DD0616903254D43236927680220FF1A95FBF0F5791C02F48062A94211B2A8BF3D18304679B1294600F009FB8046A0B13A462169FFF7A3FFA38923F49060EC
:4035C00040F08002A28113E019462A4600F050FB804668B93046216900F0AEFAA0890C2340F0400233604FF0FF30A281BDE8F88308EB07016561ED1BC4F810802160A560D1
:40360000A368002B06DD206800F8019BA2682060511EA1600020BDE8F88300002DE9F0479CB003938B890D4603F0800114460AB2064662B12B6953B9402100F0C1FA286068
:40364000286110B90C213160D3E04020686100272021302209978DF829108DF82A2023461F4613F8010B28B9B7EB040A16D04FF000090DE02528F3D1F6E7304614F809105D
:403680002A46FFF773FF013000F0AC8009F10109D145F2DB099901EB0A0209923B78002B00F0A08000244FF0FF3004940794059006948DF853401A9407F101094F4F4C46EF
:4036C00038462178052200F0C5FA09F10109049B30B1C41B012707FA04F73B430493EDE7D90602D520218DF853101A0702D52B228DF8532020782A2802D0079B27460EE098
:40370000039A1768101D002F039001DB079704E0794243F002030791049301340AE03C46217801373039092903D80A2404FB0313F5E7079322782E2A19D160782A2809D17D
:40374000039802340368021D002B0392B8BF4FF0FF330BE0671C00233C46217801373039092903D80A2404FB0313F5E70593244F21783846032200F06DFA38B1C71B402103
:4037800001FA07F1049B01340B43049314F8011B1C4806228DF8281000F05CFA88B11A4A32B9039FFB1D23F007000830039014E003A90091304604A92A46144BAFF300803A
:4037C00007E003A8009004A930462A460F4B00F08FF8B0F1FF3F804604D0099A02EB080109913CE7AB8903F0400002B20AB9099801E04FF0FF301CB0BDE8F0872A3E000056
:40380000303E0000343E0000000000006D3500002DE9F047154699468A680B6980469A42A8BF13462B6091F843000C46DDF820A008B1591C29602668B20602D52A68931C64
:403840002B60206810F0060618D094F8437020683E1C18BF012683061AD5A119302281F8432094F84530023681F8443010E04046617E4A46D047013006D00136E1682A6887
:403880008B1A9E42F3DBE0E74FF0FF30BDE8F0870027B74209DAE119404691F843104A46D0470130F0D00137F3E721682868E66801F00602042A08BFC0EB06052369A668B6
:4038C0000CBF25EAE57500259E42C4BFC3EB0603ED180026AE4207DA4046A17E4A46D0470130D1D00136F5E70020BDE8F08700002DE9F0430C46257E85B06E2D90460746BB
:4039000099460C9904F1430200F0AA8012D8632D24D009D8002D00F0BB80582D40F0CB8084F84550824D57E0642D20D0692D40F0C2801CE0732D00F0AF8009D86F2D2FD031
:40394000702D40F0B880256845F0200626603FE0752D25D0782D40F0AE8039E0086804F14206021D0A60016884F84210A7E020680B6810F0800F02D01E1D0E6008E003F12D
:40398000040510F0400F0D6002D0B3F9001000E0196800293CDA2D20494284F8430037E025680E6815F0800F02D0331D0B6007E006F1040015F0400F086001D0318800E03A
:4039C0003168267E5A4D6F2E14BF0A2308231BE07820584D84F8450020680B6810F0800F03F104060E6003D1410601D5198800E01968C60744BF40F02000206019B920683F
:403A000020F0200323601023002084F8430001E0474D0A236668002EA66003DB206820F00400206001B96EB104F14200B1FBF3FE03FB1E11695C064600F801197146002943
:403A4000F4D100E01646921B082B22613CD12368D80739D56068904236DC511C616033E026680B6816F0800F05D01E1D0E601968606908600CE003F1040016F0400F086009
:403A800003D018686369038002E061691E68316000232361164617E00E68321D0A603668304600F019F963682061984288BF23612069606005E004F1420684F842500123D4
:403AC0002361002184F84310CDF800903846214603AA4346FFF79CFE013002D14FF0FF3022E000252269954207DA3846715D4246C8470130F2D00135F4E72168890705D49D
:403B0000E06803998842B8BF08460DE00025E068039BC21A9542F3DA3846617E4246C8470130DBD00135F2E705B0BDE8F08300BF3B3E00004C3E000030B500293CD051F8C9
:403B4000042C0B1F1D49002AB8BF9B180A6812B95A600B6030BD93420ED219685818904203D15A5889184268196014485A60036030BD994203D80A4651680029F9D114688C
:403B800015199D420AD118682318D0188842136012D108681B1813604B680CE002D90C23036030BD18681C188C4203D10C684968001918605960536030BD00BFB481FF1FD4
:403BC00070B5CD1C25F0030508350C2D38BF0C25002D06462DDB8D422BD31D4B1B681C469CB12268501B0DD40B2802D92060241817E0A34203D16068154A10601DE0616867
:403C000059601AE023466468EAE72946304600F053F8431C01460CD0CC1C24F003048C4201D1256009E03046611A00F045F80130F7D10C203060002070BD04F10B01231DB7
:403C400021F00700C31A02D05A42E25070BD70BDB481FF1F10B5C9B2034682189342184604D0047801338C42F8D100E0002010BDF8B5064615460C4621B91146BDE8F84010
:403C8000FFF79EBF1AB9FFF757FF2C4612E000F02BF8A8420ED230462946FFF791FF074638B121462A46FFF72BFC30462146FFF743FF3C462046F8BD38B5064C002305465D
:403CC0000846236000F01AF8431C02D1216801B1296038BDC881FF1F034613F8012B002AFBD1181A0138704751F8040C002802DA04390B58C018043870470000094A136871
:403D00006BB118186946884202D8106018467047054B0C221A604FF0FF3318467047034B1360EEE7B881FF1FC881FF1FD081FF1F000000002564202564202564202564207A
:403D40002564202564200D0A000000002C510040244300402C510040244300402C510040244300402C510040244300403C5100409B5A0040935A0040945A0040FD5100405F
:403D800024430040FD5100409C5A0040800020000800020040108020020001102D510040244300402D510040244300402D510040244300402D510040244300403D51004089
:403DC000585B00401D510040585B0040035B004024430040035B00402443004040001000040001008080100140004000405100403000C05100401000000001408004000593
:403E00000140000B00140140000800400140000A004C014000020050014020008004014050030048800000004300232D302B2000686C4C0065666745464700303132333402
:403E40003536373839414243444546003031323334353637383961626364656600000000F8B500BFF8BC08BC9E4670475100000071070000F8B500BFF8BC08BC9E46704771
:403E80002D000000983E00000881FF1F8000000048000000000000000000000000366E01C05D0000180000000000E02E01FF000000000000000000000000000000000000A8
:403EC00000000000000000000000000000000000283E000000000000000000000000000000000000000000000000000000000000000000000000000000000000000000005C
:403F000000000000000000000000000000000000000000002081FF1F00000000000000000000000000000000000000000000000000000000000000000000000000000000C2
:403F40000000000000000000000000000000000000000000000000000000000000000000000000000000000000000000000000000000000000000000000000000000000041
:403F80000000000000000000000000000000000000000000000000000000000000000000000000000000000000000000000000000000000000000000000000000000000001
:403FC00000000000000000000000000000000000000000000000000000000000000000000000000000000000000000000000000000000000000000000000000000000000C1
:404000000000000000000000000000000000000000000000000000000000000000000000000000000000000000000000000000000000000000000000000000000000000080
:020000040003F7
:0200000480007A
:4000000002520040036400404F000140360101404F0201403D0301403E0501400107014001090140040A0140010B014001150140011B01400741014002420140024401406D
:400040000145014003460140034701400248014001490140014C0140024D01400350014001400401800F823885720601080109180B220C040D28100118021B061D381F042F
:40008000210122012512260127202B202D202F18300233013404353E36013E513F044046410345E046CB480E49FF4AFF4BFF4EF04F44500C5401580459045A045B045C10C8
:4000C0005D115F0166C06A406B0281018302860E871C880389048A048B188C098D108F049003920C951099029B01A503A803A903AA04AD04AF08B00FB503B71CBA02BB8046
:40010000D804D904DC11DF0100B8010804100508070209200A400E40102012801520172019A01A801E401F02212022042408254026902702280829092B022D102E402F202D
:400140003120328034083504361038903C283D803F024010430249215060511059815A085B20C0E7C21AC44CCA7FCC6CCEFCD003D204D60F00330104040C051C07220804C6
:400180000B230C080F04111C1321153F1633183F19181C111E40200F2230240C25082633282229272B182C332D102E0C30403138320F351F36303A283B2254185804590437
:4001C0005B045C115D105F01860287078C03970398039D06A108A502AC01AF05B203B307B508B808BB08BE04C003C515C803C9FFCA07CBFFCC40CD20CEF0CF05D008D804BD
:40020000D904DA04DC10DD01DF01E040E1A8E240E320000803020581060807200A080E040F2211801602171918101E4D1F0420282204230424042601270829062B022C2024
:400240002D802E082F043284360537213B043C043E603F22401044084510484049065E016408664086868704900895109D04A140A280A302A454A721AA40C0F5C2E2C4F193
:40028000CA7BCCEACEF2D002D680D8300448050207180C040F42151417011C401D891E0424102512268027402D802E242F803502360137683E8A3F60458A46204D204F4050
:4002C000560257105C1062C06404652067086D146F2174207580760877209008930895109A809B089D819E609F30A201A301A420A510A720AF01C0F0C2B0C470CAF0CCF023
:40030000CEF0D0D0D230D620AF84B502B802BE01D804DF011D02EC10EC1003806220A220AA20C010D840EE80AF80EC107C01DE01940145089401D001A508B401EC082510F0
:40034000C820B510A508B508EC08000208020A0200000108080222000000012002171C0001160001011700000006000004002220401100064E0000084E0000010004000053
:400380000E074010010830202000000000004054630504000100C0E028FFFFFF62A0F0410C0000000000021104040404111100010000000000004002001030100010101250
:4003C0000000000000000000000000000000000040000140400040008000000000000000000003000000000000001000000000000000FF00000000000000C00092001801FF
:4004000000000000000000000000000000000000000000000000000000000000000000000000000000000000000000000000000000000000000000000000000000000000BC
:40044000000000000000000000000000000000000000000000000000000000000000000000000000000000000000000000000000000000000000000000000000000000007C
:40048000000000000000000000000000000000000000000000000000000000000000000000000000000000000000000000000000000000000000000000000000000000003C
:4004C00000000000000000000000000000000000000000000000000000000000000000000000000000000000000000000000000000000000000000000000000000000000FC
:0200000490006A
:0400000000004005B7
:0200000490105A
:04000000BC90ACAF55
:0200000490303A
:0200000076F395
:0200000490402A
:4000000000000000000000000000000000000000000000000000000000000000000000000000000000000000000000000000000000000000000000000000000000000000C0
:400040000000000000000000000000000000000000000000000000000000000000000000000000000000000000000000000000000000000000000000000000000000000080
:400080000000000000000000000000000000000000000000000000000000000000000000000000000000000000000000000000000000000000000000000000000000000040
:4000C0000000000000000000000000000000000000000000000000000000000000000000000000000000000000000000000000000000000000000000000000000000000000
:0200000490501A
:0C00000000012E12706900012E2DE75C3B
:00000001FF