:400000000080002011000000090200000902000080B500AF47F2BC63C4F2000344F2FA62C4F2000212681A6000F0F2F810B5054C237833B9044810B10448AFF300800121B2
:40004000217010BD8881FF1F000000008830000008B5064B1BB106480649AFF300800648016811B1054A02B1904708BD00000000883000008C81FF1F0881FF1F0000000009
:400080002DE9B04392B000AF00F006FD00F0D6FB00F07AFD4FF000037B874FF0000387F8393062B64FF40053A7F842304FF00003FB634FF000004FF0000100F07BFD43F242
:4000C0009000C0F2000000F0B1FD4FF0050000F0F7FB00BF00F020FC0346002BFAD000F00BFC03467B874FF000037B6429E0B7F842301A467B8F13409BB29BB2B7F84220FC
:400100009A420AD17B6C4FEA830307F14802D3184FF0010243F8482C09E07B6C4FEA830307F14802D3184FF0000243F8482CB7F842304FEA5303A7F842307B6C03F10103F8
:400140007B647B6C0D2BD2DD4FF001037B6437E0F86B02F0ADFA04460D467B6C4FEA830307F14802D31853F8483C184602F08EFA804689467B6CC3F10B03184602F086FA78
:4001800002460B464FF000004FF0804100F0B2FF02460B464046494602F0DEFA02460B462046294602F026F902460B461046194602F06CFD0346FB637B6C03F101037B64C1
:4001C0007B6C0D2BC4DD3B68012B03D1FB6B83F00043FB63F86B4FF00001C4F2C82102F0A5FD0346184602F0F1FE03469BB27B874FF000004FF0050100F0DCFC7B8F184678
:4002000000F012FF4EE700BF80B400AFFEE700BF80B586B000AF40F20103C0F200037B6143F24813C0F200033B6140F20103C0F200037B6143F24813C0F200033B613BE0BD
:400240003B691B68FB603B695B68BB603B699B683B604FF000037B600FE0FB681A68BB681A60BB6803F10403BB60FB6803F10403FB607B6803F104037B607A683B689A429E
:40028000EBD13B69DB683B604FF000037B600BE0BB684FF000021A60BB6803F10403BB607B6803F104037B607A683B689A42EFD13B6903F110033B617B69002B0CBF0023C3
:4002C0000123DBB27A6902F1FF327A61002BB7D102F0A2FEFFF7D4FEFEE700BF80B582B000AF4EF60C53CEF200034FF48062C0F2FA521A604EF61453CEF200034EF6145289
:40030000CEF20002126842F400721A604FF000037B6019E07B68032B07D840F20003C0F200037A6853F8223003E040F20923C0F2000348F20002C1F6FF72796842F821302A
:400340007B6803F101037B607B682F2BE2D947F2BC63C4F200031B78DAB248F20413C1F6FF731A704EF60853CEF2000348F20002C1F6FF721A6000F043F948F20013C1F62B
:40038000FF734FF000021A6007F10807BD4680BD80B582B000AF7860396078684FF000013A6802F068FE07F10807BD4680BD00BF80B584B000AFF860B9607A60F868B9683E
:4003C0007A6802F04FFE07F11007BD4680BD00BF80B483B000AF0346FB71FEE780B487B000AF786039604FF000033B614FF000037B612CE07B694FEA83037A68D3181B6898
:40040000BB60BB68FB73BB6823F0FF03BB6017E03B694FEA43033A68D3181B781A46BB68D3183A694FEA420239688A1852781A703B6903F101033B61FB7B03F1FF33FB731C
:40044000FB7B002BE4D17B6903F101037B617B69082BCFD907F11C07BD4680BC704700BF80B582B000AF4FF48143C4F200034FF000021A8044F28203C4F200034FF0190260
:400480001A704FF48643C4F200034FF002021A704FF040234FF008021A704FF48443C4F200034FF003021A7044F2A163C4F200034FF48472C4F600121278D2B21A7044F254
:4004C0002223C4F200034FF008021A8044F22023C4F2000341F251221A804FF00003FB704FF019037B6019E0FB784FEA4303DAB244F22523C4F200031B78DBB203F0010301
:40050000DBB21343DBB203F00303FB704FF4F07000F076FA7B6803F1FF337B607B68002B02D0FB78032BDFD17B68002B03D14FF00300FFF74DFF44F20403C4F200034FF430
:4005400080721A8044F20403C4F200034FF007021A7044F20603C4F200034FF000021A7044F20803C4F200034FF048021A7044F20403C4F200034FF000021A7044F201035C
:40058000C4F200034FF002021A7044F2A233C4F2000344F2A232C4F200021278D2B242F00102D2B21A7007F10807BD4680BD00BF80B483B000AF40F2CF13C4F600131B784E
:4005C000FB7145F66E03C4F20003FA7902F00702D2B21A7045F66F03C4F20003FA794FEA1212D2B21A7045F67603C4F200034FF044021A7007F10C07BD4680BC704700BF2E
:4006000080B582B000AF72B644F2E863C4F2000344F2E862C4F200021278D2B242F00402D2B21A704FF00003FB7119E0FA7913464FEA43039B184FEA430343F29802C0F211
:4006400000029B183B603B681A683B689B889BB210461946FFF79CFEFB7903F10103FB71FB79082BE2D94FF090404FF02401C4F60001FFF7B3FE45F20303C4F2010345F270
:400680000302C4F201021278D2B242F00202D2B21A7045F21303C4F2010345F21302C4F201021278D2B242F00202D2B21A7044F2A033C4F2000344F2A032C4F200021278C0
:4006C000D2B242F04002D2B21A7044F2C233C4F2000344F2C232C4F200021278D2B242F01002D2B21A7045F22210C4F200004FF42571C4F600014FF00802FFF759FE45F24E
:400700003210C4F200004FF42771C4F600014FF00802FFF74DFE44F22233C4F2000344F22232C4F200021278D2B242F00802D2B21A704FF49043C4F200034FF001021A7028
:40074000FFF78EFE4FF49043C4F200034FF081021A704FF00403C4F208034FF001021A70FFF726FF44F2B030C4F2000044F2A031C4F200014FF00E02FFF71AFE07F1080700
:40078000BD4680BD80B500AF46F28753C4F200034FF01B021A7000F0D9F800F071F800F07FF846F28553C4F200034FF000021A7046F28453C4F200034FF000021A7080BD7F
:4007C00080B582B000AF00F025F90346FB7146F29753C4F2000346F29752C4F200021278D2B242F02002D2B21A7046F29553C4F2000346F29552C4F200021278D2B242F00C
:400800001002D2B21A7046F29453C4F2000346F29452C4F200021278D2B242F01002D2B21A70FB79184600F0F9F800F01DF800F021F807F10807BD4680BD00BF80B500AFDF
:4008400048F2A413C1F6FF731B78002B08D1FFF799FF48F2A413C1F6FF734FF001021A70FFF7AEFF80BD00BF80B400AFBD4680BC704700BF80B400AFBD4680BC704700BF84
:4008800080B483B000AF46F26553C4F200031B78FB71FB79184607F10C07BD4680BC704780B483B000AF46F26453C4F200031B78FB71FB79184607F10C07BD4680BC704717
:4008C00080B483B000AF0346FB8000BF46F26553C4F200031B78DBB203F00403002BF5D046F24453C4F20003FA881A8007F10C07BD4680BC704700BF80B483B000AF46F2FA
:400900005453C4F200031B88FB80FB88184607F10C07BD4680BC704780B483B000AF46F26453C4F200031B78DBB203F02003002B02D04FF0010301E04FF00003FB71FB7920
:40094000184607F10C07BD4680BC704780B582B000AF04E046F25453C4F200031B8846F26453C4F200031B78DBB203F02003002BF0D100F04FF80346FB7146F29453C4F258
:40098000000346F29452C4F200021278D2B242F00102D2B21A7046F29453C4F2000346F29452C4F200021278D2B222F00102D2B21A7046F29553C4F2000346F29552C4F280
:4009C00000021278D2B242F00102D2B21A7046F29553C4F2000346F29552C4F200021278D2B222F00102D2B21A70FB79184600F015F807F10807BD4680BD00BF00000000EE
:400A00000230800800F0058000BF013800467FF4FCAF7047EFF3108072B6704780F31088704700BFAFF3008080B582B000AF78600BE048F21813C1F6FF731B681846FFF742
:400A4000DFFF7B68A3F500437B607B68B3F5004FEFD848F21013C1F6FF731B687A6802FB03F31846FFF7CCFF07F10807BD4680BD80B582B000AF0346FB80FA8848F214135D
:400A8000C1F6FF731B7803FB02F31846FFF7B8FF07F10807BD4680BD80B400AF44F2A233C4F2000344F2A232C4F200021278D2B242F00102D2B21A7044F2B233C4F20003A7
:400AC00044F2B232C4F200021278D2B242F00102D2B21A70BD4680BC704700BF80B500AF4FF02800FFF7A0FF4FF0030000F054FA4FF00500FFF798FF4FF0030000F04CFA75
:400B00004FF00F00FFF790FF4FF0030000F044FA4FF00100FFF788FF4FF0020000F03CFA4FF00500FFF780FF4FF0060000F0BAF84FF00E0000F0B6F84FF02C0000F0B2F8BE
:400B40004FF0080000F0AEF84FF0010000F0AAF84FF00C0000F0A6F84FF0030000F0A2F84FF00500FFF760FF80BD00BF80B500AF4FF00C0000F096F848F2A513C1F6FF73C4
:400B80004FF001021A7080BD80B500AF48F2A613C1F6FF731B78002B08D1FFF79FFF48F2A613C1F6FF734FF001021A70FFF7DEFF80BD00BF80B582B000AF02460B46FA7130
:400BC000BB71FB79032B2BD801A252F823F000BFE10B0000F10B0000010C0000110C0000BB79A3F18003DBB2184600F05BF818E0BB79A3F14003DBB2184600F053F810E0C1
:400C0000BB79A3F16C03DBB2184600F04BF808E0BB79A3F12C03DBB2184600F043F800E000BF07F10807BD4680BD00BF80B584B000AF78604FF00103FB737B681B78BB7380
:400C40000CE0BB7B184600F011F8FB7B7A68D3181B78BB73FB7B03F10103FB73BB7B002BEFD107F11007BD4680BD00BF80B584B000AF0346FB7100F031F8FB794FEA131333
:400C8000FB73FB7B184600F02DF9FB7903F00F03FB73FB7B184600F025F907F11007BD4680BD00BF80B584B000AF0346FB7100F015F8FB794FEA1313FB73FB7B184600F036
:400CC0006BF9FB7903F00F03FB73FB7B184600F063F907F11007BD4680BD00BF80B582B000AF45F22013C4F2000345F22012C4F200021278D2B222F07F02D2B21A7045F23B
:400D00002213C4F200031B78DBB223F00F03FB7145F22213C4F20003FA7942F00F02D2B21A7045F22313C4F200031B78DBB223F00F03FB7145F22313C4F20003FA791A7031
:400D400045F22413C4F200031B78DBB223F00F03FB7145F22413C4F20003FA791A7045F22013C4F2000345F22012C4F200021278D2B222F02002D2B21A7045F22013C4F2C3
:400D8000000345F22012C4F200021278D2B242F04002D2B21A704FF00000FFF769FE45F22013C4F2000345F22012C4F200021278D2B242F01002D2B21A704FF00100FFF709
:400DC00057FE45F22113C4F200031B78FB7145F22013C4F2000345F22012C4F200021278D2B222F01002D2B21A704FF00000FFF73FFEFB7903F00803FB7145F22013C4F287
:400E0000000345F22012C4F200021278D2B242F01002D2B21A704FF00100FFF729FE45F22013C4F2000345F22012C4F200021278D2B222F01002D2B21A70FB79002BAAD133
:400E400045F22013C4F2000345F22012C4F200021278D2B222F04002D2B21A7045F22013C4F2000345F22012C4F200021278D2B222F07F02D2B21A7045F22213C4F20003A6
:400E800045F22212C4F200021278D2B222F00F02D2B21A7045F22313C4F200031B78DBB223F00F03FB7145F22313C4F20003FA7942F00F02D2B21A7045F22413C4F20003E8
:400EC0001B78DBB223F00F03FB7145F22413C4F20003FA7942F00F02D2B21A7007F10807BD4680BD80B582B000AF0346FB7145F22013C4F2000345F22012C4F20002127876
:400F0000D2B242F02002D2B21A7045F22013C4F2000345F22012C4F200021278D2B222F04002D2B21A704FF00000FFF7A1FD45F22013C4F2000345F22012C4F20002127876
:400F4000D2B222F00F02D2B21A7045F22013C4F2000345F22012C4F200021278D1B2FA790A43D2B242F01002D2B21A704FF00100FFF77EFD45F22013C4F2000345F2201298
:400F8000C4F200021278D2B222F01002D2B21A7007F10807BD4680BD80B582B000AF0346FB7145F22013C4F2000345F22012C4F200021278D2B222F06002D2B21A7045F21C
:400FC0002013C4F2000345F22012C4F200021278D2B222F00F02D2B21A7045F22013C4F2000345F22012C4F200021278D1B2FA790A43D2B242F01002D2B21A704FF001007E
:40100000FFF736FD45F22013C4F2000345F22012C4F200021278D2B222F01002D2B21A7007F10807BD4680BD80B586B000AF78604FF00A03FB75FB7D07F11801CB184FF063
:40104000000203F8102CFB7D03F1FF33FB7528E079684CF6CD43CCF6CC43A3FB01234FEAD30213464FEA83039B184FEA4303CA1AD3B203F13003BB75FB7D07F11801CB18D7
:40108000BA7D03F8102C7A684CF6CD43CCF6CC43A3FB02134FEAD3037B60FB7D03F1FF33FB757B68092BD3D879684CF6CD43CCF6CC43A3FB01234FEAD30213464FEA830364
:4010C0009B184FEA4303CA1AD3B203F13003BB75FB7D07F11801CB18BA7D03F8102CFB7D07F10802D3181846FFF7A0FD07F11807BD4680BD2DE9F04F8BB01F4680468946ED
:40110000164600F081F9DFF8C0B204469BF900300D46013304D03046394601F003F820B9204629460BB0BDE8F08F4046494600F0F9FF824600282CD13046394600220023A5
:4011400001F072FD0028EBD001239E4A9BF9005000930023C3F6F07301920022CDE906236B1CCDF820A0CDE90289CDE904670DD0022D0BD0684601F009F8002800F09380B6
:40118000089818B101F042FF089C0460DDE90645C6E7404649460022002301F045FD00B3304639460022002301F03EFD00284ED0844901209BF900500090019100240020AA
:4011C00000210894CDE90289CDE90467CDE90601002DCFD000230022C3F6F073CDE90623D4E72046294600F097FF824600285FD0204629460022002301F016FD00288FD02D
:401200004046494600F088FF002889D03046394600F082FF002883D06A489BF90040002104220190089100200021022C0092CDE90289CDE90467CDE9060163D0684600F0D8
:40124000A5FF00285ED0089A002A9FD09AE73046394600F061FF00283FF462AF304639460022002301F0EAFC00283FF459AF55499BF8005001200024009001910894CDE959
:401280000289CDE9046700220023002D33D1CDE90623684600F07AFF0028D4D101F0B6FE21230360CFE701F0B1FE2121016067E74046494600F030FF002899D030463946FC
:4012C00000F02AFF002893D02046294600F02AFFE8B93C4A9BF800400123089000930192CDE90289CDE9046700200021002C5FD1CDE90601CDE7CFF6F073022DCDE90623DA
:40130000CCD0C6E701F082FE222505609BE72D4A9BF90030032400940192CDF820A0CDE90289CDE9046740464946E3B94FF6FF754FF06044C4F2EF7500220023CDE90645A8
:4013400001F07CFC002841D19BF90000022805D0684600F01BFF00287FF412AF01F056FE222101600CE700250024C7F6F07500220023CDE9064501F061FC0028E4D0002349
:401380000022C3F6E0733046394601F0E5F904460D4600F003FF22462B4601F045FC0028D2D100230022CFF6F073CDE90623CBE702460B4601F0FAFA022CCDE906013FF43C
:4013C0006DAF66E7D03000001C81FF1F00230022C3F6E0733046394601F0BEF904460D4600F0DCFE22462B4601F01EFC0028ABD14FF6FF734FF06042CCF2EF73CDE9062355
:40140000A2E700BF000000002DE9F04F9A4693462AF00049884614460746024659EA0B0091B01D465946C44644D0002328F00044C7F6F0739C420FDD04F1404404F5801B11
:401440005BEA020B3CD14FF0000AC3F6F07A5846514611B0BDE8F08F38D00020C7F6F0708145E9DC00F0B780BCF1000FC0F28A80002600292ED10020C7F6F070814500F0D7
:40148000AE800021C3F6F071894500F09E80B5F1804F00F0E4830023C3F6E0739D4219D1BCF1000F16DB3846414611B0BDE8F04F00F02ABD4FF0000A8346C3F6F07AC6E713
:4014C000574811B0BDE8F04F00F062BE002FB3D1C3E70026384641460192CDF800C000F017FE019ADDF800C03ABB0023C7F6F0739C4205D024B10022C3F6F07294421CD103
:40150000002DC0F2178483468A46BCF1000F9EDA04F1404000F5801256EA020340F0A38458465A465146534600F062FF02460B4601F03CFA83468A4689E74FEADC7E0EF1B2
:40154000FF3C56EA0C0262D00023C4F2E013994568DD0023C4F2F033994540F300844FF6FF71C3F6EF718C4240F3E083002D48DD29A1D1E9000102460B4601F0EDF88346EF
:401580008A4664E74FF6FF76C4F23F36B1453CDC4FF6FF73C3F6EF7399457FF769AF4FEA295640F21340864240F36184C6F58666F31C21FA03F000FA03F68E427FF458AFC1
:4015C00000F00103C3F1020653E7002DC0F22F84BB46C2463BE700293FF446AF2CE704F1404303F5801050EA020300F031834FF6FF71C3F6EF718C4240F39183002DBFF638
:4016000026AF4FF0000BDA4621E7022631E7384641463A46434687E79C7500883CE4377E08310000B4F5801F80F2978300230022C4F24033CDF800C001F08EF8DDF800C02D
:401640000C466FF0340524F07F4249F68E01241522F47003A4F2FF37C0F2030143F07F527F198B420F9742F4401440F373834BF27965C0F20B05AB4240F30884791C002594
:401680000F91A4F580142F460246A748FF002346CDE90423C219D2E90089DDE9040142464B46CDF800C000F0A3FE42464B46CDE90A01DDE9040100F09DFE0B460021024669
:4016C000C3F6F071002001F071F9CDE90C01DDE90C23DDE90A0101F03FF8641044F00053CDE9060103F500210020DDE906234D19CDE9082308900022DDE908012B46144629
:40170000CDE9020101F028F802460B46DDE90A0100F06EFE4246CDE90A014B462046294600F066FE02460B46DDE9040100F060FE02460B46DDE9020101F00EF802460B4672
:40174000DDE90A0100F054FEDDE90C2301F004F8CDE90401DDE9060102460B4600F0FCFF02460B4604460D4600F0F6FF5CA3D3E90023804689462046294600F0EDFF5AA32C
:40178000D3E9002300F036FE22462B4600F0E4FF57A3D3E9002300F02DFE22462B4600F0DBFF55A3D3E9002300F024FE22462B4600F0D2FF52A3D3E9002300F01BFE22461B
:4017C0002B4600F0C9FF50A3D3E9002300F012FE02460B464046494600F0BEFFDDE9062304460D46DDE9020100F004FEDDE9042300F0B2FF22462B4600F0FCFD8046894667
:40180000DDE9020102460B4600F0A6FF00230022C4F20803CDE90A0100F0ECFD42464B4600F0E8FD089B0D461C46DDE902011A462B4600F091FF22462B46CDE90201DDE959
:40184000040100F089FF0023CDE90401002220462946C4F2080300F0CBFDDDE90A2300F0C7FD02460B464046494600F0C1FDDDE9062300F071FF02460B46DDE9040100F0F7
:40188000B9FD8046894642464B46DDE9020100F0B1FD1FA3D3E9002308980D46044600F05BFF1DA3D3E90023CDE904012046294600F052FFDDE90223CDE906012046294648
:4018C00000F096FD02460B464046494600F090FD13A3D3E9002300F03FFF02460B4625E0EF4E454A287ECA3F65DBC9934A86CD3F01411DA96074D13F4D268F515555D53FE9
:40190000FFAB6FDBB66DDB3F033333333333E33F000000E009C7EE3FF5015B14E02F3EBEFD033ADC09C7EE3FF8300000DDE9060100F060FDAC4BDA190CCA00F05BFD04465E
:401940000F980D4600F0A2FEA84B8046DF19D7E900238946CDE90623DDE9040122462B4600F048FDDDE9062300F044FD42464B4600F040FD089842464B46CDE9020100F0FA
:4019800037FDDDE9062300F033FDDDE9042300F02FFD02460B462046294600F029FDDDF800C0013E56EA0C068046894640F0B08100210020CBF6F071CDE90801002422468D
:4019C00053465846514600F013FDDDE9022300F0C3FE554606460F4642464B465846294600F0BAFE02460B463046394600F002FDDDE9022382468B462046294600F0ACFE03
:401A000004460D465046594622462B4600F0F2FC4FF6FF78C4F28F08414506460F46894640F3208101F13F4101F5E00050EA060340F009825AA3D3E900235046594600F003
:401A4000D9FC2246CDE902012B463046394600F0CFFC02460B46DDE9020101F00DF9002840F0F18127F000480026C3F6E076B04500F316814FF00008CDF8088000264AA372
:401A8000D3E9002330463946CDF8008000F064FE2246804689462B463046394600F0A8FC02460B465046594600F0A2FC40A3D3E9002300F051FE40A3D3E9002304460D4608
:401AC0003046394600F048FE02460B462046294600F090FC06460F4632463B464046494600F088FC42464B4604460D4600F080FC02460B463046394600F07AFC2246824668
:401B00008B462B462046294600F026FE2CA3D3E9002306460F4600F01FFE2BA3D3E9002300F066FC32463B4600F016FE28A3D3E9002300F05FFC32463B4600F00DFE26A370
:401B4000D3E9002300F054FC32463B4600F004FE23A3D3E9002300F04DFC32463B4600F0FBFD02460B462046294600F041FC06460F4632463B462046294600F0EDFD002296
:401B800080468946304639464FF0804300F030FC02460B464046494600F008FF524627E0FE822B654715973C00000000432EE63FEF39FAFE422EE63F396CA80C615C20BEBB
:401BC000D0A4BE726937663EF16BD2C541BDBB3E2CDE25AF6A56113F93BDBE166CC1663F3E5555555555C53FE8300000D830000006460F46204629465B4600F0ADFD5246DB
:401C00005B4600F0F7FB02460B463046394600F0EFFB22462B4600F0EBFB0B4600210246C3F6F071002000F0E3FBDDF800C002460CEB0103B3F5801F04460D46C0F23E811B
:401C4000DDE9080100F088FD83468A46FFF7FFBB4FF0000A8B46C3F6F07AFFF7F8BB3846414688E44CF6FF3321F00048C4F2900398457FF7F9AE4FF45053C3F66F73CB180C
:401C8000034340F0088122462B4600F0B1FB02460B465046594600F0DBFF002840F0FB804FEA2857A7F2FE324FF4801343FA02F303EB0901C1F30A504FF6FF76A0F2FF3734
:401CC000C0F20F0646FA07F321F07F4626F47007C0F5826021EA030347F48016C11C46FA01F70022B9F1000F0297C0F2E4802046294600F07DFB04460D46224650465946ED
:401D00002B4600F077FB029A0F464FEA0258B5E600230022C3F6F073CDE908234EE6002DBFF66FAC0AF1004AFFF791BB002DBFF668AC1DE40B4600210246C3F6F0710020CC
:401D4000CDF800C000F032FEDDF800C083468A46FFF7DBBB00252F4696E4002573E44FF6FE72C3F6EF729442E0DD0023C3F6F0739C423FF7FBAB00230022C3F6F073CDF8F3
:401D800000C000F035FB54A3D3E900230D46074600F0E2FC52A3D3E90023804689463846294600F0D9FC2B46CDE902013A462946384600F0D1FC0023CDE90801002229461D
:401DC000C3F6D073384600F0C7FC02460B4646A1D1E9000100F00CFB2B463A4600F0BCFC0B4600210246C3F6E071002000F000FB02460B46DDE9080100F0AEFC3CA3D3E97F
:401E0000002300F0A9FC02460B46DDE9020100F0EFFA04460D4622462B464046494600F0E9FA0020CDE9020142464B46AFE500213A4643460020C3F6F07100F0B7FD8346FA
:401E40008A46FFF704BB2CA3D3E90023DDE9080100F082FC28A3D3E9002300F07DFC83468A46FFF7F4BA012E7FF4F1AA5AE700297FF42FABC6F58263DE1C49FA06F303FADB
:401E800006F0484520D00E46FFF7FBBA4FF480250127FFF7F9BB1AA3D3E90023DDE9080100F05AFC16A3D3E9002300F055FC83468A46FFF7CCBA7842029018E7029A00F080
:401EC00003FA02460B46BBE603F00101C1F10206FFF7D7BAAFF30080000000604715F73F44DF5DF80BAE543E555555555555D53FFE822B654715F73F9C7500883CE4377E7C
:401F000059F3F8C21F6EA5012DE9F8430027B946C7F6F077C7F6F0790F404F4504460D4602460B460E46804600F0D480002940F3AE800C1500F0B88026F07F45A4F2FF37B7
:401F400025F47006FA0746F4801100F193804FEAD8734FF0000C03EB41037F104FEA4801162562464FF40010161844089E424FEAD17805F1FF354FEA410102DC32189B1B5B
:401F8000844408EB43031019984202DC1B1A0219A444CE0F60084900013D06EB4303E3D14FF020082C464FF0004015E000F08E80CE0F06EB430340084900934208F1FF385B
:401FC00004EB00061EDC1BD0CE0F40084900B8F1010806EB43032DD0934204EB0006E5DD06F00049B9F1004F06EB00043DD091469B1A8E4288BF013B891B2D184A46D7E7D7
:402000008E42E1D806F00049B9F1004F06EB000426D091468E42C2EB030300D9013B891BCE0F2D1849004008B8F101084A4606EB4303D1D1194324D14FEA55084FEA6C0582
:4020400005F17F541CF0010F04F5001318BF48F0004803EB0755444620462946BDE8F883002CD6DB02F10109D4E7002CBFDB02F10109BDE74FEAD87202EB41014FEA480818
:4020800065E76B1C31D005F001025519D4E721F000460643E0D079BB0C464FEAD826153C4FEA4858002EF8D016F4801320D176000133F102FBD5C3F10101C3F1200228FA55
:4020C00002F0641808FA03F8064335E78E4287D91A466DE700F040FB02460B462046294600F088F904460D46B6E70CF1010CA5E7202201210023E2E702460B4600F078F908
:4021000002460B4600F052FC04460D46A4E700BF21F00041704700BF41F0004101F58010C00F70470B4661B1B1F1004F09D04FF6FF72A3F58011C7F6DF72914205D80420AD
:4021400070470028F3D10220704703F1FF4101F5E0019142F3D94FF6FF72C0F20F02934201D80320704703F100419142F9D90022C7F6F072934204D013F5801F01D00020DC
:402180007047D0F1010038BF002070470020704700210020C7F6F871704700BF2DE9F041C1F30A58A8F2FF37132F82B002460B4604460D468C464FEAD17635DC002F51DB8F
:4021C0004FF6FF71C0F20F0141FA07F101EA0300104324D04A0813401C430BD04FF4802141FA07F125EA0205132F0CBF4FF0004400240D432246324C2B4604EBC606D6E91F
:4022000000452046294600F0F5F8CDE90001DDE9000122462B4600F0EBF802460B461046194602B0BDE8F081332F07DDB7F5806FF5D100F0DFF802460B46F0E7A8F2134894
:402240004FF0FF3121FA08F01042E8D042082242D0D04FF0804343FA08F824EA020444EA0804C7E721F0004050EA0201D7D023F07F4525F4700343EA0204614241EA0400AC
:402280000F4C050B4FEA5C4E05F4002304EBC601D1E9004543EA4E432046294600F0AAF8CDE90001DDE9000122462B4600F0A0F80446024621F000400D4640EAC673AEE7CD
:4022C0001031000000000000C1F30A532DE9F04104460D4606460F4690467BBB21F0004353EA000C26D000230022C4F2503300F033FA43F6B042CFF6FF72904504460D46FA
:4023000006460F463BDBC1F30A53363B03EB080040F2FE7290421BDD22462B4628A1D1E9000100F055F826A3D3E9002300F014FA04460D4620462946BDE8F08140F2FF7297
:40234000934224D003EB080040F2FE729042E3DC002806DD21F0FF4222F4E00545EA0055E8E710F1350F19DA4CF25030804522462B46D3DC14A1D1E9000100F029F812A347
:40238000D3E9002300F0E8F904460D46D2E702460B4600F02FF804460D46CBE721F0FF4525F4E001363041EA00531946002320460022C3F6904300F0CFF904460D46B9E75A
:4023C0009C7500883CE4377E59F3F8C21F6EA50103F0004321F0004230B40D46044643EA020130BC704700BF81F0004102E000BF83F0004330B54FEA41044FEA430594EA2F
:40240000050F08BF90EA020F1FBF54EA000C55EA020C7FEA645C7FEA655C00F0E2804FEA5454D4EB5555B8BF6D420CDD2C4480EA020281EA030382EA000083EA010180EA2F
:40244000020281EA0303362D88BF30BD11F0004F4FEA01314FF4801C4CEA113102D0404261EB410113F0004F4FEA03334CEA133302D0524263EB430394EA050F00F0A7807C
:40248000A4F10104D5F1200E0DDB02FA0EFC22FA05F2801841F1000103FA0EF2801843FA05F359410EE0A5F120050EF1200E012A03FA0EFC28BF4CF0020C43FA05F3C01818
:4024C00051EBE37101F0004507D54FF0000EDCF1000C7EEB00006EEB0101B1F5801F1BD3B1F5001F0CD349085FEA30004FEA3C0C04F101044FEA445212F5800F80F09A8045
:40250000BCF1004F08BF5FEA500C50F1000041EB045141EA050130BD5FEA4C0C404141EB010111F4801FA4F10104E9D191F0000F04BF01460020B1FA81F308BF2033A3F184
:402540000B03B3F120020CDA0C3208DD02F1140CC2F10C0201FA0CF021FA02F10CE002F11402D8BFC2F1200C01FA02F120FA0CFCDCBF41EA0C019040E41AA2BF01EB0451E7
:40258000294330BD6FEA04041F3C1CDA0C340EDC04F11404C4F1200220FA04F001FA02F340EA030021FA04F345EA030130BDC4F10C04C4F1200220FA02F001FA04F340EAE1
:4025C0000300294630BD21FA04F0294630BD94F0000F83F4801306BF81F480110134013D4EE77FEA645C18BF7FEA655C29D094EA050F08BF90EA020F05D054EA000C04BF18
:402600001946104630BD91EA030F1EBF0021002030BD5FEA545C05D14000494128BF41F0004130BD14F580043CBF01F5801130BD01F0004545F0FE4141F470014FF00000F6
:4026400030BD7FEA645C1ABF194610467FEA655C1CBF0B46024650EA013406BF52EA033591EA030F41F4002130BD00BF90F0000F04BF0021704730B54FF4806404F1320480
:402680004FF000054FF0000150E700BF90F0000F04BF0021704730B54FF4806404F1320410F0004548BF40424FF000013EE700BF42004FEAE2014FEA31014FEA02701FBFFB
:4026C00012F07F4393F07F4F81F06051704792F0000F14BF93F07F4F704730B54FF4607401F0004521F0004120E700BF50EA010208BF704730B54FF000050AE050EA01022B
:4027000008BF704730B511F0004502D5404261EB41014FF4806404F132045FEA915C3FF4DCAE4FF003025FEADC0C18BF03325FEADC0C18BF033202EBDC02C2F1200300FA6B
:4027400003FC20FA02F001FA03FE40EA0E0021FA02F11444C1E600BF70B54FF0FF0C4CF4E06C1CEA11541DBF1CEA135594EA0C0F95EA0C0F00F0DEF82C4481EA030621EAB6
:402780004C5123EA4C5350EA013518BF52EA033541F4801143F4801338D0A0FB02CE4FF00005E1FB02E506F00042E0FB03E54FF00006E1FB03569CF0000F18BF4EF0010ED7
:4027C000A4F1FF04B6F5007F64F5407404D25FEA4E0E6D4146EB060642EAC62141EA55514FEAC52040EA5E504FEACE2EB4F1FD0C88BFBCF5E06F1ED8BEF1004F08BF5FEA9C
:40280000500E50F1000041EB045170BD06F0004646EA010140EA020081EA0301B4EB5C04C2BFD4EB0C0541EA045170BD41F480114FF0000E013C00F3AB8014F1360FDEBFF0
:40284000002001F0004170BDC4F10004203C35DA0C341BDC04F11404C4F1200500FA05F320FA04F001FA05F240EA020001F0004221F0004110EBD37021FA04F642EB06016D
:402880005EEA430E08BF20EAD37070BDC4F10C04C4F1200500FA04F320FA05F001FA04F240EA020001F0004110EBD37041F100015EEA430E08BF20EAD37070BDC4F120052B
:4028C00000FA05F24EEA020E20FA04F301FA05F243EA020321FA04F001F0004121FA04F220EA020000EBD3705EEA430E08BF20EAD37070BD94F0000F0FD101F0004640001A
:4029000041EB010111F4801F08BF013CF7D041EA060195F0000F18BF704703F00046520043EB030313F4801F08BF013DF7D043EA0603704794EA0C0F0CEA135518BF95EA3B
:402940000C0F0CD050EA410618BF52EA4306D1D181EA030101F000414FF0000070BD50EA410606BF1046194652EA430619D094EA0C0F02D150EA013613D195EA0C0F05D13A
:4029800052EA03361CBF104619460AD181EA030101F0004141F0FE4141F470014FF0000070BD41F0FE4141F4780170BD70B54FF0FF0C4CF4E06C1CEA11541DBF1CEA135519
:4029C00094EA0C0F95EA0C0F00F0A7F8A4EB050481EA030E52EA03354FEA013100F088804FEA03334FF0805545EA131343EA12634FEA022245EA111545EA10654FEA0026FB
:402A00000EF000419D4208BF964244F1FD0404F5407402D25B084FEA3202B61A65EB03055B084FEA32024FF480104FF4002CB6EB020E75EB030E22BFB61A754640EA0C0054
:402A40005B084FEA3202B6EB020E75EB030E22BFB61A754640EA5C005B084FEA3202B6EB020E75EB030E22BFB61A754640EA9C005B084FEA3202B6EB020E75EB030E22BF7B
:402A8000B61A754640EADC0055EA060E18D04FEA051545EA16754FEA06164FEAC30343EA52734FEAC2025FEA1C1CC0D111F4801F0BD141EA00014FF000004FF0004CB6E7D5
:402AC00011F4801F04BF01430020B4F1FD0C88BFBCF5E06F3FF6AFAEB5EB030C04BFB6EB020C5FEA500C50F1000041EB045170BD0EF0004E4EEA113114EB5C04C2BFD4EB6A
:402B00000C0541EA045170BD41F480114FF0000E013C90E645EA060E8DE60CEA135594EA0C0F08BF95EA0C0F3FF43BAF94EA0C0F0AD150EA01347FF434AF95EA0C0F7FF4A0
:402B400025AF104619462CE795EA0C0F06D152EA03353FF4FDAE1046194622E750EA410618BF52EA43067FF4C5AE50EA41047FF40DAF52EA43057FF4EBAE12E74FF0FF3CC4
:402B800006E000BF4FF0010C02E000BF4FF0010C4DF804CD4FEA410C7FEA6C5C4FEA430C18BF7FEA6C5C1BD001B050EA410C0CBF52EA430C91EA030F02BF90EA020F002068
:402BC000704710F1000F91EA030F58BF994208BF90422CBFD8176FEAE37040F0010070474FEA410C7FEA6C5C02D150EA013C07D14FEA430C7FEA6C5CD6D152EA033CD3D031
:402C00005DF8040B704700BF8446104662468C461946634600E000BF01B5FFF7B7FF002848BF10F1000F01BD4DF808EDFFF7F4FF0CBF012000205DF808FB00BF4DF808ED9A
:402C4000FFF7EAFF34BF012000205DF808FB00BF4DF808EDFFF7E0FF94BF012000205DF808FB00BF4DF808EDFFF7CEFF94BF012000205DF808FB00BF4DF808EDFFF7C4FFD5
:402C800034BF012000205DF808FB00BF4FEA4102B2F1E04324BFB3F5001CDCF1FE5C0DD901F0004C4FEAC0024CEA5070B2F1004F40EB830008BF20F00100704711F0804FA6
:402CC00021D113F13872BCBF01F00040704741F480114FEA5252C2F11802C2F1200C10FA0CF320FA02F018BF40F001004FEAC1234FEAD32303FA0CFC40EA0C0023FA02F3CC
:402D00004FEA4303CCE77FEA625307D150EA01331EBF4FF0FE4040F44000704701F0004040F0FE4040F40000704700BF4FF0FF0C1CEAD0521EBF1CEAD15392EA0C0F93EAA2
:402D40000C0F6FD01A4480EA010C400218BF5FEA41211ED04FF0006343EA501043EA5111A0FB01310CF00040B1F5000F3EBF490041EAD3715B0040EA010062F17F02FD2AC0
:402D80001DD8B3F1004F40EBC25008BF20F00100704790F0000F0CF0004C08BF49024CEA502040EA51207F3AC2BFD2F1FF0340EAC250704740F400004FF00003013A5DDC59
:402DC00012F1190FDCBF00F000407047C2F10002410021FA02F1C2F1200200FA02FC5FEA310040F1000053EA4C0308BF20EADC70704792F0000F00F0004C02BF400010F478
:402E0000000F013AF9D040EA0C0093F0000F01F0004C02BF490011F4000F013BF9D041EA0C018FE70CEAD15392EA0C0F18BF93EA0C0F0AD030F0004C18BF31F0004CD8D156
:402E400080EA010000F00040704790F0000F17BF90F0004F084691F0000F91F0004F14D092EA0C0F01D142020FD193EA0C0F03D14B0218BF084608D180EA010000F000405B
:402E800040F0FE4040F40000704740F0FE4040F4400070474FF0FF0C1CEAD0521EBF1CEAD15392EA0C0F93EA0C0F69D0A2EB030280EA010C49024FEA402037D04FF0805339
:402EC00043EA111143EA10130CF000408B4238BF5B0042F17D024FF4000C8B4224BF5B1A40EA0C00B3EB510F24BFA3EB510340EA5C00B3EB910F24BFA3EB910340EA9C002A
:402F0000B3EBD10F24BFA3EBD10340EADC001B0118BF5FEA1C1CE0D1FD2A3FF650AF8B4240EBC25008BF20F0010070470CF0004C4CEA50207F32C2BFD2F1FF0340EAC2508E
:402F4000704740F400004FF00003013A37E792F0000F00F0004C02BF400010F4000F013AF9D040EA0C0093F0000F01F0004C02BF490011F4000F013BF9D041EA0C0195E70A
:402F80000CEAD15392EA0C0F08D142027FF47DAF93EA0C0F7FF470AF084676E793EA0C0F04D14B023FF44CAF08466EE730F0004C18BF31F0004CCAD130F000427FF45CAF19
:402FC00031F000437FF43CAF5FE700BF42000ED2B2F1FE4F0BD34FF09E03B3EB126209D44FEA002343F0004323FA02F070474FF00000704712F1610F01D1420202D14FF022
:40300000FF3070474FF00000704700BF014B1868704700BF8481FF1F38B50E4D0E4B0024E81A8510AC4205D00B4951F8242090470134F7E700F076F80849094A541AA51081
:403040000024AC4205D0054B53F8240080470134F7E738BD3031000030310000303100003831000010B50023934203D0CC5CC4540133F9E710BD82180346934202D003F819
:40308000011BFAE770470000000000000000000054656D703A200000005100402000405100403000C05100401000F051004010000000014000100014014000080040014099
:4030C000000A004C014000020050014020000000706F77000000000000000000000000000000004003B8E23F000000000000000006D0CF43EBFD4C3E000000000000F03F8B
:40310000000000000000F83F0000000000000000000000000000304300000000000030C343000000F8B500BFF8BC08BC9E46704751000000DD020000F8B500BFF8BC08BC1C
:403140009E4670472D000000583100000881FF1F80000000200000000000000000366E01C05D0000180000000000E02E0100000000000000000000000000000000000000CE
:4031800000000000000000000000000000000000203100000000000000000000000000000000000000000000000000000000000000000000000000000000000000000000BE
:4031C00000000000000000000000000000000000000000002081FF1F0000000000000000000000000000000000000000000000000000000000000000000000000000000010
:40320000000000000000000000000000000000000000000000000000000000000000000000000000000000000000000000000000000000000000000000000000000000008E
:40324000000000000000000000000000000000000000000000000000000000000000000000000000000000000000000000000000000000000000000000000000000000004E
:40328000000000000000000000000000000000000000000000000000000000000000000000000000000000000000000000000000000000000000000000000000000000000E
:4032C00000000000000000000000000000000000000000000000000000000000000000000000000000000000000000000000000000000000000000000000000000000000CE
:020000040003F7
:0200000480007A
:4000000003520040016500405F140140431501405016014034170140014801400A49014002500140183019201C08871B050309030D03130317021D03310133023F0540248B
:4000400041034250440645CE46F0470D481B49FF4AFF4BFF4C024E704F085004544059045A045B045F0162C0644065016610671168C069016B116C406D016E406F018004DC
:400080008404850188078A388C048F039204940198609B029C569E09A004A404A80AAA10AB03B27FB303B602B808BE40C024C103C250C406C50BC801C93FCAFFCBFFCC23FC
:4000C000CED0CF08D004D409D804D904DA04DB04DF01E2C0E440E501E610E711E8C0E901EB11EC40ED01EE40EF01048807440C400D020E100F081404150417011D401E10E9
:400100002108234027102C04300A33413710388039243D083E80402841014280446C450446804704492A4A014B404D204F48500851205C805D185E02612863016540800868
:4001400081208301851289128F109088912698849B409D02A002A104AC84C0F0C2F0C470CA20CC2BCE5ED0E7D23CD6F0D81EE64000040134041005110706085809200A87D9
:400180000B140C140D341014111413201443153816B01703182619141A491B201CE02010212022042404251726102728281029092A042B16321E33383401350736E2388065
:4001C0003A083B203E10580459045F018040840D8C0D900D9102930D946295039614970C98429A089C029E0DA411A509A622A706A80DA905AB0AAC0DB10FB470B60FB70F89
:40020000BAA0BB82D602D720D804D904DB04DF010080010604880522080409010A060C040E290F80100A1108171519201A061B201C081E2120012102240C250C2604280459
:400240002B202C042D022F20310A360437113C843D023E103F816001684A69246A106B557040730189218A01C0FDC2FFC477CAE6CCE3CEF0D808E680890104105D01660109
:4002800080108E019101C080D680D880E48010011A010000007F7F000000000008303000300000000000000000000000000000000000000000000000000000000000000079
:4002C00000000000000000000000000000000000000000000000000000000000000000000000000000000000000000000000000000000000000000000000000000000000FE
:4003000000000000000000000000000000000000000000000000000000000000000000000000000000000000000000000000000000000000000000000000000000000000BD
:40034000000000000000000000000000000000000000000000000000000000000000000000000000000000000000000000000000000000000000000000000000000000007D
:40038000000000000000000000000000000000000000000000000000000000000000000000000000000000000000000000000000000000000000000000000000000000003D
:0200000490006A
:0400000000004005B7
:0200000490105A
:04000000BC90ACAF55
:0200000490303A
:02000000D58C9D
:0200000490402A
:4000000000000000000000000000000000000000000000000000000000000000000000000000000000000000000000000000000000000000000000000000000000000000C0
:400040000000000000000000000000000000000000000000000000000000000000000000000000000000000000000000000000000000000000000000000000000000000080
:400080000000000000000000000000000000000000000000000000000000000000000000000000000000000000000000000000000000000000000000000000000000000040
:4000C0000000000000000000000000000000000000000000000000000000000000000000000000000000000000000000000000000000000000000000000000000000000000
:0200000490501A
:0C00000000012E12306900012E2805F5C9
:00000001FF