:400000000080002011000000210900002109000080B500AF47F2BC63C4F2000344F2FA62C4F2000212681A6000F07EFC10B5054C237833B9044810B10448AFF300800121E4
:40004000217010BD8881FF1F00000000304E000008B5064B1BB106480649AFF300800648016811B1054A02B1904708BD00000000304E00008C81FF1F0881FF1F000000007D
:4000800080B500AF00F0FAF900F00CFA01F0F0FC01F022FE01F054F840F2CD40C0F2000001F0C6FD40F23150C0F2000001F006FF02F0EAF802F008F862B64FF000004FF0FC
:4000C000700100F075FA4FF001004FF0A00100F06FFA4FF002004FF0000100F069FA43F6982000F045FF00F0DDF944F63860C0F2000001F079FD00E000BF48F2C233C1F688
:40010000FF731B78002B01D000F00AF848F2BA13C1F6FF731B78002BEED000F0AFF9EBE7B0B5E2B006AF4FF00003C7F86C314FF00003C7F868314FF003004FF0040100F05C
:400140008DFA03461A4648F2B813C1F6FF731A804FF007004FF0080100F080FA03461A4648F2C033C1F6FF731A804FF005004FF0060100F073FA03461A4648F2BC23C1F696
:40018000FF731A8048F2BC23C1F6FF731A8848F2B813C1F6FF731B8812B21BB21046194600F07EFA03461A4648F2C433C1F6FF731A8000F00DFB0346A7F8663100F05EF975
:4001C00044F64060C0F2000001F042FE44F64060C0F2000001F03CFE00BF48F2BA13C1F6FF731B78002BF8D000F048F900BF48F2BA13C1F6FF731B78002BF8D001F072FE0F
:4002000013E048F2C023C1F6FF73D7F86C219B181A7807F59271D7F86C31CB181A70D7F86C3103F10103C7F86C3148F2C023C1F6FF73D7F86C219B181B780D2BE1D101F089
:400240002BFE07F59272D7F86C31D3184FF000021A704FF00003C7F86C311FE007F59272D7F86C31D3181B78762B04D14FF00003C7F8683116E007F59272D7F86C31D3184F
:400280001B78612B04D14FF00103C7F8683109E0D7F86C3103F10103C7F86C31D7F86C31272BDBDD4FF00003C7F86C314FF00003C7F86C3114E0D7F86C3103F10F0248F2B5
:4002C000BC13C1F6FF739A5C07F12001D7F86C31CB181A70D7F86C3103F10103C7F86C31D7F86C31022BE6DD07F120034FF00002DA704FF00003C7F86C3114E0D7F86C315E
:4003000003F1270248F2BC13C1F6FF739A5C07F11C01D7F86C31CB181A70D7F86C3103F10103C7F86C31D7F86C31022BE6DD07F11C034FF00002DA704FF00003C7F86C312E
:4003400014E0D7F86C3103F13C0248F2BC13C1F6FF739A5C07F11401D7F86C31CB181A70D7F86C3103F10103C7F86C31D7F86C31032BE6DD07F114034FF000021A714FF0A6
:400380000003C7F86C3114E0D7F86C3103F1450248F2BC13C1F6FF739A5C07F10C01D7F86C31CB181A70D7F86C3103F10103C7F86C31D7F86C31032BE6DD07F10C034FF0DA
:4003C00000021A714FF00003C7F86C3114E0D7F86C3103F14E0248F2BC13C1F6FF739A5C07F10401D7F86C31CB181A70D7F86C3103F10103C7F86C31D7F86C31042BE6DD12
:4004000007F104034FF000025A7148F2C433C1F6FF731B881CB2B7F9660107F1240107F5927207F1200307F11C05009507F11405019507F10C05029507F104050395049471
:400440000590084644F64C61C0F2000104F0EAF807F12403184601F0FBFC00F00FF800F021F844F67060C0F2000001F0F1FC00F005F807F5B877BD46B0BD00BF80B400AF00
:4004800048F2A413C1F6FF734FF000021A8048F2BA13C1F6FF734FF000021A70BD4680BC704700BF80B400AF48F2A613C1F6FF734FF000021A8048F2C233C1F6FF734FF026
:4004C00000021A70BD4680BC704700BF80B582B000AF01F047FB0346FB71FB79002B22D048F2A613C1F6FF731B881A4648F2BC13C1F6FF73F979995448F2A613C1F6FF7360
:400500001B8803F101039AB248F2A613C1F6FF731A80FB790A2B06D148F2C233C1F6FF734FF001021A7007F10807BD4680BD00BF80B582B000AF01F049FC0346FB71FB79FF
:40054000002B30D0FB790A2B14D148F2A413C1F6FF731B881A4648F2C023C1F6FF734FF00001995448F2BA13C1F6FF734FF001021A700BE048F2A413C1F6FF731B881A462E
:4005800048F2C023C1F6FF73F979995448F2A413C1F6FF731B8803F101039AB248F2A413C1F6FF731A8007F10807BD4680BD00BF80B584B000AF02460B46FA71BB714FF054
:4005C0001E004FF0000101F0A3F80346FB73FB7B002B0BD1FB79184601F04EF90346FB73BB79184601F048F90346FB7301F00AF907F11007BD4680BD80B584B000AF0346FD
:40060000FB714FF01E004FF0000101F081F80346BB73BB7B002B05D1FB79184601F02CF90346BB7301F0EEF84FF01E004FF0010101F06EF803467B737B7B002B05D14FF001
:40064000000001F071F90346FB7301F0DBF8FB7B184607F11007BD4680BD00BF80B584B000AF02460B46FA71BB71FB791846FFF7C3FF0346FB73BB791846FFF7BDFF0346AC
:40068000BB73FB7B4FEA03239AB2BB7B9BB21343BB81BB891BB2184607F11007BD4680BD80B584B000AF02460B46FA80BB80B7F90430002B36DDB7F90620B7F9043092FB49
:4006C000F3F3184603F082FA02460B461046194601F0FEFD02460B46104619464FF000024FF40043C4F2660303F0D6FA02460B461046194632A3D3E9002303F0F7FB0246E7
:400700000B464FF000004FF40041C4F2560103F00FF902460B461046194603F057FD0346FB8146E0B7F90430002B33DAB7F90620B7F9043092FBF3F3184603F047FA0246FA
:400740000B461046194601F0C3FD02460B46104619464FF000024FF40043C4F2660303F09BFA02460B461046194615A3D3E9002303F0BCFB02460B4613A1D1E9000103F07C
:40078000D7F802460B461046194603F01FFD0346FB810EE0B7F90430002B07D1B7F90630002B03DA4FF0B403FB8102E04FF00003FB81FB891BB2184607F11007BD4680BD75
:4007C000C45F9335EA2109400000000000E070402DE9B04392B000AF4FF000037B874FF40053A7F842304FF00003FB634FF0050001F0ACFC00BF01F0D5FC0346002BFAD009
:4008000001F0C0FC03467B874FF000037B6429E0B7F842301A467B8F13409BB29BB2B7F842209A420AD17B6C4FEA830307F14802D3184FF0010243F8482C09E07B6C4FEA89
:40084000830307F14802D3184FF0000243F8482CB7F842304FEA5303A7F842307B6C03F101037B647B6C0D2BD2DD4FF001037B6437E0F86B03F0BCF904460D467B6C4FEA87
:40088000830307F14802D31853F8483C184603F09DF9804689467B6CC3F10B03184603F095F902460B464FF000004FF0804101F0C7FE02460B464046494603F0EDF9024655
:4008C0000B462046294603F035F802460B461046194603F0A3FC0346FB637B6C03F101037B647B6C0D2BC4DD3B68012B03D1FB6B83F00043FB63F86B4FF00001C4F2C8214E
:4009000003F0DCFC0346184603F028FE03467B877B8F1BB2184607F14807BD46BDE8B08380B400AFFEE700BF80B586B000AF40F20103C0F200037B6144F6BC73C0F2000304
:400940003B6140F20103C0F200037B6144F6BC73C0F200033B613BE03B691B68FB603B695B68BB603B699B683B604FF000037B600FE0FB681A68BB681A60BB6803F104034D
:40098000BB60FB6803F10403FB607B6803F104037B607A683B689A42EBD13B69DB683B604FF000037B600BE0BB684FF000021A60BB6803F10403BB607B6803F104037B6033
:4009C0007A683B689A42EFD13B6903F110033B617B69002B0CBF00230123DBB27A6902F1FF327A61002BB7D103F0E4FDFFF748FBFEE700BF80B582B000AF4EF60C53CEF222
:400A000000034FF48062C0F2FA521A604EF61453CEF200034EF61452CEF20002126842F400721A604FF000037B6019E07B68032B07D840F20003C0F200037A6853F8223031
:400A400003E040F62113C0F2000348F20002C1F6FF72796842F821307B6803F101037B607B682F2BE2D947F2BC63C4F200031B78DAB248F20413C1F6FF731A704EF6085323
:400A8000CEF2000348F20002C1F6FF721A6000F05FF948F20013C1F6FF734FF000021A6007F10807BD4680BD80B582B000AF7860396078684FF000013A6803F0AAFD07F1FA
:400AC0000807BD4680BD00BF80B584B000AFF860B9607A60F868B9687A6803F091FD07F11007BD4680BD00BF80B483B000AF0346FB71FEE780B487B000AF786039604FF019
:400B000000033B614FF000037B612CE07B694FEA83037A68D3181B68BB60BB68FB73BB6823F0FF03BB6017E03B694FEA43033A68D3181B781A46BB68D3183A694FEA420232
:400B400039688A1852781A703B6903F101033B61FB7B03F1FF33FB73FB7B002BE4D17B6903F101037B617B691F2BCFD907F11C07BD4680BC704700BF80B582B000AF4FF48F
:400B80008143C4F200034FF000021A8044F28203C4F200034FF019021A7044F28403C4F200034FF033021A8044F28603C4F200034FF018021A7044F28803C4F200034FF0ED
:400BC0009B021A8044F28A03C4F200034FF018021A704FF48643C4F200034FF002021A704FF040234FF008021A704FF48443C4F200034FF003021A7044F2A163C4F20003D4
:400C00004FF48472C4F600121278D2B21A7044F22223C4F200034FF008021A8044F22023C4F2000341F251221A804FF00003FB704FF019037B6019E0FB784FEA4303DAB234
:400C400044F22523C4F200031B78DBB203F00103DBB21343DBB203F00303FB704FF4F07000F066F97B6803F1FF337B607B68002B02D0FB78032BDFD17B68002B03D14FF02A
:400C80000300FFF731FF44F20403C4F200034FF480721A8044F20403C4F200034FF007021A7044F20603C4F200034FF000021A7044F20803C4F200034FF048021A7044F278
:400CC0000403C4F200034FF000021A7044F20103C4F200034FF002021A7044F2A233C4F2000344F2A232C4F200021278D2B242F00702D2B21A7007F10807BD4680BD00BFC6
:400D000080B483B000AF40F2CF13C4F600131B78FB7145F66E03C4F20003FA7902F00702D2B21A7045F66F03C4F20003FA794FEA1212D2B21A7045F67603C4F200034FF0EC
:400D400044021A7007F10C07BD4680BC704700BF80B586B000AF72B644F2E863C4F2000344F2E862C4F200021278D2B242F00402D2B21A704FF00003FB7519E0FA7D134660
:400D80004FEA43039B184FEA430344F68062C0F200029B183B613B691A683B699B889BB210461946FFF780FEFB7D03F10103FB75FB7D092BE2D94FF00003FB7523E0FA7D8D
:400DC00013464FEA83039B184FEA430344F6BC62C0F200029B18FB60FB681B68BB60FB685B687B60FB681A7A5B7A4FEA032313437B807B88B86879681A46FFF765FEFB7DDC
:400E000003F10103FB75FB7D012BD8D94FF090404FF08001C4F60001FFF76CFE45F20303C4F2010345F20302C4F201021278D2B242F00202D2B21A7045F21303C4F20103C6
:400E400045F21302C4F201021278D2B242F00202D2B21A7044F2A033C4F2000344F2A032C4F200021278D2B242F04002D2B21A7044F2C233C4F2000344F2C232C4F2000243
:400E80001278D2B242F01002D2B21A7045F2C010C4F2000040F6E801C4F600014FF00A02FFF712FE45F22010C4F2000040F6F401C4F600014FF00A02FFF706FE44F2223317
:400EC000C4F2000344F22232C4F200021278D2B242F00802D2B21A704FF49043C4F200034FF001021A70FFF747FE4FF49043C4F200034FF081021A704FF00403C4F20803A7
:400F00004FF001021A70FFF7FBFE44F2B030C4F2000044F2A031C4F200014FF00E02FFF7D3FD07F11807BD4680BD00BF000000000230800800F0058000BF013800467FF461
:400F4000FCAF7047EFF3108072B6704780F31088704700BFAFF3008080B483B000AF0346FB7101BE07F10C07BD4680BC704700BF80B582B000AF78600BE048F21813C1F6DC
:400F8000FF731B681846FFF7D3FF7B68A3F500437B607B68B3F5004FEFD848F21013C1F6FF731B687A6802FB03F31846FFF7C0FF07F10807BD4680BD80B584B000AF034643
:400FC0003960FB714EF60853CEF200031B68FB60FB791F2B03D94FF00000FFF7BDFFFB7903F01F0303F110034FEA8303FA68D3181B68BB60FB7903F01F0303F110034FEA1E
:401000008303FA68D3183A681A60BB68184607F11007BD4680BD00BF80B582B000AF02460B46FA71BB71BB79072B03D94FF00000FFF792FFFB791F2B03D94FF00000FFF715
:401040008BFFFB7903F01F0303F1604303F56443BA794FEA4212D2B21A7007F10807BD4680BD00BF80B500AF44F6D613C4F200034FF002021A7044F6C813C4F200034FF0B9
:4010800081021A7044F6DB13C4F200034FF00F021A7044F6DC13C4F200034FF000021A704EF28013CEF200034FF400421A604FF00F004FF00701FFF7AFFF4FF00F0041F26C
:4010C0007911C0F20001FFF777FF48F2C633C1F6FF734FF010021A7000F090FC00F0A8FC00F074FC80BD00BF80B582B000AFFFF729FF0346FB7144F2A533C4F2000344F2BE
:40110000A532C4F200021278D2B242F00402D2B21A7044F2B533C4F2000344F2B532C4F200021278D2B242F00402D2B21A70FB791846FFF70BFF07F10807BD4680BD00BFF4
:4011400080B500AF48F2A813C1F6FF731B78002B08D1FFF787FF48F2A813C1F6FF734FF001021A70FFF7C0FF4FF46143CEF200034FF400421A6080BD80B582B000AF44F685
:40118000D713C4F200031B78FB7148F2C633C1F6FF731B78DBB203F04003DBB2002B00F0A082FB7903F00103002B00F0638248F2C633C1F6FF731B78DBB2A3F14503052B1E
:4011C00000F2538201A252F823F000BFE5110000DB1300006B1600006B160000E511000083150000FB7923F02003FB71FB7903F00A03DBB2082B40F0858048F2C633C1F68C
:40120000FF731B78DBB2452B6DD148F2CD33C1F6FF731B78DBB2002B21D044F6D813C4F2000348F2C832C1F6FF7212681278D2B21A7044F6D713C4F200034FF004021A70D7
:4012400048F2D133C1F6FF734FF001021A7048F2C633C1F6FF734FF046021A700AE248F2CF33C1F6FF731B78DBB203F00203002B1CD048F2CC33C1F6FF731B78DBB243F099
:401280000A03DAB248F2CC33C1F6FF731A7048F2C633C1F6FF734FF060021A704EF28013CEF200034FF400421A60E3E144F6D613C4F2000344F6D612C4F200021278D2B205
:4012C00042F01002D2B21A7044F6D913C4F200034FF010021A7044F6D713C4F200034FF004021A70C6E144F6D713C4F200034FF000021A7048F2C633C1F6FF734FF04A0200
:401300001A70B7E1FB7903F00A03DBB20A2B5FD148F2CC33C1F6FF731B78DBB263F05F03DAB248F2CC33C1F6FF731A7048F2CF33C1F6FF731B78DBB203F00203002B2AD0D4
:4013400048F2C633C1F6FF731B78DBB203F00803002B02D04FF0090201E04FF00A0248F2CC33C1F6FF731B78DBB21343DAB248F2CC33C1F6FF731A7048F2C633C1F6FF73D4
:401380004FF060021A704EF28013CEF200034FF400421A606EE144F6D613C4F2000344F6D612C4F200021278D2B242F01002D2B21A7044F6D913C4F200034FF010021A704E
:4013C00044F6D713C4F200034FF004021A7051E14FF00000FFF7C0FD4CE1FB7903F00203002B7CD148F2D133C1F6FF731B78DAB248F2CD33C1F6FF731B78DBB29A4228D22D
:4014000044F6D813C4F2000348F2C832C1F6FF72116848F2D132C1F6FF721278D2B28A181278D2B21A7044F6D713C4F200034FF004021A7048F2D133C1F6FF731B78DBB219
:4014400003F10103DAB248F2D133C1F6FF731A7010E148F2CF33C1F6FF731B78DBB203F00203002B1CD048F2CC33C1F6FF731B78DBB243F00A03DAB248F2CC33C1F6FF73C2
:401480001A7048F2C633C1F6FF734FF060021A704EF28013CEF200034FF400421A60E9E000F0E0FA44F6D613C4F2000344F6D612C4F200021278D2B242F01002D2B21A70DD
:4014C00044F6D913C4F200034FF010021A7044F6D713C4F200034FF004021A70CAE048F2CF33C1F6FF731B78DBB203F00203002B1CD048F2CC33C1F6FF731B78DBB263F073
:401500006503DAB248F2CC33C1F6FF731A7048F2C633C1F6FF734FF060021A704EF28013CEF200034FF400421A60A3E044F6D613C4F2000344F6D612C4F200021278D2B268
:4015400042F01002D2B21A7044F6D913C4F200034FF010021A7044F6D713C4F200034FF004021A7048F2CC33C1F6FF731B78DBB263F06F03DAB248F2CC33C1F6FF731A70F4
:4015800078E048F2D433C1F6FF731A6848F2D033C1F6FF731B78DBB2D21844F6D813C4F200031B78DBB2137048F2D033C1F6FF731B78DBB203F10103DAB248F2D033C1F6F8
:4015C000FF731A7048F2D033C1F6FF731B78DAB248F2CE33C1F6FF731B78DBB29A4207D244F6D713C4F200034FF010021A7041E048F2CF33C1F6FF731B78DBB203F00203DB
:40160000002B1CD048F2CC33C1F6FF731B78DBB243F00903DAB248F2CC33C1F6FF731A7048F2C633C1F6FF734FF060021A704EF28013CEF200034FF400421A601AE044F60A
:40164000D613C4F2000344F6D612C4F200021278D2B242F01002D2B21A7044F6D713C4F200034FF000021A7004E04FF00000FFF773FC00BFFB7903F02003002B43D048F29D
:40168000C633C1F6FF731B78DBB203F00803002B02D04FF0010201E04FF0020248F2CC33C1F6FF731B78DBB21343DAB248F2CC33C1F6FF731A7044F6D613C4F2000344F621
:4016C000D612C4F200021278D2B222F01002D2B21A7048F2C633C1F6FF734FF010021A7011E048F2C633C1F6FF731B78DBB203F01003DBB2002B06D148F2C633C1F6FF7375
:401700004FF010021A7007F10807BD4680BD00BF80B485B000AF02460B46FA71BB714FF00203FB7348F2C633C1F6FF731B78DBB2102B5FD144F6D913C4F200031B78DBB2E8
:4017400003F00803002B52D14EF28013CEF200034FF400421A60FB794FEA4303FB71BB79002B0BD0FB7943F00103FB7148F2C633C1F6FF734FF049021A7006E048F2C6334F
:40178000C1F6FF734FF045021A7044F6D813C4F20003FA791A7044F6D913C4F200034FF001021A7000BF44F6D713C4F200031B78DBB203F00103002BF5D044F6D713C4F2ED
:4017C00000031B78DBB203F00A03DBB20A2B0AD148F2C633C1F6FF734FF010021A704FF00303FB7306E04FF00003FB7302E04FF00103FB73FB7B184607F11407BD4680BCF0
:40180000704700BF80B483B000AF4FF00203FB7144F6D913C4F200031B78DBB203F00403002B22D044F6D913C4F200034FF010021A7044F6D713C4F200034FF004021A70F0
:4018400048F2C633C1F6FF734FF010021A7000BF44F6D713C4F200031B78DBB203F02103002BF5D04FF00003FB71FB79184607F10C07BD4680BC704780B485B000AF03468C
:40188000FB714FF00203FB7344F6D913C4F200031B78DBB203F00403002B3DD044F6D813C4F20003FA791A7044F6D713C4F200034FF004021A7048F2C633C1F6FF734FF0B7
:4018C00046021A7000BF44F6D713C4F200031B78DBB203F00103002BF5D044F6D713C4F200031B78DBB203F00203002B0AD148F2C633C1F6FF734FF060021A704FF00003AF
:40190000FB7309E048F2C633C1F6FF734FF060021A704FF00303FB73FB7B184607F11407BD4680BC704700BF80B485B000AF0346FB714FF00003FB7344F6D913C4F200031E
:401940001B78DBB203F00403002B38D048F2C633C1F6FF731B78DBB2492B0DD148F2C633C1F6FF734FF04A021A7044F6D713C4F200034FF000021A7000BF44F6D713C4F29A
:4019800000031B78DBB203F00103002BF5D044F6D813C4F200031B78FB73FB79002B07D044F6D713C4F200034FF010021A7006E048F2C633C1F6FF734FF060021A70FB7B2D
:4019C000184607F11407BD4680BC704780B483B000AF48F2CC33C1F6FF731B78FB7148F2CC33C1F6FF734FF000021A70FB79184607F10C07BD4680BC704700BF80B400AF67
:401A000048F2D033C1F6FF734FF000021A7048F2CC33C1F6FF731B78DBB223F00103DAB248F2CC33C1F6FF731A70BD4680BC704780B400AF48F2D133C1F6FF734FF00002E3
:401A40001A7048F2CC33C1F6FF731B78DBB223F00203DAB248F2CC33C1F6FF731A70BD4680BC704780B400AFBD4680BC704700BF80B500AF48F2A913C1F6FF731B78002B7B
:401A800008D100F00BF848F2A913C1F6FF734FF001021A7000F02AF880BD00BF80B400AF46F28F43C4F200034FF072021A7046F28B43C4F200034FF020021A7046F22F432A
:401AC000C4F200034FF007021A7046F23F43C4F200034FF048021A7046F28953C4F200034FF000021A70BD4680BC704780B582B000AFFFF727FA0346FB7146F29F43C4F295
:401B0000000346F29F42C4F200021278D2B242F02002D2B21A7046F29B43C4F2000346F29B42C4F200021278D2B242F01002D2B21A7046F29953C4F2000346F29952C4F2AF
:401B400000021278D2B242F01002D2B21A7000F01BFAFB791846FFF7F9F907F10807BD4680BD00BF80B483B000AF4FF00003FB7146F26B43C4F200031B78BB71BB7903F0F5
:401B80002003002B0DD046F24C43C4F200031B78FB71BB7903F01E03002B02D04FF00003FB71FB79184607F10C07BD4680BC704780B483B000AF0346FB7100BF46F2695337
:401BC000C4F200031B78DBB203F00403002BF5D146F24A43C4F20003FA791A7007F10C07BD4680BC704700BF80B584B000AF78604FF00003FB8148F2A913C1F6FF731B7886
:401C0000002B11D00AE0FB897A68D3181B781846FFF7CEFFFB8903F10103FB81FB897A68D3181B78002BEED107F11007BD4680BD80B582B000AF786000F042F8786800F0AC
:401C40000BF84FF0000000F01BF800F02DF807F10807BD4680BD00BF80B485B000AF78604EF60853CEF200031B68FB60FB6803F144037A681A6007F11407BD4680BC7047D1
:401C800080B483B000AF0346FB714EF20143CEF20003FA794FEA4212D2B21A7007F10C07BD4680BC704700BF80B400AF4FF46143CEF200034FF002021A60BD4680BC704704
:401CC00080B400AF4EF28013CEF200034FF002021A60BD4680BC704780B500AF48F2AB13C1F6FF731B78002B08D100F00BF848F2AB13C1F6FF734FF001021A7000F02AF82A
:401D000080BD00BF80B400AF46F28943C4F200034FF072021A7046F28A43C4F200034FF020021A7046F22B53C4F200034FF007021A7046F23B53C4F200034FF048021A704E
:401D400046F28B53C4F200034FF000021A70BD4680BC704780B582B000AFFFF7F3F80346FB7146F29943C4F2000346F29942C4F200021278D2B242F02002D2B21A7046F2E7
:401D80009A43C4F2000346F29A42C4F200021278D2B242F01002D2B21A7046F29B53C4F2000346F29B52C4F200021278D2B242F01002D2B21A7000F009F9FB791846FFF78B
:401DC000C5F807F10807BD4680BD00BF80B483B000AF4FF00003FB7146F26A43C4F200031B78BB71BB7903F02003002B0DD046F24943C4F200031B78FB71BB7903F01E03E9
:401E0000002B02D04FF00003FB71FB79184607F10C07BD4680BC704780B483B000AF0346FB7100BF46F26B53C4F200031B78DBB203F00403002BF5D146F24853C4F2000354
:401E4000FA791A7007F10C07BD4680BC704700BF80B584B000AF78604FF00003FB8148F2AB13C1F6FF731B78002B11D00AE0FB897A68D3181B781846FFF7CEFFFB8903F1D0
:401E80000103FB81FB897A68D3181B78002BEED107F11007BD4680BD80B500AF00F068F841F6FD60C0F2000000F02EF84FF0010000F03EF800F050F880BD00BF80B582B0F4
:401EC00000AF786000F054F8786800F01DF84FF0010000F02DF800F03FF807F10807BD4680BD00BF80B500AF00F042F840F62110C0F2000000F008F880BD00BF80B400AFC2
:401F0000BD4680BC704700BF80B485B000AF78604EF60853CEF200031B68FB60FB6803F140037A681A6007F11407BD4680BC704780B483B000AF0346FB714FF46443CEF248
:401F40000003FA794FEA4212D2B21A7007F10C07BD4680BC704700BF80B400AF4FF46143CEF200034FF001021A60BD4680BC704780B400AF4EF28013CEF200034FF0010296
:401F80001A60BD4680BC704780B400AF44F2A233C4F2000344F2A232C4F200021278D2B242F00402D2B21A7044F2B233C4F2000344F2B232C4F200021278D2B242F0040208
:401FC000D2B21A70BD4680BC704700BF80B400AF44F2A233C4F2000344F2A232C4F200021278D2B242F00202D2B21A7044F2B233C4F2000344F2B232C4F200021278D2B2AF
:4020000042F00202D2B21A70BD4680BC704700BF80B500AF46F28853C4F200034FF01B021A7000F0D9F800F071F800F07FF846F28843C4F200034FF000021A7046F28C4302
:40204000C4F200034FF000021A7080BD80B582B000AFFEF777FF0346FB7146F29853C4F2000346F29852C4F200021278D2B242F02002D2B21A7046F29843C4F2000346F23F
:402080009842C4F200021278D2B242F01002D2B21A7046F29C43C4F2000346F29C42C4F200021278D2B242F01002D2B21A70FB791846FEF74BFF00F01DF800F021F807F119
:4020C0000807BD4680BD00BF80B500AF48F2AD13C1F6FF731B78002B08D1FFF799FF48F2AD13C1F6FF734FF001021A70FFF7AEFF80BD00BF80B400AFBD4680BC704700BF80
:4021000080B400AFBD4680BC704700BF80B483B000AF46F26843C4F200031B78FB71FB79184607F10C07BD4680BC704780B483B000AF46F26C43C4F200031B78FB71FB795A
:40214000184607F10C07BD4680BC704780B483B000AF0346FB8000BF46F26843C4F200031B78DBB203F00403002BF5D046F24D43C4F20003FA881A8007F10C07BD4680BCDA
:40218000704700BF80B483B000AF46F25D43C4F200031B88FB80FB88184607F10C07BD4680BC704780B483B000AF46F26C43C4F200031B78DBB203F02003002B02D04FF0DA
:4021C000010301E04FF00003FB71FB79184607F10C07BD4680BC704780B582B000AF04E046F25D43C4F200031B8846F26C43C4F200031B78DBB203F02003002BF0D1FEF794
:40220000A1FE0346FB7146F29D43C4F2000346F29D42C4F200021278D2B242F00102D2B21A7046F29D43C4F2000346F29D42C4F200021278D2B222F00102D2B21A7046F250
:402240009E43C4F2000346F29E42C4F200021278D2B242F00102D2B21A7046F29E43C4F2000346F29E42C4F200021278D2B222F00102D2B21A70FB791846FEF767FE07F1AC
:402280000807BD4680BD00BF80B400AF44F2A233C4F2000344F2A232C4F200021278D2B242F00102D2B21A7044F2B233C4F2000344F2B232C4F200021278D2B242F001026D
:4022C000D2B21A70BD4680BC704700BF000000002DE9F84F4FF6FF7321F00046C4F20F439E4288468A4681461BDD0020C7F6F07086424B4600F3BE8000F0B98042F2FB1834
:40230000414642F61859CBF6F978C3F6F971C5F24449BAF1000FC8BF884648464146BDE8F88F4FF6FF70C3F6DB70864200F3BC804FF6FF71C3F61F618E4240F3A4804FF081
:40234000FF3B4A4643464846414601F0A5FC02460B4606460F4601F09FFC9DA3D3E9002304460D4601F098FC9BA3D3E9002301F0E1FA22462B4601F08FFC99A3D3E9002303
:4023800001F0D8FA22462B4601F086FC96A3D3E9002301F0CFFA22462B4601F07DFC94A3D3E9002301F0C6FA22462B4601F074FC91A3D3E9002301F0BDFA32463B4601F053
:4023C0006BFC8FA3D3E9002306460F462046294601F062FC8CA3D3E9002301F0A9FA22462B4601F059FC8AA3D3E9002301F0A0FA22462B4601F050FC87A3D3E9002301F038
:4024000097FA22462B4601F047FC85A3D3E9002301F08EFA22462B4601F03EFCBBF1FF3F02460B466FD03046394601F083FA43464A4601F031FC7E4C7E4A4FEACB0B5C44DD
:402440009344DBE9002301F073FA43464A4601F06FFA02460B46D4E9000101F069FABAF1000F8146B4BF01F10048884655E7002B3FF444AF48464A464146434601F05AFA26
:402480008146884649E768A3D3E900234846414601F050FA00230022C3F6F07301F08CFE00287FF43AAF4AE7484600F0C5F84FF6FF72C3F6F272964204460D4636DC4FF6B2
:4024C000FF73C3F6E5739E4264DC02460B4601F031FA00230022C3F6F07301F029FA002206460F464FF080432046294601F022FA02460B463046394601F0F8FC4FF0000BAB
:40250000814688461DE73046394601F013FA4A46434601F0C1FB02460B464846414601F007FA4C46454681468846F6E647F6FF77C4F20307BE4220DC00230022C3F6F87343
:4025400001F0F6F9002306460F460022C3F6F8732046294601F0A0FB00230022C3F6F07301F0E8F902460B463046394601F0BEFC4FF0020B81468846E3E600210020CBF6F8
:40258000F07122462B4601F0B1FC4FF0030B81468846D6E600230022C3F6F07301F0C8F9002306460F460022C3F6F0732046294601F0C0F902460B463046394601F096FC00
:4025C0004FF0010B81468846BBE600BFAFF3008011DA22E33AAD903FEB0D76244B7BA93F513DD0A0660DB13F6E204CC5CD45B73FFF8300922449C23F0D5555555555D53F3F
:402600002F6C6A2C44B4A2BF9AFDDE522DDEAD3F6D9A74AFF2B0B33F711623FEC671BC3FC4EB98999999C93F9C7500883CE4377EF04E0000D04E000021F00041704700BF0E
:402640002DE9F04F8BB01F4680468946164600F07FF9DFF8C0B204469BF900300D46013304D03046394600F0FDFF20B9204629460BB0BDE8F08F4046494600F0F3FF82462D
:4026800000282CD1304639460022002301F06CFD0028EBD001239E4A9BF9005000930023C3F6F07301920022CDE906236B1CCDF820A0CDE90289CDE904670DD0022D0BD0D3
:4026C000684601F003F8002800F09380089818B101F06AFF089C0460DDE90645C6E7404649460022002301F03FFD00B3304639460022002301F038FD00284ED084490120BE
:402700009BF90050009001910024002000210894CDE90289CDE90467CDE90601002DCFD000230022C3F6F073CDE90623D4E72046294600F091FF824600285FD02046294663
:402740000022002301F010FD00288FD04046494600F082FF002889D03046394600F07CFF002883D06A489BF90040002104220190089100200021022C0092CDE90289CDE9BE
:402780000467CDE9060163D0684600F09FFF00285ED0089A002A9FD09AE73046394600F05BFF00283FF462AF304639460022002301F0E4FC00283FF459AF55499BF80050D6
:4027C00001200024009001910894CDE90289CDE9046700220023002D33D1CDE90623684600F074FF0028D4D101F0DEFE21230360CFE701F0D9FE2121016067E74046494649
:4028000000F02AFF002899D03046394600F024FF002893D02046294600F024FFE8B93C4A9BF800400123089000930192CDE90289CDE9046700200021002C5FD1CDE90601DB
:40284000CDE7CFF6F073022DCDE90623CCD0C6E701F0AAFE222505609BE72D4A9BF90030032400940192CDF820A0CDE90289CDE9046740464946E3B94FF6FF754FF06044A1
:40288000C4F2EF7500220023CDE9064501F076FC002841D19BF90000022805D0684600F015FF00287FF412AF01F07EFE222101600CE700250024C7F6F07500220023CDE910
:4028C000064501F05BFC0028E4D000230022C3F6E0733046394601F0DFF904460D4600F0FDFE22462B4601F03FFC0028D2D100230022CFF6F073CDE90623CBE702460B466B
:4029000001F0F4FA022CCDE906013FF46DAF66E7104F00001C81FF1F00230022C3F6E0733046394601F0B8F904460D4600F0D6FE22462B4601F018FC0028ABD14FF6FF7395
:402940004FF06042CCF2EF73CDE90623A2E700BF2DE9F04F9A4693462AF00049884614460746024659EA0B0091B01D465946C44644D0002328F00044C7F6F0739C420FDDE9
:4029800004F1404404F5801B5BEA020B3CD14FF0000AC3F6F07A5846514611B0BDE8F08F38D00020C7F6F0708145E9DC00F0B780BCF1000FC0F28A80002600292ED1002048
:4029C000C7F6F070814500F0AE800021C3F6F071894500F09E80B5F1804F00F0E4830023C3F6E0739D4219D1BCF1000F16DB3846414611B0BDE8F04F00F02ABD4FF0000A84
:402A00008346C3F6F07AC6E7574811B0BDE8F04F00F05EBE002FB3D1C3E70026384641460192CDF800C0FFF707FE019ADDF800C03ABB0023C7F6F0739C4205D024B1002200
:402A4000C3F6F07294421CD1002DC0F2178483468A46BCF1000F9EDA04F1404000F5801256EA020340F0A38458465A465146534600F05EFF02460B4601F038FA83468A4689
:402A800089E74FEADC7E0EF1FF3C56EA0C0262D00023C4F2E013994568DD0023C4F2F033994540F300844FF6FF71C3F6EF718C4240F3E083002D48DD29A1D1E90001024688
:402AC0000B4601F0E9F883468A4664E74FF6FF76C4F23F36B1453CDC4FF6FF73C3F6EF7399457FF769AF4FEA295640F21340864240F36184C6F58666F31C21FA03F000FAC3
:402B000003F68E427FF458AF00F00103C3F1020653E7002DC0F22F84BB46C2463BE700293FF446AF2CE704F1404303F5801050EA020300F031834FF6FF71C3F6EF718C42C8
:402B400040F39183002DBFF626AF4FF0000BDA4621E7022631E7384641463A46434687E79C7500883CE4377E484F0000B4F5801F80F2978300230022C4F24033CDF800C05D
:402B800001F08AF8DDF800C00C466FF0340524F07F4249F68E01241522F47003A4F2FF37C0F2030143F07F527F198B420F9742F4401440F373834BF27965C0F20B05AB42B0
:402BC00040F30884791C00250F91A4F580142F460246A748FF002346CDE90423C219D2E90089DDE9040142464B46CDF800C000F09FFE42464B46CDE90A01DDE9040100F0F4
:402C000099FE0B4600210246C3F6F071002001F06DF9CDE90C01DDE90C23DDE90A0101F03BF8641044F00053CDE9060103F500210020DDE906234D19CDE908230890002224
:402C4000DDE908012B461446CDE9020101F024F802460B46DDE90A0100F06AFE4246CDE90A014B462046294600F062FE02460B46DDE9040100F05CFE02460B46DDE9020123
:402C800001F00AF802460B46DDE90A0100F050FEDDE90C2301F000F8CDE90401DDE9060102460B4600F0F8FF02460B4604460D4600F0F2FF5CA3D3E90023804689462046A3
:402CC000294600F0E9FF5AA3D3E9002300F032FE22462B4600F0E0FF57A3D3E9002300F029FE22462B4600F0D7FF55A3D3E9002300F020FE22462B4600F0CEFF52A3D3E92E
:402D0000002300F017FE22462B4600F0C5FF50A3D3E9002300F00EFE02460B464046494600F0BAFFDDE9062304460D46DDE9020100F000FEDDE9042300F0AEFF22462B4613
:402D400000F0F8FD80468946DDE9020102460B4600F0A2FF00230022C4F20803CDE90A0100F0E8FD42464B4600F0E4FD089B0D461C46DDE902011A462B4600F08DFF22468A
:402D80002B46CDE90201DDE9040100F085FF0023CDE90401002220462946C4F2080300F0C7FDDDE90A2300F0C3FD02460B464046494600F0BDFDDDE9062300F06DFF0246D2
:402DC0000B46DDE9040100F0B5FD8046894642464B46DDE9020100F0ADFD1FA3D3E9002308980D46044600F057FF1DA3D3E90023CDE904012046294600F04EFFDDE9022389
:402E0000CDE906012046294600F092FD02460B464046494600F08CFD13A3D3E9002300F03BFF02460B4625E0EF4E454A287ECA3F65DBC9934A86CD3F01411DA96074D13F1E
:402E40004D268F515555D53FFFAB6FDBB66DDB3F033333333333E33F000000E009C7EE3FF5015B14E02F3EBEFD033ADC09C7EE3F384F0000DDE9060100F05CFDAC4BDA1905
:402E80000CCA00F057FD04460F980D4600F09EFEA84B8046DF19D7E900238946CDE90623DDE9040122462B4600F044FDDDE9062300F040FD42464B4600F03CFD089842468B
:402EC0004B46CDE9020100F033FDDDE9062300F02FFDDDE9042300F02BFD02460B462046294600F025FDDDF800C0013E56EA0C068046894640F0B08100210020CBF6F07159
:402F0000CDE908010024224653465846514600F00FFDDDE9022300F0BFFE554606460F4642464B465846294600F0B6FE02460B463046394600F0FEFCDDE9022382468B46E2
:402F40002046294600F0A8FE04460D465046594622462B4600F0EEFC4FF6FF78C4F28F08414506460F46894640F3208101F13F4101F5E00050EA060340F009825AA3D3E98F
:402F800000235046594600F0D5FC2246CDE902012B463046394600F0CBFC02460B46DDE9020101F009F9002840F0F18127F000480026C3F6E076B04500F316814FF0000841
:402FC000CDF8088000264AA3D3E9002330463946CDF8008000F060FE2246804689462B463046394600F0A4FC02460B465046594600F09EFC40A3D3E9002300F04DFE40A3DF
:40300000D3E9002304460D463046394600F044FE02460B462046294600F08CFC06460F4632463B464046494600F084FC42464B4604460D4600F07CFC02460B46304639463C
:4030400000F076FC224682468B462B462046294600F022FE2CA3D3E9002306460F4600F01BFE2BA3D3E9002300F062FC32463B4600F012FE28A3D3E9002300F05BFC3246E2
:403080003B4600F009FE26A3D3E9002300F050FC32463B4600F000FE23A3D3E9002300F049FC32463B4600F0F7FD02460B462046294600F03DFC06460F4632463B4620467F
:4030C000294600F0E9FD002280468946304639464FF0804300F02CFC02460B464046494600F004FF524627E0FE822B654715973C00000000432EE63FEF39FAFE422EE63FFB
:40310000396CA80C615C20BED0A4BE726937663EF16BD2C541BDBB3E2CDE25AF6A56113F93BDBE166CC1663F3E5555555555C53F284F0000184F000006460F4620462946A6
:403140005B4600F0A9FD52465B4600F0F3FB02460B463046394600F0EBFB22462B4600F0E7FB0B4600210246C3F6F071002000F0DFFBDDF800C002460CEB0103B3F5801F15
:4031800004460D46C0F23E81DDE9080100F084FD83468A46FFF7FFBB4FF0000A8B46C3F6F07AFFF7F8BB3846414688E44CF6FF3321F00048C4F2900398457FF7F9AE4FF4CE
:4031C0005053C3F66F73CB18034340F0088122462B4600F0ADFB02460B465046594600F0D7FF002840F0FB804FEA2857A7F2FE324FF4801343FA02F303EB0901C1F30A5048
:403200004FF6FF76A0F2FF37C0F20F0646FA07F321F07F4626F47007C0F5826021EA030347F48016C11C46FA01F70022B9F1000F0297C0F2E4802046294600F079FB044609
:403240000D462246504659462B4600F073FB029A0F464FEA0258B5E600230022C3F6F073CDE908234EE6002DBFF66FAC0AF1004AFFF791BB002DBFF668AC1DE40B4600210D
:403280000246C3F6F0710020CDF800C000F02EFEDDF800C083468A46FFF7DBBB00252F4696E4002573E44FF6FE72C3F6EF729442E0DD0023C3F6F0739C423FF7FBAB002323
:4032C0000022C3F6F073CDF800C000F031FB54A3D3E900230D46074600F0DEFC52A3D3E90023804689463846294600F0D5FC2B46CDE902013A462946384600F0CDFC002325
:40330000CDE9080100222946C3F6D073384600F0C3FC02460B4646A1D1E9000100F008FB2B463A4600F0B8FC0B4600210246C3F6E071002000F0FCFA02460B46DDE908011F
:4033400000F0AAFC3CA3D3E9002300F0A5FC02460B46DDE9020100F0EBFA04460D4622462B464046494600F0E5FA0020CDE9020142464B46AFE500213A4643460020C3F64E
:40338000F07100F0B3FD83468A46FFF704BB2CA3D3E90023DDE9080100F07EFC28A3D3E9002300F079FC83468A46FFF7F4BA012E7FF4F1AA5AE700297FF42FABC6F58263F7
:4033C000DE1C49FA06F303FA06F0484520D00E46FFF7FBBA4FF480250127FFF7F9BB1AA3D3E90023DDE9080100F056FC16A3D3E9002300F051FC83468A46FFF7CCBA78421D
:40340000029018E7029A00F0FFF902460B46BBE603F00101C1F10206FFF7D7BAAFF30080000000604715F73F44DF5DF80BAE543E555555555555D53FFE822B654715F73F7C
:403440009C7500883CE4377E59F3F8C21F6EA5012DE9F8430027B946C7F6F077C7F6F0790F404F4504460D4602460B460E46804600F0D480002940F3AE800C1500F0B8809A
:4034800026F07F45A4F2FF3725F47006FA0746F4801100F193804FEAD8734FF0000C03EB41037F104FEA4801162562464FF40010161844089E424FEAD17805F1FF354FEA80
:4034C000410102DC32189B1B844408EB43031019984202DC1B1A0219A444CE0F60084900013D06EB4303E3D14FF020082C464FF0004015E000F08E80CE0F06EB4303400834
:403500004900934208F1FF3804EB00061EDC1BD0CE0F40084900B8F1010806EB43032DD0934204EB0006E5DD06F00049B9F1004F06EB00043DD091469B1A8E4288BF013B6A
:40354000891B2D184A46D7E78E42E1D806F00049B9F1004F06EB000426D091468E42C2EB030300D9013B891BCE0F2D1849004008B8F101084A4606EB4303D1D1194324D136
:403580004FEA55084FEA6C0505F17F541CF0010F04F5001318BF48F0004803EB0755444620462946BDE8F883002CD6DB02F10109D4E7002CBFDB02F10109BDE74FEAD8723B
:4035C00002EB41014FEA480865E76B1C31D005F001025519D4E721F000460643E0D079BB0C464FEAD826153C4FEA4858002EF8D016F4801320D176000133F102FBD5C3F142
:403600000101C3F1200228FA02F0641808FA03F8064335E78E4287D91A466DE700F03CFB02460B462046294600F084F904460D46B6E70CF1010CA5E7202201210023E2E7BA
:4036400002460B4600F074F902460B4600F04EFC04460D46A4E700BF41F0004101F58010C00F70470B4661B1B1F1004F09D04FF6FF72A3F58011C7F6DF72914205D804202E
:4036800070470028F3D10220704703F1FF4101F5E0019142F3D94FF6FF72C0F20F02934201D80320704703F100419142F9D90022C7F6F072934204D013F5801F01D0002087
:4036C0007047D0F1010038BF002070470020704700210020C7F6F871704700BF2DE9F041C1F30A58A8F2FF37132F82B002460B4604460D468C464FEAD17635DC002F51DB3A
:403700004FF6FF71C0F20F0141FA07F101EA0300104324D04A0813401C430BD04FF4802141FA07F125EA0205132F0CBF4FF0004400240D432246324C2B4604EBC606D6E9C9
:4037400000452046294600F0F5F8CDE90001DDE9000122462B4600F0EBF802460B461046194602B0BDE8F081332F07DDB7F5806FF5D100F0DFF802460B46F0E7A8F213483F
:403780004FF0FF3121FA08F01042E8D042082242D0D04FF0804343FA08F824EA020444EA0804C7E721F0004050EA0201D7D023F07F4525F4700343EA0204614241EA040057
:4037C0000F4C050B4FEA5C4E05F4002304EBC601D1E9004543EA4E432046294600F0AAF8CDE90001DDE9000122462B4600F0A0F80446024621F000400D4640EAC673AEE778
:40380000504F000000000000C1F30A532DE9F04104460D4606460F4690467BBB21F0004353EA000C26D000230022C4F2503300F033FA43F6B042CFF6FF72904504460D4646
:4038400006460F463BDBC1F30A53363B03EB080040F2FE7290421BDD22462B4628A1D1E9000100F055F826A3D3E9002300F014FA04460D4620462946BDE8F08140F2FF7242
:40388000934224D003EB080040F2FE729042E3DC002806DD21F0FF4222F4E00545EA0055E8E710F1350F19DA4CF25030804522462B46D3DC14A1D1E9000100F029F812A3F2
:4038C000D3E9002300F0E8F904460D46D2E702460B4600F02FF804460D46CBE721F0FF4525F4E001363041EA00531946002320460022C3F6904300F0CFF904460D46B9E705
:403900009C7500883CE4377E59F3F8C21F6EA50103F0004321F0004230B40D46044643EA020130BC704700BF81F0004102E000BF83F0004330B54FEA41044FEA430594EAD9
:40394000050F08BF90EA020F1FBF54EA000C55EA020C7FEA645C7FEA655C00F0E2804FEA5454D4EB5555B8BF6D420CDD2C4480EA020281EA030382EA000083EA010180EADA
:40398000020281EA0303362D88BF30BD11F0004F4FEA01314FF4801C4CEA113102D0404261EB410113F0004F4FEA03334CEA133302D0524263EB430394EA050F00F0A78027
:4039C000A4F10104D5F1200E0DDB02FA0EFC22FA05F2801841F1000103FA0EF2801843FA05F359410EE0A5F120050EF1200E012A03FA0EFC28BF4CF0020C43FA05F3C018C3
:403A000051EBE37101F0004507D54FF0000EDCF1000C7EEB00006EEB0101B1F5801F1BD3B1F5001F0CD349085FEA30004FEA3C0C04F101044FEA445212F5800F80F09A80EF
:403A4000BCF1004F08BF5FEA500C50F1000041EB045141EA050130BD5FEA4C0C404141EB010111F4801FA4F10104E9D191F0000F04BF01460020B1FA81F308BF2033A3F12F
:403A80000B03B3F120020CDA0C3208DD02F1140CC2F10C0201FA0CF021FA02F10CE002F11402D8BFC2F1200C01FA02F120FA0CFCDCBF41EA0C019040E41AA2BF01EB045192
:403AC000294330BD6FEA04041F3C1CDA0C340EDC04F11404C4F1200220FA04F001FA02F340EA030021FA04F345EA030130BDC4F10C04C4F1200220FA02F001FA04F340EA8C
:403B00000300294630BD21FA04F0294630BD94F0000F83F4801306BF81F480110134013D4EE77FEA645C18BF7FEA655C29D094EA050F08BF90EA020F05D054EA000C04BFC2
:403B40001946104630BD91EA030F1EBF0021002030BD5FEA545C05D14000494128BF41F0004130BD14F580043CBF01F5801130BD01F0004545F0FE4141F470014FF00000A1
:403B800030BD7FEA645C1ABF194610467FEA655C1CBF0B46024650EA013406BF52EA033591EA030F41F4002130BD00BF90F0000F04BF0021704730B54FF4806404F132042B
:403BC0004FF000054FF0000150E700BF90F0000F04BF0021704730B54FF4806404F1320410F0004548BF40424FF000013EE700BF42004FEAE2014FEA31014FEA02701FBFA6
:403C000012F07F4393F07F4F81F06051704792F0000F14BF93F07F4F704730B54FF4607401F0004521F0004120E700BF50EA010208BF704730B54FF000050AE050EA0102D5
:403C400008BF704730B511F0004502D5404261EB41014FF4806404F132045FEA915C3FF4DCAE4FF003025FEADC0C18BF03325FEADC0C18BF033202EBDC02C2F1200300FA16
:403C800003FC20FA02F001FA03FE40EA0E0021FA02F11444C1E600BF70B54FF0FF0C4CF4E06C1CEA11541DBF1CEA135594EA0C0F95EA0C0F00F0DEF82C4481EA030621EA61
:403CC0004C5123EA4C5350EA013518BF52EA033541F4801143F4801338D0A0FB02CE4FF00005E1FB02E506F00042E0FB03E54FF00006E1FB03569CF0000F18BF4EF0010E82
:403D0000A4F1FF04B6F5007F64F5407404D25FEA4E0E6D4146EB060642EAC62141EA55514FEAC52040EA5E504FEACE2EB4F1FD0C88BFBCF5E06F1ED8BEF1004F08BF5FEA46
:403D4000500E50F1000041EB045170BD06F0004646EA010140EA020081EA0301B4EB5C04C2BFD4EB0C0541EA045170BD41F480114FF0000E013C00F3AB8014F1360FDEBF9B
:403D8000002001F0004170BDC4F10004203C35DA0C341BDC04F11404C4F1200500FA05F320FA04F001FA05F240EA020001F0004221F0004110EBD37021FA04F642EB060118
:403DC0005EEA430E08BF20EAD37070BDC4F10C04C4F1200500FA04F320FA05F001FA04F240EA020001F0004110EBD37041F100015EEA430E08BF20EAD37070BDC4F12005D6
:403E000000FA05F24EEA020E20FA04F301FA05F243EA020321FA04F001F0004121FA04F220EA020000EBD3705EEA430E08BF20EAD37070BD94F0000F0FD101F000464000C4
:403E400041EB010111F4801F08BF013CF7D041EA060195F0000F18BF704703F00046520043EB030313F4801F08BF013DF7D043EA0603704794EA0C0F0CEA135518BF95EAE6
:403E80000C0F0CD050EA410618BF52EA4306D1D181EA030101F000414FF0000070BD50EA410606BF1046194652EA430619D094EA0C0F02D150EA013613D195EA0C0F05D1E5
:403EC00052EA03361CBF104619460AD181EA030101F0004141F0FE4141F470014FF0000070BD41F0FE4141F4780170BD70B54FF0FF0C4CF4E06C1CEA11541DBF1CEA1355C4
:403F000094EA0C0F95EA0C0F00F0A7F8A4EB050481EA030E52EA03354FEA013100F088804FEA03334FF0805545EA131343EA12634FEA022245EA111545EA10654FEA0026A5
:403F40000EF000419D4208BF964244F1FD0404F5407402D25B084FEA3202B61A65EB03055B084FEA32024FF480104FF4002CB6EB020E75EB030E22BFB61A754640EA0C00FF
:403F80005B084FEA3202B6EB020E75EB030E22BFB61A754640EA5C005B084FEA3202B6EB020E75EB030E22BFB61A754640EA9C005B084FEA3202B6EB020E75EB030E22BF26
:403FC000B61A754640EADC0055EA060E18D04FEA051545EA16754FEA06164FEAC30343EA52734FEAC2025FEA1C1CC0D111F4801F0BD141EA00014FF000004FF0004CB6E780
:4040000011F4801F04BF01430020B4F1FD0C88BFBCF5E06F3FF6AFAEB5EB030C04BFB6EB020C5FEA500C50F1000041EB045170BD0EF0004E4EEA113114EB5C04C2BFD4EB14
:404040000C0541EA045170BD41F480114FF0000E013C90E645EA060E8DE60CEA135594EA0C0F08BF95EA0C0F3FF43BAF94EA0C0F0AD150EA01347FF434AF95EA0C0F7FF44B
:4040800025AF104619462CE795EA0C0F06D152EA03353FF4FDAE1046194622E750EA410618BF52EA43067FF4C5AE50EA41047FF40DAF52EA43057FF4EBAE12E74FF0FF3C6F
:4040C00006E000BF4FF0010C02E000BF4FF0010C4DF804CD4FEA410C7FEA6C5C4FEA430C18BF7FEA6C5C1BD001B050EA410C0CBF52EA430C91EA030F02BF90EA020F002013
:40410000704710F1000F91EA030F58BF994208BF90422CBFD8176FEAE37040F0010070474FEA410C7FEA6C5C02D150EA013C07D14FEA430C7FEA6C5CD6D152EA033CD3D0DB
:404140005DF8040B704700BF8446104662468C461946634600E000BF01B5FFF7B7FF002848BF10F1000F01BD4DF808EDFFF7F4FF0CBF012000205DF808FB00BF4DF808ED45
:40418000FFF7EAFF34BF012000205DF808FB00BF4DF808EDFFF7E0FF94BF012000205DF808FB00BF4DF808EDFFF7CEFF94BF012000205DF808FB00BF4DF808EDFFF7C4FF80
:4041C00034BF012000205DF808FB00BF4FEA410212F5001215D211D56FF47873B3EB625212D94FEAC12343F0004343EA505311F0004F23FA02F018BF404270474FF0000076
:40420000704750EA013005D111F0004008BF6FF0004070474FF00000704700BF4FEA4102B2F1E04324BFB3F5001CDCF1FE5C0DD901F0004C4FEAC0024CEA5070B2F1004F5D
:4042400040EB830008BF20F00100704711F0804F21D113F13872BCBF01F00040704741F480114FEA5252C2F11802C2F1200C10FA0CF320FA02F018BF40F001004FEAC123A5
:404280004FEAD32303FA0CFC40EA0C0023FA02F34FEA4303CCE77FEA625307D150EA01331EBF4FF0FE4040F44000704701F0004040F0FE4040F40000704700BF4FF0FF0CD4
:4042C0001CEAD0521EBF1CEAD15392EA0C0F93EA0C0F6FD01A4480EA010C400218BF5FEA41211ED04FF0006343EA501043EA5111A0FB01310CF00040B1F5000F3EBF4900D8
:4043000041EAD3715B0040EA010062F17F02FD2A1DD8B3F1004F40EBC25008BF20F00100704790F0000F0CF0004C08BF49024CEA502040EA51207F3AC2BFD2F1FF0340EA86
:40434000C250704740F400004FF00003013A5DDC12F1190FDCBF00F000407047C2F10002410021FA02F1C2F1200200FA02FC5FEA310040F1000053EA4C0308BF20EADC70B8
:40438000704792F0000F00F0004C02BF400010F4000F013AF9D040EA0C0093F0000F01F0004C02BF490011F4000F013BF9D041EA0C018FE70CEAD15392EA0C0F18BF93EA86
:4043C0000C0F0AD030F0004C18BF31F0004CD8D180EA010000F00040704790F0000F17BF90F0004F084691F0000F91F0004F14D092EA0C0F01D142020FD193EA0C0F03D15E
:404400004B0218BF084608D180EA010000F0004040F0FE4040F40000704740F0FE4040F4400070474FF0FF0C1CEAD0521EBF1CEAD15392EA0C0F93EA0C0F69D0A2EB030231
:4044400080EA010C49024FEA402037D04FF0805343EA111143EA10130CF000408B4238BF5B0042F17D024FF4000C8B4224BF5B1A40EA0C00B3EB510F24BFA3EB510340EA85
:404480005C00B3EB910F24BFA3EB910340EA9C00B3EBD10F24BFA3EBD10340EADC001B0118BF5FEA1C1CE0D1FD2A3FF650AF8B4240EBC25008BF20F0010070470CF0004C6D
:4044C0004CEA50207F32C2BFD2F1FF0340EAC250704740F400004FF00003013A37E792F0000F00F0004C02BF400010F4000F013AF9D040EA0C0093F0000F01F0004C02BFB2
:40450000490011F4000F013BF9D041EA0C0195E70CEAD15392EA0C0F08D142027FF47DAF93EA0C0F7FF470AF084676E793EA0C0F04D14B023FF44CAF08466EE730F0004C2C
:4045400018BF31F0004CCAD130F000427FF45CAF31F000437FF43CAF5FE700BF4FEA4002B2F1FE4F0FD34FF09E03B3EB12620DD94FEA002343F0004310F0004F23FA02F060
:4045800018BF404270474FF00000704712F1610F01D1420205D110F0004008BF6FF0004070474FF000007047014B1868704700BF8481FF1F38B50E4D0E4B0024E81A851082
:4045C000AC4205D00B4951F8242090470134F7E700F0E2FC0849094A541AA5100024AC4205D0054B53F8240080470134F7E738BDA44F0000A44F0000A44F0000AC4F00004F
:4046000010B50023934203D0CC5CC4540133F9E710BD82180346934202D003F8011BFAE7704700000EB400B59CB0029006906FF000401DAB049007904FF402710A4853F8C0
:40464000042BADF814104FF6FF71ADF81610006802A9019300F062F8029B00221A701CB05DF804EB03B070478481FF1F2DE9F8439368064689461446002B41D1928912F4CC
:40468000906F3DD0616903254D43236927680220FF1A95FBF0F5791C02F48062A94211B2A8BF3D18304679B1294600F009FB8046A0B13A462169FFF7A3FFA38923F49060DB
:4046C00040F08002A28113E019462A4600F050FB804668B93046216900F0AEFAA0890C2340F0400233604FF0FF30A281BDE8F88308EB07016561ED1BC4F810802160A560C0
:40470000A368002B06DD206800F8019BA2682060511EA1600020BDE8F88300002DE9F0479CB003938B890D4603F0800114460AB2064662B12B6953B9402100F0C1FA286057
:40474000286110B90C213160D3E04020686100272021302209978DF829108DF82A2023461F4613F8010B28B9B7EB040A16D04FF000090DE02528F3D1F6E7304614F809104C
:404780002A46FFF773FF013000F0AC8009F10109D145F2DB099901EB0A0209923B78002B00F0A08000244FF0FF3004940794059006948DF853401A9407F101094F4F4C46DE
:4047C00038462178052200F0C5FA09F10109049B30B1C41B012707FA04F73B430493EDE7D90602D520218DF853101A0702D52B228DF8532020782A2802D0079B27460EE087
:40480000039A1768101D002F039001DB079704E0794243F002030791049301340AE03C46217801373039092903D80A2404FB0313F5E7079322782E2A19D160782A2809D16C
:40484000039802340368021D002B0392B8BF4FF0FF330BE0671C00233C46217801373039092903D80A2404FB0313F5E70593244F21783846032200F06DFA38B1C71B4021F2
:4048800001FA07F1049B01340B43049314F8011B1C4806228DF8281000F05CFA88B11A4A32B9039FFB1D23F007000830039014E003A90091304604A92A46144BAFF3008029
:4048C00007E003A8009004A930462A460F4B00F08FF8B0F1FF3F804604D0099A02EB080109913CE7AB8903F0400002B20AB9099801E04FF0FF301CB0BDE8F087624F0000FC
:40490000684F00006C4F0000000000006D4600002DE9F047154699468A680B6980469A42A8BF13462B6091F843000C46DDF820A008B1591C29602668B20602D52A68931CB0
:404940002B60206810F0060618D094F8437020683E1C18BF012683061AD5A119302281F8432094F84530023681F8443010E04046617E4A46D047013006D00136E1682A6876
:404980008B1A9E42F3DBE0E74FF0FF30BDE8F0870027B74209DAE119404691F843104A46D0470130F0D00137F3E721682868E66801F00602042A08BFC0EB06052369A668A5
:4049C0000CBF25EAE57500259E42C4BFC3EB0603ED180026AE4207DA4046A17E4A46D0470130D1D00136F5E70020BDE8F08700002DE9F0430C46257E85B06E2D90460746AA
:404A000099460C9904F1430200F0AA8012D8632D24D009D8002D00F0BB80582D40F0CB8084F84550824D57E0642D20D0692D40F0C2801CE0732D00F0AF8009D86F2D2FD020
:404A4000702D40F0B880256845F0200626603FE0752D25D0782D40F0AE8039E0086804F14206021D0A60016884F84210A7E020680B6810F0800F02D01E1D0E6008E003F11C
:404A8000040510F0400F0D6002D0B3F9001000E0196800293CDA2D20494284F8430037E025680E6815F0800F02D0331D0B6007E006F1040015F0400F086001D0318800E029
:404AC0003168267E5A4D6F2E14BF0A2308231BE07820584D84F8450020680B6810F0800F03F104060E6003D1410601D5198800E01968C60744BF40F02000206019B920682E
:404B000020F0200323601023002084F8430001E0474D0A236668002EA66003DB206820F00400206001B96EB104F14200B1FBF3FE03FB1E11695C064600F801197146002932
:404B4000F4D100E01646921B082B22613CD12368D80739D56068904236DC511C616033E026680B6816F0800F05D01E1D0E601968606908600CE003F1040016F0400F0860F8
:404B800003D018686369038002E061691E68316000232361164617E00E68321D0A603668304600F019F963682061984288BF23612069606005E004F1420684F842500123C3
:404BC0002361002184F84310CDF800903846214603AA4346FFF79CFE013002D14FF0FF3022E000252269954207DA3846715D4246C8470130F2D00135F4E72168890705D48C
:404C0000E06803998842B8BF08460DE00025E068039BC21A9542F3DA3846617E4246C8470130DBD00135F2E705B0BDE8F08300BF734F0000844F000030B500293CD051F826
:404C4000042C0B1F1D49002AB8BF9B180A6812B95A600B6030BD93420ED219685818904203D15A5889184268196014485A60036030BD994203D80A4651680029F9D114687B
:404C800015199D420AD118682318D0188842136012D108681B1813604B680CE002D90C23036030BD18681C188C4203D10C684968001918605960536030BD00BFB081FF1FC7
:404CC00070B5CD1C25F0030508350C2D38BF0C25002D06462DDB8D422BD31D4B1B681C469CB12268501B0DD40B2802D92060241817E0A34203D16068154A10601DE0616856
:404D000059601AE023466468EAE72946304600F053F8431C01460CD0CC1C24F003048C4201D1256009E03046611A00F045F80130F7D10C203060002070BD04F10B01231DA6
:404D400021F00700C31A02D05A42E25070BD70BDB081FF1F10B5C9B2034682189342184604D0047801338C42F8D100E0002010BDF8B5064615460C4621B91146BDE8F84003
:404D8000FFF79EBF1AB9FFF757FF2C4612E000F02BF8A8420ED230462946FFF791FF074638B121462A46FFF72BFC30462146FFF743FF3C462046F8BD38B5064C002305464C
:404DC0000846236000F01AF8431C02D1216801B1296038BDD883FF1F034613F8012B002AFBD1181A0138704751F8040C002802DA04390B58C018043870470000094A13684E
:404E00006BB118186946884202D8106018467047054B0C221A604FF0FF3318467047034B1360EEE7B481FF1FD883FF1FE083FF1F000000000000000030520D0A0000000054
:404E400041542D575347504C460D0A0041542D57534D4F53543D25732C25732C25732C25732C25732C25732C25642C25640D0A0041542D575345504F46460D0A00000000BA
:404E8000C84900401900005100402000305100404000F0510040100000000140000C800C0140800300140140000800400140000A004C01400002005001402000605200408E
:404EC000600800480600000C0140680800488000E2652F227F2B7A3C075C143326A6813CBDCBF07A8807703C075C143326A6913C4FBB610567ACDD3F182D4454FB21E93F1C
:404F00009BF681D20B73EF3F182D4454FB21F93F706F77000000000000000000000000000000004003B8E23F000000000000000006D0CF43EBFD4C3E000000000000F03FB5
:404F4000000000000000F83F0000000000000000000000000000304300000000000030C34300232D302B2000686C4C0065666745464700303132333435363738394142438F
:404F8000444546003031323334353637383961626364656600000000F8B500BFF8BC08BC9E46704751000000F5090000F8B500BFF8BC08BC9E4670472D000000D04F000027
:404FC0000881FF1F8000000058020000000000000000000000366E01C05D0000180000000000E02E0100000000000000000000000000000000000000000000000000000047
:405000000000000000000000604F000000000000000000000000000000000000000000000000000000000000000000000000000000000000000000000000000000000000C1
:405040000000000000000000000000002081FF1F00000000000000000000000000000000000000000000000000000000000000000000000000000000000000000000000071
:4050800000000000000000000000000000000000000000000000000000000000000000000000000000000000000000000000000000000000000000000000000000000000F0
:4050C00000000000000000000000000000000000000000000000000000000000000000000000000000000000000000000000000000000000000000000000000000000000B0
:40510000000000000000000000000000000000000000000000000000000000000000000000000000000000000000000000000000000000000000000000000000000000006F
:40514000000000000000000000000000000000000000000000000000000000000000000000000000000000000000000000000000000000000000000000000000000000002F
:020000040003F7
:0200000480007A
:400000000352004004640040036500400105014001070140560801404C090140560A01404F0B0140240C01404D0D01406C0E01403C0F0140021501404A18014048190140EA
:400040005A1A0140421B01400340014002410140094201400443014002440140114501400B4601400547014001480140074901400B4C0140044D0140055001400251014065
:4000800010481150142589728A388B388F72881B890F8B0FE609E00400800210030E049C0503062207040C140D030F041503170C19091A031C091EF02430264C2C2C2ED19A
:4000C00032E0341F350F3A083B205409580459045B045C115F0184F3860C88828B018EE3903C92C394FF98C39C1F9EE0A008A404A701A80CAC41B010B22CB40FB6C0B701F8
:40010000BA20BE01BF40C025C103C206C404C6CEC80CC9FFCAFFCBFFCC62CDA0CEF0CF41D00CD602D713D804D904DA04DB04DC01DD11DF01E640E702E910EA30EB10ED10E9
:40014000EE10EF120010018003200504068209080A860E080F0210A8134015401704190A1A011B201D041E282301270429083610370438203DC23F0A404041084320480102
:4001800049804B10505059025C025E905F04600261406508671268026A206B2070A8905891809204930696219721985099B19B109D409F20A121A20AA406A624A70AA88026
:4001C000AB10B004B105C0B7C2CFC4AFCA02CC60CED4D007D20CD6F1D810E0040520071808440A310D380F041140130614E715181722180119281A0E2301242225122651F5
:40020000272028E72C802F203018313E326033403407368037013E013F044024410645E046BC480E49FF4AFF4BFF4EF04F44500C54185604580459045A045B045C215D12AE
:400240005F0166C06A406B028301860288088A348B0293029464961BA04DA230A301A454A62BAD04B040B104B203B302B43CB504B701BA20BE01BF54D418D604D804D90444
:40028000DB04DC10DD20DF01001005140A240F101012132015021610185019801A041D141F01210622802408250927012801290A2A102B082F823028310237023A083B40D8
:4002C0003D203F0241104248450846A047014808490150A052405A015C085E0A60806220630166A2808086028D0491A09240935497209851992A9B029C089D409E40A008EF
:40030000A130A20BA381A404A680A708B030B10AB620C062C226C437CA9BCC87CEAAD005D204D681D8BD9B01A902B101B502BF10C036C102C250C404C50EC6FCC7D0C82D2E
:40034000C9FFCAFFCBFFCC02CE70CF08D004D904DA04DC10DF01E2C0E440E501E610E711E8C0E901EB11EC40ED01EE40EF01000C045805020E291515160317091C601D08DA
:400380001E041F81222224102611273228882B802C202E022F0530103502369439023B013D153EA040044102430844804588471049404A084B144C044E044F0251415210A5
:4003C0005340551066106721881089238A018E808F20912092489348940496049780984199089A219B099D429E40A008A1A0A20CA502A708B302C0F0C2E0C4F0CAF4CCF410
:40040000CEF0D0F7D22CD870020106050D0E0F4014071558172319581B251D181F202008240727772C022D022E0130083143320833073406353C360138203B2A3E51403651
:4004400041024250440446B04808493F4AFF4BFF4C234ED04F085004580459045A045C225F0162C0644065016610671168C069016B116C406D016E406F018021824A851966
:4004800087228C028E1591709524974898449A2AA104A4E7A8E7A92EAB51AC80B007B280B307B460B618B778B980BB08BE40C006C510C750C822C9FFCA07CBFFCC40CD20C5
:4004C000CEF0CF05D008D602D712D804D904DA04DB04DC02DD22DF01E040E1A8E240E320010802C004400502060109080A080B080C480D080E091080122215401714190898
:400500001A411B101C401D801E081F0421182222234026082702280129082B022F48310832A0360837023B403C0440044102430849404A084C804F20512057025E046D40C0
:400540006F1476207709C09CC244C4EDCAAACCCECE48D007D22CD640EA01EE010504070A09350D351135150817221B011D081F3421402535290A2B102D342F01313C3301C1
:40058000354037023B023F544036410145EC47B0482349FF4AFF4BFF4EF04F44500C5602572459045A045B045D015F0166C06A406B028243844786188C1C8E418F01901CA1
:4005C00092429301945F98049C20A010A408A818AE04B01FB420B501B658BA82BB08BE10BF10D401D804D904DB04DC11DD20DF01000201800320081009080A8110A812021A
:4006000019801A8A21082220264427482D452F083102340835203609374038803C883E10454047044A044B204C044D014F085602584059015A095B1065106D446E126F8021
:40064000744077029088918096829720985099319B149D409E82A0A9A121A21AA320A404A548A660A70EB340B540B610C00DC20FC40FCAF0CCF1CE78D050D220D60FD82052
:4006800000840401080A0A100C040E8010041301148015011604186019011C071E381F012084248428562A093101347F3680382039023E40580459045C105F01809A8337CE
:4006C000842186D887208C988E02903892C094029538969897059813990E9A649B209C029D389F03A09AA498A602A8FCAA03AD02B0E0B120B20FB318B413B707B908BA0A20
:40070000BB80BF05C002C605C710C824C9FFCA07CBFFCC40CD20CEF0CF05D008D401D804D904DA04DB04DC10DD11DF01E040E1A8E240E3200004014003C9050407410880E7
:4007400009200A500D400E54110412081302140815041702180419401C081D041E441F08210224402540268027102E80310832413320369037043D023F08471056805702EF
:400780005C605D015F0888848C208F0491C5929298089B0E9D409E80A129A218A3A4A404A542A70AC0BFC2FFC47ECA10CC7FCEC0D020D6F0EA01EE0132403610CC30968015
:4007C000A61007103E10824086109680A610C020CE20E690831096109B10E0201010C408000802020E2050045708632067108A029810A308B308C00AC204D406D803E604F6
:40080000E8048F1097109810A004A710B004B210B404E008E808EA0581049810A004B310EC01961077409B40AA10AB40DE20EA80EE8010401320170278107D089810A10464
:40084000B004C40EDE03EA0478409840AB22DC0100070C070E0710071C07000F03C00000081000001800000001100000000863007F1800001FFF6000002400005C4023000A
:40088000021C00E273000C040860000004E700180C000063031C00E12C600F00101F4C8000800A28000010003602040001C0E0000AFFFFFF62A0F0410C0000004000000020
:4008C000040404042202000100000000000040020010301000101012000000000000000000000000000000001800000018001800000000004200255A5A005A000000000042
:4009000000000000000000000000000000000000000000000000000000000000000000000000000000000000000000000000000000000000000000000000000000000000B7
:400940000000000000000000000000000000000000000000000000000000000000000000000000000000000000000000000000000000000000000000000000000000000077
:400980000000000000000000000000000000000000000000000000000000000000000000000000000000000000000000000000000000000000000000000000000000000037
:4009C00000000000000000000000000000000000000000000000000000000000000000000000000000000000000000000000000000000000000000000000000000000000F7
:0200000490006A
:0400000000004005B7
:0200000490105A
:04000000BC90ACAF55
:0200000490303A
:02000000458E2B
:0200000490402A
:4000000000000000000000000000000000000000000000000000000000000000000000000000000000000000000000000000000000000000000000000000000000000000C0
:400040000000000000000000000000000000000000000000000000000000000000000000000000000000000000000000000000000000000000000000000000000000000080
:400080000000000000000000000000000000000000000000000000000000000000000000000000000000000000000000000000000000000000000000000000000000000040
:4000C0000000000000000000000000000000000000000000000000000000000000000000000000000000000000000000000000000000000000000000000000000000000000
:0200000490501A
:0C00000000012E12706900012E37B5F7C8
:00000001FF