:400000000080002011000000090C0000090C000080B500AF47F2BC63C4F2000344F2FA62C4F2000212681A6000F0F2FD10B5054C237833B9044810B10448AFF30080012199
:40004000217010BDF081FF1F00000000AC80000008B5064B1BB106480649AFF300800648016811B1054A02B1904708BD00000000AC800000F481FF1F0881FF1F0000000051
:4000800080B500AF00F016FB00F028FB01F0F4FF02F026F901F058FB40F20570C0F2000002F0CAF840F26970C0F2000002F02EFA02F05CFC02F07AFB62B64FF000004FF0E4
:4000C000700100F091FB4FF001004FF0A00100F08BFB4FF002004FF0000100F085FB43F6982001F049FA00F0F9FA48F2B000C0F2000002F07DF800E000BF48F24843C1F666
:40010000FF731B78002B01D000F00AF848F23623C1F6FF731B78002BEED000F0CBFAEBE780B5F2B004AF4FF00003C7F8B4314FF00003C7F8B0314FF003004FF0040100F045
:40014000A9FB03461A4648F23423C1F6FF731A804FF007004FF0080100F09CFB03461A4648F24643C1F6FF731A804FF005004FF0060100F08FFB03461A4648F23833C1F691
:40018000FF731A8048F23833C1F6FF731A8848F23423C1F6FF731B8812B21BB21046194600F09AFB03461A4648F24E43C1F6FF731A8000F029FC0346A7F8AE3100F0C4FCD8
:4001C00003461A4648F23A33C1F6FF731A7000F071FA48F2B800C0F2000002F03DF948F2B800C0F2000002F037F900BF48F23623C1F6FF731B78002BF8D000F05BFA00BF0A
:4002000048F23623C1F6FF731B78002BF8D002F091F907F1340207F1330307F12C01009107F12801019107F12701029148F24030C1F6FF7048F2C401C0F2000104F068FFAB
:40024000C7F8A80107F133031B78412B08D1D7F8A831052B04D14FF00103C7F8B03103E04FF00003C7F8B03102F03EF94FF00003C7F8B4314FF00003C7F8B43114E0D7F803
:40028000B43103F10F0248F23823C1F6FF739A5C07F12001D7F8B431CB181A70D7F8B43103F10103C7F8B431D7F8B431022BE6DD07F120034FF00002DA7007F12003184653
:4002C00004F0E3FE0346A7F8A6314FF00003C7F8B43114E0D7F8B43103F1270248F23823C1F6FF739A5C07F11C01D7F8B431CB181A70D7F8B43103F10103C7F8B431D7F8B6
:40030000B431022BE6DD07F11C034FF00002DA7007F11C03184604F0B5FE02460B46104619464FF000024FF00003C4F2240304F0F3F802460B461046194604F0AFFB034668
:4003400087F8A5314FF00003C7F8B43114E0D7F8B43103F13C0248F23823C1F6FF739A5C07F11401D7F8B431CB181A70D7F8B43103F10103C7F8B431D7F8B431032BE6DD91
:4003800007F114034FF000021A7107F11403184604F078FE02460B46104619464FF000024FF00003C4F2240304F0B6F802460B461046194604F04AFB0346A7F8A2314FF0BA
:4003C0000003C7F8B43114E0D7F8B43103F1450248F23823C1F6FF739A5C07F10C01D7F8B431CB181A70D7F8B43103F10103C7F8B431D7F8B431032BE6DD07F10C034FF05E
:4004000000021A7107F10C03184604F03BFE02460B46104619464FF000024FF00003C4F2240304F079F802460B461046194604F035FB0346A7F8A0314FF00003C7F8B43179
:4004400014E0D7F8B43103F14E0248F23823C1F6FF739A5C07F10401D7F8B431CB181A70D7F8B43103F10103C7F8B431D7F8B431042BE6DD07F104034FF000025A7107F1C5
:400480000403184604F0FEFD02460B46104619464FF000024FF00003C4F2240304F03CF802460B461046194604F0F8FA0346A7F89E3107F134031B68C7F8783107F12C03E6
:4004C0001B68C7F87C3107F128031B68C7F8803107F127031B78C7F88431B7F8A631A7F8883197F8A53187F88A31B7F8A231A7F88C31B7F8A031A7F88E31B7F89E31A7F878
:400500009031B7F8AE31A7F8943148F24E43C1F6FF731B889BB2A7F8923148F23A33C1F6FF731B7887F89631D7F8B031012B40F0868048F2EC00C0F2000001F08DFF48F278
:40054000EC00C0F2000001F087FF48F20810C0F2000001F081FF07F5BC7318464FF0040101F09EFF07F5BC7303F1040318464FF0040101F095FF07F5BC7303F108031846C1
:400580004FF0040101F08CFF07F5BC7303F10C0318464FF0040101F083FF07F5BC7303F1100318464FF0020101F07AFF07F5BC7303F1120318464FF0010101F071FF07F5CC
:4005C000BC7303F1140318464FF0020101F068FF07F5BC7303F1160318464FF0020101F05FFF07F5BC7303F1180318464FF0020101F056FF07F5BC7303F11A0318464FF0A9
:40060000020101F04DFF07F5BC7303F11C0318464FF0020101F044FF07F5BC7303F11E0318464FF0010101F03BFF07F5BC7303F1200318464FF0020101F032FF17E048F229
:40064000EC00C0F2000001F007FF48F2EC00C0F2000001F001FF48F21810C0F2000001F0FBFE48F22810C0F2000001F0F5FE48F2EC00C0F2000001F0EFFE48F22C10C0F238
:40068000000001F0E9FE00F015F800F027F848F23C10C0F2000001F0DFFE48F23C10C0F2000001F0D9FE00F005F807F5DC77BD4680BD00BF80B400AF48F20C23C1F6FF73A0
:4006C0004FF000021A8048F23623C1F6FF734FF000021A70BD4680BC704700BF80B400AF48F20E23C1F6FF734FF000021A8048F24843C1F6FF734FF000021A70BD4680BC99
:40070000704700BF80B582B000AF01F02FFD0346FB71FB79002B22D048F20E23C1F6FF731B881A4648F23823C1F6FF73F979995448F20E23C1F6FF731B8803F101039AB29B
:4007400048F20E23C1F6FF731A80FB790A2B06D148F24843C1F6FF734FF001021A7007F10807BD4680BD00BF80B582B000AF01F031FE0346FB71FB79002B30D0FB790A2BD8
:4007800014D148F20C23C1F6FF731B881A4648F24033C1F6FF734FF00001995448F23623C1F6FF734FF001021A700BE048F20C23C1F6FF731B881A4648F24033C1F6FF73DE
:4007C000F979995448F20C23C1F6FF731B8803F101039AB248F20C23C1F6FF731A8007F10807BD4680BD00BF80B584B000AF02460B46FA71BB714FF01E004FF0000101F019
:400800008BFA0346FB73FB7B002B0BD1FB79184601F036FB0346FB73BB79184601F030FB0346FB7301F0F2FA07F11007BD4680BD80B584B000AF0346FB714FF01E004FF05A
:40084000000101F069FA0346BB73BB7B002B05D1FB79184601F014FB0346BB7301F0D6FA4FF01E004FF0010101F056FA03467B737B7B002B05D14FF0000001F059FB034691
:40088000FB7301F0C3FAFB7B184607F11007BD4680BD00BF80B584B000AF02460B46FA71BB71FB791846FFF7C3FF0346FB73BB791846FFF7BDFF0346BB73FB7B4FEA032321
:4008C0009AB2BB7B9BB21343BB81BB891BB2184607F11007BD4680BD80B584B000AF02460B46FA80BB80B7F90430002B36DDB7F90620B7F9043092FBF3F3184603F0A6FD30
:4009000002460B461046194602F022F902460B46104619464FF000024FF40043C4F2660303F0FAFD02460B461046194632A3D3E9002303F01BFF02460B464FF000004FF414
:400940000041C4F2560103F033FC02460B461046194604F07BF80346FB8146E0B7F90430002B33DAB7F90620B7F9043092FBF3F3184603F06BFD02460B461046194602F025
:40098000E7F802460B46104619464FF000024FF40043C4F2660303F0BFFD02460B461046194615A3D3E9002303F0E0FE02460B4613A1D1E9000103F0FBFB02460B461046DF
:4009C000194604F043F80346FB810EE0B7F90430002B07D1B7F90630002B03DA4FF0B403FB8102E04FF00003FB81FB891BB2184607F11007BD4680BDC45F9335EA21094092
:400A00000000000000E0704090B593B000AF4FF000037B874FF40053A7F842304FF00003FB634FF0050001F003FF00BF01F02CFF0346002BFAD001F017FF03467B874FF083
:400A400000037B6429E0B7F842301A467B8F13409BB29BB2B7F842209A420AD17B6C4FEA830307F14802D3184FF0010243F8482C09E07B6C4FEA830307F14802D3184FF08C
:400A8000000243F8482CB7F842304FEA5303A7F842307B6C03F101037B647B6C0D2BD2DD4FF001037B642FE07B6C4FEA830307F14802D31853F8483C184604F019F90446B7
:400AC0007B6CC3F10B03184603F0C0FC02460B464FF000004FF0804102F0F2F902460B461046194603F0FAFF03462046194604F053F90346F86B194604F046F80346FB631F
:400B00007B6C03F101037B647B6C0D2BCCDD3B68012B03D1FB6B83F00043FB63F86B4FF00001C4F2C82104F037F90346184604F083FA03467B877B8F1BB2184607F14C07C9
:400B4000BD4690BD0000000080B584B000AF4FF0010001F0A7FD01F02BFF4FF0000001F04FFF0346002B03D001F074FF0346BB6001F032FF4FF0000001F094FDB86801F09C
:400B8000B1FF01F015FF4FF0000001F039FF0346002B03D001F05EFF0346FB8101F01CFFB7F90E30184601F0ADFF0346184643F21141C3F61C6104F0A3F9034618464FF0EF
:400BC0000001C4F2201104F0E7F80346184603F04FFC02460B461046194609A3D3E9002303F0E8FA02460B461046194603F056FF0346FB71FB79184607F11007BD4680BD3B
:400C00009A9999999999C93F80B400AFFEE700BF80B586B000AF40F20103C0F200037B6148F29053C0F200033B6140F20103C0F200037B6148F29053C0F200033B613BE0EF
:400C40003B691B68FB603B695B68BB603B699B683B604FF000037B600FE0FB681A68BB681A60BB6803F10403BB60FB6803F10403FB607B6803F104037B607A683B689A4294
:400C8000EBD13B69DB683B604FF000037B600BE0BB684FF000021A60BB6803F10403BB607B6803F104037B607A683B689A42EFD13B6903F110033B617B69002B0CBF0023B9
:400CC0000123DBB27A6902F1FF327A61002BB7D104F0E6F9FFF7D4F9FEE700BF80B582B000AF4EF60C53CEF200034FF48062C0F2FA521A604EF61453CEF200034EF6145243
:400D0000CEF20002126842F400721A604FF000037B6019E07B68032B07D840F20003C0F200037A6853F8223003E040F60943C0F2000348F20002C1F6FF72796842F82130FC
:400D40007B6803F101037B607B682F2BE2D947F2BC63C4F200031B78DAB248F20413C1F6FF731A704EF60853CEF2000348F20002C1F6FF721A6000F0D3FA48F20013C1F690
:400D8000FF734FF000021A6007F10807BD4680BD80B582B000AF7860396078684FF000013A6804F0ACF907F10807BD4680BD00BF80B584B000AFF860B9607A60F868B968F3
:400DC0007A6804F093F907F11007BD4680BD00BF80B483B000AF0346FB71FEE780B487B000AF786039604FF000033B614FF000037B612CE07B694FEA83037A68D3181B684D
:400E0000BB60BB68FB73BB6823F0FF03BB6017E03B694FEA43033A68D3181B781A46BB68D3183A694FEA420239688A1852781A703B6903F101033B61FB7B03F1FF33FB7312
:400E4000FB7B002BE4D17B6903F101037B617B69222BCFD907F11C07BD4680BC704700BF80B582B000AF4FF48143C4F200034FF000021A8044F28203C4F200034FF0500205
:400E80001A7044F28403C4F200034FF017021A8044F28603C4F200034FF018021A7044F28803C4F200034FF033021A8044F28A03C4F200034FF018021A7044F28C03C4F283
:400EC00000034FF09B021A8044F28E03C4F200034FF018021A704FF48240C4F2000040F64811C4F600014FF00402FFF761FF4FF48643C4F200034FF002021A704FF0402342
:400F00004FF008021A704FF48443C4F200034FF003021A7044F2A163C4F200034FF48472C4F600121278D2B21A7044F22223C4F200034FF008021A8044F22023C4F2000374
:400F400041F251221A804FF00003FB704FF019037B6019E0FB784FEA4303DAB244F22523C4F200031B78DBB203F00103DBB21343DBB203F00303FB704FF4F07000F0DCFA4C
:400F80007B6803F1FF337B607B68002B02D0FB78032BDFD17B68002B03D14FF00300FFF717FF44F20403C4F200034FF480721A8044F20403C4F200034FF007021A7044F229
:400FC0000603C4F200034FF000021A7044F20803C4F200034FF048021A7044F20403C4F200034FF000021A7044F20103C4F200034FF002021A7044F20B03C4F200034FF09A
:4010000004021A7044F2A233C4F2000344F2A232C4F200021278D2B242F00F02D2B21A7044F2A133C4F2000344F2A132C4F200021278D2B242F00102D2B21A7044F2A0335D
:40104000C4F2000344F2A032C4F200021278D2B262F07F02D2B21A7007F10807BD4680BD80B483B000AF40F2CF13C4F600131B78FB7145F66E03C4F20003FA7902F00702F8
:40108000D2B21A7045F66F03C4F20003FA794FEA1212D2B21A7045F69B23C4F200034FF010021A7045F69C23C4F200034FF020021A7045F65833C4F200034FF060021A7009
:4010C00045F67603C4F200034FF044021A7007F10C07BD4680BC704780B483B000AF0346FB71FB79012B37D8FA79FB79D318FB71FA7948F24C13C0F2000353F82220F979FB
:4011000048F24C13C0F2000353F821301978F87948F25C13C0F200031B5C0B43DBB21370FB7903F10103FB71FA7948F24C13C0F2000353F82220F97948F24C13C0F20003AA
:4011400053F821301978F87948F25C13C0F200031B5C0B43DBB2137007F10C07BD4680BC704700BF80B483B000AF0346FB71FB79012B3DD8FA79FB79D318FB71FA7948F273
:401180004C13C0F2000353F82220F97948F24C13C0F2000353F821301978F87948F25C13C0F200031B5C6FEA0303DBB20B40DBB21370FB7903F10103FB71FA7948F24C1330
:4011C000C0F2000353F82220F97948F24C13C0F2000353F821301978F87948F25C13C0F200031B5C6FEA0303DBB20B40DBB2137007F10C07BD4680BC704700BF80B483B00C
:4012000000AF0346FB71FB79012B37D8FA79FB79D318FB71FA7948F26013C0F2000353F82220F97948F26013C0F2000353F821301978F87948F27013C0F200031B5C0B4352
:40124000DBB21370FB7903F10103FB71FA7948F26013C0F2000353F82220F97948F26013C0F2000353F821301978F87948F27013C0F200031B5C0B43DBB2137007F10C0760
:40128000BD4680BC704700BF80B483B000AF0346FB71FB79012B3DD8FA79FB79D318FB71FA7948F26013C0F2000353F82220F97948F26013C0F2000353F821301978F879E7
:4012C00048F27013C0F200031B5C6FEA0303DBB20B40DBB21370FB7903F10103FB71FA7948F26013C0F2000353F82220F97948F26013C0F2000353F821301978F87948F2D8
:401300007013C0F200031B5C6FEA0303DBB20B40DBB2137007F10C07BD4680BC704700BF80B586B000AF72B644F2E863C4F2000344F2E862C4F200021278D2B242F00402FD
:40134000D2B21A704FF00003FB7519E0FA7D13464FEA43039B184FEA430348F27412C0F200029B183B613B691A683B699B889BB210461946FFF70CFDFB7D03F10103FB75A2
:40138000FB7D092BE2D94FF00003FB7523E0FA7D13464FEA83039B184FEA430348F2B012C0F200029B18FB60FB681B68BB60FB685B687B60FB681A7A5B7A4FEA032313430F
:4013C0007B807B88B86879681A46FFF7F1FCFB7D03F10103FB75FB7D012BD8D94FF090404FF08C01C4F60001FFF7F8FC45F68303C4F200034FF00A021A7045F20303C4F2B4
:40140000010345F20302C4F201021278D2B242F00202D2B21A7045F21303C4F2010345F21302C4F201021278D2B242F00202D2B21A7044F2A033C4F2000344F2A032C4F283
:4014400000021278D2B242F04002D2B21A7044F2C233C4F2000344F2C232C4F200021278D2B242F01002D2B21A7045F20210C4F200004FF41261C4F600014FF00802FFF705
:4014800097FC45F2C010C4F2000040F62811C4F600014FF00A02FFF78BFC45F22010C4F2000040F63411C4F600014FF00A02FFF77FFC45F23210C4F200004FF41461C4F63A
:4014C00000014FF00802FFF773FC44F22233C4F2000344F22232C4F200021278D2B242F00802D2B21A704FF49043C4F200034FF001021A70FFF7B4FC4FF49043C4F200034F
:401500004FF081021A704FF00403C4F208034FF001021A70FFF7A4FD44F2B030C4F2000044F2A031C4F200014FF00E02FFF740FC07F11807BD4680BD0230800800F0058064
:4015400000BF013800467FF4FCAF7047EFF3108072B6704780F31088704700BFAFF3008080B483B000AF0346FB7101BE07F10C07BD4680BC704700BF80B582B000AF78602C
:401580000BE048F21813C1F6FF731B681846FFF7D3FF7B68A3F500437B607B68B3F5004FEFD848F21013C1F6FF731B687A6802FB03F31846FFF7C0FF07F10807BD4680BD97
:4015C00080B584B000AF03463960FB714EF60853CEF200031B68FB60FB791F2B03D94FF00000FFF7BDFFFB7903F01F0303F110034FEA8303FA68D3181B68BB60FB7903F019
:401600001F0303F110034FEA8303FA68D3183A681A60BB68184607F11007BD4680BD00BF80B582B000AF02460B46FA71BB71BB79072B03D94FF00000FFF792FFFB791F2BBE
:4016400003D94FF00000FFF78BFFFB7903F01F0303F1604303F56443BA794FEA4212D2B21A7007F10807BD4680BD00BF80B500AF44F6D613C4F200034FF002021A7044F675
:40168000C813C4F200034FF081021A7044F6DB13C4F200034FF00F021A7044F6DC13C4F200034FF000021A704EF28013CEF200034FF400421A604FF00F004FF00701FFF7C2
:4016C000AFFF4FF00F0041F28171C0F20001FFF777FF48F25043C1F6FF734FF010021A7000F090FC00F0A8FC00F074FC80BD00BF80B582B000AFFFF729FF0346FB7144F24E
:40170000A533C4F2000344F2A532C4F200021278D2B242F00402D2B21A7044F2B533C4F2000344F2B532C4F200021278D2B242F00402D2B21A70FB791846FFF70BFF07F135
:401740000807BD4680BD00BF80B500AF48F21023C1F6FF731B78002B08D1FFF787FF48F21023C1F6FF734FF001021A70FFF7C0FF4FF46143CEF200034FF400421A6080BDD1
:4017800080B582B000AF44F6D713C4F200031B78FB7148F25043C1F6FF731B78DBB203F04003DBB2002B00F0A082FB7903F00103002B00F0638248F25043C1F6FF731B782D
:4017C000DBB2A3F14503052B00F2538201A252F823F000BFED170000E3190000731C0000731C0000ED1700008B1B0000FB7923F02003FB71FB7903F00A03DBB2082B40F088
:40180000858048F25043C1F6FF731B78DBB2452B6DD148F25943C1F6FF731B78DBB2002B21D044F6D813C4F2000348F25442C1F6FF7212681278D2B21A7044F6D713C4F2E2
:4018400000034FF004021A7048F25D43C1F6FF734FF001021A7048F25043C1F6FF734FF046021A700AE248F25B43C1F6FF731B78DBB203F00203002B1CD048F25843C1F618
:40188000FF731B78DBB243F00A03DAB248F25843C1F6FF731A7048F25043C1F6FF734FF060021A704EF28013CEF200034FF400421A60E3E144F6D613C4F2000344F6D612CA
:4018C000C4F200021278D2B242F01002D2B21A7044F6D913C4F200034FF010021A7044F6D713C4F200034FF004021A70C6E144F6D713C4F200034FF000021A7048F250434E
:40190000C1F6FF734FF04A021A70B7E1FB7903F00A03DBB20A2B5FD148F25843C1F6FF731B78DBB263F05F03DAB248F25843C1F6FF731A7048F25B43C1F6FF731B78DBB263
:4019400003F00203002B2AD048F25043C1F6FF731B78DBB203F00803002B02D04FF0090201E04FF00A0248F25843C1F6FF731B78DBB21343DAB248F25843C1F6FF731A703B
:4019800048F25043C1F6FF734FF060021A704EF28013CEF200034FF400421A606EE144F6D613C4F2000344F6D612C4F200021278D2B242F01002D2B21A7044F6D913C4F230
:4019C00000034FF010021A7044F6D713C4F200034FF004021A7051E14FF00000FFF7C0FD4CE1FB7903F00203002B7CD148F25D43C1F6FF731B78DAB248F25943C1F6FF7307
:401A00001B78DBB29A4228D244F6D813C4F2000348F25442C1F6FF72116848F25D42C1F6FF721278D2B28A181278D2B21A7044F6D713C4F200034FF004021A7048F25D4392
:401A4000C1F6FF731B78DBB203F10103DAB248F25D43C1F6FF731A7010E148F25B43C1F6FF731B78DBB203F00203002B1CD048F25843C1F6FF731B78DBB243F00A03DAB201
:401A800048F25843C1F6FF731A7048F25043C1F6FF734FF060021A704EF28013CEF200034FF400421A60E9E000F0E0FA44F6D613C4F2000344F6D612C4F200021278D2B291
:401AC00042F01002D2B21A7044F6D913C4F200034FF010021A7044F6D713C4F200034FF004021A70CAE048F25B43C1F6FF731B78DBB203F00203002B1CD048F25843C1F6C8
:401B0000FF731B78DBB263F06503DAB248F25843C1F6FF731A7048F25043C1F6FF734FF060021A704EF28013CEF200034FF400421A60A3E044F6D613C4F2000344F6D6120D
:401B4000C4F200021278D2B242F01002D2B21A7044F6D913C4F200034FF010021A7044F6D713C4F200034FF004021A7048F25843C1F6FF731B78DBB263F06F03DAB248F23E
:401B80005843C1F6FF731A7078E048F26043C1F6FF731A6848F25C43C1F6FF731B78DBB2D21844F6D813C4F200031B78DBB2137048F25C43C1F6FF731B78DBB203F1010350
:401BC000DAB248F25C43C1F6FF731A7048F25C43C1F6FF731B78DAB248F25A43C1F6FF731B78DBB29A4207D244F6D713C4F200034FF010021A7041E048F25B43C1F6FF73FD
:401C00001B78DBB203F00203002B1CD048F25843C1F6FF731B78DBB243F00903DAB248F25843C1F6FF731A7048F25043C1F6FF734FF060021A704EF28013CEF200034FF40A
:401C400000421A601AE044F6D613C4F2000344F6D612C4F200021278D2B242F01002D2B21A7044F6D713C4F200034FF000021A7004E04FF00000FFF773FC00BFFB7903F042
:401C80002003002B43D048F25043C1F6FF731B78DBB203F00803002B02D04FF0010201E04FF0020248F25843C1F6FF731B78DBB21343DAB248F25843C1F6FF731A7044F68A
:401CC000D613C4F2000344F6D612C4F200021278D2B222F01002D2B21A7048F25043C1F6FF734FF010021A7011E048F25043C1F6FF731B78DBB203F01003DBB2002B06D1BB
:401D000048F25043C1F6FF734FF010021A7007F10807BD4680BD00BF80B485B000AF02460B46FA71BB714FF00203FB7348F25043C1F6FF731B78DBB2102B5FD144F6D9132B
:401D4000C4F200031B78DBB203F00803002B52D14EF28013CEF200034FF400421A60FB794FEA4303FB71BB79002B0BD0FB7943F00103FB7148F25043C1F6FF734FF0490279
:401D80001A7006E048F25043C1F6FF734FF045021A7044F6D813C4F20003FA791A7044F6D913C4F200034FF001021A7000BF44F6D713C4F200031B78DBB203F00103002B49
:401DC000F5D044F6D713C4F200031B78DBB203F00A03DBB20A2B0AD148F25043C1F6FF734FF010021A704FF00303FB7306E04FF00003FB7302E04FF00103FB73FB7B184603
:401E000007F11407BD4680BC704700BF80B483B000AF4FF00203FB7144F6D913C4F200031B78DBB203F00403002B22D044F6D913C4F200034FF010021A7044F6D713C4F26A
:401E400000034FF004021A7048F25043C1F6FF734FF010021A7000BF44F6D713C4F200031B78DBB203F02103002BF5D04FF00003FB71FB79184607F10C07BD4680BC70477B
:401E800080B485B000AF0346FB714FF00203FB7344F6D913C4F200031B78DBB203F00403002B3DD044F6D813C4F20003FA791A7044F6D713C4F200034FF004021A7048F2B1
:401EC0005043C1F6FF734FF046021A7000BF44F6D713C4F200031B78DBB203F00103002BF5D044F6D713C4F200031B78DBB203F00203002B0AD148F25043C1F6FF734FF042
:401F000060021A704FF00003FB7309E048F25043C1F6FF734FF060021A704FF00303FB73FB7B184607F11407BD4680BC704700BF80B485B000AF0346FB714FF00003FB732F
:401F400044F6D913C4F200031B78DBB203F00403002B38D048F25043C1F6FF731B78DBB2492B0DD148F25043C1F6FF734FF04A021A7044F6D713C4F200034FF000021A701A
:401F800000BF44F6D713C4F200031B78DBB203F00103002BF5D044F6D813C4F200031B78FB73FB79002B07D044F6D713C4F200034FF010021A7006E048F25043C1F6FF7395
:401FC0004FF060021A70FB7B184607F11407BD4680BC704780B483B000AF48F25843C1F6FF731B78FB7148F25843C1F6FF734FF000021A70FB79184607F10C07BD4680BCE1
:40200000704700BF80B400AF48F25C43C1F6FF734FF000021A7048F25843C1F6FF731B78DBB223F00103DAB248F25843C1F6FF731A70BD4680BC704780B400AF48F25D437E
:40204000C1F6FF734FF000021A7048F25843C1F6FF731B78DBB223F00203DAB248F25843C1F6FF731A70BD4680BC704780B400AFBD4680BC704700BF80B500AF48F2112342
:40208000C1F6FF731B78002B08D100F00BF848F21123C1F6FF734FF001021A7000F02AF880BD00BF80B400AF46F28E43C4F200034FF072021A7046F28D43C4F200034FF01A
:4020C00020021A7046F22D43C4F200034FF007021A7046F23D43C4F200034FF048021A7046F28943C4F200034FF000021A70BD4680BC704780B582B000AFFFF727FA034689
:40210000FB7146F29E43C4F2000346F29E42C4F200021278D2B242F02002D2B21A7046F29D43C4F2000346F29D42C4F200021278D2B242F01002D2B21A7046F29943C4F257
:40214000000346F29942C4F200021278D2B242F01002D2B21A7000F03FFAFB791846FFF7F9F907F10807BD4680BD00BF80B483B000AF4FF00003FB7146F26D43C4F20003E3
:402180001B78BB71BB7903F02003002B0DD046F24E43C4F200031B78FB71BB7903F01E03002B02D04FF00003FB71FB79184607F10C07BD4680BC704780B483B000AF034668
:4021C000FB7100BF46F26943C4F200031B78DBB203F00403002BF5D146F24A43C4F20003FA791A7007F10C07BD4680BC704700BF80B584B000AF78604FF00003FB8148F2E9
:402200001123C1F6FF731B78002B11D00AE0FB897A68D3181B781846FFF7CEFFFB8903F10103FB81FB897A68D3181B78002BEED107F11007BD4680BD80B582B000AF7860B0
:4022400000F042F8786800F00BF84FF0000000F01BF800F02DF807F10807BD4680BD00BF80B485B000AF78604EF60853CEF200031B68FB60FB6803F144037A681A6007F1E2
:402280001407BD4680BC704780B483B000AF0346FB714EF20143CEF20003FA794FEA4212D2B21A7007F10C07BD4680BC704700BF80B400AF4FF46143CEF200034FF002025D
:4022C0001A60BD4680BC704780B400AF4EF28013CEF200034FF002021A60BD4680BC704780B500AF48F21323C1F6FF731B78002B08D100F00BF848F21323C1F6FF734FF063
:4023000001021A7000F02AF880BD00BF80B400AF46F28C43C4F200034FF072021A7046F28B43C4F200034FF020021A7046F22B53C4F200034FF007021A7046F23B53C4F2BB
:4023400000034FF048021A7046F28853C4F200034FF000021A70BD4680BC704780B582B000AFFFF7F3F80346FB7146F29C43C4F2000346F29C42C4F200021278D2B242F030
:402380002002D2B21A7046F29B43C4F2000346F29B42C4F200021278D2B242F01002D2B21A7046F29853C4F2000346F29852C4F200021278D2B242F01002D2B21A7000F0EB
:4023C0002DF9FB791846FFF7C5F807F10807BD4680BD00BF80B483B000AF4FF00003FB7146F26B43C4F200031B78BB71BB7903F02003002B0DD046F24B43C4F200031B78A6
:40240000FB71BB7903F01E03002B02D04FF00003FB71FB79184607F10C07BD4680BC704780B483B000AF0346FB7100BF46F26853C4F200031B78DBB203F00403002BF5D129
:4024400046F24853C4F20003FA791A7007F10C07BD4680BC704700BF80B584B000AF78604FF00003FB8148F21323C1F6FF731B78002B11D00AE0FB897A68D3181B78184601
:40248000FFF7CEFFFB8903F10103FB81FB897A68D3181B78002BEED107F11007BD4680BD80B584B000AF78600B46FB704FF00003FB7348F21323C1F6FF731B78002B0ED0B3
:4024C000FB7B7A68D3181B781846FFF7A9FFFB7B03F10103FB73FA7BFB789A42F0D307F11007BD4680BD00BF80B500AF00F068F842F24D50C0F2000000F02EF84FF001008C
:4025000000F03EF800F050F880BD00BF80B582B000AF786000F054F8786800F01DF84FF0010000F02DF800F03FF807F10807BD4680BD00BF80B500AF00F042F840F6094023
:40254000C0F2000000F008F880BD00BF80B400AFBD4680BC704700BF80B485B000AF78604EF60853CEF200031B68FB60FB6803F140037A681A6007F11407BD4680BC7047F6
:4025800080B483B000AF0346FB714FF46443CEF20003FA794FEA4212D2B21A7007F10C07BD4680BC704700BF80B400AF4FF46143CEF200034FF001021A60BD4680BC704796
:4025C00080B400AF4EF28013CEF200034FF001021A60BD4680BC704780B400AF44F2A233C4F2000344F2A232C4F200021278D2B242F00802D2B21A7044F2B233C4F200031B
:4026000044F2B232C4F200021278D2B242F00802D2B21A70BD4680BC704700BF80B400AF44F2A233C4F2000344F2A232C4F200021278D2B242F00402D2B21A7044F2B233E3
:40264000C4F2000344F2B232C4F200021278D2B242F00402D2B21A70BD4680BC704700BF80B582B000AF4FF00003FB710BE0FB791846FEF777FDFB791846FEF705FEFB799E
:4026800003F10103FB71FB79012BF0D948F21C13C1F6FF734FF0FF021A7007F10807BD4680BD00BF80B582B000AF0346FB71FFF7D7FFFB79184600F00BF848F21C13C1F66F
:4026C000FF73FA791A7007F10807BD4680BD00BF80B582B000AF0346FB71FB791846FEF7FBFCFB791846FEF789FD07F10807BD4680BD00BF80B500AF46F28A53C4F20003D7
:402700004FF01B021A7000F0D9F800F071F800F07FF846F28953C4F200034FF000021A7046F28843C4F200034FF000021A7080BD80B582B000AFFEF709FF0346FB7146F2D6
:402740009A53C4F2000346F29A52C4F200021278D2B242F02002D2B21A7046F29953C4F2000346F29952C4F200021278D2B242F01002D2B21A7046F29843C4F2000346F24B
:402780009842C4F200021278D2B242F01002D2B21A70FB791846FEF7DDFE00F01DF800F021F807F10807BD4680BD00BF80B500AF48F21523C1F6FF731B78002B08D1FFF765
:4027C00099FF48F21523C1F6FF734FF001021A70FFF7AEFF80BD00BF80B400AFBD4680BC704700BF80B400AFBD4680BC704700BF80B483B000AF46F26953C4F200031B78B5
:40280000FB71FB79184607F10C07BD4680BC704780B483B000AF46F26843C4F200031B78FB71FB79184607F10C07BD4680BC704780B483B000AF0346FB8000BF46F2695348
:40284000C4F200031B78DBB203F00403002BF5D046F24843C4F20003FA881A8007F10C07BD4680BC704700BF80B483B000AF46F25843C4F200031B88FB80FB88184607F1A4
:402880000C07BD4680BC704780B483B000AF46F26843C4F200031B78DBB203F02003002B02D04FF0010301E04FF00003FB71FB79184607F10C07BD4680BC704780B582B01E
:4028C00000AF04E046F25843C4F200031B8846F26843C4F200031B78DBB203F02003002BF0D1FEF733FE0346FB7146F29843C4F2000346F29842C4F200021278D2B242F0A7
:402900000102D2B21A7046F29843C4F2000346F29842C4F200021278D2B222F00102D2B21A7046F29943C4F2000346F29942C4F200021278D2B242F00102D2B21A7046F29E
:402940009943C4F2000346F29942C4F200021278D2B222F00102D2B21A70FB791846FEF7F9FD07F10807BD4680BD00BF80B400AF44F2A233C4F2000344F2A232C4F200029A
:402980001278D2B242F00202D2B21A7044F2B233C4F2000344F2B232C4F200021278D2B242F00202D2B21A70BD4680BC704700BF80B400AF4FF49C43C4F200034FF49C4239
:4029C000C4F200021278D2B242F00102D2B21A70BD4680BC704700BF80B400AF4FF49C43C4F200034FF49C42C4F200021278D2B222F00102D2B21A70BD4680BC704700BF9C
:402A000080B485B000AF0346FB7148F21923C1F6FF731B78DBB2002B06D048F21823C1F6FF731B78FB7308E044F60163C4F200031B78DBB203F00103FB73FB7B012B02D032
:402A4000FB79002BE1D0FB7B184607F11407BD4680BC704780B483B000AF44F61463C4F200031B78DBB203F003037B717B79012B06D844F61063C4F200031B88FB801AE028
:402A800044F61063C4F200031B78DBB2FB8044F61163C4F200031B78DBB24FEA03239AB2FB881343FB807B79032B04D144F61263C4F200031B7848F21923C1F6FF731B786B
:402AC000DBB2002B06D048F21823C1F6FF734FF000021A70FB881BB2184607F10C07BD4680BC704780B483B000AF786048F26443C1F6FF737A681A6007F10C07BD4680BC92
:402B0000704700BF90B585B000AF786048F26443C1F6FF731B687A68D31A7B60786802F0E7F8044648F26843C1F6FF731B68184602F0DEF803462046194602F0E1F9034612
:402B4000FB60FB68184607F11407BD4690BD00BF2DE9F84F4FF6FF7321F00046C4F20F439E4288468A4681461BDD0020C7F6F07086424B4600F3BE8000F0B98042F2FB1830
:402B8000414642F61859CBF6F978C3F6F971C5F24449BAF1000FC8BF884648464146BDE8F88F4FF6FF70C3F6DB70864200F3BC804FF6FF71C3F61F618E4240F3A4804FF0F9
:402BC000FF3B4A4643464846414601F0A5FC02460B4606460F4601F09FFC9DA3D3E9002304460D4601F098FC9BA3D3E9002301F0E1FA22462B4601F08FFC99A3D3E900237B
:402C000001F0D8FA22462B4601F086FC96A3D3E9002301F0CFFA22462B4601F07DFC94A3D3E9002301F0C6FA22462B4601F074FC91A3D3E9002301F0BDFA32463B4601F0CA
:402C40006BFC8FA3D3E9002306460F462046294601F062FC8CA3D3E9002301F0A9FA22462B4601F059FC8AA3D3E9002301F0A0FA22462B4601F050FC87A3D3E9002301F0AF
:402C800097FA22462B4601F047FC85A3D3E9002301F08EFA22462B4601F03EFCBBF1FF3F02460B466FD03046394601F083FA43464A4601F031FC7E4C7E4A4FEACB0B5C4455
:402CC0009344DBE9002301F073FA43464A4601F06FFA02460B46D4E9000101F069FABAF1000F8146B4BF01F10048884655E7002B3FF444AF48464A464146434601F05AFA9E
:402D00008146884649E768A3D3E900234846414601F050FA00230022C3F6F07301F08CFE00287FF43AAF4AE7484600F0C5F84FF6FF72C3F6F272964204460D4636DC4FF629
:402D4000FF73C3F6E5739E4264DC02460B4601F031FA00230022C3F6F07301F029FA002206460F464FF080432046294601F022FA02460B463046394601F0F8FC4FF0000B22
:402D8000814688461DE73046394601F013FA4A46434601F0C1FB02460B464846414601F007FA4C46454681468846F6E647F6FF77C4F20307BE4220DC00230022C3F6F873BB
:402DC00001F0F6F9002306460F460022C3F6F8732046294601F0A0FB00230022C3F6F07301F0E8F902460B463046394601F0BEFC4FF0020B81468846E3E600210020CBF670
:402E0000F07122462B4601F0B1FC4FF0030B81468846D6E600230022C3F6F07301F0C8F9002306460F460022C3F6F0732046294601F0C0F902460B463046394601F096FC77
:402E40004FF0010B81468846BBE600BFAFF3008011DA22E33AAD903FEB0D76244B7BA93F513DD0A0660DB13F6E204CC5CD45B73FFF8300922449C23F0D5555555555D53FB6
:402E80002F6C6A2C44B4A2BF9AFDDE522DDEAD3F6D9A74AFF2B0B33F711623FEC671BC3FC4EB98999999C93F9C7500883CE4377EE8810000C881000021F00041704700BF30
:402EC0002DE9F04F8BB01F4680468946164600F07FF9DFF8C0B204469BF900300D46013304D03046394600F0FDFF20B9204629460BB0BDE8F08F4046494600F0F3FF8246A5
:402F000000282CD1304639460022002301F06CFD0028EBD001239E4A9BF9005000930023C3F6F07301920022CDE906236B1CCDF820A0CDE90289CDE904670DD0022D0BD04A
:402F4000684601F003F8002800F09380089818B102F0A0F8089C0460DDE90645C6E7404649460022002301F03FFD00B3304639460022002301F038FD00284ED08449012005
:402F80009BF90050009001910024002000210894CDE90289CDE90467CDE90601002DCFD000230022C3F6F073CDE90623D4E72046294600F091FF824600285FD020462946DB
:402FC0000022002301F010FD00288FD04046494600F082FF002889D03046394600F07CFF002883D06A489BF90040002104220190089100200021022C0092CDE90289CDE936
:403000000467CDE9060163D0684600F09FFF00285ED0089A002A9FD09AE73046394600F05BFF00283FF462AF304639460022002301F0E4FC00283FF459AF55499BF800504D
:4030400001200024009001910894CDE90289CDE9046700220023002D33D1CDE90623684600F074FF0028D4D102F014F821230360CFE702F00FF82121016067E7404649465E
:4030800000F02AFF002899D03046394600F024FF002893D02046294600F024FFE8B93C4A9BF800400123089000930192CDE90289CDE9046700200021002C5FD1CDE9060153
:4030C000CDE7CFF6F073022DCDE90623CCD0C6E701F0E0FF222505609BE72D4A9BF90030032400940192CDF820A0CDE90289CDE9046740464946E3B94FF6FF754FF06044E2
:40310000C4F2EF7500220023CDE9064501F076FC002841D19BF90000022805D0684600F015FF00287FF412AF01F0B4FF222101600CE700250024C7F6F07500220023CDE950
:40314000064501F05BFC0028E4D000230022C3F6E0733046394601F0DFF904460D4600F0FDFE22462B4601F03FFC0028D2D100230022CFF6F073CDE90623CBE702460B46E2
:4031800001F0F4FA022CCDE906013FF46DAF66E7088200001D81FF1F00230022C3F6E0733046394601F0B8F904460D4600F0D6FE22462B4601F018FC0028ABD14FF6FF73E1
:4031C0004FF06042CCF2EF73CDE90623A2E700BF2DE9F04F9A4693462AF00049884614460746024659EA0B0091B01D465946C44644D0002328F00044C7F6F0739C420FDD61
:4032000004F1404404F5801B5BEA020B3CD14FF0000AC3F6F07A5846514611B0BDE8F08F38D00020C7F6F0708145E9DC00F0B780BCF1000FC0F28A80002600292ED10020BF
:40324000C7F6F070814500F0AE800021C3F6F071894500F09E80B5F1804F00F0E4830023C3F6E0739D4219D1BCF1000F16DB3846414611B0BDE8F04F00F02ABD4FF0000AFB
:403280008346C3F6F07AC6E7574811B0BDE8F04F00F05EBE002FB3D1C3E70026384641460192CDF800C0FFF707FE019ADDF800C03ABB0023C7F6F0739C4205D024B1002278
:4032C000C3F6F07294421CD1002DC0F2178483468A46BCF1000F9EDA04F1404000F5801256EA020340F0A38458465A465146534600F05EFF02460B4601F038FA83468A4601
:4033000089E74FEADC7E0EF1FF3C56EA0C0262D00023C4F2E013994568DD0023C4F2F033994540F300844FF6FF71C3F6EF718C4240F3E083002D48DD29A1D1E900010246FF
:403340000B4601F0E9F883468A4664E74FF6FF76C4F23F36B1453CDC4FF6FF73C3F6EF7399457FF769AF4FEA295640F21340864240F36184C6F58666F31C21FA03F000FA3A
:4033800003F68E427FF458AF00F00103C3F1020653E7002DC0F22F84BB46C2463BE700293FF446AF2CE704F1404303F5801050EA020300F031834FF6FF71C3F6EF718C4240
:4033C00040F39183002DBFF626AF4FF0000BDA4621E7022631E7384641463A46434687E79C7500883CE4377E40820000B4F5801F80F2978300230022C4F24033CDF800C0AA
:4034000001F08AF8DDF800C00C466FF0340524F07F4249F68E01241522F47003A4F2FF37C0F2030143F07F527F198B420F9742F4401440F373834BF27965C0F20B05AB4227
:4034400040F30884791C00250F91A4F580142F460246A748FF002346CDE90423C219D2E90089DDE9040142464B46CDF800C000F09FFE42464B46CDE90A01DDE9040100F06B
:4034800099FE0B4600210246C3F6F071002001F06DF9CDE90C01DDE90C23DDE90A0101F03BF8641044F00053CDE9060103F500210020DDE906234D19CDE90823089000229C
:4034C000DDE908012B461446CDE9020101F024F802460B46DDE90A0100F06AFE4246CDE90A014B462046294600F062FE02460B46DDE9040100F05CFE02460B46DDE902019B
:4035000001F00AF802460B46DDE90A0100F050FEDDE90C2301F000F8CDE90401DDE9060102460B4600F0F8FF02460B4604460D4600F0F2FF5CA3D3E900238046894620461A
:40354000294600F0E9FF5AA3D3E9002300F032FE22462B4600F0E0FF57A3D3E9002300F029FE22462B4600F0D7FF55A3D3E9002300F020FE22462B4600F0CEFF52A3D3E9A5
:40358000002300F017FE22462B4600F0C5FF50A3D3E9002300F00EFE02460B464046494600F0BAFFDDE9062304460D46DDE9020100F000FEDDE9042300F0AEFF22462B468B
:4035C00000F0F8FD80468946DDE9020102460B4600F0A2FF00230022C4F20803CDE90A0100F0E8FD42464B4600F0E4FD089B0D461C46DDE902011A462B4600F08DFF224602
:403600002B46CDE90201DDE9040100F085FF0023CDE90401002220462946C4F2080300F0C7FDDDE90A2300F0C3FD02460B464046494600F0BDFDDDE9062300F06DFF024649
:403640000B46DDE9040100F0B5FD8046894642464B46DDE9020100F0ADFD1FA3D3E9002308980D46044600F057FF1DA3D3E90023CDE904012046294600F04EFFDDE9022300
:40368000CDE906012046294600F092FD02460B464046494600F08CFD13A3D3E9002300F03BFF02460B4625E0EF4E454A287ECA3F65DBC9934A86CD3F01411DA96074D13F96
:4036C0004D268F515555D53FFFAB6FDBB66DDB3F033333333333E33F000000E009C7EE3FF5015B14E02F3EBEFD033ADC09C7EE3F30820000DDE9060100F05CFDAC4BDA1952
:403700000CCA00F057FD04460F980D4600F09EFEA84B8046DF19D7E900238946CDE90623DDE9040122462B4600F044FDDDE9062300F040FD42464B4600F03CFD0898424602
:403740004B46CDE9020100F033FDDDE9062300F02FFDDDE9042300F02BFD02460B462046294600F025FDDDF800C0013E56EA0C068046894640F0B08100210020CBF6F071D0
:40378000CDE908010024224653465846514600F00FFDDDE9022300F0BFFE554606460F4642464B465846294600F0B6FE02460B463046394600F0FEFCDDE9022382468B465A
:4037C0002046294600F0A8FE04460D465046594622462B4600F0EEFC4FF6FF78C4F28F08414506460F46894640F3208101F13F4101F5E00050EA060340F009825AA3D3E907
:4038000000235046594600F0D5FC2246CDE902012B463046394600F0CBFC02460B46DDE9020101F009F9002840F0F18127F000480026C3F6E076B04500F316814FF00008B8
:40384000CDF8088000264AA3D3E9002330463946CDF8008000F060FE2246804689462B463046394600F0A4FC02460B465046594600F09EFC40A3D3E9002300F04DFE40A356
:40388000D3E9002304460D463046394600F044FE02460B462046294600F08CFC06460F4632463B464046494600F084FC42464B4604460D4600F07CFC02460B4630463946B4
:4038C00000F076FC224682468B462B462046294600F022FE2CA3D3E9002306460F4600F01BFE2BA3D3E9002300F062FC32463B4600F012FE28A3D3E9002300F05BFC32465A
:403900003B4600F009FE26A3D3E9002300F050FC32463B4600F000FE23A3D3E9002300F049FC32463B4600F0F7FD02460B462046294600F03DFC06460F4632463B462046F6
:40394000294600F0E9FD002280468946304639464FF0804300F02CFC02460B464046494600F004FF524627E0FE822B654715973C00000000432EE63FEF39FAFE422EE63F72
:40398000396CA80C615C20BED0A4BE726937663EF16BD2C541BDBB3E2CDE25AF6A56113F93BDBE166CC1663F3E5555555555C53F208200001082000006460F4620462946C8
:4039C0005B4600F0A9FD52465B4600F0F3FB02460B463046394600F0EBFB22462B4600F0E7FB0B4600210246C3F6F071002000F0DFFBDDF800C002460CEB0103B3F5801F8D
:403A000004460D46C0F23E81DDE9080100F084FD83468A46FFF7FFBB4FF0000A8B46C3F6F07AFFF7F8BB3846414688E44CF6FF3321F00048C4F2900398457FF7F9AE4FF445
:403A40005053C3F66F73CB18034340F0088122462B4600F0ADFB02460B465046594600F0D7FF002840F0FB804FEA2857A7F2FE324FF4801343FA02F303EB0901C1F30A50BF
:403A80004FF6FF76A0F2FF37C0F20F0646FA07F321F07F4626F47007C0F5826021EA030347F48016C11C46FA01F70022B9F1000F0297C0F2E4802046294600F079FB044681
:403AC0000D462246504659462B4600F073FB029A0F464FEA0258B5E600230022C3F6F073CDE908234EE6002DBFF66FAC0AF1004AFFF791BB002DBFF668AC1DE40B46002185
:403B00000246C3F6F0710020CDF800C000F02EFEDDF800C083468A46FFF7DBBB00252F4696E4002573E44FF6FE72C3F6EF729442E0DD0023C3F6F0739C423FF7FBAB00239A
:403B40000022C3F6F073CDF800C000F031FB54A3D3E900230D46074600F0DEFC52A3D3E90023804689463846294600F0D5FC2B46CDE902013A462946384600F0CDFC00239C
:403B8000CDE9080100222946C3F6D073384600F0C3FC02460B4646A1D1E9000100F008FB2B463A4600F0B8FC0B4600210246C3F6E071002000F0FCFA02460B46DDE9080197
:403BC00000F0AAFC3CA3D3E9002300F0A5FC02460B46DDE9020100F0EBFA04460D4622462B464046494600F0E5FA0020CDE9020142464B46AFE500213A4643460020C3F6C6
:403C0000F07100F0B3FD83468A46FFF704BB2CA3D3E90023DDE9080100F07EFC28A3D3E9002300F079FC83468A46FFF7F4BA012E7FF4F1AA5AE700297FF42FABC6F582636E
:403C4000DE1C49FA06F303FA06F0484520D00E46FFF7FBBA4FF480250127FFF7F9BB1AA3D3E90023DDE9080100F056FC16A3D3E9002300F051FC83468A46FFF7CCBA784294
:403C8000029018E7029A00F0FFF902460B46BBE603F00101C1F10206FFF7D7BAAFF30080000000604715F73F44DF5DF80BAE543E555555555555D53FFE822B654715F73FF4
:403CC0009C7500883CE4377E59F3F8C21F6EA5012DE9F8430027B946C7F6F077C7F6F0790F404F4504460D4602460B460E46804600F0D480002940F3AE800C1500F0B88012
:403D000026F07F45A4F2FF3725F47006FA0746F4801100F193804FEAD8734FF0000C03EB41037F104FEA4801162562464FF40010161844089E424FEAD17805F1FF354FEAF7
:403D4000410102DC32189B1B844408EB43031019984202DC1B1A0219A444CE0F60084900013D06EB4303E3D14FF020082C464FF0004015E000F08E80CE0F06EB43034008AB
:403D80004900934208F1FF3804EB00061EDC1BD0CE0F40084900B8F1010806EB43032DD0934204EB0006E5DD06F00049B9F1004F06EB00043DD091469B1A8E4288BF013BE2
:403DC000891B2D184A46D7E78E42E1D806F00049B9F1004F06EB000426D091468E42C2EB030300D9013B891BCE0F2D1849004008B8F101084A4606EB4303D1D1194324D1AE
:403E00004FEA55084FEA6C0505F17F541CF0010F04F5001318BF48F0004803EB0755444620462946BDE8F883002CD6DB02F10109D4E7002CBFDB02F10109BDE74FEAD872B2
:403E400002EB41014FEA480865E76B1C31D005F001025519D4E721F000460643E0D079BB0C464FEAD826153C4FEA4858002EF8D016F4801320D176000133F102FBD5C3F1B9
:403E80000101C3F1200228FA02F0641808FA03F8064335E78E4287D91A466DE700F03CFB02460B462046294600F084F904460D46B6E70CF1010CA5E7202201210023E2E732
:403EC00002460B4600F074F902460B4600F04EFC04460D46A4E700BF41F0004101F58010C00F70470B4661B1B1F1004F09D04FF6FF72A3F58011C7F6DF72914205D80420A6
:403F000070470028F3D10220704703F1FF4101F5E0019142F3D94FF6FF72C0F20F02934201D80320704703F100419142F9D90022C7F6F072934204D013F5801F01D00020FE
:403F40007047D0F1010038BF002070470020704700210020C7F6F871704700BF2DE9F041C1F30A58A8F2FF37132F82B002460B4604460D468C464FEAD17635DC002F51DBB1
:403F80004FF6FF71C0F20F0141FA07F101EA0300104324D04A0813401C430BD04FF4802141FA07F125EA0205132F0CBF4FF0004400240D432246324C2B4604EBC606D6E941
:403FC00000452046294600F0F5F8CDE90001DDE9000122462B4600F0EBF802460B461046194602B0BDE8F081332F07DDB7F5806FF5D100F0DFF802460B46F0E7A8F21348B7
:404000004FF0FF3121FA08F01042E8D042082242D0D04FF0804343FA08F824EA020444EA0804C7E721F0004050EA0201D7D023F07F4525F4700343EA0204614241EA0400CE
:404040000F4C050B4FEA5C4E05F4002304EBC601D1E9004543EA4E432046294600F0AAF8CDE90001DDE9000122462B4600F0A0F80446024621F000400D4640EAC673AEE7EF
:404080004882000000000000C1F30A532DE9F04104460D4606460F4690467BBB21F0004353EA000C26D000230022C4F2503300F033FA43F6B042CFF6FF72904504460D4693
:4040C00006460F463BDBC1F30A53363B03EB080040F2FE7290421BDD22462B4628A1D1E9000100F055F826A3D3E9002300F014FA04460D4620462946BDE8F08140F2FF72BA
:40410000934224D003EB080040F2FE729042E3DC002806DD21F0FF4222F4E00545EA0055E8E710F1350F19DA4CF25030804522462B46D3DC14A1D1E9000100F029F812A369
:40414000D3E9002300F0E8F904460D46D2E702460B4600F02FF804460D46CBE721F0FF4525F4E001363041EA00531946002320460022C3F6904300F0CFF904460D46B9E77C
:404180009C7500883CE4377E59F3F8C21F6EA50103F0004321F0004230B40D46044643EA020130BC704700BF81F0004102E000BF83F0004330B54FEA41044FEA430594EA51
:4041C000050F08BF90EA020F1FBF54EA000C55EA020C7FEA645C7FEA655C00F0E2804FEA5454D4EB5555B8BF6D420CDD2C4480EA020281EA030382EA000083EA010180EA52
:40420000020281EA0303362D88BF30BD11F0004F4FEA01314FF4801C4CEA113102D0404261EB410113F0004F4FEA03334CEA133302D0524263EB430394EA050F00F0A7809E
:40424000A4F10104D5F1200E0DDB02FA0EFC22FA05F2801841F1000103FA0EF2801843FA05F359410EE0A5F120050EF1200E012A03FA0EFC28BF4CF0020C43FA05F3C0183A
:4042800051EBE37101F0004507D54FF0000EDCF1000C7EEB00006EEB0101B1F5801F1BD3B1F5001F0CD349085FEA30004FEA3C0C04F101044FEA445212F5800F80F09A8067
:4042C000BCF1004F08BF5FEA500C50F1000041EB045141EA050130BD5FEA4C0C404141EB010111F4801FA4F10104E9D191F0000F04BF01460020B1FA81F308BF2033A3F1A7
:404300000B03B3F120020CDA0C3208DD02F1140CC2F10C0201FA0CF021FA02F10CE002F11402D8BFC2F1200C01FA02F120FA0CFCDCBF41EA0C019040E41AA2BF01EB045109
:40434000294330BD6FEA04041F3C1CDA0C340EDC04F11404C4F1200220FA04F001FA02F340EA030021FA04F345EA030130BDC4F10C04C4F1200220FA02F001FA04F340EA03
:404380000300294630BD21FA04F0294630BD94F0000F83F4801306BF81F480110134013D4EE77FEA645C18BF7FEA655C29D094EA050F08BF90EA020F05D054EA000C04BF3A
:4043C0001946104630BD91EA030F1EBF0021002030BD5FEA545C05D14000494128BF41F0004130BD14F580043CBF01F5801130BD01F0004545F0FE4141F470014FF0000019
:4044000030BD7FEA645C1ABF194610467FEA655C1CBF0B46024650EA013406BF52EA033591EA030F41F4002130BD00BF90F0000F04BF0021704730B54FF4806404F13204A2
:404440004FF000054FF0000150E700BF90F0000F04BF0021704730B54FF4806404F1320410F0004548BF40424FF000013EE700BF42004FEAE2014FEA31014FEA02701FBF1D
:4044800012F07F4393F07F4F81F06051704792F0000F14BF93F07F4F704730B54FF4607401F0004521F0004120E700BF50EA010208BF704730B54FF000050AE050EA01024D
:4044C00008BF704730B511F0004502D5404261EB41014FF4806404F132045FEA915C3FF4DCAE4FF003025FEADC0C18BF03325FEADC0C18BF033202EBDC02C2F1200300FA8E
:4045000003FC20FA02F001FA03FE40EA0E0021FA02F11444C1E600BF70B54FF0FF0C4CF4E06C1CEA11541DBF1CEA135594EA0C0F95EA0C0F00F0DEF82C4481EA030621EAD8
:404540004C5123EA4C5350EA013518BF52EA033541F4801143F4801338D0A0FB02CE4FF00005E1FB02E506F00042E0FB03E54FF00006E1FB03569CF0000F18BF4EF0010EF9
:40458000A4F1FF04B6F5007F64F5407404D25FEA4E0E6D4146EB060642EAC62141EA55514FEAC52040EA5E504FEACE2EB4F1FD0C88BFBCF5E06F1ED8BEF1004F08BF5FEABE
:4045C000500E50F1000041EB045170BD06F0004646EA010140EA020081EA0301B4EB5C04C2BFD4EB0C0541EA045170BD41F480114FF0000E013C00F3AB8014F1360FDEBF13
:40460000002001F0004170BDC4F10004203C35DA0C341BDC04F11404C4F1200500FA05F320FA04F001FA05F240EA020001F0004221F0004110EBD37021FA04F642EB06018F
:404640005EEA430E08BF20EAD37070BDC4F10C04C4F1200500FA04F320FA05F001FA04F240EA020001F0004110EBD37041F100015EEA430E08BF20EAD37070BDC4F120054D
:4046800000FA05F24EEA020E20FA04F301FA05F243EA020321FA04F001F0004121FA04F220EA020000EBD3705EEA430E08BF20EAD37070BD94F0000F0FD101F0004640003C
:4046C00041EB010111F4801F08BF013CF7D041EA060195F0000F18BF704703F00046520043EB030313F4801F08BF013DF7D043EA0603704794EA0C0F0CEA135518BF95EA5E
:404700000C0F0CD050EA410618BF52EA4306D1D181EA030101F000414FF0000070BD50EA410606BF1046194652EA430619D094EA0C0F02D150EA013613D195EA0C0F05D15C
:4047400052EA03361CBF104619460AD181EA030101F0004141F0FE4141F470014FF0000070BD41F0FE4141F4780170BD70B54FF0FF0C4CF4E06C1CEA11541DBF1CEA13553B
:4047800094EA0C0F95EA0C0F00F0A7F8A4EB050481EA030E52EA03354FEA013100F088804FEA03334FF0805545EA131343EA12634FEA022245EA111545EA10654FEA00261D
:4047C0000EF000419D4208BF964244F1FD0404F5407402D25B084FEA3202B61A65EB03055B084FEA32024FF480104FF4002CB6EB020E75EB030E22BFB61A754640EA0C0077
:404800005B084FEA3202B6EB020E75EB030E22BFB61A754640EA5C005B084FEA3202B6EB020E75EB030E22BFB61A754640EA9C005B084FEA3202B6EB020E75EB030E22BF9D
:40484000B61A754640EADC0055EA060E18D04FEA051545EA16754FEA06164FEAC30343EA52734FEAC2025FEA1C1CC0D111F4801F0BD141EA00014FF000004FF0004CB6E7F7
:4048800011F4801F04BF01430020B4F1FD0C88BFBCF5E06F3FF6AFAEB5EB030C04BFB6EB020C5FEA500C50F1000041EB045170BD0EF0004E4EEA113114EB5C04C2BFD4EB8C
:4048C0000C0541EA045170BD41F480114FF0000E013C90E645EA060E8DE60CEA135594EA0C0F08BF95EA0C0F3FF43BAF94EA0C0F0AD150EA01347FF434AF95EA0C0F7FF4C3
:4049000025AF104619462CE795EA0C0F06D152EA03353FF4FDAE1046194622E750EA410618BF52EA43067FF4C5AE50EA41047FF40DAF52EA43057FF4EBAE12E74FF0FF3CE6
:4049400006E000BF4FF0010C02E000BF4FF0010C4DF804CD4FEA410C7FEA6C5C4FEA430C18BF7FEA6C5C1BD001B050EA410C0CBF52EA430C91EA030F02BF90EA020F00208A
:40498000704710F1000F91EA030F58BF994208BF90422CBFD8176FEAE37040F0010070474FEA410C7FEA6C5C02D150EA013C07D14FEA430C7FEA6C5CD6D152EA033CD3D053
:4049C0005DF8040B704700BF8446104662468C461946634600E000BF01B5FFF7B7FF002848BF10F1000F01BD4DF808EDFFF7F4FF0CBF012000205DF808FB00BF4DF808EDBD
:404A0000FFF7EAFF34BF012000205DF808FB00BF4DF808EDFFF7E0FF94BF012000205DF808FB00BF4DF808EDFFF7CEFF94BF012000205DF808FB00BF4DF808EDFFF7C4FFF7
:404A400034BF012000205DF808FB00BF4FEA410212F5001215D211D56FF47873B3EB625212D94FEAC12343F0004343EA505311F0004F23FA02F018BF404270474FF00000ED
:404A8000704750EA013005D111F0004008BF6FF0004070474FF00000704700BF4A0011D212F5001211D20DD56FF47873B3EB62520ED44FEAC12343F0004343EA505323FADE
:404AC00002F070474FF00000704750EA013002D14FF0FF3070474FF0000070474FEA4102B2F1E04324BFB3F5001CDCF1FE5C0DD901F0004C4FEAC0024CEA5070B2F1004FA8
:404B000040EB830008BF20F00100704711F0804F21D113F13872BCBF01F00040704741F480114FEA5252C2F11802C2F1200C10FA0CF320FA02F018BF40F001004FEAC123DC
:404B40004FEAD32303FA0CFC40EA0C0023FA02F34FEA4303CCE77FEA625307D150EA01331EBF4FF0FE4040F44000704701F0004040F0FE4040F40000704700BF80F00040A5
:404B800002E000BF81F0004142001FBF5FEA410392EA030F7FEA226C7FEA236C6AD04FEA1262D2EB1363C1BFD218414048404140B8BF5B42192B88BF704710F0004F40F491
:404BC000000020F07F4018BF404211F0004F41F4000121F07F4118BF494292EA030F3FD0A2F1010241FA03FC10EB0C00C3F1200301FA03F100F0004302D5494260EB40007A
:404C0000B0F5000F13D3B0F1807F06D340084FEA310102F10102FE2A51D2B1F1004F40EBC25008BF20F0010040EA03007047490040EB000010F4000FA2F10102EDD1B0FAFE
:404C400080FCACF1080CB2EB0C0200FA0CF0AABF00EBC25052421843BCBFD0401843704792F0000F81F4000106BF80F400000132013BB5E74FEA41037FEA226C18BF7FEA75
:404C8000236C21D092EA030F04D092F0000F08BF0846704790EA010F1CBF0020704712F07F4F04D1400028BF40F00040704712F100723CBF00F50000704700F0004343F004
:404CC000FE4040F4000070477FEA226216BF08467FEA23630146420206BF5FEA412390EA010F40F4800070474FF0000304E000BF10F0004348BF40425FEA000C08BF704716
:404D000043F0964301464FF000001CE050EA010208BF70474FF000030AE000BF50EA010208BF704711F0004302D5404261EB41015FEA010C02BF84460146002043F0B643E5
:404D400008BFA3F18053A3F50003BCFA8CF2083AA3EBC25310DB01FA02FC634400FA02FCC2F12002BCF1004F20FA02F243EB020008BF20F00100704702F1200201FA02FC22
:404D8000C2F1200250EA4C0021FA02F243EB020008BF20EADC7070474FF0FF0C1CEAD0521EBF1CEAD15392EA0C0F93EA0C0F6FD01A4480EA010C400218BF5FEA41211ED017
:404DC0004FF0006343EA501043EA5111A0FB01310CF00040B1F5000F3EBF490041EAD3715B0040EA010062F17F02FD2A1DD8B3F1004F40EBC25008BF20F00100704790F0CD
:404E0000000F0CF0004C08BF49024CEA502040EA51207F3AC2BFD2F1FF0340EAC250704740F400004FF00003013A5DDC12F1190FDCBF00F000407047C2F10002410021FA2E
:404E400002F1C2F1200200FA02FC5FEA310040F1000053EA4C0308BF20EADC70704792F0000F00F0004C02BF400010F4000F013AF9D040EA0C0093F0000F01F0004C02BFBC
:404E8000490011F4000F013BF9D041EA0C018FE70CEAD15392EA0C0F18BF93EA0C0F0AD030F0004C18BF31F0004CD8D180EA010000F00040704790F0000F17BF90F0004F09
:404EC000084691F0000F91F0004F14D092EA0C0F01D142020FD193EA0C0F03D14B0218BF084608D180EA010000F0004040F0FE4040F40000704740F0FE4040F4400070474F
:404F00004FF0FF0C1CEAD0521EBF1CEAD15392EA0C0F93EA0C0F69D0A2EB030280EA010C49024FEA402037D04FF0805343EA111143EA10130CF000408B4238BF5B0042F15D
:404F40007D024FF4000C8B4224BF5B1A40EA0C00B3EB510F24BFA3EB510340EA5C00B3EB910F24BFA3EB910340EA9C00B3EBD10F24BFA3EBD10340EADC001B0118BF5FEAB1
:404F80001C1CE0D1FD2A3FF650AF8B4240EBC25008BF20F0010070470CF0004C4CEA50207F32C2BFD2F1FF0340EAC250704740F400004FF00003013A37E792F0000F00F0EC
:404FC000004C02BF400010F4000F013AF9D040EA0C0093F0000F01F0004C02BF490011F4000F013BF9D041EA0C0195E70CEAD15392EA0C0F08D142027FF47DAF93EA0C0F6C
:405000007FF470AF084676E793EA0C0F04D14B023FF44CAF08466EE730F0004C18BF31F0004CCAD130F000427FF45CAF31F000437FF43CAF5FE700BF4FEA4002B2F1FE4F4B
:405040000FD34FF09E03B3EB12620DD94FEA002343F0004310F0004F23FA02F018BF404270474FF00000704712F1610F01D1420205D110F0004008BF6FF0004070474FF045
:4050800000007047002100F01FBE00210A2200F0ABBE0000014B1868704700BF8481FF1F38B50E4D0E4B0024E81A8510AC4205D00B4951F8242090470134F7E703F056FA13
:4050C0000849094A541AA5100024AC4205D0054B53F8240080470134F7E738BD7885000078850000788500008085000010B50023934203D0CC5CC4540133F9E710BD82182D
:405100000346934202D003F8011BFAE7704700000EB430B59CB01FAC4FF4017254F8045BADF814200290069000F01EF80B4A039007900B4800214FF6FF730B900F91149120
:40514000ADF81630106802A92A462346019400F0B3FE1CB0BDE8304003B070478481FF1F6551000000207047034613F8012B002AFBD1181A0138704730B5056811F8012BF8
:405180002C466B1C52B11D466378402B02DD5A2BD8BF20339342F1D0002030BD0360012030BD0000000000002DE9F04F99B08146884611924FF0000A4FF0000B1391139A2E
:4051C00013780D2B05D8092B13D2002B00F0B78112E02B2B06D02D2B02D0202B0CD108E0012300E00023541C139452780D932AB9A5E1511C1391E2E700240D94139C217853
:4052000030295CD16378582B01D0782B4BD10D9AA34F14AE00960192484613A93A4615AB01F0C4FB10F00706054600F02B85062E03D1621C139200F025BD149A3AB116A8F0
:40524000396802F0B2FA4846149901F020FF1598062E21D8DFE806F0040D08171C0D04004FF0000BDA4617E0DDF858A0DDF85CB012E0179B00F2334123F48014DDF858A01F
:4052800044EA015B08E0DFF81CB24FF0000A03E06FF0004B4FF0FF3A290740F1F3844BF0004B00F0EFBC139C621C139261783029F9D0002900F0E6840126069601E0002577
:4052C0000695139F0797002704973E46139D2C782F2C16DC484601F049FE03684846039301F044FE0068FFF73FFF03990246284602F026FB0246C8B1002335461A460593FC
:4053000077E0392CE6DC0F2E0CDC082ED8BF04984FF00A03A4F13004D6BF03FB004003FB074704906C1C01361394CFE74846139C039201F01BFE0068FFF716FF2118139151
:40534000245C039A16B13546134647E03346302C05D1139D0133691C13916C78F7E7A4F13100082841D8139D1A46002307951D46591C303C05942CD05218681CC5EB000C73
:405380008C4511DA00F1FF3CBCF1100F0ADC0928D8BF049C4FF00A0ED6BF0EFB04F40EFB07F704940130E9E7002BACBFEB182B1C5D1C102B0CDC092D4FF00A0305DC0499E2
:4053C000059803FB0103049302E0059C03FB07470021139C0B46601C13906478A4F130010929C5D90120059003E0002501212A460591652C01D0452C58D125B91BB9069CC0
:40540000002C00F09C80DDF84C8008F10101139198F801402B2C04D02D2C05D00020089009E00021089101E00124089408F10200139098F80240A4F13001092934D8302CFD
:4054400004D113994C1C13944C78F8E7A4F1310008282BD8A4F13000139C0A94139901F1010CCDF84CC04C782F2C0BDC0A99C1EB0C0EBEF1080F44F61F6E0BDC7045B8BF63
:40548000864607E0392CF1DC4FF00A0E0EFB00403038E3E7089858B1CEF1000E08E000BF8881FF1F0000F07FCDF84C804FF0000E002D49D1002B40F0E5830699002940F0A2
:4054C000E183059A002A3AD14E2C1BD002DC492C35D104E0692C02D06E2C30D112E013A8A349FFF749FE50B3139BA249581E139013A8FFF741FE10B9139C611C1391DFF8E5
:4055000088B219E013A89C49FFF736FEB8B1139A1378282B0ED113A8984916AA01F094FC052807D11798DDF858A040F0FF4444F4E00BA7E3DFF85CB24FF0000AA2E3002248
:40554000CDF84C800D929DE3C2EB0E0204980692FEF76CFF102DB4BF2C461024002E08BF2E46092C82468B4615DD854B03EBC402A2F14803D3E90023FEF7CEFF8246384662
:405580008B46FEF753FF02460B4650465946FEF711FE82468B460F2D37DC0699002900F0718324DD162907DC7548524600EBC104D4E900015B4615E00699C5F125029142A2
:4055C00023DC6F4CC5F10F0504EBC50152465B46D1E90001FEF7A0FF069A551B04EBC503D3E90023FEF798FF82468B464AE3069810F1160F09DB624C5946A4EBC003D3E9EF
:4056000000235046FFF7B2F8EEE706982C1B0419002C51DD14F00F0109D0594A5B4602EBC10003C85246FEF777FF82468B4634F00F0300F0B380B3F59A7F0FDD4FF000084D
:40564000CDF81080CDF82880CDF81C802220C9F80000DFF834B14FF0000A6EE150461F1159464FF0000A012F0BDDFA0705D5454C04EBCA020CCAFEF74FFF0AF1010A7F1015
:40568000F1E7A1F154733F49024601EBCA0003C8FEF742FF3C4B3D4C0B40A34282468B46CCD8A4F58017BB4286BFDFF8ECB04FF0FF3A01F1547B71E070D0674217F00F0344
:4056C0000AD02F4A504602EBC3045946D4E90023FFF74CF882468B463F115FD01F2F08DD4FF00008CDF81080CDF82880CDF81C801CE117F0100F14BF6A210021244C0591F7
:4057000050465946002F08DDFB0703D5D4E90023FEF702FF7F100834F4E7824605988B46E0B1C1F30A53C3F16B04002C16DD1F2C0EDD342C4FF0000A02DD4FF05C7B0DE0EF
:40574000203C4FF0FF3303FA04F404EA010B05E04FF0FF3101FA04F000EA0A0A5046594600220023FFF740F90028B9D118E000BF5A8200005D820000638200009C81FF1F3F
:4057800038840000108500000000F07F0000A07C688200000000F8FFFFFFEF7F00210591049832460090079948462B4601F0C2FC069E0A90002EC0F2C580002210920A9C4A
:4057C0004846616801F02EFC236921469F1CBA000C3107900C30FFF789FC12A915A85246009101905B464846CDE908AB01F064FF01211490484601F02BFD129A069E002A3F
:40580000049026EAE677C0F2A080109D3B46AD18059C159E141BA0196FF47F718842B4BF04F23344C6F13604059A2E191B19AE42B4BF304628469C18A042A8BF204600288C
:4058400002DD361A241A2D1A109B8BB11A460499484601F097FD04900499149A484601F000FD14998046484601F011FCCDF85080002E05DD48461499324601F0D5FD149064
:405880002FB1484607993A4601F07CFD0790002C05DD48460799224601F0C6FD0790002D05DD484604992A4601F0BEFD04901499079A484601F029FE0021C468C160049981
:4058C00080460B9401F004FE002846DA002C40F0B281BAF1000F40F0AE81CBF313005C46002840F0A8819C4A2240B2F1D66F40F2A281D8F814305BB341460122484601F09C
:4059000093FD0499804601F0E3FD002840F393812BF00044059B200D0205002B4AD0B2F1D66F47D8B2F15C7F00F2878122244FF0000A4FF0000BC9F800400A9B002B40F063
:405940008D819FE1069D6A4238E7BB1A109D5FE7D8F810100129CFDC6DE159D10B9C14B32BF07F417D4C21F47000A0425A462AD1059B514663B178481040B0F1D46F07D8F4
:40598000030DC3F16B044FF0FF3000FA04F401E04FF0FF34A14216D16F494FF0000A114001F5801B47E1CBF3130363B9BAF1000F09D1ADE7A2F580116FEA115C6FEA0C5B66
:4059C0004FF0FF3A37E10AF00102002A00F033810B9BDDE9080153B101F0FAFD02460B46DDE90801FEF7E6FB82468B4623E101F0EFFD02460B46DDE90801FEF7D9FB0022E0
:405A0000002382468B46FEF7EFFF00288ED112E14046049901F0A4FE00224FF0804304460D46FEF7F5FF68B30B9810B100264C4F0FE05346BAF1000F03D1CBF3130636B9D1
:405A40000AE0012B03D1BBF1000F3FF46FAF454F00260025424C25E0204629460022404BFEF7CCFF40B92046294600223E4BFEF753FD05460C4601E00B9D3B4C2E4604F1A8
:405A800000470FE0204629460022374BFEF744FD0B9F05460C4617B901F1004200E00A462E4617462C495B4619400C912F4A0C9890422CD1ABF1547BDDE90801CDE90E01BE
:405AC0005046594601F084FD02460B4630463946FEF722FD0B46024659465046FEF76AFB82461D480B460840214988420CD9214A0F99914203D10E98421C3FF4A7ADDFF83A
:405B000074B04FF0FF3A85E003F1547B4CE0059B002B37D00C99B1F1D46F33D8284621460BA3D3E90023FEF773FF38B321462846FEF7B4FF002808BF0120FEF777FC0C4613
:405B40000B990546C1B904F1004716E0AFF300800000C0FFFFFFDF410000F07FFFFF0F000000F03F0000F0BF0000E03F0000E07FFFFF9F7CFFFFEF7F27462E460C9A07F1AF
:405B8000D660871ADDE9080101F022FD02460B4630463946FEF7C0FC02460B46DDE90801FEF708FB82468B46059B5E46002B31D1434A0C98324090422CD121462846FEF74A
:405BC00045FFFEF743FC0B46024621462846FEF7EFFA0B9B04460D462BB9BAF1000F02D1CBF3130686B1204629462FA3D3E90023FEF704FF002831D1204629462CA3D3E917
:405C00000023FEF719FF04E02BA3D3E90023FEF7F5FE18BB4846149901F039FA4846079901F035FA4846049901F031FA4846414601F02DFAC3E5059880B1224A00230F9221
:405C40000E9350465946DDE90E23FEF765FC82468B4619B910B92221C9F800104846149901F015FA4846079901F011FA4846049901F00DFA48460A9901F009FA48464146F7
:405C800001F005FA119808B1139901600D9C524614B10BF1004300E05B461046194619B0BDE8F08FAFF300809535A094FFFFDF3F35E5AF350000E03F9535A094FFFFCF3FBA
:405CC0000000F07F000050390A460349034608681946FFF769BA00BF8481FF1F2DE9F74F01904048D0F800900846044614F8015B09EB05067778204607F00806F7B2002FFF
:405D0000F3D12D2D03D114F8015B012704E02B2D04BF244614F8015B002B5CD0102B07D1302D05D12578782D4ED1657810230234002F0CBF6FF000404FF00040B0FBF3FA1C
:405D4000002603FB1A08304609EB050C9CF801C00CF0040B5FFA8BFBBBF1000F01D0303D0BE01CF0030C1BD0BCF1010F14BF4FF0570C4FF0370CCCEB05059D4210DAB6F154
:405D8000FF3F0AD0504506D801D1454503DC03FB0050012601E04FF0FF3614F8015BD3E7731C0AD1002F01990CBF6FF000404FF0004022230B6022B911E007B1404272B13C
:405DC00006B1611E11600AE0582DAED03025002BAED10823ACE7302DA4D00A23A8E7BDE8FE8F00BFB081FF1F30B51346044A05460C46106829462246BDE83040FFF76EBFD5
:405E00008481FF1F38B54B1C144602D14FF0FF3533E09389CDB2616B23F02002A28179B16268A16B8A4205DA2068431E236000F8015C10E0214600F0A7F90028F4D0E5E76E
:405E4000206958B12368834208D913F8012CAA4204D1013B23606268501C0DE0616820682164214604F14403032201F8465FE0636363A263216001206060284638BD10B5B0
:405E80000C46496B69B104F14403994201D000F0EDFC216C00206063616011B1E26B226010BDA3892069002243F0200120606260A1814FF0FF3010BD2DE9F041ADF5247D1E
:405EC00007460C469046019300F0CEFC9649974A002303A8469347934890A291A39298F80050002D00F04781914E33685819417801F00802D3B2FBB16668002E12DD8C4A08
:405F0000206811680378CE18757805F00803DAB272B1479965684E1C6B1E0130479663602060E9E738462146A39DA8470028E6D008F10106B046D2E7252D08F101065DD181
:405F40004593439398F801502A2D03D11026439608F1020630783346A0F130010136092906D8459D0A2101FB050030384590F1E7682804D1439A42F00103439333461D78AE
:405F80006C2D04D1439E013346F00200439019784C2904D1439A013342F0040543951E4616F8015B692D56D016D8642D4ED00FD85B2D56D004D8002D7BD0252D7CD11DE0A8
:405FC000632D79D1439840F040014391002052E0672D71D805204EE0702D2DD006D86E2D4BD06F2D68D10821449138E0752D2DD0782D25D0732D5FD102203CE06368002BCF
:406000000DDD21680878A84240F0B58065684A1C47996B1E481C6360226047908AE738462146A39A90470028EBD000F01EFC4698002840F098809BE0439941F020034393DC
:40604000439840F400724392102200E00A226E2D449204DC01E00021449103200BE0042009E0314603A801F013FC439A064642F0400343930120499022E0439DE8063FF5B5
:4060800059AFE90706D50198479D021D019201680D804FE7019B15F0020F03F10402019203D01D68479B2B6044E747981968086040E700F0DAFB5BE003230A204993449094
:4060C0006368002B03DD4398420611D51BE038462146A39A90470028F5D0A6E747986168421C481E00284792606016DD5A1C22600F49236808681A788218517801F00800FA
:40610000C2B2002AEAD1499B022B13DC384643A9224601AB00F050FA1FE038462146A39B98470028E4D080E7055E00007F5E0000B081FF1F042B06DC384643A9224601ABEC
:4061400000F0A0FA09E00F4900293FF4F3AE384643A9224601AB00F053F801280BD002287FF4E8AE61E7A38903F0400211B229B14FF0FF3002E000F078FB46980DF5247DED
:40618000BDE8F081016200002DE9F0410C46496B04F1440399421CD14FF4806100F0EAFE18B94FF0FF30BDE8F08194F846204FF480616063A16380F8FF2394F8453080F8D4
:4061C000FE3394F8441080F8FD1300F2FD30206012E0A66B77003A4601F026FB05460028DFD000EB0608404629463246FEF77EFFC4F800806563A7630020BDE8F08100001D
:406200002DE9F04F87B003938B6816465A1EB2F5AE7F07460C4607D96FF4AE7040F25D1103EB000CA16001E04FF0000C2568A04645F4F06348F81C3B0025C3462A46A946B7
:406240000595AA460495A168002900F0DF80306803784E2B5CD01DD8392B0FD8312B47D22E2B00F0908005D82B2B49D02D2B40F0CD8045E0302B40F0C98028E0452B00F032
:406280008B8003D8412B40F0C18056E0462B6ED0492B13E0662B6AD00CD8592B6FD003D8542B40F0B38066E0612B46D0652B40F0AD8071E06E2B2BD003D8692B40F0A68021
:4062C0003FE0742B57D0792B40F0A08057E0206810F4807F0CD020F0800323600AF1010ABCF1000F75D001310CF1FF3CA16070E05119002940F08A80206820F4C07005E0D1
:406300002168080640F1828021F0800020605EE06AB9BAF1000F0CD1216801F4E060B0F5E06F06D121F4F062226001224FE0022A4CD0012D18D0042D15E0012A66D10222BC
:4063400045E06DB9BAF1000F63D1216801F4E060B0F5E06F61D121F4F0652560012536E0032D01D0052D51D10135EDB22FE0022D4CD103252BE0062D48D1072527E0072D6A
:4063800044D1082523E0216888053FD521F420702060CDF810A01AE0216801F4A060B0F5806F04D0480531D5BAF1000F35D0880504D40498D946C0EB0A00059021F4F06112
:4063C00041F4C07020604FF0000A00E003220BF8013BA3682069591EA1607168431C481E00282361706003DD3368591C31602AE70292CDF804C0D4F8803138463146984705
:40640000029ADDF804C000283FF41DAFBAF1000F03D0216821F480702060531E012B11D8C3455A460CD912F8011CD4F87C3138463246984721690BF1FF3B481E2061EFE760
:406440000120B4E06A1E062A2ED8022D1CD9DC46CBEB050101EB0C0303F0FF0003280ED91CF8011DD4F87C31CDF804C03846324698472169DDF804C0481E2061E8E7033D86
:40648000EDB2C5EB0B0B0FE0C3455946D8D93246D4F87C31384611F8011C984720690BF1FF3B421E2261EFE72168CA052ED54B050FD5C3455946C3D93246D4F87C31384603
:4064C00011F8011C984720690BF1FF3B421E2261EFE71BF8011C22690BF1FF35531E652923610DD045290BD0D4F87C5132463846A84720691BF8021C421EABF102052261CD
:40650000D4F87C31384632469847AB46216811F010024BD18BF80020266806F4C065B5F5806F06D10498C0EB0A035A42A3B1D94608E0059E86B1384609F101010A23FFF7E2
:40654000CDFB821B04F26F11894528BF04F5B7794846184901F0D0F9002238464146FEF723FE2268039D12F0020F06460F462B6802D0181D286006E0039D12F0040F03F1ED
:4065800004022A6003D01968C1E900670BE01D68FDF7A8FC10B901F0ABF903E030463946FEF79CFA2860E3685A1CE260002007B0BDE8F08F908200002DE9F04115468A68F1
:4065C00080460C4632B98869002814BF4FF0FF310121A1602668F20603D41F683A1D1A603F680026A369DBB923680136DB0603D42868027807F8012B696828684B1EA16876
:40660000421C481E6B602A60A06028B3002BE9DCD4F880314046294698470028E2D01BE0012B07D1296862690878115C0029DBD116B311E0022B01D066B10DE02868104989
:40664000027808688218517801F00800C2B2002ACAD0F1E7012B0FD0226812F0100105D1E068A269431CE36002B13970216900208E192661BDE8F0811846BDE8F08100BFD4
:40668000B081FF1F2DE9F04F1F46734B0C4687B006AE8146154693E80700A36806E90700A0696E4A6E495E1E032808BF1146B6F5AE7F019107D96FF4AE7040F25D1203EB9A
:4066C000000AA26001E04FF0000A216804F11C0641F450632360B3464FF00008296803A850F828000978022200F08EFC002832D0B8F1010F0BD163682BB92168082241F4F8
:40670000007062602060236823F4A0600CE0B8F1020F0AD1236803F4C062B2F5007F1AD11021616043F480702060A1684A1EA26089B1286810F8013B0BF8013B696828601D
:406740004A1E002A6A6006DCD4F88031484629469847002841D108F10108B8F1030FBDD1606808B90A21616062683E4B6069991A01F08EF84FF00008A368002B2FD02A6834
:4067800060691178405C50B330290CD12168090509D508F10108BAF1000F0BD0591C0AF1FF3AA16006E0236823F41060206012780BF8012B6B68581E0028686003DD296821
:4067C0004B1C2B6005E0D4F8802148462946904728B9A068421EA260CEE74FF000082168C8050DD5B34509D91BF8011CD4F87C3148462A4698470BF1FF3AD346B34526D066
:40680000206810F0100219D18BF80020636848463146019DA84722683B6812F0200F06D1D10704D5191D39601A68108003E0191D39601B681860E068421CE2602169C6EB3D
:406840000B06B04401EB08032361002000E0012007B0BDE8F08F00BF98820000DD5C000071790000B48200007047704730B500293CD051F8042C0B1F1D49002AB8BF9B1885
:406880000A6812B95A600B6030BD93420ED219685818904203D15A5889184268196014485A60036030BD994203D80A4651680029F9D1146815199D420AD118682318D018A8
:4068C0008842136012D108681B1813604B680CE002D90C23036030BD18681C188C4203D10C684968001918605960536030BD00BF2C82FF1FF0B506694B11B34200F114020D
:406900002ADA1D1D00EB860600EB850314361D1D11F01F0101D1134617E05C68C1F1200C24FA01F404351346B5420AD22F6807FA0CF73C4343F8044B55F8044B24FA01F4FB
:40694000F2E71C604CB1043307E0B54205D255F8041B43F8041BF8E713469B1A9A10026102B94261F0BD000030B50023C25C22B1024C5D1815550133F8E730BD6C84FF1FDA
:4069800008B510210648FFF7EFFF1A210548FFF7EBFF05481A21BDE80840FFF7E5BF00BF2084000064850000538500002DE9F04F89B08A4616460693039000F0D7FA00680D
:4069C0000490FEF7D1FB04999D4A0B18804692F8304013F8010C07900CB9FFF7D1FFDAF800504FF00009AC1CA34614F8017B302F02D109F10109F7E7914CE55DD5B958469F
:406A00000499424600F09CFF002836D11BF808100BEB0807655C002D30D03B46184613F8012B302AFAD0864D8346AC5C3D4624B9012403E00024254602E000244FF0010935
:406A40005B461F4638787E4901330A5C002AF8D138460499424600F073FF50B955B907EB08052B461F463878754901330A5C002AF8D125B1ED1BAD0001E05F4601243B7837
:406A8000502B01D0702B2ED178782B2805D02D2806D00021781C059105E00023059301E001220592B81C0178654A525CDAB1192A19DC103A0130034693F800C060490130D1
:406AC00011F80C10029119B9059850B1524208E002991929F8DC029B0A2101FB0232103AE9E7AD1800E03B46CAF800303CB1B9F1000F0CBF4FF006094FF000098BE1CBEBEE
:406B00000700431E2146072B02DD01315B10FAE7039800F087FAB94600F11403002704460293BA46D94532D919F8011CDDF81CC009F1FF3E6145CDF814E007D0BAF1200F8F
:406B400016D143F8047B0027BA4611E0059AC8F1010002EB000CDC45F0D36046049942468DE8081000F0ECFE9DE8081068B1E5E719F8010C3249DDF814C00A5C02F00F00C9
:406B800000FA0AF10AF1040A0F43E146CAE7029A43F8047B991A8B10384623614FEA431A00F00AFB3768C0EB0A00B8422ADDC7EB00094946204600F011FEE0B109F1FF33BB
:406BC00003F01F014FF0010A0AFA01F05A1104EB82014A6910420FD0534502DC4FF0020A0AE02046A9F1020100F0F8FD0028F5D04FF0030A00E0824620464946FFF77AFEAB
:406C00004D440FE00CDAC0EB070921464A46039800F00AFC00F114020446C9EB050502924FF0000AB3689D420CDD0398214600F02EFA129A002010604FF0A309EBE000BF11
:406C40006C84FF1F7068854258DA451BBD422EDBF268022A1AD0032A1CD0012A1DD1BD421BD1012F0BDC7368069802990360129B012222614FF062090A601C60CBE02046BE
:406C8000791E00F0ABFD0028EDD106E013980028E9D002E0139B002BE5D12146039800F0F6F9129900220A604FF05009B3E005F1FF39BAF1000F08D1B9F1000F07DD2046D5
:406CC000494600F08BFD824601E04FF0010A09F01F03012202FA03F0029B4FEA691153F821107F1B08422946204618BF4AF0020A4FF00209FFF7FEFD756801E04FF0010989
:406D0000BAF1000F00F08380F268022A0ED0032A10D0012A79D11AF0020F76D0029803684AEA030A1AF0010F07D16EE0139AC2F1010100E01399002967D0D4F8108004F13A
:406D4000140304EB88011431184653F8042BB2F1FF3F02D00132026022E000208B4243F8040CF1D3A168884513DB63680398591C00F058F9226904F10C01931C82469A00A3
:406D800000F10C00FEF7B2F92146039800F07FF954462069012104EB8002431851612361B9F1020F13D13268501E87422AD107F01F01012202FA01F27F1104EB87077B6900
:406DC0001A420CBF4FF002094FF001091AE02069404509DD01212046FFF78CFDB36801359D423FF722AF0BE017F01F0708D004EB8801086900F0E0F9C7F12007B842E9DB6E
:406E00004FF0010949F0200901E049F010091298069904600D60484609B0BDE8F08F00BFC2F10802920070B5C2F12004056850F8043F03FA04F623FA02F33543884240F86A
:406E4000045C0360F2D370BD2DE9F74F464B834693F830000C46154608B9FFF791FD2168DBF800304E1105EB860611F01F0A18BF0436A6F10409002246F8042C4F464C46FD
:406E8000944690465978B9B33748405CF0B9202916D8C4452EDABC4209D2072A07DC204639468DE80810FFF7BBFF9DE80810AC421FD9002244F8042C043CC446274619E009
:406EC00029294CD10233CBF8003015E00132082A08F1010806DDAC420CD9002244F8042C043C0122216800F00F0040EA0111216000E008220133C5E7B8F1000F2FD0BC4214
:406F000005D2072A03DC20463946FFF789FFAC420DD92A4654F8043B42F8043BA1451046F8D2002140F8041B4845FAD90EE0BAF1000F0BD0CAF1200A4FF0FF3222FA0AFAE9
:406F400056F8040C00EA0A0146F8041C56F8042C043E32B9B542F9D101232B6001E0042000E00520BDE8FE8F6C84FF1F00487047B481FF1F70B5CD1C25F0030508350C2D08
:406F800038BF0C25002D06462DDB8D422BD31D4B1B681C469CB12268501B0DD40B2802D92060241817E0A34203D16068154A10601DE0616859601AE023466468EAE72946EC
:406FC000304600F055FC431C01460CD0CC1C24F003048C4201D1256009E03046611A00F047FC0130F7D10C203060002070BD04F10B01231D21F00700C31A02D05A42E2504B
:4070000070BD70BD2C82FF1F10B5C9B2034682189342184604D0047801338C42F8D100E0002010BD70B5456A04460E463DB9102001F010F86062456085600560C560656AB6
:40704000EB6843B1626AD36853F8260078B1016843F8261017E004212046212200F0ECFFE860606AC1680029ECD1002070BD012101FA06F56A1D2046920000F0DDFF0028B5
:40708000F3D04660856000230361C36070BD70B5446A06460D463CB9102000F0DBFF7062446084600460C4603DB1736A6A68D86850F82210296040F8225070BD2DE9F0416A
:4070C0000C461E460D69074601F114010023086801331FFA80FC02FB0C6C060C564306EB1C401FFA8CFC060C0CEB0040AB4241F8040BECDBDEB1A268954213DB61683846BC
:407100000131FFF78FFF8046206904F10C01831C9A0008F10C00FDF7E9FF21463846FFF7B6FF444604EB85020135566125612046BDE8F0812DE9F8431446984603F1080228
:40714000092305460E4692FBF3F000210123984202DD5B000131FAE72846FFF763FF014608980127092C48610F6112DD06F109094F46361917F8013B0A22303B2846FFF723
:407180009DFFB7420146F5D109EB0407083F264602E006F10A0709263446444509DABA1B135D28460A22303BFFF788FF01340146F3E70846BDE8F883020C0346100410B9BD
:4071C0001B04102000E0002013F07F4F01D108301B0213F0704F01D104301B0113F0404F01D102309B00002B04DB5B0001D501307047202070470368024613F007000BD081
:40720000D90721D4980703D55908116001207047980810600220704799B209B91B0C102013F0FF0F01D108301B0A190701D104301B09990701D102309B08D90702D45B0821
