:400000000080002011000000311200003112000080B500AF47F2BC63C4F2000344F2FA62C4F2000212681A6001F006F910B5054C237833B9044810B10448AFF3008001212C
:40004000217010BDF081FF1F00000000B4A1000008B5064B1BB106480649AFF300800648016811B1054A02B1904708BD00000000B4A10000F481FF1F0881FF1F00000000FF
:40008000F0B593B004AF48F22423C1F6FF734FF000021A6001F0FAFE02F008FA01F074FC01F0B6FF02F094F840F2BD70C0F2000001F04AFD02F092FE62B601F059FD48F27A
:4000C0002423C1F6FF734FF000021A604AF2B810C0F2000001F014FD4AF2C410C0F2000001F00EFD4AF2D810C0F2000001F008FD4AF2F010C0F2000001F002FD4AF2082051
:40010000C0F2000001F0FCFC40F2BD70C0F2000001F01AFD3AE148F21823C1F6FF731B68002B00F0338101F023FD48F22823C1F6FF731B7848F24820C1F6FF704AF2142175
:40014000C0F200011A4607F07DF848F22823C1F6FF731B78412B32D148F22C23C1F6FF734FF001021A6048F2D852C1F6FF7248F24823C1F6FF7311461A464FF080030846C1
:4001800011461A4607F028F848F22423C1F6FF731B6803F1010248F22423C1F6FF731A6048F22423C1F6FF731B68052B4FDD48F21C23C1F6FF734FF001021A6047E048F2E1
:4001C0002423C1F6FF731B6803F1010248F22423C1F6FF731A6048F22423C1F6FF731B68052B1FDD48F22C23C1F6FF731B68002B18D148F2D852C1F6FF7248F24823C1F667
:40020000FF7311461A464FF08003084611461A4606F0E2FF48F21C23C1F6FF734FF001021A6014E048F22423C1F6FF731B68052B0DDD48F22C23C1F6FF731B68012B06D126
:4002400048F21C23C1F6FF734FF001021A6048F24820C1F6FF704FF0000107F01FF8024648F28C63C1F6FF731A6048F28C63C1F6FF731B681A4648F24823C1F6FF73C3F13F
:400280000203D21848F24823C1F6FF73D61848F2C823C1F6FF731B68184606F0F1F804460D4648F2D033C1F6FF731B68184606F0E7F802460B46CDE9002330464AF2242163
:4002C000C0F2000122462B4606F0BCFF48F2D033C1F6FF731B68BB62BA6A48F23023C1F6FF731B681046194606F036FC03461A4648F23023C1F6FF731A6048F2C823C1F6CC
:40030000FF731B68FB6248F20C23C1F6FF731D6848F2D834C1F6FF743B46184607F1280393E8060000F06AFB4FEAC503E3183A4692E8030083E8030048F20C23C1F6FF7313
:400340001B6803F1010248F20C23C1F6FF731A6048F22423C1F6FF731B6848F2D020C1F6FF704AF24821C0F200011A4606F046FF48F2D020C1F6FF7001F0C0FF00F072FA2B
:4003800040F2BD70C0F2000001F0DEFB48F21C23C1F6FF731B68002B3FF4BDAE48F23023C1F6FF731C6848F20C23C1F6FF731B68184606F085FC03462046194606F088FDC7
:4003C00003461A4648F23423C1F6FF731A6048F20C23C1F6FF731B6807F13002104648F2D831C1F6FF711A4600F068FC48F26864C1F6FF743B46184607F1300393E80600B2
:4004000000F0B2FC23463A4692E8030083E8030001F0AEFB4AF2B810C0F2000001F070FB4AF2C410C0F2000001F06AFB4AF24C20C0F2000001F064FB4AF20820C0F20000C6
:4004400001F05EFB00F00EFA40F2BD70C0F2000001F07AFB00BF48F21423C1F6FF731B68002BF8D001F084FB48F27C63C1F6FF734FF000021A6043E048F27C63C1F6FF7322
:400480001B6803F1010248F27C63C1F6FF731A6048F21423C1F6FF731B68002B1BD001F067FB48F24820C1F6FF704AF26021C0F2000148F2CC22C1F6FF7248F29C63C1F608
:4004C000FF7306F0BFFE024648F29463C1F6FF731A6000F0C7F948F27C63C1F6FF731B68282B07DD48F29463C1F6FF734FF002021A6005E040F2BD70C0F2000001F024FBF2
:4005000048F29463C1F6FF731B68022BB4D101F02FFB48F28063C1F6FF73009348F27463C1F6FF73019348F28863C1F6FF73029348F2D850C1F6FF704AF27C21C0F2000173
:4005400048F27862C1F6FF7248F22823C1F6FF7306F078FE48F22823C1F6FF731B78412B07D148F21C23C1F6FF734FF001021A6006E048F21C23C1F6FF734FF000021A60FF
:4005800000F08AF903461A4648F25C63C1F6FF731A8000F0F3FD03461A4648F2D433C1F6FF731A8000F00EFE03461A4648F29063C1F6FF731A8048F27863C1F6FF731B6880
:4005C000BB6048F28063C1F6FF731B68FB6048F27463C1F6FF731B683B6148F28863C1F6FF731B687B6148F26863C1F6FF735B68184606F0A5FD03469BB23B8348F23423EA
:40060000C1F6FF731B6818464FF00001C4F2201106F0AAFB0346184606F092FD0346DBB2BB7648F29C63C1F6FF731B6818464FF00001C4F2201106F097FB0346184606F02C
:4006400059FD03469BB2BB8348F2D433C1F6FF731B88FB8348F2CC23C1F6FF731B6818464FF00001C4F27A4106F07EFB0346184606F066FD03469BB23B8448F25C63C1F66D
:40068000FF731B887B8448F29063C1F6FF731B88DBB287F824304AF2A420C0F2000001F02DFE4AF2A420C0F2000001F027FE4AF2C020C0F2000001F021FE07F108031846F8
:4006C0004FF0040101F03EFE07F1080303F1040318464FF0040101F035FE07F1080303F1080318464FF0040101F02CFE07F1080303F10C0318464FF0040101F023FE07F154
:40070000080303F1100318464FF0020101F01AFE07F1080303F1120318464FF0010101F011FE07F1080303F1140318464FF0020101F008FE07F1080303F1160318464FF001
:40074000020101F0FFFD07F1080303F1180318464FF0020101F0F6FD07F1080303F11A0318464FF0020101F0EDFD07F1080303F11C0318464FF0010101F0E4FD07F10803DA
:4007800003F11E0318464FF0020101F0DBFD4AF2A420C0F2000001F0B1FD4AF2D020C0F2000001F0ABFD4AF2D020C0F2000001F0A5FD41F2883001F06BFA80E480B582B076
:4007C00000AF01F05BF90346FB71FB79002B44D048F21023C1F6FF731A6848F24823C1F6FF73F9799954FB790D2B0BD148F21023C1F6FF731A6848F24823C1F6FF734FF0AB
:4008000000019954FB790A2B1BD148F21423C1F6FF731B68012B06D148F21823C1F6FF734FF001021A6048F21423C1F6FF731B68002B06D148F21423C1F6FF734FF00102C0
:400840001A6048F21023C1F6FF731B6803F1010248F21023C1F6FF731A6007F10807BD4680BD00BF80B400AF48F21023C1F6FF734FF000021A6048F21423C1F6FF734FF0CB
:4008800000021A6048F21823C1F6FF734FF000021A60BD4680BC70472DE9B04392B000AF4FF000037B874FF0000387F839304FF0000387F838304FF40053A7F842304FF0F6
:4008C0000003FB634FF0050001F0E4FB00BF01F00DFC0346002BFAD001F0F8FB03467B874FF000037B6429E0B7F842301A467B8F13409BB29BB2B7F842209A420AD17B6C0C
:400900004FEA830307F14802D3184FF0010243F8482C09E07B6C4FEA830307F14802D3184FF0000243F8482CB7F842304FEA5303A7F842307B6C03F101037B647B6C0D2B90
:40094000D2DD4FF001037B6437E0F86B05F098FD04460D467B6C4FEA830307F14802D31853F8483C184605F079FD804689467B6CC3F10B03184605F071FD02460B464FF0C3
:4009800000004FF0804102F0AFFE02460B464046494605F0C9FD02460B462046294605F011FC02460B461046194606F07FF80346FB637B6C03F101037B647B6C0D2BC4DDDF
:4009C0003B68012B03D1FB6B83F00043FB63F86B4FF00001C4F2C82106F0C6F90346184606F0AEFB03469BB27B877B8F1BB2184607F14807BD46BDE8B08300BFB0B586B054
:400A000000AFF86007F1040383E80600BB6818464FF00001C4F2873106F058FB0346002B4ED07B6883F00043184605F029FD04460D46BB6818464FF00001C4F2873106F061
:400A400089F80346184605F01BFD02460B461046194602F0B1FD02460B462046294605F063FD02460B461046194606F01FF803467B617B68184605F003FD04460D46BB681A
:400A800018464FF00001C4F2873106F063F80346184605F0F5FC02460B461046194602F0D7FD02460B462046294605F03DFD02460B461046194605F0F9FF03463B61F1E0AA
:400AC000BB6818464FF00001C4F2343106F0FEFA0346002B50D07B6883F00043184605F0CFFC04460D46BB6818464FF00001C4F2343106F02FF80346184605F0C1FC0246AA
:400B00000B461046194602F0A3FD02460B462046294605F009FD02460B461046194605F0C5FF03467B617B6883F00043184605F0A7FC04460D46BB6818464FF00001C4F2E5
:400B4000343106F007F80346184605F099FC02460B461046194602F02FFD02460B462046294605F0E1FC02460B461046194605F09DFF03463B6195E0BB6818464FF0000144
:400B8000C4F2B42106F0A2FA0346002B4ED07B68184605F075FC04460D46BB6818464FF00001C4F2B42105F0D5FF0346184605F067FC02460B461046194602F0FDFC0246AD
:400BC0000B462046294605F0AFFC02460B461046194605F06BFF03467B617B6883F00043184605F04DFC04460D46BB6818464FF00001C4F2B42105F0ADFF0346184605F002
:400C00003FFC02460B461046194602F021FD02460B462046294605F087FC02460B461046194605F043FF03463B613BE07B68184605F026FC04460D46BB68184605F020FC29
:400C400002460B461046194602F002FD02460B462046294605F068FC02460B461046194605F024FF03467B617B68184605F008FC04460D46BB68184605F002FC02460B46FF
:400C80001046194602F098FC02460B462046294605F04AFC02460B461046194605F006FF03463B61FB6807F1100292E8030083E80300F86807F11807BD46B0BD80B58AB075
:400CC00000AFF860B9607A604FF000037B624FF000033B624FF00003FB614FF000037B621BE07B6A4FEAC303BA68D3181B68386A194605F031FF03463B627B6A4FEAC303E0
:400D0000BA68D3185B68F869194605F025FF0346FB617B6A03F101037B627A6A7B689A42DFDB786805F0CCFF0346386A194606F0CFF803467B61786805F0C2FF0346F86942
:400D4000194606F0C5F80346BB61FB6807F1140292E8030083E80300F86807F12807BD4680BD00BF0000000090B587B000AFF86007F1040383E80600BA68BB68104619462D
:400D800005F0F2FF03461C467A687B681046194605F0EAFF03462046194605F0DDFE0346184605F06DFB02460B461046194602F023FE02460B461046194605F077FE034606
:400DC0003B61BB6818464FF0000106F06BF90346002B2CD07B6818464FF0000106F080F90346002B23D07A68BB6883F000431046194606F06DF80346184605F041FB02468A
:400E00000B461046194602F023FA02460B46104619468BA3D3E9002305F0D4F902460B461046194605F042FE03467B61FBE0BB6818464FF0000106F035F90346002B2DD0A7
:400E40007B6818464FF0000106F02CF90346002B24D0BA687B681046194606F039F80346184605F00DFB02460B461046194602F0EFF902460B46104619464FF000024FF4EF
:400E80000043C4F2660305F09DF902460B461046194605F00BFE03467B61C4E0BB6818464FF0000106F01CF90346002B2FD07B6818464FF0000106F0F5F80346002B26D023
:400EC0007B6883F00042BB681046194606F000F80346184605F0D4FA02460B461046194602F0B6F902460B46104619464FF000024FF40043C4F2560305F064F902460B462C
:400F00001046194605F0D2FD03467B618BE0BB6818464FF0000106F0E3F80346002B21D07B6818464FF0000106F0DAF80346002B18D0BA687B681046194605F0C9FF03464C
:400F4000184605F09DFA02460B461046194602F07FF902460B461046194605F0A7FD03467B6160E0BB6818464FF0000106F090F80346002B0CD07B6818464FF0000106F07D
:400F8000AFF80346002B03D04FF000037B614AE0BB6818464FF0000106F07AF80346002B0ED07B6818464FF0000106F07BF80346002B05D04FF00003C4F234337B6132E000
:400FC000BB6818464FF0000106F08AF80346002B0ED07B6818464FF0000106F059F80346002B05D04FF00003C4F2B4237B611AE0BB6818464FF0000106F054F80346002B39
:401000000ED07B6818464FF0000106F041F80346002B05D04FF00003C4F287337B6102E04FF000037B61FB6807F1100292E8030083E80300F86807F11C07BD4690BD00BF69
:401040000000000000E0704080B584B000AF0346FB714FF000037B724FF000033B724FF040004FF0000101F009FD0346BB73BB7B002B05D1FB79184601F0B4FD0346BB73A6
:4010800001F076FD4FF040004FF0010101F0F6FC0346FB7307E04FF040004FF0010101F0EDFC0346FB73FB7B002BF4D1FB7B002B0BD14FF0010001F0EDFD03463B724FF007
:4010C000000001F0E7FD03467B7201F051FD3B89BB814FF000033A7B62F307037A7B62F30F23184607F11007BD4680BD80B584B000AF02460B46FA71BB714FF00003FB8121
:40110000FB799BB24FEA0323FB81BB799AB2FB89D318FB81FB8903F00303BB81BB89032B03D8FB8923F00303FB81FB89184605F0C3FD034618464FF08F4105F0C9FE034637
:4011400018464FF00001C4F2FA2105F00DFE034618464FF00001C4F2C00105F0FBFC0346BB60B8684FF00001C4F2C82105F0FCFD0346184607F11007BD4680BD80B584B006
:4011800000AF4FF0E503FB73FB7B1846FFF75CFF03B21A463A70C3F307237B703B883B813A7A7B7A10461946FFF7A0FF0346184605F0C6FF0346BB81BB89184607F1100733
:4011C000BD4680BD80B582B000AF4FF000033B6001F01EFF4FF0000001F042FF0346002B03D001F063FF0346FB8001F025FFB7F90630184601F0BCFF0346184643F21141AC
:40120000C3F61C6105F064FE034618464FF00001C4F2201105F0A8FD03463B60386805F08FFF0346DBB2184607F10807BD4680BD80B400AFFEE700BF80B586B000AF40F264
:401240000103C0F200037B614AF6CC03C0F200033B6140F20103C0F200037B614AF6CC03C0F200033B613BE03B691B68FB603B695B68BB603B699B683B604FF000037B60D4
:401280000FE0FB681A68BB681A60BB6803F10403BB60FB6803F10403FB607B6803F104037B607A683B689A42EBD13B69DB683B604FF000037B600BE0BB684FF000021A608D
:4012C000BB6803F10403BB607B6803F104037B607A683B689A42EFD13B6903F110033B617B69002B0CBF00230123DBB27A6902F1FF327A61002BB7D105F048FFFEF7C0FE62
:40130000FEE700BF80B582B000AF4EF60C53CEF200034FF48062C0F2FA521A604EF61453CEF200034EF61452CEF20002126842F400721A604FF000037B6019E07B68032B53
:4013400007D840F20003C0F200037A6853F8223003E041F23123C0F2000348F20002C1F6FF72796842F821307B6803F101037B607B682F2BE2D947F2BC63C4F200031B78E4
:40138000DAB248F20413C1F6FF731A704EF60853CEF2000348F20002C1F6FF721A6000F0E7F948F20013C1F6FF734FF000021A6007F10807BD4680BD80B582B000AF786027
:4013C000396078684FF000013A6805F00EFF07F10807BD4680BD00BF80B584B000AFF860B9607A60F868B9687A6805F0F5FE07F11007BD4680BD00BF80B483B000AF03466F
:40140000FB71FEE780B487B000AF786039604FF000033B614FF000037B612CE07B694FEA83037A68D3181B68BB60BB68FB73BB6823F0FF03BB6017E03B694FEA43033A681A
:40144000D3181B781A46BB68D3183A694FEA420239688A1852781A703B6903F101033B61FB7B03F1FF33FB73FB7B002BE4D17B6903F101037B617B691E2BCFD907F11C0789
:40148000BD4680BC704700BF80B582B000AF4FF48143C4F200034FF017021A8044F28203C4F200034FF018021A7044F28403C4F200034FF033021A8044F28603C4F200035C
:4014C0004FF018021A7044F28803C4F200034FF41C721A8044F28A03C4F200034FF018021A704FF48240C4F2000040F62C11C4F600014FF00402FFF76FFF4FF48643C4F271
:4015000000034FF002021A704FF040234FF008021A704FF48443C4F200034FF003021A7044F2A163C4F200034FF48472C4F600121278D2B21A7044F22223C4F200034FF0D2
:4015400008021A8044F22023C4F2000341F251221A804FF00003FB704FF019037B6019E0FB784FEA4303DAB244F22523C4F200031B78DBB203F00103DBB21343DBB203F04A
:401580000303FB704FF4F07000F062FB7B6803F1FF337B607B68002B02D0FB78032BDFD17B68002B03D14FF00300FFF725FF44F20403C4F200034FF480721A8044F2040375
:4015C000C4F200034FF007021A7044F20603C4F200034FF000021A7044F20803C4F200034FF048021A7044F20403C4F200034FF000021A7044F20103C4F200034FF0020299
:401600001A7044F20B03C4F200034FF004021A7044F2A233C4F2000344F2A232C4F200021278D2B242F00702D2B21A7044F2A133C4F2000344F2A132C4F200021278D2B2E5
:4016400042F00102D2B21A7044F2A033C4F2000344F2A032C4F200021278D2B262F07F02D2B21A7007F10807BD4680BD80B483B000AF40F2CF13C4F600131B78FB7144F243
:40168000F863C4F200031B78BB7144F2F963C4F200031B787B7145F66E03C4F20003FA7902F00702D2B21A7045F66F03C4F20003FA794FEA1212D2B21A7044F2F863C4F221
:4016C0000003BA7942F00302D2B21A7044F2F963C4F200037A7942F00302D2B21A7045F23D13C4F200034FF060021A7045F2FC13C4F200034FF002021A7045F60913C4F2A8
:4017000000034FF080021A7045F6C823C4F200034FF040021A7045F6CB23C4F200034FF010021A7045F62833C4F200034FF020021A7045F62B33C4F200034FF020021A703D
:4017400044F2F963C4F200037A791A7044F2F863C4F20003BA791A7045F67603C4F200034FF044021A7007F10C07BD4680BC704780B586B000AF72B644F2E863C4F20003A1
:4017800044F2E862C4F200021278D2B242F00402D2B21A704FF00003FB7519E0FA7D13464FEA43039B184FEA43034AF2E022C0F200029B183B613B691A683B699B889BB2F6
:4017C00010461946FFF7F8FDFB7D03F10103FB75FB7D092BE2D94FF00003FB7523E0FA7D13464FEA83039B184FEA43034AF21C32C0F200029B18FB60FB681B68BB60FB68DC
:401800005B687B60FB681A7A5B7A4FEA032313437B807B88B86879681A46FFF7DDFDFB7D03F10103FB75FB7D012BD8D94FF090404FF07C01C4F60001FFF7E4FD45F64A0340
:40184000C4F2000340F203121A8045F20303C4F2010345F20302C4F201021278D2B242F00202D2B21A7045F21303C4F2010345F21302C4F201021278D2B242F00202D2B2BC
:401880001A7044F2A033C4F2000344F2A032C4F200021278D2B242F04002D2B21A7044F2C233C4F2000344F2C232C4F200021278D2B242F01002D2B21A7045F2C010C4F2A9
:4018C000000040F60411C4F600014FF00A02FFF783FD45F2F210C4F200004FF41161C4F600014FF00802FFF777FD45F22210C4F2000040F61811C4F600014FF00802FFF797
:401900006BFD45F23010C4F200004FF41261C4F600014FF00A02FFF75FFD44F22233C4F2000344F22232C4F200021278D2B242F00802D2B21A704FF49043C4F200034FF018
:4019400001021A70FFF7A0FD4FF49043C4F200034FF081021A704FF00403C4F208034FF001021A70FFF782FE44F2B030C4F2000044F2A031C4F200014FF00E02FFF72CFDEB
:4019800007F11807BD4680BD80B500AF48F23823C1F6FF731B78002B08D100F00BF848F23823C1F6FF734FF001021A7000F02AF880BD00BF80B400AF46F28243C4F2000373
:4019C0004FF072021A7046F28443C4F200034FF020021A7046F22753C4F200034FF007021A7046F23753C4F200034FF048021A7046F28553C4F200034FF000021A70BD46A5
:401A000080BC704780B582B000AF00F02BF90346FB7146F29243C4F2000346F29242C4F200021278D2B242F02002D2B21A7046F29443C4F2000346F29442C4F200021278C2
:401A4000D2B242F01002D2B21A7046F29553C4F2000346F29552C4F200021278D2B242F01002D2B21A7000F0CFF8FB79184600F0FDF807F10807BD4680BD00BF80B483B0A5
:401A800000AF4FF00003FB7146F26443C4F200031B78BB71BB7903F02003002B0DD046F24243C4F200031B78FB71BB7903F01E03002B02D04FF00003FB71FB79184607F1EE
:401AC0000C07BD4680BC704780B483B000AF0346FB7100BF46F26553C4F200031B78DBB203F00403002BF5D146F24543C4F20003FA791A7007F10C07BD4680BC704700BF69
:401B000080B584B000AF78604FF00003FB8148F23823C1F6FF731B78002B11D00AE0FB897A68D3181B781846FFF7CEFFFB8903F10103FB81FB897A68D3181B78002BEED1E5
:401B400007F11007BD4680BD80B582B000AF786000F04EF8786800F017F84FF0000000F027F800F039F807F10807BD4680BD00BF80B500AF00F03CF841F23120C0F2000060
:401B800000F002F880BD00BF80B485B000AF78604EF60853CEF200031B68FB60FB6803F148037A681A6007F11407BD4680BC704780B483B000AF0346FB714EF20243CEF2F8
:401BC0000003FA794FEA4212D2B21A7007F10C07BD4680BC704700BF80B400AF4FF46143CEF200034FF004021A60BD4680BC704780B400AF4EF28013CEF200034FF0040214
:401C00001A60BD4680BC704780B400AF44F2A233C4F2000344F2A232C4F200021278D2B242F00402D2B21A7044F2B233C4F2000344F2B232C4F200021278D2B242F004028B
:401C4000D2B21A70BD4680BC704700BF000000000230800800F0058000BF013800467FF4FCAF7047EFF3108072B6704780F31088704700BFAFF3008080B483B000AF03460C
:401C8000FB7101BE07F10C07BD4680BC704700BF80B582B000AF78600BE048F21813C1F6FF731B681846FFF7D3FF7B68A3F500437B607B68B3F5004FEFD848F21013C1F6DB
:401CC000FF731B687A6802FB03F31846FFF7C0FF07F10807BD4680BD80B582B000AF0346FB80FA8848F21413C1F6FF731B7803FB02F31846FFF7ACFF07F10807BD4680BD0E
:401D000080B584B000AF03463960FB714EF60853CEF200031B68FB60FB791F2B03D94FF00000FFF7A9FFFB7903F01F0303F110034FEA8303FA68D3181B68BB60FB7903F0E5
:401D40001F0303F110034FEA8303FA68D3183A681A60BB68184607F11007BD4680BD00BF80B582B000AF02460B46FA71BB71BB79072B03D94FF00000FFF77EFFFB791F2B8B
:401D800003D94FF00000FFF777FFFB7903F01F0303F1604303F56443BA794FEA4212D2B21A7007F10807BD4680BD00BF80B500AF4FF0010000F080F845F64103C4F2000345
:401DC00045F64102C4F200021278D2B242F02002D2B21A7045F64103C4F2000345F64102C4F200021278D2B222F00402D2B21A7045F64103C4F2000345F64102C4F200022D
:401E00001278D2B242F00802D2B21A7045F6CF23C4F2000345F6CF22C4F200021278D2B222F01802D2B21A7045F6CF23C4F2000345F6CF22C4F200021278D2B242F010021C
:401E4000D2B21A7080BD00BF80B400AF44F2A733C4F2000344F2A732C4F200021278D2B242F00202D2B21A7044F2B733C4F2000344F2B732C4F200021278D2B242F002029F
:401E8000D2B21A70BD4680BC704700BF80B500AF48F23A23C1F6FF731B78002B08D1FFF785FF48F23A23C1F6FF734FF001021A70FFF7CAFF80BD00BF80B483B000AF034604
:401EC000FB7145F64103C4F2000345F64102C4F200021278D2B2D2B222F00302D1B2FA7902F00302D2B20A43D2B2D2B21A70FB79012B16D144F23263C4F2000340F21112AF
:401F0000C4F600121278D2B21A7044F23363C4F2000340F21512C4F600121278D2B21A7015E044F23263C4F2000340F2AF12C4F600121278D2B21A7044F23363C4F20003A6
:401F400040F2B712C4F600121278D2B21A7007F10C07BD4680BC704780B500AF46F28943C4F200034FF01B021A7000F0D9F800F071F800F07FF846F28743C4F200034FF0FF
:401F800000021A7046F28843C4F200034FF000021A7080BD80B582B000AFFFF763FE0346FB7146F29943C4F2000346F29942C4F200021278D2B242F02002D2B21A7046F26F
:401FC0009743C4F2000346F29742C4F200021278D2B242F01002D2B21A7046F29843C4F2000346F29842C4F200021278D2B242F01002D2B21A70FB791846FFF737FE00F042
:402000001DF800F021F807F10807BD4680BD00BF80B500AF48F23B23C1F6FF731B78002B08D1FFF799FF48F23B23C1F6FF734FF001021A70FFF7AEFF80BD00BF80B400AFA3
:40204000BD4680BC704700BF80B400AFBD4680BC704700BF80B483B000AF46F26743C4F200031B78FB71FB79184607F10C07BD4680BC704780B483B000AF46F26843C4F2E1
:4020800000031B78FB71FB79184607F10C07BD4680BC704780B483B000AF0346FB8000BF46F26743C4F200031B78DBB203F00403002BF5D046F24843C4F20003FA881A8075
:4020C00007F10C07BD4680BC704700BF80B483B000AF46F25843C4F200031B88FB80FB88184607F10C07BD4680BC704780B483B000AF46F26843C4F200031B78DBB203F0B9
:402100002003002B02D04FF0010301E04FF00003FB71FB79184607F10C07BD4680BC704780B582B000AF04E046F25843C4F200031B8846F26843C4F200031B78DBB203F002
:402140002003002BF0D1FFF78DFD0346FB7146F29843C4F2000346F29842C4F200021278D2B242F00102D2B21A7046F29843C4F2000346F29842C4F200021278D2B222F07E
:402180000102D2B21A7046F29943C4F2000346F29942C4F200021278D2B242F00102D2B21A7046F29943C4F2000346F29942C4F200021278D2B222F00102D2B21A70FB79E8
:4021C0001846FFF753FD07F10807BD4680BD00BF80B500AF48F23C23C1F6FF731B78002B08D100F00BF848F23C23C1F6FF734FF001021A7000F02AF880BD00BF80B400AF86
:4022000046F28653C4F200034FF072021A7046F28543C4F200034FF020021A7046F22443C4F200034FF007021A7046F23443C4F200034FF048021A7046F28453C4F2000386
:402240004FF000021A70BD4680BC704780B582B000AFFFF707FD0346FB7146F29653C4F2000346F29652C4F200021278D2B242F02002D2B21A7046F29543C4F2000346F2B5
:402280009542C4F200021278D2B242F01002D2B21A7046F29453C4F2000346F29452C4F200021278D2B242F01002D2B21A7000F06DF8FB791846FFF7D9FC07F10807BD4625
:4022C00080BD00BF80B483B000AF0346FB7100BF46F26453C4F200031B78DBB203F00403002BF5D146F24743C4F20003FA791A7007F10C07BD4680BC704700BF80B584B004
:4023000000AF78604FF00003FB8148F23C23C1F6FF731B78002B11D00AE0FB897A68D3181B781846FFF7CEFFFB8903F10103FB81FB897A68D3181B78002BEED107F1100733
:40234000BD4680BD80B584B000AF78600B46FB704FF00003FB7348F23C23C1F6FF731B78002B0ED0FB7B7A68D3181B781846FFF7A9FFFB7B03F10103FB73FA7BFB789A42F1
:40238000F0D307F11007BD4680BD00BF80B400AF44F2A233C4F2000344F2A232C4F200021278D2B242F00202D2B21A7044F2B233C4F2000344F2B232C4F200021278D2B2DD
:4023C00042F00202D2B21A70BD4680BC704700BF80B500AF44F6D613C4F200034FF002021A7044F6C813C4F200034FF081021A7044F6DB13C4F200034FF00F021A7044F648
:40240000DC13C4F200034FF000021A704EF28013CEF200034FF400421A604FF00F004FF00701FFF79DFC4FF00F0042F2E541C0F20001FFF765FC48F2A063C1F6FF734FF019
:4024400010021A7000F090FC00F0A8FC00F074FC80BD00BF80B582B000AFFFF703FC0346FB7144F2A533C4F2000344F2A532C4F200021278D2B242F00402D2B21A7044F27E
:40248000B533C4F2000344F2B532C4F200021278D2B242F00402D2B21A70FB791846FFF7E5FB07F10807BD4680BD00BF80B500AF48F23E23C1F6FF731B78002B08D1FFF76F
:4024C00087FF48F23E23C1F6FF734FF001021A70FFF7C0FF4FF46143CEF200034FF400421A6080BD80B582B000AF44F6D713C4F200031B78FB7148F2A063C1F6FF731B7840
:40250000DBB203F04003DBB2002B00F0A082FB7903F00103002B00F0638248F2A063C1F6FF731B78DBB2A3F14503052B00F2538201A252F823F000BF5125000047270000A7
:40254000D7290000D729000051250000EF280000FB7923F02003FB71FB7903F00A03DBB2082B40F0858048F2A063C1F6FF731B78DBB2452B6DD148F2A963C1F6FF731B7819
:40258000DBB2002B21D044F6D813C4F2000348F2A462C1F6FF7212681278D2B21A7044F6D713C4F200034FF004021A7048F2AD63C1F6FF734FF001021A7048F2A063C1F63B
:4025C000FF734FF046021A700AE248F2AB63C1F6FF731B78DBB203F00203002B1CD048F2A863C1F6FF731B78DBB243F00A03DAB248F2A863C1F6FF731A7048F2A063C1F686
:40260000FF734FF060021A704EF28013CEF200034FF400421A60E3E144F6D613C4F2000344F6D612C4F200021278D2B242F01002D2B21A7044F6D913C4F200034FF010025E
:402640001A7044F6D713C4F200034FF004021A70C6E144F6D713C4F200034FF000021A7048F2A063C1F6FF734FF04A021A70B7E1FB7903F00A03DBB20A2B5FD148F2A86317
:40268000C1F6FF731B78DBB263F05F03DAB248F2A863C1F6FF731A7048F2AB63C1F6FF731B78DBB203F00203002B2AD048F2A063C1F6FF731B78DBB203F00803002B02D069
:4026C0004FF0090201E04FF00A0248F2A863C1F6FF731B78DBB21343DAB248F2A863C1F6FF731A7048F2A063C1F6FF734FF060021A704EF28013CEF200034FF400421A60D6
:402700006EE144F6D613C4F2000344F6D612C4F200021278D2B242F01002D2B21A7044F6D913C4F200034FF010021A7044F6D713C4F200034FF004021A7051E14FF000005D
:40274000FFF79AFA4CE1FB7903F00203002B7CD148F2AD63C1F6FF731B78DAB248F2A963C1F6FF731B78DBB29A4228D244F6D813C4F2000348F2A462C1F6FF72116848F2CE
:40278000AD62C1F6FF721278D2B28A181278D2B21A7044F6D713C4F200034FF004021A7048F2AD63C1F6FF731B78DBB203F10103DAB248F2AD63C1F6FF731A7010E148F2AF
:4027C000AB63C1F6FF731B78DBB203F00203002B1CD048F2A863C1F6FF731B78DBB243F00A03DAB248F2A863C1F6FF731A7048F2A063C1F6FF734FF060021A704EF28013BD
:40280000CEF200034FF400421A60E9E000F0E0FA44F6D613C4F2000344F6D612C4F200021278D2B242F01002D2B21A7044F6D913C4F200034FF010021A7044F6D713C4F299
:4028400000034FF004021A70CAE048F2AB63C1F6FF731B78DBB203F00203002B1CD048F2A863C1F6FF731B78DBB263F06503DAB248F2A863C1F6FF731A7048F2A063C1F67B
:40288000FF734FF060021A704EF28013CEF200034FF400421A60A3E044F6D613C4F2000344F6D612C4F200021278D2B242F01002D2B21A7044F6D913C4F200034FF010021D
:4028C0001A7044F6D713C4F200034FF004021A7048F2A863C1F6FF731B78DBB263F06F03DAB248F2A863C1F6FF731A7078E048F2B063C1F6FF731A6848F2AC63C1F6FF7309
:402900001B78DBB2D21844F6D813C4F200031B78DBB2137048F2AC63C1F6FF731B78DBB203F10103DAB248F2AC63C1F6FF731A7048F2AC63C1F6FF731B78DAB248F2AA6322
:40294000C1F6FF731B78DBB29A4207D244F6D713C4F200034FF010021A7041E048F2AB63C1F6FF731B78DBB203F00203002B1CD048F2A863C1F6FF731B78DBB243F0090313
:40298000DAB248F2A863C1F6FF731A7048F2A063C1F6FF734FF060021A704EF28013CEF200034FF400421A601AE044F6D613C4F2000344F6D612C4F200021278D2B242F07D
:4029C0001002D2B21A7044F6D713C4F200034FF000021A7004E04FF00000FFF74DF900BFFB7903F02003002B43D048F2A063C1F6FF731B78DBB203F00803002B02D04FF069
:402A0000010201E04FF0020248F2A863C1F6FF731B78DBB21343DAB248F2A863C1F6FF731A7044F6D613C4F2000344F6D612C4F200021278D2B222F01002D2B21A7048F2D7
:402A4000A063C1F6FF734FF010021A7011E048F2A063C1F6FF731B78DBB203F01003DBB2002B06D148F2A063C1F6FF734FF010021A7007F10807BD4680BD00BF80B485B093
:402A800000AF02460B46FA71BB714FF00203FB7348F2A063C1F6FF731B78DBB2102B5FD144F6D913C4F200031B78DBB203F00803002B52D14EF28013CEF200034FF400422E
:402AC0001A60FB794FEA4303FB71BB79002B0BD0FB7943F00103FB7148F2A063C1F6FF734FF049021A7006E048F2A063C1F6FF734FF045021A7044F6D813C4F20003FA7985
:402B00001A7044F6D913C4F200034FF001021A7000BF44F6D713C4F200031B78DBB203F00103002BF5D044F6D713C4F200031B78DBB203F00A03DBB20A2B0AD148F2A063E6
:402B4000C1F6FF734FF010021A704FF00303FB7306E04FF00003FB7302E04FF00103FB73FB7B184607F11407BD4680BC704700BF80B483B000AF4FF00203FB7144F6D913ED
:402B8000C4F200031B78DBB203F00403002B22D044F6D913C4F200034FF010021A7044F6D713C4F200034FF004021A7048F2A063C1F6FF734FF010021A7000BF44F6D7139B
:402BC000C4F200031B78DBB203F02103002BF5D04FF00003FB71FB79184607F10C07BD4680BC704780B485B000AF0346FB714FF00203FB7344F6D913C4F200031B78DBB2F6
:402C000003F00403002B3DD044F6D813C4F20003FA791A7044F6D713C4F200034FF004021A7048F2A063C1F6FF734FF046021A7000BF44F6D713C4F200031B78DBB203F0B5
:402C40000103002BF5D044F6D713C4F200031B78DBB203F00203002B0AD148F2A063C1F6FF734FF060021A704FF00003FB7309E048F2A063C1F6FF734FF060021A704FF06B
:402C80000303FB73FB7B184607F11407BD4680BC704700BF80B485B000AF0346FB714FF00003FB7344F6D913C4F200031B78DBB203F00403002B38D048F2A063C1F6FF73F5
:402CC0001B78DBB2492B0DD148F2A063C1F6FF734FF04A021A7044F6D713C4F200034FF000021A7000BF44F6D713C4F200031B78DBB203F00103002BF5D044F6D813C4F2C1
:402D000000031B78FB73FB79002B07D044F6D713C4F200034FF010021A7006E048F2A063C1F6FF734FF060021A70FB7B184607F11407BD4680BC704780B483B000AF48F2BD
:402D4000A863C1F6FF731B78FB7148F2A863C1F6FF734FF000021A70FB79184607F10C07BD4680BC704700BF80B400AF48F2AC63C1F6FF734FF000021A7048F2A863C1F639
:402D8000FF731B78DBB223F00103DAB248F2A863C1F6FF731A70BD4680BC704780B400AF48F2AD63C1F6FF734FF000021A7048F2A863C1F6FF731B78DBB223F00203DAB29D
:402DC00048F2A863C1F6FF731A70BD4680BC704780B400AFBD4680BC704700BF80B500AF48F23F23C1F6FF731B78002B08D100F00BF848F23F23C1F6FF734FF001021A7089
:402E000000F030F880BD00BF80B500AF4FF0100000F000FA4FF001004FF00701FEF7A0FF4FF0010043F20921C0F20001FEF768FF45F60913C4F2000345F60912C4F200027A
:402E40001278D2B242F00602D2B21A704FF00C0000F0AEF848F2BC63C1F6FF734FF000021A8080BD80B582B000AFFEF7FBFE0346FB7144F2AB33C4F2000344F2AB32C4F232
:402E800000021278D2B242F00202D2B21A7044F2BB33C4F2000344F2BB32C4F200021278D2B242F00202D2B21A7044F2A133C4F2000344F2A132C4F200021278D2B242F0F0
:402EC0000102D2B21A7044F2B133C4F2000344F2B132C4F200021278D2B242F00102D2B21A7045F60B13C4F200031B78BB71BB7943F00203BB71BB7943F00103BB7145F691
:402F00000B13C4F20003BA791A7045F60E13C4F200034FF018021A7045F60D13C4F2000345F60D12C4F200021278D2B242F04002D2B21A7045F60D13C4F2000345F60D12E1
:402F4000C4F200021278D2B222F02002D2B21A7045F60813C4F200034FF0C8021A7044F21663C4F200034FF002021A7045F62F33C4F2000345F62F32C4F200021278D2B2BA
:402F800042F00802D2B21A704FF00A00FEF7A4FE4EF28023CEF200034FF002021A60FB791846FEF763FE07F10807BD4680BD00BF80B584B000AF0346FB71FB790A2B08D008
:402FC0000C2B02D0082B08D00BE04FF0C403FB730FE04FF08403FB730BE04FF04403FB7307E04FF0C403FB734FF00000FEF744FE00BF45F60A13C4F20003FA7B1A70FB7948
:40300000184600F06FF807F11007BD4680BD00BF80B400AF45F60813C4F2000345F60812C4F200021278D2B242F00102D2B21A70BD4680BC704700BF80B400AF45F608138F
:40304000C4F2000345F60812C4F200021278D2B222F00102D2B21A70BD4680BC704700BF80B584B000AF0346FB7145F60913C4F200031B78DBB203F00103FB73FB7B012BA0
:4030800002D0FB79002BF0D0FB7B012B08D14FF00100FEF721FE45F60913C4F200031B78FB7B184607F11007BD4680BD80B483B000AF45F6A233C4F200031B88FB8048F213
:4030C000B863C1F6FF731B889BB29BB2FA88D31A9BB29BB21BB2184607F10C07BD4680BC704700BF80B584B000AF0346FB71FB790A2B08D00C2B02D0082B08D00BE04FF4CB
:403100008053FB600FE04FF48063FB600BE04FF48073FB6007E04FF00003FB604FF00000FEF7AAFD00BF48F2BA63C1F6FF734FF000021A80FB6842F2107202FB03F303F5F8
:403140008063002B01DA03F2FF734FEAE3231A4648F2B463C1F6FF731A6048F2B863C1F6FF734FF000021A8007F11007BD4680BD90B585B000AF0346FB8048F2BA63C1F6C9
:40318000FF731B889BB2002B0ED048F2BA63C1F6FF731B889BB21AB213464FEA83039B184FEA4303FB6005E048F2B463C1F6FF731B68FB60FA8848F2BC63C1F6FF731B88DF
:4031C0009BB29BB2D31A9BB2FB80B7F90630184603F076FD034618464FF00001C4F2201103F0C2FD03461C46F86803F069FD03462046194603F06CFE0346BB60BB681846A2
:4032000007F11407BD4690BD80B400AFBD4680BC704700BF80B483B000AF0346FB7144F20213C4F2000344F20212C4F200021278D2B2D1B2FA7922F00702D2B20A43D2B24E
:40324000D2B21A7007F10C07BD4680BC704700BF2DE9F84F4FF6FF7321F00046C4F20F439E4288468A4681461BDD0020C7F6F07086424B4600F3BE8000F0B98042F2FB1899
:40328000414642F61859CBF6F978C3F6F971C5F24449BAF1000FC8BF884648464146BDE8F88F4FF6FF70C3F6DB70864200F3BC804FF6FF71C3F61F618E4240F3A4804FF0F2
:4032C000FF3B4A4643464846414603F02DF902460B4606460F4603F027F99DA3D3E9002304460D4603F020F99BA3D3E9002302F069FF22462B4603F017F999A3D3E90023CA
:4033000002F060FF22462B4603F00EF996A3D3E9002302F057FF22462B4603F005F994A3D3E9002302F04EFF22462B4603F0FCF891A3D3E9002302F045FF32463B4603F0F5
:40334000F3F88FA3D3E9002306460F462046294603F0EAF88CA3D3E9002302F031FF22462B4603F0E1F88AA3D3E9002302F028FF22462B4603F0D8F887A3D3E9002302F075
:403380001FFF22462B4603F0CFF885A3D3E9002302F016FF22462B4603F0C6F8BBF1FF3F02460B466FD03046394602F00BFF43464A4603F0B9F87E4C7E4A4FEACB0B5C4413
:4033C0009344DBE9002302F0FBFE43464A4602F0F7FE02460B46D4E9000102F0F1FEBAF1000F8146B4BF01F10048884655E7002B3FF444AF48464A464146434602F0E2FE63
:403400008146884649E768A3D3E900234846414602F0D8FE00230022C3F6F07303F014FB00287FF43AAF4AE7484600F00DF94FF6FF72C3F6F272964204460D4636DC4FF6C5
:40344000FF73C3F6E5739E4264DC02460B4602F0B9FE00230022C3F6F07302F0B1FE002206460F464FF080432046294602F0AAFE02460B463046394603F080F94FF0000BED
:40348000814688461DE73046394602F09BFE4A46434603F049F802460B464846414602F08FFE4C46454681468846F6E647F6FF77C4F20307BE4220DC00230022C3F6F87313
:4034C00002F07EFE002306460F460022C3F6F8732046294603F028F800230022C3F6F07302F070FE02460B463046394603F046F94FF0020B81468846E3E600210020CBF63F
:40350000F07122462B4603F039F94FF0030B81468846D6E600230022C3F6F07302F050FE002306460F460022C3F6F0732046294602F048FE02460B463046394603F01EF946
:403540004FF0010B81468846BBE600BFAFF3008011DA22E33AAD903FEB0D76244B7BA93F513DD0A0660DB13F6E204CC5CD45B73FFF8300922449C23F0D5555555555D53FAF
:403580002F6C6A2C44B4A2BF9AFDDE522DDEAD3F6D9A74AFF2B0B33F711623FEC671BC3FC4EB98999999C93F9C7500883CE4377E50A3000030A3000030B542F2FB1421F0A4
:4035C0000045C3F6E974A54287B002460B461ADD4FF6FF74C7F6EF74A54203DD02F0F0FD07B030BD02AA00F0DBFF00F00300012817D002280CD0F0B9DDE90201DDE90423C2
:4036000001F006FBECE70022002301F001FBE7E7DDE90201DDE9042301F0FAFA01F10041DEE70090DDE90423DDE9020102F01CFB01F10041D4E701230093DDE90201DDE9AF
:40364000042302F011FBCBE721F00041704700BF30B542F2FB1421F00045C3F6E974A54287B002460B461CDD4FF6FF74C7F6EF74A54203DD02F0A4FD07B030BD02AA00F0F5
:403680008FFF00F0030001281DD0022810D008BB01230093DDE90201DDE9042302F0E4FAEAE7002200920023002202F0DDFAE3E701210091DDE90423DDE9020102F0D4FAE3
:4036C00001F10041D8E7DDE90201DDE9042301F09FFAD1E7DDE90201DDE9042301F098FA01F10041C8E700BF2DE9F04F8BB01F4680468946164600F0D3F9DFF8C0B20446D1
:403700009BF900300D46013304D03046394602F0F3FB20B9204629460BB0BDE8F08F4046494602F0E9FB824600282CD1304639460022002303F060F90028EBD001239E4ABB
:403740009BF9005000930023C3F6F07301920022CDE906236B1CCDF820A0CDE90289CDE904670DD0022D0BD0684602F0F9FB002800F09380089818B103F002FD089C046088
:40378000DDE90645C6E7404649460022002303F033F900B3304639460022002303F02CF900284ED0844901209BF90050009001910024002000210894CDE90289CDE9046730
:4037C000CDE90601002DCFD000230022C3F6F073CDE90623D4E72046294602F0FDFA824600285FD0204629460022002303F004F900288FD04046494602F0EEFA002889D067
:403800003046394602F0E8FA002883D06A489BF90040002104220190089100200021022C0092CDE90289CDE90467CDE9060163D0684602F095FB00285ED0089A002A9FD039
:403840009AE73046394602F0C7FA00283FF462AF304639460022002303F0D8F800283FF459AF55499BF8005001200024009001910894CDE90289CDE9046700220023002DFB
:4038800033D1CDE90623684602F06AFB0028D4D103F076FC21230360CFE703F071FC2121016067E74046494602F096FA002899D03046394602F090FA002893D02046294647
:4038C00002F01AFBE8B93C4A9BF800400123089000930192CDE90289CDE9046700200021002C5FD1CDE90601CDE7CFF6F073022DCDE90623CCD0C6E703F042FC2225056019
:403900009BE72D4A9BF90030032400940192CDF820A0CDE90289CDE9046740464946E3B94FF6FF754FF06044C4F2EF7500220023CDE9064503F06AF8002841D19BF90000C5
:40394000022805D0684602F00BFB00287FF412AF03F016FC222101600CE700250024C7F6F07500220023CDE9064503F04FF80028E4D000230022C3F6E0733046394602F0AB
:40398000D3FD04460D4602F0F3FA22462B4603F033F80028D2D100230022CFF6F073CDE90623CBE702460B4602F0E8FE022CCDE906013FF46DAF66E770A300001C81FF1F35
:4039C00000230022C3F6E0733046394602F0ACFD04460D4602F0CCFA22462B4603F00CF80028ABD14FF6FF734FF06042CCF2EF73CDE90623A2E700BF2DE9F0478AB004466D
:403A00000D4601F001F8DFF894A006469AF900300F4601330FD02046294602F06DFA50B14FF000084FF000092046294642464B4602F0ECFF20B9304639460AB0BDE8F0879A
:403A400015499AF8006001200022009001910892CDE90445CDE9024556B9CDE90689684602F07EFA70B1089B8BB9DDE90667E2E74046494642464B4602F080FE022ECDE907
:403A80000601ECD103F07CFB21270760EBE703F077FB089E0660E8E774A300001C81FF1F2DE9F04F9A4693462AF00049884614460746024659EA0B0091B01D465946C4467C
:403AC00044D0002328F00044C7F6F0739C420FDD04F1404404F5801B5BEA020B3CD14FF0000AC3F6F07A5846514611B0BDE8F08F38D00020C7F6F0708145E9DC00F0B78060
:403B0000BCF1000FC0F28A80002600292ED10020C7F6F070814500F0AE800021C3F6F071894500F09E80B5F1804F00F0E4830023C3F6E0739D4219D1BCF1000F16DB384698
:403B4000414611B0BDE8F04F00F05EBF4FF0000A8346C3F6F07AC6E7574811B0BDE8F04F02F000BA002FB3D1C3E70026384641460192CDF800C0FFF767FD019ADDF800C010
:403B80003ABB0023C7F6F0739C4205D024B10022C3F6F07294421CD1002DC0F2178483468A46BCF1000F9EDA04F1404000F5801256EA020340F0A38458465A4651465346F8
:403BC00002F0FEFA02460B4602F0D8FD83468A4689E74FEADC7E0EF1FF3C56EA0C0262D00023C4F2E013994568DD0023C4F2F033994540F300844FF6FF71C3F6EF718C4209
:403C000040F3E083002D48DD29A1D1E9000102460B4602F089FC83468A4664E74FF6FF76C4F23F36B1453CDC4FF6FF73C3F6EF7399457FF769AF4FEA295640F213408642ED
:403C400040F36184C6F58666F31C21FA03F000FA03F68E427FF458AF00F00103C3F1020653E7002DC0F22F84BB46C2463BE700293FF446AF2CE704F1404303F5801050EAE6
:403C8000020300F031834FF6FF71C3F6EF718C4240F39183002DBFF626AF4FF0000BDA4621E7022631E7384641463A46434687E79C7500883CE4377E78A30000B4F5801FC2
:403CC00080F2978300230022C4F24033CDF800C002F02AFCDDF800C00C466FF0340524F07F4249F68E01241522F47003A4F2FF37C0F2030143F07F527F198B420F9742F482
:403D0000401440F373834BF27965C0F20B05AB4240F30884791C00250F91A4F580142F460246A748FF002346CDE90423C219D2E90089DDE9040142464B46CDF800C002F08B
:403D40003FFA42464B46CDE90A01DDE9040102F039FA0B4600210246C3F6F071002002F00DFDCDE90C01DDE90C23DDE90A0102F0DBFB641044F00053CDE9060103F500212E
:403D80000020DDE906234D19CDE9082308900022DDE908012B461446CDE9020102F0C4FB02460B46DDE90A0102F00AFA4246CDE90A014B462046294602F002FA02460B4659
:403DC000DDE9040102F0FCF902460B46DDE9020102F0AAFB02460B46DDE90A0102F0F0F9DDE90C2302F0A0FBCDE90401DDE9060102460B4602F098FB02460B4604460D4675
:403E000002F092FB5CA3D3E90023804689462046294602F089FB5AA3D3E9002302F0D2F922462B4602F080FB57A3D3E9002302F0C9F922462B4602F077FB55A3D3E90023C5
:403E400002F0C0F922462B4602F06EFB52A3D3E9002302F0B7F922462B4602F065FB50A3D3E9002302F0AEF902460B464046494602F05AFBDDE9062304460D46DDE902010D
:403E800002F0A0F9DDE9042302F04EFB22462B4602F098F980468946DDE9020102460B4602F042FB00230022C4F20803CDE90A0102F088F942464B4602F084F9089B0D4615
:403EC0001C46DDE902011A462B4602F02DFB22462B46CDE90201DDE9040102F025FB0023CDE90401002220462946C4F2080302F067F9DDE90A2302F063F902460B464046F5
:403F0000494602F05DF9DDE9062302F00DFB02460B46DDE9040102F055F98046894642464B46DDE9020102F04DF91FA3D3E9002308980D46044602F0F7FA1DA3D3E900230E
:403F4000CDE904012046294602F0EEFADDE90223CDE906012046294602F032F902460B464046494602F02CF913A3D3E9002302F0DBFA02460B4625E0EF4E454A287ECA3F03
:403F800065DBC9934A86CD3F01411DA96074D13F4D268F515555D53FFFAB6FDBB66DDB3F033333333333E33F000000E009C7EE3FF5015B14E02F3EBEFD033ADC09C7EE3FD7
:403FC000A0A30000DDE9060102F0FCF8AC4BDA190CCA02F0F7F804460F980D4602F03EFAA84B8046DF19D7E900238946CDE90623DDE9040122462B4602F0E4F8DDE9062319
:4040000002F0E0F842464B4602F0DCF8089842464B46CDE9020102F0D3F8DDE9062302F0CFF8DDE9042302F0CBF802460B462046294602F0C5F8DDF800C0013E56EA0C061B
:404040008046894640F0B08100210020CBF6F071CDE908010024224653465846514602F0AFF8DDE9022302F05FFA554606460F4642464B465846294602F056FA02460B46C2
:404080003046394602F09EF8DDE9022382468B462046294602F048FA04460D465046594622462B4602F08EF84FF6FF78C4F28F08414506460F46894640F3208101F13F418E
:4040C00001F5E00050EA060340F009825AA3D3E900235046594602F075F82246CDE902012B463046394602F06BF802460B46DDE9020102F0A9FC002840F0F18127F000487E
:404100000026C3F6E076B04500F316814FF00008CDF8088000264AA3D3E9002330463946CDF8008002F000FA2246804689462B463046394602F044F802460B4650465946C0
:4041400002F03EF840A3D3E9002302F0EDF940A3D3E9002304460D463046394602F0E4F902460B462046294602F02CF806460F4632463B464046494602F024F842464B4600
:4041800004460D4602F01CF802460B463046394602F016F8224682468B462B462046294602F0C2F92CA3D3E9002306460F4602F0BBF92BA3D3E9002302F002F832463B4653
:4041C00002F0B2F928A3D3E9002301F0FBFF32463B4602F0A9F926A3D3E9002301F0F0FF32463B4602F0A0F923A3D3E9002301F0E9FF32463B4602F097F902460B462046FC
:40420000294601F0DDFF06460F4632463B462046294602F089F9002280468946304639464FF0804301F0CCFF02460B464046494602F0A4FA524627E0FE822B654715973CD9
:4042400000000000432EE63FEF39FAFE422EE63F396CA80C615C20BED0A4BE726937663EF16BD2C541BDBB3E2CDE25AF6A56113F93BDBE166CC1663F3E5555555555C53F5E
:4042800090A3000080A3000006460F46204629465B4602F049F952465B4601F093FF02460B463046394601F08BFF22462B4601F087FF0B4600210246C3F6F071002001F063
:4042C0007FFFDDF800C002460CEB0103B3F5801F04460D46C0F23E81DDE9080102F024F983468A46FFF7FFBB4FF0000A8B46C3F6F07AFFF7F8BB3846414688E44CF6FF3321
:4043000021F00048C4F2900398457FF7F9AE4FF45053C3F66F73CB18034340F0088122462B4601F04DFF02460B465046594602F077FB002840F0FB804FEA2857A7F2FE32E2
:404340004FF4801343FA02F303EB0901C1F30A504FF6FF76A0F2FF37C0F20F0646FA07F321F07F4626F47007C0F5826021EA030347F48016C11C46FA01F70022B9F1000FDC
:404380000297C0F2E4802046294601F019FF04460D462246504659462B4601F013FF029A0F464FEA0258B5E600230022C3F6F073CDE908234EE6002DBFF66FAC0AF1004AEB
:4043C000FFF791BB002DBFF668AC1DE40B4600210246C3F6F0710020CDF800C002F0CEF9DDF800C083468A46FFF7DBBB00252F4696E4002573E44FF6FE72C3F6EF72944263
:40440000E0DD0023C3F6F0739C423FF7FBAB00230022C3F6F073CDF800C001F0D1FE54A3D3E900230D46074602F07EF852A3D3E90023804689463846294602F075F82B461C
:40444000CDE902013A462946384602F06DF80023CDE9080100222946C3F6D073384602F063F802460B4646A1D1E9000101F0A8FE2B463A4602F058F80B4600210246C3F60D
:40448000E071002001F09CFE02460B46DDE9080102F04AF83CA3D3E9002302F045F802460B46DDE9020101F08BFE04460D4622462B464046494601F085FE0020CDE90201C3
:4044C00042464B46AFE500213A4643460020C3F6F07102F053F983468A46FFF704BB2CA3D3E90023DDE9080102F01EF828A3D3E9002302F019F883468A46FFF7F4BA012E81
:404500007FF4F1AA5AE700297FF42FABC6F58263DE1C49FA06F303FA06F0484520D00E46FFF7FBBA4FF480250127FFF7F9BB1AA3D3E90023DDE9080101F0F6FF16A3D3E9F1
:40454000002301F0F1FF83468A46FFF7CCBA7842029018E7029A01F09FFD02460B46BBE603F00101C1F10206FFF7D7BAAFF30080000000604715F73F44DF5DF80BAE543E67
:40458000555555555555D53FFE822B654715F73F9C7500883CE4377E59F3F8C21F6EA5012DE9F04F42F2FB1321F00047C3F6E9739F4291B004460D4682468B46904640F33B
:4045C000A5804DF67B12C4F2020297428A4626DC002997A3D3E9002340F3BA8101F0F0FD42F2FB12C3F6F972974282468B4600F0A28091A3D3E9002301F0E2FD02460B466E
:40460000C8E900015046594601F0DAFD8AA3D3E9002301F0D5FD0126C8E902017DE042F2FB16C4F23916B74240F3A2804FF6FF73C7F6EF739F4274DC4FEA2759A9F2164972
:40464000A7EB09552946044602F008FA01F006FF06460F4602460B4620462946CDE90A6701F0AEFD00230022C4F2701301F05CFF0F46064602F0F2F901F0F0FE02460B4615
:4046800004460D4630463946CDE90C4501F098FD00230022C4F2701301F046FF00220023CDE90E0102F0A8F9002800F07281032620462946002200230CAF013E02F09CF9BB
:4046C00040B177E9020100220023013E02F094F90028F6D1604A02210091019233460AA841464A4600F0C0FBBAF1000F064614DAD8F80400D8F80C3000F1004103F100425A
:40470000C8F80410C8F80C20764206E0C2E9004500230022C8E902230026304611B0BDE8F08F02460B4601F04BFD0026C8E90201C8E90001F1E742A3D3E9002301F040FD67
:4047400041A3D3E9002306460F4601F039FD02460B46C8E900013046394601F031FD3AA3D3E9002301F02CFD0126C8E90201D4E7FEF76AFF36A3D3E9002304460D4601F03F
:40478000D3FE00230022C3F6E07301F01BFD02F065F9064601F062FE25A3D3E90023CDE9060101F0C1FE02460B462046294601F007FD21A3D3E90023CDE90201DDE9060141
:4047C00001F0B2FE1F2ECDE90401DDE9020147DC224B721E53F82240BC4241D0DDE9042301F0EEFC02460B46C8E9002305460C462A462346DDE9020101F0E2FCDDE904233B
:4048000001F0DEFCBAF1000F02460B46C8E9022383DA04F1004401F10043C8F80050C8F80440C8F80800C8F80C30764275E700BF00004054FB21F93F3163621A61B4D03DF4
:404840000000601A61B4D03D7370032E8A19A33B83C8C96D305FE43F30A40000B0A30000DDE9042301F0ACFC3F150B460C46C1F30A5102460546781A1028C8E90023B7DD5C
:4048800057A3D3E90023DDE9060101F04DFE04460D4622462B46DDE9020101F091FCCDE90801DDE90823DDE9020101F089FC22462B4601F085FC4CA3D3E9002304460D46B4
:4048C000DDE9060101F030FE22462B4601F078FCCDE90401DDE90423DDE9080101F070FC02460546C1F30A500C463F1A2346312FC8E900236DDD3EA3D3E90023DDE90601FA
:4049000001F012FE04460D4622462B46DDE9080101F056FCCDE90201DDE90223DDE9080101F04EFC22462B4601F04AFC32A3D3E9002304460D46DDE9060101F0F5FD2246C7
:404940002B4601F03DFCCDE90401DDE9020145E701F038FC42F2FB16C3F6F976B74282468B4618D026A3D3E9002301F02BFC02460B46C8E900015046594601F021FC20A3CF
:40498000D3E9002301F01EFC4FF0FF36C8E90201C3E603269EE612A3D3E9002301F012FC11A3D3E9002306460F4601F00BFC02460B46C8E900013046394601F001FC0AA3F5
:4049C000D3E9002301F0FEFB4FF0FF36C8E90201A3E6DDE90823CDE9022309E7AFF300800000601A61B4D03D7370032E8A19A33B0000002E8A19A33BC14920259A837B395F
:404A00003163621A61B4D03D2DE9F8430027B946C7F6F077C7F6F0790F404F4504460D4602460B460E46804600F0D480002940F3AE800C1500F0B88026F07F45A4F2FF3793
:404A400025F47006FA0746F4801100F193804FEAD8734FF0000C03EB41037F104FEA4801162562464FF40010161844089E424FEAD17805F1FF354FEA410102DC32189B1B30
:404A8000844408EB43031019984202DC1B1A0219A444CE0F60084900013D06EB4303E3D14FF020082C464FF0004015E000F08E80CE0F06EB430340084900934208F1FF3830
:404AC00004EB00061EDC1BD0CE0F40084900B8F1010806EB43032DD0934204EB0006E5DD06F00049B9F1004F06EB00043DD091469B1A8E4288BF013B891B2D184A46D7E7AC
:404B00008E42E1D806F00049B9F1004F06EB000426D091468E42C2EB030300D9013B891BCE0F2D1849004008B8F101084A4606EB4303D1D1194324D14FEA55084FEA6C0557
:404B400005F17F541CF0010F04F5001318BF48F0004803EB0755444620462946BDE8F883002CD6DB02F10109D4E7002CBFDB02F10109BDE74FEAD87202EB41014FEA4808ED
:404B800065E76B1C31D005F001025519D4E721F000460643E0D079BB0C464FEAD826153C4FEA4858002EF8D016F4801320D176000133F102FBD5C3F10101C3F1200228FA2A
:404BC00002F0641808FA03F8064335E78E4287D91A466DE701F0A8FC02460B462046294601F0F0FA04460D46B6E70CF1010CA5E7202201210023E2E702460B4601F0E0FA9F
:404C000002460B4601F0BAFD04460D46A4E700BF2DE9F04F21F00049B9F1795F85B006460F4604460D4692469B466DDA01F016FF002800F0FB8032463B463046394601F030
:404C400073FC7DA3D3E9002304460D4601F06CFC7BA3D3E9002301F0B5FA22462B4601F063FC79A3D3E9002301F0AAFA22462B4601F05AFC76A3D3E9002301F0A3FA22466C
:404C80002B4601F051FC74A3D3E9002301F098FA22462B4601F048FC71A3D3E9002301F091FA22462B4601F03FFCCDE900010023002220462946C3F6E07301F035FCDDE985
:404CC0000023804689462046294601F02DFC524604460D465B463046394601F025FC02460B462046294601F06BFA02460B464046494601F065FA0B4600210246C3F6F0719A
:404D0000002001F05DFA83E002460B4601F00CFC49A3D3E9002304460D4601F005FC48A3D3E9002301F04EFA22462B4601F0FCFB45A3D3E9002301F043FA22462B4601F039
:404D4000F3FB43A3D3E9002301F03CFA22462B4601F0EAFB40A3D3E9002301F031FA22462B4601F0E1FB3EA3D3E9002301F02AFA2B46224601F0D8FB43F23233C3F6D3731B
:404D80009945CDE9000192DD0020C3F6E970002281454FF000033EDCA9F500118946002100220020C3F6F0714B46904601F008FACDE902010023204629460022C3F6E07345
:404DC00001F0B2FB42464B4601F0FAF9DDE90023804689462046294601F0A6FB524604460D465B463046394601F09EFB02460B462046294601F0E4F902460B4640464946F4
:404E000001F0DEF902460B46DDE9020101F0D8F905B0BDE8F08FC3F6E7734FF00009CDE902234FF00008C3F6D279C3E700210020C3F6F071ECE700BFD43888BEE9FAA8BDFB
:404E4000C4B1B4BD9EEE213EAD529C804F7E923E9015CB19A001FA3E7751C1166CC1563F4C5555555555A53F2DE9F04F4AF6AB25D41EC2F6AA2585FB0467ADF51B7DE6170D
:404E8000C6EBA705314FA49E25EAE57457F826509A46E3430D94089503EB4304834602EBC400089A0AF1FF370A910D9917EB020806970990C7EB01044AD404EB0803A59E4B
:404EC000C4EB0309002C06EB840503F1010809F00109C0F23A83286801F0C0FA013420AE04274445E6E9020132D0B9F1000F1FD0002CC0F22D83E85901F0B0FA013404379A
:404F00004445E6E9020113D122E0E85901F0A6FA0437C6E902010836013413D4E85901F09DFA0134C6E902010437083644450FD0002CEADA00200021C6E90201043708362A
:404F40000134EBD500200021EBE700BF38A500000898002869DB089A72A901EBC2030DF5E079CDF80CA00493069D002DC0F2E182039E0DF1880E0EEBC60757E902230AF170
:404F8000FF3CDBE900010CF0010801F0CDFA02460B460020002101F015F90126083F564504460D46584638D0B8F1000F12D077E90223DBE9020101F0B7FA02460B46204688
:404FC000294601F0FFF80226564504460D460BF1080022D0804657E90223D8E9020101F0A3FA02460B462046294601F0EBF857E9042304460D46D8E9040101F095FA0246B3
:405000000B462046294601F0DDF80236103F564504460D4608F11008DDD1E9E902450399049B4A1C994503929ED108980EAF07EB800402970B940390039D0398E9009AAA64
:4050400053180028059153E9286740F3BB80059D0DF5E479A944039D00230DAC04EB850E0022C3F6706330463946CDF804E001F05BFA01F0F3FC01F0F1F900230022C4F29A
:40508000701304460D4601F04FFA02460B463046394601F095F801F0E1FC0DF13808C8F8000022462B4679E9020101F08BF8DDF804C00646E0450F46CCF3800200F082807A
:4050C0005AB300230022C3F67063CDF804C001F02BFA01F0C3FC01F0C1F900230022C4F2701304460D4601F01FFA02460B463046394601F065F801F0B1FC0DF13C08C8F837
:40510000000022462B4679E9020101F05BF8DDF804C00646E0450F4654D0CDF810B0D346E24600230022C3F670633046394601F0FBF901F093FC01F091F900230022C4F203
:40514000701304460D4601F0EFF902460B463046394601F035F801F081FC22462B46C8F8040079E9020101F02DF800230022C3F6706306460F4601F0D7F901F06FFC01F084
:405180006DF900230022C4F2701304460D4601F0CBF902460B463046394601F011F801F05DFC2246C8F808002B4679E9020101F009F808F10808D04506460F46B1D1DA468E
:4051C000DDF810B0099A3046394600F065FF00224FF07F5306460F4601F0A6F900F004FE00230022C4F2200301F09EF902460B463046394600F0E4FF04460D4601F02EFC19
:40520000804601F02BF902460B462046294600F0D7FF099C0646002C0F4640F34F81039D0DF1380E6A1E5EF82230C4F1180043FA00F101FA00F0C4F117041D1A4EF8225031
:4052400045FA04F58844002D57DD039A08F10108002A40F378810DF1380C02980CEB820163460C1A53F8042B201FC0F38000002422B1C2F1807443F8044C01248B4226D0B2
:4052800060B10F9A0433002C40F0058122B1C2F1807043F8040C01248B4218D053F8042B002C40F00081C2F1807012B143F8040C012453F8042B002C40F0ED80C2F180706D
:4052C000002AE9D001248B4243F8040CE6D1099900290FDD012900F0168102290AD1039A0EA8531E50F8231021F07F4222F4400140F82310022D00F0E980304639460022F7
:40530000002301F079FB002800F0278103980899441EA14222DC039E0DF1380E0EEB86020B981346111A53F8042D0E1F8342C6F3800110D029B153F8040D0B9E0243B34278
:4053400009D00B9E53F8040D53F8041D0243B34242EA0102F6D1002A40F05384089C0EAD661E55F82600002840F0F58005EB8603012753F8041D01370029FAD0039AD4199D
:4053800002F10109A1450C9400F38280069E039806EB09050D9F691E22AEC319A59A06EBC105059F0C9972A802EB8304C3194A1C0394049505930792039C54F8040F039453
:4053C00001F04CF8049E069DE6E90201002D049671DB09EB0A000DF1880808EBC00757E90223DBE9000101F09FF802460B460020002100F0E7FE01260AF1FF34083F564570
:4054000004F001080D460446DC4638D0B8F1000F12D077E90223DBE9020101F085F802460B462046294600F0CDFE0226564504460D460BF1080C22D0E04657E90223D8E97D
:40544000020101F071F802460B462046294600F0B9FE57E9042304460D46D8E9040101F063F802460B462046294600F0ABFE0236103F564504460D4608F11008DDD1059B7F
:405480000799E3E9024509F101098945059393D10C9A0392D0E5C2F1FF1202F57F4443F8044C0124F8E6C2F1FF1000F57F4443F8044C0124FDE600240025E0E730D10399B5
:4054C0000EA84B1E50F82320D515BCE6002132463B460020C3F6F07100F072FE06460F46002C3FF40AAF0021099A0020C3F6F07100F0D2FD02460B463046394600F060FE70
:4055000006460F46F9E6039B0DF1380E581E5EF8202022F07F4121F400034EF82030E9E600230022C3F6E07301F084FA20B90025E3E60024002570E5039A0225002A08F1A2
:4055400001083FF788AE0024C1E600200021C5E400200021D2E4012710E70695099D30466A423946CDF81C8000F096FD00230022C4F2701304460D4601F05CFA002800F0AB
:405580005E8300230022C3F670632046294600F0CBFF01F063FA00F061FF00230022C4F2701306460F4600F0BFFF02460B462046294600F005FE01F051FA039C0DF1380CC1
:4055C0004CF824003946304601F048FA099D631C18350EAA0393099542F8230000210020C3F6F071099A00F057FD039E0446002E0D46C0F2CE80771C04970DF5E47BDDF84E
:4056000010900BEBC7060EAB03EB8908CBEB0602083A58F8040DC2F3C00700F01FFF22462B4600F081FF002366E90201002220462946C3F6706300F077FF5E4504460D46FD
:4056400043D0AFB158F8040D00F008FF22462B4600F06AFF002366E90201002220462946C3F6706300F060FF5E4504460D462CD0474657F8040C00F0F1FE22462B4600F016
:4056800053FF002346E902010022C3F670632046294600F049FF04460D4657F8080C00F0DDFE22462B4600F03FFF002346E90401002220462946C3F6706300F035FF103E6A
:4056C000083F5E4504460D46D3D103994FF00009481E0590089A002AC0F29082B9F1000FC0F28C82059E089BC9EB0608002400250026DB073B4F0BEBC80812D5F8E9022301
:40570000F7E9020100F010FF02460B462046294600F058FD0D4608990126B14204462CDA2DE0D8E90223D7E9020100F0FDFE02460B462046294600F045FD07F10802089F8C
:4057400006F1010A08F108030236574504460D4602F1080703F1080811DBCA450FDCD2E90201D3E9022300F0DFFE02460B462046294600F027FD04460D464E45D1DD4AA808
:4057800000EBC901C1E90045049C09F10109A145A0D1A49A032A1DD8DFE812F0F50177017701260000252F46069A002A00F05E81059B07F10047DE685C681A6806F100413F
:4057C0009B680A9E04F1004032607060B360F16035617761079C04F007000DF51B7DBDE8F08F00BF40A50000039D002D40F32282039B4AAF581C07EBC0014CAC51E902AB54
:405800000D1B5B460597049151E90467524630463946089400F0D6FC02460B46804689463046394600F0CCFC02460B465046594600F0C8FCDDF810B0089A6BE90201083DAE
:405840009345C5F3C0044BE9028959D0E4B15BE9046742464B463046394600F0B3FC04460D46304622462B46394600F0A9FC02460B464046494600F0A5FC6BE90201089EBF
:405880004BE90245B3453BD0DA467AE902895BE9046742464B463046394600F093FC04460D463046394622462B4600F089FC02460B464046494600F085FC4BE90201224682
:4058C0005AE904892B464AE902454046494600F079FC0F4602460B4606464946404600F06FFC02460B462046294600F06BFCAAF1080B4AE902014BE90267089FBB45C3D148
:40590000039B012B7FF74EAF05980499049D103055E902AB51E904670C1A5B46039052463046394600F04EFC02460B46804689463046394600F044FC02460B46504659463D
:4059400000F040FCDDF810B0039A6BE90201083C9345C4F3C0044BE9028959D0E4B15BE9046742464B463046394600F02BFC04460D46304622462B46394600F021FC0246CA
:405980000B464046494600F01DFC6BE90201039E4BE90245B3453BD0DA467AE902895BE9046742464B463046394600F00BFC04460D463046394622462B4600F001FC0246A0
:4059C0000B464046494600F0FDFB4BE9020122465AE904892B464AE902454046494600F0F1FB0F4602460B4606464946404600F0E7FB02460B462046294600F0E3FBAAF116
:405A0000080B4AE902014BE90267039FBB45C3D1049B039D00201C465E1B014674E9022300F0D0FB05460398083E8442C6F3C0060F463FF4B9AE2EB1284674E9022300F06D
:405A4000C1FB0AE054E902232846394600F0BAFB54E9042300F0B6FB103C0F46039905468C42EFD1069A002A7FF4A2AE0A9E2846059D3946D5E90023C6E90401D5E9024513
:405A8000C6E90023C6E90245A4E6039C002CC0F2E48003994AAC4D1C04EBC5060020C4EB060CACF1080E76E902230146CEF3C00800F088FBA64202460F461BD0B8F1000F7B
:405AC00007D076E9022300F07DFBA64202460F4610D01046394656E9022300F073FB56E904230546284600F06DFB103EA64202460F46EED1069E002E00F09A8007F10043C7
:405B000019463B460A9F1046C7E90001D4E9000100F056FB039A0746002A0E4629DD04EBC205C4EB0508F4E9022300F04BFBA8F10806AC42C6F3C00807460E4619D0B8F175
:405B4000000F07D0F4E9022300F03CFBAC4207460E460ED0D4E902233846314600F032FBD4E9042300F02EFB1034AC4207460E46F0D1069C0CB106F100460A9D3A463346E8
:405B8000C5E9022326E6039A002A63DB561C4AAC04EBC6050020C4EB050CACF1080E75E902230146CEF3C00800F00CFBA54207460E4619D0B8F1000F07D075E9022300F08F
:405BC00001FBA54207460E460ED055E902233846314600F0F7FA55E9042300F0F3FA103DA54207460E46F0D1069A0AB106F100460A9D3A463346C5E90023EBE50024002510
:405C0000BDE506950EAA099D52F82430183DCDF81C800995E3B902EB84060394294656F8040D013C18390028F9D003940991D5E43B4665E700254AAE2F460596B4E52946F4
:405C4000204600F00BFF03990EAA42F82100C5E40394C3E400273E46C6E7002217464AAC48E700BF000000002DE9F04F21F00046B6F1795F85B004460D460F46904699466C
:405C800003DA00F0EBFE00286ED022462B462046294600F049FC22462B4606460F4600F043FC41A3D3E9002382468B463046394600F03AFC3EA3D3E9002300F081FA324622
:405CC0003B4600F031FC3CA3D3E9002300F07AFA32463B4600F028FC39A3D3E9002300F06FFA32463B4600F01FFC37A3D3E9002300F068FA0E9BCDE90001002B39D00023FD
:405D00000022C3F6E0734046494600F00DFCDDE90023CDE902015046594600F005FC02460B46DDE9020100F04BFA32463B4600F0FBFB42464B4600F043FA25A3D3E90023FC
:405D400006460F465046594600F0EEFB02460B463046394600F036FA02460B462046294600F02EFA04460D462046294605B0BDE8F08F02460B463046394600F0D5FB14A3F0
:405D8000D3E9002300F01CFA52465B4600F0CCFB02460B462046294600F014FA04460D46E2E700BFAFF300807CD5CF5A3AD9E53DEB9C2B8AE6E55A3E7DFEB157E31DC73E85
:405DC000D561C119A0012A3FA6F810111111813F495555555555C53F41F0004101F58010C00F7047000000002DE9F843C1F30A58A8F2FF36132E02460B4604460D460F4672
:405E000021DC002E45DB4FF6FF7CC0F20F0C4CFA06F808EA010C5CEA000C10D034A3D3E9002300F0CFF90022002300F00DFE20B1002D3EDB25EA080700243B4622461046CF
:405E40001946BDE8F883332E07DDB6F5806FF6D100F0B8F902460B46F1E7A8F2134C4FF0FF3929FA0CF919EA000FE8D020A3D3E9002300F0A7F90022002300F0E5FD002818
:405E8000DBD0002D1BDB24EA09042F463B462246D5E717A3D3E9002300F094F90022002300F0D2FD0028C8D0002D15DB00242746C3E74FF4801141FA06F6AD19BAE7142EF9
:405EC00008D0C8F58668012308F1030803FA08F00419D8D30135D6E725F00042224300239A42CBF6F07318BF002418BF1F46A4E79C7500883CE4377E0B4661B1B1F1004FE4
:405F000009D04FF6FF72A3F58011C7F6DF72914205D8042070470028F3D10220704703F1FF4101F5E0019142F3D94FF6FF72C0F20F02934201D80320704703F10041914298
:405F4000F9D90022C7F6F072934204D013F5801F01D000207047D0F1010038BF002070470020704700210020C7F6F871704700BF2DE9F041C1F30A58A8F2FF37132F82B031
:405F800002460B4604460D468C464FEAD17635DC002F51DB4FF6FF71C0F20F0141FA07F101EA0300104324D04A0813401C430BD04FF4802141FA07F125EA0205132F0CBFF5
:405FC0004FF0004400240D432246324C2B4604EBC606D6E900452046294600F0F3F8CDE90001DDE9000122462B4600F0E9F802460B461046194602B0BDE8F081332F07DD60
:40600000B7F5806FF5D100F0DDF802460B46F0E7A8F213484FF0FF3121FA08F01042E8D042082242D0D04FF0804343FA08F824EA020444EA0804C7E721F0004050EA020132
:40604000D7D023F07F4525F4700343EA0204614241EA04000F4C050B4FEA5C4E05F4002304EBC601D1E9004543EA4E432046294600F0A8F8CDE90001DDE9000122462B4678
:4060800000F09EF80446024621F000400D4640EAC673AEE788A50000C1F30A532DE9F04104460D4606460F4690467BBB21F0004353EA000C26D000230022C4F2503300F05C
:4060C00033FA43F6B042CFF6FF72904504460D4606460F463BDBC1F30A53363B03EB080040F2FE7290421BDD22462B4628A1D1E9000100F055F826A3D3E9002300F014FAC5
:4061000004460D4620462946BDE8F08140F2FF72934224D003EB080040F2FE729042E3DC002806DD21F0FF4222F4E00545EA0055E8E710F1350F19DA4CF250308045224674
:406140002B46D3DC14A1D1E9000100F029F812A3D3E9002300F0E8F904460D46D2E702460B4600F02FF804460D46CBE721F0FF4525F4E001363041EA0053194600232046A9
:406180000022C3F6904300F0CFF904460D46B9E79C7500883CE4377E59F3F8C21F6EA50103F0004321F0004230B40D46044643EA020130BC704700BF81F0004102E000BFA6
:4061C00083F0004330B54FEA41044FEA430594EA050F08BF90EA020F1FBF54EA000C55EA020C7FEA645C7FEA655C00F0E2804FEA5454D4EB5555B8BF6D420CDD2C4480EAD4
:40620000020281EA030382EA000083EA010180EA020281EA0303362D88BF30BD11F0004F4FEA01314FF4801C4CEA113102D0404261EB410113F0004F4FEA03334CEA133367
:4062400002D0524263EB430394EA050F00F0A780A4F10104D5F1200E0DDB02FA0EFC22FA05F2801841F1000103FA0EF2801843FA05F359410EE0A5F120050EF1200E012ABC
:4062800003FA0EFC28BF4CF0020C43FA05F3C01851EBE37101F0004507D54FF0000EDCF1000C7EEB00006EEB0101B1F5801F1BD3B1F5001F0CD349085FEA30004FEA3C0CEB
:4062C00004F101044FEA445212F5800F80F09A80BCF1004F08BF5FEA500C50F1000041EB045141EA050130BD5FEA4C0C404141EB010111F4801FA4F10104E9D191F0000F95
:4063000004BF01460020B1FA81F308BF2033A3F10B03B3F120020CDA0C3208DD02F1140CC2F10C0201FA0CF021FA02F10CE002F11402D8BFC2F1200C01FA02F120FA0CFC35
:40634000DCBF41EA0C019040E41AA2BF01EB0451294330BD6FEA04041F3C1CDA0C340EDC04F11404C4F1200220FA04F001FA02F340EA030021FA04F345EA030130BDC4F1AF
:406380000C04C4F1200220FA02F001FA04F340EA0300294630BD21FA04F0294630BD94F0000F83F4801306BF81F480110134013D4EE77FEA645C18BF7FEA655C29D094EA53
:4063C000050F08BF90EA020F05D054EA000C04BF1946104630BD91EA030F1EBF0021002030BD5FEA545C05D14000494128BF41F0004130BD14F580043CBF01F5801130BD40
:4064000001F0004545F0FE4141F470014FF0000030BD7FEA645C1ABF194610467FEA655C1CBF0B46024650EA013406BF52EA033591EA030F41F4002130BD00BF90F0000FC5
:4064400004BF0021704730B54FF4806404F132044FF000054FF0000150E700BF90F0000F04BF0021704730B54FF4806404F1320410F0004548BF40424FF000013EE700BF7D
:4064800042004FEAE2014FEA31014FEA02701FBF12F07F4393F07F4F81F06051704792F0000F14BF93F07F4F704730B54FF4607401F0004521F0004120E700BF50EA0102A9
:4064C00008BF704730B54FF000050AE050EA010208BF704730B511F0004502D5404261EB41014FF4806404F132045FEA915C3FF4DCAE4FF003025FEADC0C18BF03325FEA2F
:40650000DC0C18BF033202EBDC02C2F1200300FA03FC20FA02F001FA03FE40EA0E0021FA02F11444C1E600BF70B54FF0FF0C4CF4E06C1CEA11541DBF1CEA135594EA0C0F78
:4065400095EA0C0F00F0DEF82C4481EA030621EA4C5123EA4C5350EA013518BF52EA033541F4801143F4801338D0A0FB02CE4FF00005E1FB02E506F00042E0FB03E54FF084
:406580000006E1FB03569CF0000F18BF4EF0010EA4F1FF04B6F5007F64F5407404D25FEA4E0E6D4146EB060642EAC62141EA55514FEAC52040EA5E504FEACE2EB4F1FD0CEF
:4065C00088BFBCF5E06F1ED8BEF1004F08BF5FEA500E50F1000041EB045170BD06F0004646EA010140EA020081EA0301B4EB5C04C2BFD4EB0C0541EA045170BD41F4801137
:406600004FF0000E013C00F3AB8014F1360FDEBF002001F0004170BDC4F10004203C35DA0C341BDC04F11404C4F1200500FA05F320FA04F001FA05F240EA020001F00042B9
:4066400021F0004110EBD37021FA04F642EB06015EEA430E08BF20EAD37070BDC4F10C04C4F1200500FA04F320FA05F001FA04F240EA020001F0004110EBD37041F1000108
:406680005EEA430E08BF20EAD37070BDC4F1200500FA05F24EEA020E20FA04F301FA05F243EA020321FA04F001F0004121FA04F220EA020000EBD3705EEA430E08BF20EAC2
:4066C000D37070BD94F0000F0FD101F00046400041EB010111F4801F08BF013CF7D041EA060195F0000F18BF704703F00046520043EB030313F4801F08BF013DF7D043EAF1
:406700000603704794EA0C0F0CEA135518BF95EA0C0F0CD050EA410618BF52EA4306D1D181EA030101F000414FF0000070BD50EA410606BF1046194652EA430619D094EAE2
:406740000C0F02D150EA013613D195EA0C0F05D152EA03361CBF104619460AD181EA030101F0004141F0FE4141F470014FF0000070BD41F0FE4141F4780170BD70B54FF0B4
:40678000FF0C4CF4E06C1CEA11541DBF1CEA135594EA0C0F95EA0C0F00F0A7F8A4EB050481EA030E52EA03354FEA013100F088804FEA03334FF0805545EA131343EA126366
:4067C0004FEA022245EA111545EA10654FEA00260EF000419D4208BF964244F1FD0404F5407402D25B084FEA3202B61A65EB03055B084FEA32024FF480104FF4002CB6EBC5
:40680000020E75EB030E22BFB61A754640EA0C005B084FEA3202B6EB020E75EB030E22BFB61A754640EA5C005B084FEA3202B6EB020E75EB030E22BFB61A754640EA9C002D
:406840005B084FEA3202B6EB020E75EB030E22BFB61A754640EADC0055EA060E18D04FEA051545EA16754FEA06164FEAC30343EA52734FEAC2025FEA1C1CC0D111F4801F73
:406880000BD141EA00014FF000004FF0004CB6E711F4801F04BF01430020B4F1FD0C88BFBCF5E06F3FF6AFAEB5EB030C04BFB6EB020C5FEA500C50F1000041EB045170BD62
:4068C0000EF0004E4EEA113114EB5C04C2BFD4EB0C0541EA045170BD41F480114FF0000E013C90E645EA060E8DE60CEA135594EA0C0F08BF95EA0C0F3FF43BAF94EA0C0FEB
:406900000AD150EA01347FF434AF95EA0C0F7FF425AF104619462CE795EA0C0F06D152EA03353FF4FDAE1046194622E750EA410618BF52EA43067FF4C5AE50EA41047FF4D8
:406940000DAF52EA43057FF4EBAE12E74FF0FF3C06E000BF4FF0010C02E000BF4FF0010C4DF804CD4FEA410C7FEA6C5C4FEA430C18BF7FEA6C5C1BD001B050EA410C0CBF2F
:4069800052EA430C91EA030F02BF90EA020F0020704710F1000F91EA030F58BF994208BF90422CBFD8176FEAE37040F0010070474FEA410C7FEA6C5C02D150EA013C07D12D
:4069C0004FEA430C7FEA6C5CD6D152EA033CD3D05DF8040B704700BF8446104662468C461946634600E000BF01B5FFF7B7FF002848BF10F1000F01BD4DF808EDFFF7F4FF7C
:406A00000CBF012000205DF808FB00BF4DF808EDFFF7EAFF34BF012000205DF808FB00BF4DF808EDFFF7E0FF94BF012000205DF808FB00BF4DF808EDFFF7CEFF94BF0120A4
:406A400000205DF808FB00BF4DF808EDFFF7C4FF34BF012000205DF808FB00BF4FEA410212F5001215D211D56FF47873B3EB625212D94FEAC12343F0004343EA505311F050
:406A8000004F23FA02F018BF404270474FF00000704750EA013005D111F0004008BF6FF0004070474FF00000704700BF4FEA4102B2F1E04324BFB3F5001CDCF1FE5C0DD928
:406AC00001F0004C4FEAC0024CEA5070B2F1004F40EB830008BF20F00100704711F0804F21D113F13872BCBF01F00040704741F480114FEA5252C2F11802C2F1200C10FA0D
:406B00000CF320FA02F018BF40F001004FEAC1234FEAD32303FA0CFC40EA0C0023FA02F34FEA4303CCE77FEA625307D150EA01331EBF4FF0FE4040F44000704701F000405D
:406B400040F0FE4040F40000704700BF80F0004002E000BF81F0004142001FBF5FEA410392EA030F7FEA226C7FEA236C6AD04FEA1262D2EB1363C1BFD218414048404140C2
:406B8000B8BF5B42192B88BF704710F0004F40F4000020F07F4018BF404211F0004F41F4000121F07F4118BF494292EA030F3FD0A2F1010241FA03FC10EB0C00C3F12003D0
:406BC00001FA03F100F0004302D5494260EB4000B0F5000F13D3B0F1807F06D340084FEA310102F10102FE2A51D2B1F1004F40EBC25008BF20F0010040EA0300704749004C
:406C000040EB000010F4000FA2F10102EDD1B0FA80FCACF1080CB2EB0C0200FA0CF0AABF00EBC25052421843BCBFD0401843704792F0000F81F4000106BF80F400000132E5
:406C4000013BB5E74FEA41037FEA226C18BF7FEA236C21D092EA030F04D092F0000F08BF0846704790EA010F1CBF0020704712F07F4F04D1400028BF40F00040704712F117
:406C800000723CBF00F50000704700F0004343F0FE4040F4000070477FEA226216BF08467FEA23630146420206BF5FEA412390EA010F40F4800070474FF0000304E000BF56
:406CC00010F0004348BF40425FEA000C08BF704743F0964301464FF000001CE050EA010208BF70474FF000030AE000BF50EA010208BF704711F0004302D5404261EB4101DB
:406D00005FEA010C02BF84460146002043F0B64308BFA3F18053A3F50003BCFA8CF2083AA3EBC25310DB01FA02FC634400FA02FCC2F12002BCF1004F20FA02F243EB02006B
:406D400008BF20F00100704702F1200201FA02FCC2F1200250EA4C0021FA02F243EB020008BF20EADC7070474FF0FF0C1CEAD0521EBF1CEAD15392EA0C0F93EA0C0F6FD021
:406D80001A4480EA010C400218BF5FEA41211ED04FF0006343EA501043EA5111A0FB01310CF00040B1F5000F3EBF490041EAD3715B0040EA010062F17F02FD2A1DD8B3F101
:406DC000004F40EBC25008BF20F00100704790F0000F0CF0004C08BF49024CEA502040EA51207F3AC2BFD2F1FF0340EAC250704740F400004FF00003013A5DDC12F1190F47
:406E0000DCBF00F000407047C2F10002410021FA02F1C2F1200200FA02FC5FEA310040F1000053EA4C0308BF20EADC70704792F0000F00F0004C02BF400010F4000F013AD8
:406E4000F9D040EA0C0093F0000F01F0004C02BF490011F4000F013BF9D041EA0C018FE70CEAD15392EA0C0F18BF93EA0C0F0AD030F0004C18BF31F0004CD8D180EA0100B5
:406E800000F00040704790F0000F17BF90F0004F084691F0000F91F0004F14D092EA0C0F01D142020FD193EA0C0F03D14B0218BF084608D180EA010000F0004040F0FE40D8
:406EC00040F40000704740F0FE4040F4400070474FF0FF0C1CEAD0521EBF1CEAD15392EA0C0F93EA0C0F69D0A2EB030280EA010C49024FEA402037D04FF0805343EA1111D8
:406F000043EA10130CF000408B4238BF5B0042F17D024FF4000C8B4224BF5B1A40EA0C00B3EB510F24BFA3EB510340EA5C00B3EB910F24BFA3EB910340EA9C00B3EBD10F7A
:406F400024BFA3EBD10340EADC001B0118BF5FEA1C1CE0D1FD2A3FF650AF8B4240EBC25008BF20F0010070470CF0004C4CEA50207F32C2BFD2F1FF0340EAC250704740F4A1
:406F800000004FF00003013A37E792F0000F00F0004C02BF400010F4000F013AF9D040EA0C0093F0000F01F0004C02BF490011F4000F013BF9D041EA0C0195E70CEAD1535B
:406FC00092EA0C0F08D142027FF47DAF93EA0C0F7FF470AF084676E793EA0C0F04D14B023FF44CAF08466EE730F0004C18BF31F0004CCAD130F000427FF45CAF31F000434F
:407000007FF43CAF5FE700BF4FF0FF3C06E000BF4FF0010C02E000BF4FF0010C4DF804CD4FEA40024FEA41037FEA226C18BF7FEA236C11D001B052EA530C18BF90EA010F33
:4070400058BFB2EB030088BFC81738BF6FEAE17018BF40F0010070477FEA226C02D15FEA402C05D17FEA236CE4D15FEA412CE1D05DF8040B704700BF844608466146FFE7EB
:407080000FB5FFF7C9FF002848BF10F1000F0FBD4DF808EDFFF7F4FF0CBF012000205DF808FB00BF4DF808EDFFF7EAFF34BF012000205DF808FB00BF4DF808EDFFF7E0FF8A
:4070C00094BF012000205DF808FB00BF4DF808EDFFF7D2FF94BF012000205DF808FB00BF4DF808EDFFF7C8FF34BF012000205DF808FB00BF4FEA4002B2F1FE4F0FD34FF06B
:407100009E03B3EB12620DD94FEA002343F0004310F0004F23FA02F018BF404270474FF00000704712F1610F01D1420205D110F0004008BF6FF0004070474FF000007047CE
:4071400042000ED2B2F1FE4F0BD34FF09E03B3EB126209D44FEA002343F0004323FA02F070474FF00000704712F1610F01D1420202D14FF0FF3070474FF00000704700BF8C
:40718000014B1868704700BF8481FF1F38B50E4D0E4B0024E81A8510AC4205D00B4951F8242090470134F7E703F07EFB0849094A541AA5100024AC4205D0054B53F82400A7
:4071C00080470134F7E738BDB4A80000B4A80000B4A80000BCA8000010B50023934203D0CC5CC4540133F9E710BD82180346934202D003F8011BFAE7704700000EB400B5E7
:407200009CB0029006906FF000401DAB049007904FF402710A4853F8042BADF814104FF6FF71ADF81610006802A9019300F0A2F8029B00221A701CB05DF804EB03B0704789
