:4000000000800020110000005D0800005D08000080B500AF47F2BC63C4F2000344F2FA62C4F2000212681A6000F01CFC10B5054C237833B9044810B10448AFF300800121D0
:40004000217010BD8881FF1F000000006840000008B5064B1BB106480649AFF300800648016811B1054A02B1904708BD00000000684000008C81FF1F0881FF1F0000000029
:4000800080B584B004AF48F25440C1F6FF704FF000014FF0080203F056FB48F2F050C1F6FF704FF000014FF0080203F04CFB48F24C40C1F6FF704FF000014FF0080203F098
:4000C00042FB48F25C50C1F6FF704FF000014FF0080203F038FB01F013F900F005FF01F0D1F901F095FA40F22160C0F2000000F0DBFF62B600F0ECFF44F27000C0F2000062
:4001000000F0AEFF44F27C00C0F2000000F0A8FF44F29000C0F2000000F0A2FF44F2A800C0F2000000F09CFF44F2C000C0F2000000F096FF40F22160C0F2000000F0B4FFCE
:400140000DE148F2AC13C1F6FF731B68002B00F0068100F0BDFF48F2B413C1F6FF734FF000021A6075E048F2B413C1F6FF731A6848F2CC33C1F6FF739B5C562B38D148F29B
:40018000B813C1F6FF731B6803F1010248F2B813C1F6FF731A6048F2B013C1F6FF734FF000021A6040F22160C0F2000000F07CFF48F2B813C1F6FF731B68042B51DD48F230
:4001C0006452C1F6FF7248F2CC33C1F6FF7311461A464FF08003084611461A4603F0AAFA48F2B013C1F6FF734FF001021A6038E048F2B413C1F6FF731A6848F2CC33C1F614
:40020000FF739B5C412B18D148F2B013C1F6FF734FF001021A6048F26452C1F6FF7248F2CC33C1F6FF7311461A464FF08003084611461A4603F07EFA14E048F2B413C1F60F
:40024000FF731B6803F1010248F2B413C1F6FF731A6048F2B413C1F6FF731B68272B82DD00E000BF48F2CC30C1F6FF704FF0000103F096FA024648F2EC53C1F6FF731A606E
:4002800048F2EC53C1F6FF731B681A4648F2CC33C1F6FF73C3F10203D21848F2CC33C1F6FF73D318184644F2CC01C0F2000103F08DFA024648F2E853C1F6FF731A6048F23F
:4002C000B413C1F6FF734FF001021A603EE04FF0000044F2CC01C0F2000103F077FA024648F2E853C1F6FF731A6048F2B413C1F6FF731B68032B02D0072B0DD019E048F28C
:40030000E853C1F6FF731B6848F24C40C1F6FF70194603F052FA0DE048F2E853C1F6FF731B6848F25C50C1F6FF70194603F045FA00E000BF48F2B413C1F6FF731B6803F161
:40034000010248F2B413C1F6FF731A6048F2B413C1F6FF731B68072BB9DD00F0B5F948F2B013C1F6FF731B68002B3FF4EAAE00F0AFFE44F27000C0F2000000F071FE44F29A
:400380007C00C0F2000000F06BFE44F2D000C0F2000000F065FE44F2C000C0F2000000F05FFE40F22160C0F2000000F07DFE00BF48F2A813C1F6FF731B68002BF8D048F259
:4003C000A813C1F6FF731B68002B61D000F080FE48F2CC30C1F6FF7044F2CC01C0F2000103F0F4F9024648F2E853C1F6FF731A6048F2B413C1F6FF734FF001021A603EE076
:400400004FF0000044F2CC01C0F2000103F0DEF9024648F2E853C1F6FF731A6048F2B413C1F6FF731B68032B02D0052B0DD019E048F2E853C1F6FF731B6848F25440C1F644
:40044000FF70194603F0B9F90DE048F2E853C1F6FF731B6848F2F050C1F6FF70194603F0ACF900E000BF48F2B413C1F6FF731B6803F1010248F2B413C1F6FF731A6048F243
:40048000B413C1F6FF731B68052BB9DD00F01CF900F01EFE44F27000C0F2000000F0E0FD44F27C00C0F2000000F0DAFD44F2E400C0F2000000F0D4FD44F2C000C0F200006D
:4004C00000F0CEFD40F22160C0F2000000F0ECFD00BF48F2A813C1F6FF731B68002BF8D000F0F6FD48F2CC30C1F6FF7044F2CC01C0F2000103F06AF9024648F2E853C1F6F1
:40050000FF731A6048F2B413C1F6FF734FF001021A603EE04FF0000044F2CC01C0F2000103F054F9024648F2E853C1F6FF731A6048F2B413C1F6FF731B68032B02D0072B57
:400540000DD019E048F2E853C1F6FF731B6848F24C40C1F6FF70194603F02FF90DE048F2E853C1F6FF731B6848F25C50C1F6FF70194603F022F900E000BF48F2B413C1F640
:40058000FF731B6803F1010248F2B413C1F6FF731A6048F2B413C1F6FF731B68072BB9DD00F092F800F0AAF803461A4648F2E453C1F6FF731A8048F2E453C1F6FF731B8810
:4005C0001AB248F25C53C1F6FF73009348F2F053C1F6FF73019348F25443C1F6FF730293039248F25C40C1F6FF7044F2F801C0F2000148F26452C1F6FF7248F24C43C1F6B6
:40060000FF7303F0A9F848F25C40C1F6FF7001F095F844F21810C0F2000001F08FF86BE580B582B000AF00F0D9FC0346FB71FB79002B44D048F2A413C1F6FF731A6848F249
:40064000CC33C1F6FF73F9799954FB790D2B0BD148F2A413C1F6FF731A6848F2CC33C1F6FF734FF000019954FB790A2B1BD148F2A813C1F6FF731B68012B06D148F2AC130E
:40068000C1F6FF734FF001021A6048F2A813C1F6FF731B68002B06D148F2A813C1F6FF734FF001021A6048F2A413C1F6FF731B6803F1010248F2A413C1F6FF731A6007F1B8
:4006C0000807BD4680BD00BF80B400AF48F2A413C1F6FF734FF000021A6048F2A813C1F6FF734FF000021A6048F2AC13C1F6FF734FF000021A60BD4680BC70472DE9B0437F
:4007000092B000AF4FF000037B874FF40053A7F842304FF00003FB634FF0050000F0F4FE00F00EFF03467B874FF0640000F054FD4FF0050000F0E8FE00F002FF03467B8795
:400740004FF000037B6429E0B7F842301A467B8F13409BB29BB2B7F842209A420AD17B6C4FEA830307F14802D3184FF0010243F8482C09E07B6C4FEA830307F14802D3188F
:400780004FF0000243F8482CB7F842304FEA5303A7F842307B6C03F101037B647B6C0D2BD2DD4FF001037B6437E0F86B02F0E8FA04460D467B6C4FEA830307F14802D3181C
:4007C00053F8483C184602F0C9FA804689467B6CC3F10B03184602F0C1FA02460B464FF000004FF0804100F0F3FF02460B464046494602F019FB02460B462046294602F000
:4008000061F902460B461046194602F0A7FD0346FB637B6C03F101037B647B6C0D2BC4DD3B68012B03D1FB6B83F00043FB63F86B4FF00001C4F2C82102F0E0FD0346184680
:4008400002F02CFF03469BB27B877B8F1BB2184607F14807BD46BDE8B08300BF80B400AFFEE700BF80B586B000AF40F20103C0F200037B6144F21C23C0F200033B6140F24D
:400880000103C0F200037B6144F21C23C0F200033B613BE03B691B68FB603B695B68BB603B699B683B604FF000037B600FE0FB681A68BB681A60BB6803F10403BB60FB6852
:4008C00003F10403FB607B6803F104037B607A683B689A42EBD13B69DB683B604FF000037B600BE0BB684FF000021A60BB6803F10403BB607B6803F104037B607A683B68ED
:400900009A42EFD13B6903F110033B617B69002B0CBF00230123DBB27A6902F1FF327A61002BB7D102F0E0FEFFF7AAFBFEE700BF80B582B000AF4EF60C53CEF200034FF4C3
:400940008062C0F2FA521A604EF61453CEF200034EF61452CEF20002126842F400721A604FF000037B6019E07B68032B07D840F20003C0F200037A6853F8223003E040F61F
:400980005D03C0F2000348F20002C1F6FF72796842F821307B6803F101037B607B682F2BE2D947F2BC63C4F200031B78DAB248F20413C1F6FF731A704EF60853CEF200030E
:4009C00048F20002C1F6FF721A6000F081F948F20013C1F6FF734FF000021A6007F10807BD4680BD80B582B000AF7860396078684FF000013A6802F0A6FE07F10807BD464E
:400A000080BD00BF80B584B000AFF860B9607A60F868B9687A6802F08DFE07F11007BD4680BD00BF80B483B000AF0346FB71FEE780B487B000AF786039604FF000033B6150
:400A40004FF000037B612CE07B694FEA83037A68D3181B68BB60BB68FB73BB6823F0FF03BB6017E03B694FEA43033A68D3181B781A46BB68D3183A694FEA420239688A184F
:400A800052781A703B6903F101033B61FB7B03F1FF33FB73FB7B002BE4D17B6903F101037B617B69192BCFD907F11C07BD4680BC704700BF80B582B000AF4FF48143C4F21F
:400AC00000034FF000021A8044F28203C4F200034FF019021A7044F28403C4F200034FF033021A8044F28603C4F200034FF018021A7044F28803C4F200034FF41C721A80FC
:400B000044F28A03C4F200034FF018021A704FF48643C4F200034FF002021A704FF040234FF008021A704FF48443C4F200034FF003021A7044F2A163C4F200034FF4847292
:400B4000C4F600121278D2B21A7044F22223C4F200034FF008021A8044F22023C4F2000341F251221A804FF00003FB704FF019037B6019E0FB784FEA4303DAB244F22523B0
:400B8000C4F200031B78DBB203F00103DBB21343DBB203F00303FB704FF4F07000F008FB7B6803F1FF337B607B68002B02D0FB78032BDFD17B68002B03D14FF00300FFF7CC
:400BC00031FF44F20403C4F200034FF480721A8044F20403C4F200034FF007021A7044F20603C4F200034FF000021A7044F20803C4F200034FF048021A7044F20403C4F275
:400C000000034FF000021A7044F20103C4F200034FF002021A7044F2A233C4F2000344F2A232C4F200021278D2B242F00702D2B21A7007F10807BD4680BD00BF80B483B0DC
:400C400000AF40F2CF13C4F600131B78FB7145F66E03C4F20003FA7902F00702D2B21A7045F66F03C4F20003FA794FEA1212D2B21A7045F23D13C4F200034FF004021A70B1
:400C800045F24D13C4F200034FF002021A7045F6D023C4F200034FF040021A7045F6D423C4F200034FF020021A7045F65833C4F200034FF040021A7045F67603C4F2000358
:400CC0004FF044021A7007F10C07BD4680BC704780B586B000AF72B644F2E863C4F2000344F2E862C4F200021278D2B242F00402D2B21A704FF00003FB7519E0FA7D134661
:400D00004FEA43039B184FEA430344F22812C0F200029B183B613B691A683B699B889BB210461946FFF75EFEFB7D03F10103FB75FB7D082BE2D94FF00003FB7523E0FA7DDC
:400D400013464FEA83039B184FEA430344F26012C0F200029B18FB60FB681B68BB60FB685B687B60FB681A7A5B7A4FEA032313437B807B88B86879681A46FFF743FEFB7D2E
:400D800003F10103FB75FB7D012BD8D94FF090404FF06801C4F60001FFF74AFE45F64C03C4F2000340F203221A8045F20303C4F2010345F20302C4F201021278D2B242F066
:400DC0000202D2B21A7045F21303C4F2010345F21302C4F201021278D2B242F00202D2B21A7044F2A033C4F2000344F2A032C4F200021278D2B242F04002D2B21A7044F23B
:400E0000C233C4F2000344F2C232C4F200021278D2B242F01002D2B21A704FF4A240C4F2000040F64C01C4F600014FF00A02FFF7E9FD45F2C210C4F2000040F65801C4F67A
:400E400000014FF00802FFF7DDFD45F23210C4F200004FF40661C4F600014FF00802FFF7D1FD45F24210C4F2000040F66801C4F600014FF00802FFF7C5FD44F22233C4F2DC
:400E8000000344F22232C4F200021278D2B242F00802D2B21A704FF49043C4F200034FF001021A70FFF706FE4FF49043C4F200034FF081021A704FF00403C4F208034FF09F
:400EC00001021A70FFF7BAFE44F2B030C4F2000044F2A031C4F200014FF00E02FFF792FD07F11807BD4680BD80B500AF48F2BC13C1F6FF731B78002B08D100F00BF848F228
:400F0000BC13C1F6FF734FF001021A7000F02AF880BD00BF80B400AF46F28543C4F200034FF072021A7046F28243C4F200034FF020021A7046F22543C4F200034FF00702C4
:400F40001A7046F23543C4F200034FF048021A7046F28643C4F200034FF000021A70BD4680BC704780B582B000AF00F02BF90346FB7146F29543C4F2000346F29542C4F283
:400F800000021278D2B242F02002D2B21A7046F29243C4F2000346F29242C4F200021278D2B242F01002D2B21A7046F29643C4F2000346F29642C4F200021278D2B242F003
:400FC0001002D2B21A7000F0CFF8FB79184600F0FDF807F10807BD4680BD00BF80B483B000AF4FF00003FB7146F26243C4F200031B78BB71BB7903F02003002B0DD046F2BA
:401000004243C4F200031B78FB71BB7903F01E03002B02D04FF00003FB71FB79184607F10C07BD4680BC704780B483B000AF0346FB7100BF46F26643C4F200031B78DBB269
:4010400003F00403002BF5D146F24643C4F20003FA791A7007F10C07BD4680BC704700BF80B584B000AF78604FF00003FB8148F2BC13C1F6FF731B78002B11D00AE0FB8961
:401080007A68D3181B781846FFF7CEFFFB8903F10103FB81FB897A68D3181B78002BEED107F11007BD4680BD80B582B000AF786000F04EF8786800F017F84FF0000000F068
:4010C00027F800F039F807F10807BD4680BD00BF80B500AF00F03CF840F65D00C0F2000000F002F880BD00BF80B485B000AF78604EF60853CEF200031B68FB60FB6803F1F0
:4011000044037A681A6007F11407BD4680BC704780B483B000AF0346FB714EF20143CEF20003FA794FEA4212D2B21A7007F10C07BD4680BC704700BF80B400AF4FF4614359
:40114000CEF200034FF002021A60BD4680BC704780B400AF4EF28013CEF200034FF002021A60BD4680BC704780B400AF44F2A233C4F2000344F2A232C4F200021278D2B256
:4011800042F00402D2B21A7044F2B233C4F2000344F2B232C4F200021278D2B242F00402D2B21A70BD4680BC704700BF000000000230800800F0058000BF013800467FF45A
:4011C000FCAF7047EFF3108072B6704780F31088704700BFAFF3008080B582B000AF78600BE048F21813C1F6FF731B681846FFF7DFFF7B68A3F500437B607B68B3F5004F0A
:40120000EFD848F21013C1F6FF731B687A6802FB03F31846FFF7CCFF07F10807BD4680BD80B500AF4FF0010000F080F845F64203C4F2000345F64202C4F200021278D2B299
:4012400042F02002D2B21A7045F64203C4F2000345F64202C4F200021278D2B222F00402D2B21A7045F64203C4F2000345F64202C4F200021278D2B242F00802D2B21A70A0
:4012800045F6D723C4F2000345F6D722C4F200021278D2B222F01802D2B21A7045F6D723C4F2000345F6D722C4F200021278D2B242F01002D2B21A7080BD00BF80B400AFF3
:4012C00044F2A733C4F2000344F2A732C4F200021278D2B242F00402D2B21A7044F2B733C4F2000344F2B732C4F200021278D2B242F00402D2B21A70BD4680BC704700BF51
:4013000080B500AF48F2BE13C1F6FF731B78002B08D1FFF785FF48F2BE13C1F6FF734FF001021A70FFF7CAFF80BD00BF80B483B000AF0346FB7145F64203C4F2000345F68A
:401340004202C4F200021278D2B2D2B222F00302D1B2FA7902F00302D2B20A43D2B2D2B21A70FB79012B16D144F23463C4F200034FF48972C4F600121278D2B21A7044F293
:401380003563C4F200034FF48B72C4F600121278D2B21A7015E044F23463C4F2000340F2B112C4F600121278D2B21A7044F23563C4F2000340F2B912C4F600121278D2B206
:4013C0001A7007F10C07BD4680BC704780B500AF46F28343C4F200034FF01B021A7000F0BFF800F071F800F07FF84FF4C943C4F200034FF000021A7046F28443C4F20003EF
:401400004FF000021A7080BD80B582B000AFFFF7D9FE0346FB7146F29343C4F2000346F29342C4F200021278D2B242F02002D2B21A7046F29043C4F2000346F29042C4F28C
:4014400000021278D2B242F01002D2B21A7046F29443C4F2000346F29442C4F200021278D2B242F01002D2B21A70FB791846FFF7ADFE00F01DF800F021F807F10807BD4691
:4014800080BD00BF80B500AF48F2BF13C1F6FF731B78002B08D1FFF799FF48F2BF13C1F6FF734FF001021A70FFF7AEFF80BD00BF80B400AFBD4680BC704700BF80B400AFD7
:4014C000BD4680BC704700BF80B483B000AF46F26043C4F200031B78FB71FB79184607F10C07BD4680BC704780B483B000AF46F26443C4F200031B78FB71FB79184607F144
:401500000C07BD4680BC704780B483B000AF0346FB8000BF46F26043C4F200031B78DBB203F00403002BF5D046F24043C4F20003FA881A8007F10C07BD4680BC704700BF1B
:4015400080B483B000AF46F25043C4F200031B88FB80FB88184607F10C07BD4680BC704780B582B000AF04E046F25043C4F200031B8846F26443C4F200031B78DBB203F005
:401580002003002BF0D1FFF71DFE0346FB7146F29043C4F2000346F29042C4F200021278D2B242F00102D2B21A7046F29043C4F2000346F29042C4F200021278D2B222F0D9
:4015C0000102D2B21A7046F29143C4F2000346F29142C4F200021278D2B242F00102D2B21A7046F29143C4F2000346F29142C4F200021278D2B222F00102D2B21A70FB79D4
:401600001846FFF7E3FD07F10807BD4680BD00BF80B500AF48F2C013C1F6FF731B78002B08D100F00BF848F2C013C1F6FF734FF001021A7000F02AF880BD00BF80B400AFD9
:4016400046F28753C4F200034FF072021A7046F28743C4F200034FF020021A7046F22453C4F200034FF007021A7046F23453C4F200034FF048021A7046F28553C4F200032E
:401680004FF000021A70BD4680BC704780B582B000AFFFF797FD0346FB7146F29753C4F2000346F29752C4F200021278D2B242F02002D2B21A7046F29743C4F2000346F2ED
:4016C0009742C4F200021278D2B242F01002D2B21A7046F29553C4F2000346F29552C4F200021278D2B242F01002D2B21A7000F049F8FB791846FFF769FD07F10807BD4680
:4017000080BD00BF80B483B000AF0346FB7100BF46F26553C4F200031B78DBB203F00403002BF5D146F24553C4F20003FA791A7007F10C07BD4680BC704700BF80B584B0C0
:4017400000AF78604FF00003FB8148F2C013C1F6FF731B78002B11D00AE0FB897A68D3181B781846FFF7CEFFFB8903F10103FB81FB897A68D3181B78002BEED107F110078B
:40178000BD4680BD80B400AF44F2A233C4F2000344F2A232C4F200021278D2B242F00202D2B21A7044F2B233C4F2000344F2B232C4F200021278D2B242F00202D2B21A7036
:4017C000BD4680BC704700BF21F00041704700BF2DE9F04F8BB01F4680468946164600F07FF9DFF8C0B204469BF900300D46013304D03046394600F0FDFF20B920462946DD
:401800000BB0BDE8F08F4046494600F0F3FF824600282CD1304639460022002301F06CFD0028EBD001239E4A9BF9005000930023C3F6F07301920022CDE906236B1CCDF8CC
:4018400020A0CDE90289CDE904670DD0022D0BD0684601F003F8002800F09380089818B101F03CFF089C0460DDE90645C6E7404649460022002301F03FFD00B33046394610
:401880000022002301F038FD00284ED0844901209BF90050009001910024002000210894CDE90289CDE90467CDE90601002DCFD000230022C3F6F073CDE90623D4E7204636
:4018C000294600F091FF824600285FD0204629460022002301F010FD00288FD04046494600F082FF002889D03046394600F07CFF002883D06A489BF90040002104220190FB
:40190000089100200021022C0092CDE90289CDE90467CDE9060163D0684600F09FFF00285ED0089A002A9FD09AE73046394600F05BFF00283FF462AF304639460022002388
:4019400001F0E4FC00283FF459AF55499BF8005001200024009001910894CDE90289CDE9046700220023002D33D1CDE90623684600F074FF0028D4D101F0B0FE21230360D4
:40198000CFE701F0ABFE2121016067E74046494600F02AFF002899D03046394600F024FF002893D02046294600F024FFE8B93C4A9BF800400123089000930192CDE902898F
:4019C000CDE9046700200021002C5FD1CDE90601CDE7CFF6F073022DCDE90623CCD0C6E701F07CFE222505609BE72D4A9BF90030032400940192CDF820A0CDE90289CDE99B
:401A0000046740464946E3B94FF6FF754FF06044C4F2EF7500220023CDE9064501F076FC002841D19BF90000022805D0684600F015FF00287FF412AF01F050FE222101606D
:401A40000CE700250024C7F6F07500220023CDE9064501F05BFC0028E4D000230022C3F6E0733046394601F0DFF904460D4600F0FDFE22462B4601F03FFC0028D2D1002314
:401A80000022CFF6F073CDE90623CBE702460B4601F0F4FA022CCDE906013FF46DAF66E7744100001C81FF1F00230022C3F6E0733046394601F0B8F904460D4600F0D6FE93
:401AC00022462B4601F018FC0028ABD14FF6FF734FF06042CCF2EF73CDE90623A2E700BF2DE9F04F9A4693462AF00049884614460746024659EA0B0091B01D465946C446BC
:401B000044D0002328F00044C7F6F0739C420FDD04F1404404F5801B5BEA020B3CD14FF0000AC3F6F07A5846514611B0BDE8F08F38D00020C7F6F0708145E9DC00F0B7803F
:401B4000BCF1000FC0F28A80002600292ED10020C7F6F070814500F0AE800021C3F6F071894500F09E80B5F1804F00F0E4830023C3F6E0739D4219D1BCF1000F16DB384678
:401B8000414611B0BDE8F04F00F02ABD4FF0000A8346C3F6F07AC6E7574811B0BDE8F04F00F05EBE002FB3D1C3E70026384641460192CDF800C0FFF707FE019ADDF800C025
:401BC0003ABB0023C7F6F0739C4205D024B10022C3F6F07294421CD1002DC0F2178483468A46BCF1000F9EDA04F1404000F5801256EA020340F0A38458465A4651465346D8
:401C000000F05EFF02460B4601F038FA83468A4689E74FEADC7E0EF1FF3C56EA0C0262D00023C4F2E013994568DD0023C4F2F033994540F300844FF6FF71C3F6EF718C4229
:401C400040F3E083002D48DD29A1D1E9000102460B4601F0E9F883468A4664E74FF6FF76C4F23F36B1453CDC4FF6FF73C3F6EF7399457FF769AF4FEA295640F21340864272
:401C800040F36184C6F58666F31C21FA03F000FA03F68E427FF458AF00F00103C3F1020653E7002DC0F22F84BB46C2463BE700293FF446AF2CE704F1404303F5801050EAC6
:401CC000020300F031834FF6FF71C3F6EF718C4240F39183002DBFF626AF4FF0000BDA4621E7022631E7384641463A46434687E79C7500883CE4377EA8410000B4F5801FD4
:401D000080F2978300230022C4F24033CDF800C001F08AF8DDF800C00C466FF0340524F07F4249F68E01241522F47003A4F2FF37C0F2030143F07F527F198B420F9742F406
:401D4000401440F373834BF27965C0F20B05AB4240F30884791C00250F91A4F580142F460246A748FF002346CDE90423C219D2E90089DDE9040142464B46CDF800C000F06D
:401D80009FFE42464B46CDE90A01DDE9040100F099FE0B4600210246C3F6F071002001F06DF9CDE90C01DDE90C23DDE90A0101F03BF8641044F00053CDE9060103F5002191
:401DC0000020DDE906234D19CDE9082308900022DDE908012B461446CDE9020101F024F802460B46DDE90A0100F06AFE4246CDE90A014B462046294600F062FE02460B4619
:401E0000DDE9040100F05CFE02460B46DDE9020101F00AF802460B46DDE90A0100F050FEDDE90C2301F000F8CDE90401DDE9060102460B4600F0F8FF02460B4604460D4674
:401E400000F0F2FF5CA3D3E90023804689462046294600F0E9FF5AA3D3E9002300F032FE22462B4600F0E0FF57A3D3E9002300F029FE22462B4600F0D7FF55A3D3E9002357
:401E800000F020FE22462B4600F0CEFF52A3D3E9002300F017FE22462B4600F0C5FF50A3D3E9002300F00EFE02460B464046494600F0BAFFDDE9062304460D46DDE902019E
:401EC00000F000FEDDE9042300F0AEFF22462B4600F0F8FD80468946DDE9020102460B4600F0A2FF00230022C4F20803CDE90A0100F0E8FD42464B4600F0E4FD089B0D46A8
:401F00001C46DDE902011A462B4600F08DFF22462B46CDE90201DDE9040100F085FF0023CDE90401002220462946C4F2080300F0C7FDDDE90A2300F0C3FD02460B4640464C
:401F4000494600F0BDFDDDE9062300F06DFF02460B46DDE9040100F0B5FD8046894642464B46DDE9020100F0ADFD1FA3D3E9002308980D46044600F057FF1DA3D3E9002303
:401F8000CDE904012046294600F04EFFDDE90223CDE906012046294600F092FD02460B464046494600F08CFD13A3D3E9002300F03BFF02460B4625E0EF4E454A287ECA3F59
:401FC00065DBC9934A86CD3F01411DA96074D13F4D268F515555D53FFFAB6FDBB66DDB3F033333333333E33F000000E009C7EE3FF5015B14E02F3EBEFD033ADC09C7EE3FB7
:4020000098410000DDE9060100F05CFDAC4BDA190CCA00F057FD04460F980D4600F09EFEA84B8046DF19D7E900238946CDE90623DDE9040122462B4600F044FDDDE90623D7
:4020400000F040FD42464B4600F03CFD089842464B46CDE9020100F033FDDDE9062300F02FFDDDE9042300F02BFD02460B462046294600F025FDDDF800C0013E56EA0C06A9
:402080008046894640F0B08100210020CBF6F071CDE908010024224653465846514600F00FFDDDE9022300F0BFFE554606460F4642464B465846294600F0B6FE02460B467B
:4020C0003046394600F0FEFCDDE9022382468B462046294600F0A8FE04460D465046594622462B4600F0EEFC4FF6FF78C4F28F08414506460F46894640F3208101F13F4148
:4021000001F5E00050EA060340F009825AA3D3E900235046594600F0D5FC2246CDE902012B463046394600F0CBFC02460B46DDE9020101F009F9002840F0F18127F000483D
:402140000026C3F6E076B04500F316814FF00008CDF8088000264AA3D3E9002330463946CDF8008000F060FE2246804689462B463046394600F0A4FC02460B4650465946DC
:4021800000F09EFC40A3D3E9002300F04DFE40A3D3E9002304460D463046394600F044FE02460B462046294600F08CFC06460F4632463B464046494600F084FC42464B46F4
:4021C00004460D4600F07CFC02460B463046394600F076FC224682468B462B462046294600F022FE2CA3D3E9002306460F4600F01BFE2BA3D3E9002300F062FC32463B4647
:4022000000F012FE28A3D3E9002300F05BFC32463B4600F009FE26A3D3E9002300F050FC32463B4600F000FE23A3D3E9002300F049FC32463B4600F0F7FD02460B4620463C
:40224000294600F03DFC06460F4632463B462046294600F0E9FD002280468946304639464FF0804300F02CFC02460B464046494600F004FF524627E0FE822B654715973C3C
:4022800000000000432EE63FEF39FAFE422EE63F396CA80C615C20BED0A4BE726937663EF16BD2C541BDBB3E2CDE25AF6A56113F93BDBE166CC1663F3E5555555555C53F3E
:4022C000884100007841000006460F46204629465B4600F0A9FD52465B4600F0F3FB02460B463046394600F0EBFB22462B4600F0E7FB0B4600210246C3F6F071002000F0A5
:40230000DFFBDDF800C002460CEB0103B3F5801F04460D46C0F23E81DDE9080100F084FD83468A46FFF7FFBB4FF0000A8B46C3F6F07AFFF7F8BB3846414688E44CF6FF3342
:4023400021F00048C4F2900398457FF7F9AE4FF45053C3F66F73CB18034340F0088122462B4600F0ADFB02460B465046594600F0D7FF002840F0FB804FEA2857A7F2FE3205
:402380004FF4801343FA02F303EB0901C1F30A504FF6FF76A0F2FF37C0F20F0646FA07F321F07F4626F47007C0F5826021EA030347F48016C11C46FA01F70022B9F1000FBC
:4023C0000297C0F2E4802046294600F079FB04460D462246504659462B4600F073FB029A0F464FEA0258B5E600230022C3F6F073CDE908234EE6002DBFF66FAC0AF1004A15
:40240000FFF791BB002DBFF668AC1DE40B4600210246C3F6F0710020CDF800C000F02EFEDDF800C083468A46FFF7DBBB00252F4696E4002573E44FF6FE72C3F6EF729442DF
:40244000E0DD0023C3F6F0739C423FF7FBAB00230022C3F6F073CDF800C000F031FB54A3D3E900230D46074600F0DEFC52A3D3E90023804689463846294600F0D5FC2B46DC
:40248000CDE902013A462946384600F0CDFC0023CDE9080100222946C3F6D073384600F0C3FC02460B4646A1D1E9000100F008FB2B463A4600F0B8FC0B4600210246C3F66B
:4024C000E071002000F0FCFA02460B46DDE9080100F0AAFC3CA3D3E9002300F0A5FC02460B46DDE9020100F0EBFA04460D4622462B464046494600F0E5FA0020CDE90201CE
:4025000042464B46AFE500213A4643460020C3F6F07100F0B3FD83468A46FFF704BB2CA3D3E90023DDE9080100F07EFC28A3D3E9002300F079FC83468A46FFF7F4BA012E3A
:402540007FF4F1AA5AE700297FF42FABC6F58263DE1C49FA06F303FA06F0484520D00E46FFF7FBBA4FF480250127FFF7F9BB1AA3D3E90023DDE9080100F056FC16A3D3E975
:40258000002300F051FC83468A46FFF7CCBA7842029018E7029A00F0FFF902460B46BBE603F00101C1F10206FFF7D7BAAFF30080000000604715F73F44DF5DF80BAE543E90
:4025C000555555555555D53FFE822B654715F73F9C7500883CE4377E59F3F8C21F6EA5012DE9F8430027B946C7F6F077C7F6F0790F404F4504460D4602460B460E4680468C
:4026000000F0D480002940F3AE800C1500F0B88026F07F45A4F2FF3725F47006FA0746F4801100F193804FEAD8734FF0000C03EB41037F104FEA4801162562464FF4001036
:40264000161844089E424FEAD17805F1FF354FEA410102DC32189B1B844408EB43031019984202DC1B1A0219A444CE0F60084900013D06EB4303E3D14FF020082C464FF012
:40268000004015E000F08E80CE0F06EB430340084900934208F1FF3804EB00061EDC1BD0CE0F40084900B8F1010806EB43032DD0934204EB0006E5DD06F00049B9F1004F4B
:4026C00006EB00043DD091469B1A8E4288BF013B891B2D184A46D7E78E42E1D806F00049B9F1004F06EB000426D091468E42C2EB030300D9013B891BCE0F2D184900400850
:40270000B8F101084A4606EB4303D1D1194324D14FEA55084FEA6C0505F17F541CF0010F04F5001318BF48F0004803EB0755444620462946BDE8F883002CD6DB02F1010902
:40274000D4E7002CBFDB02F10109BDE74FEAD87202EB41014FEA480865E76B1C31D005F001025519D4E721F000460643E0D079BB0C464FEAD826153C4FEA4858002EF8D0DA
:4027800016F4801320D176000133F102FBD5C3F10101C3F1200228FA02F0641808FA03F8064335E78E4287D91A466DE700F03CFB02460B462046294600F084F904460D461D
:4027C000B6E70CF1010CA5E7202201210023E2E702460B4600F074F902460B4600F04EFC04460D46A4E700BF41F0004101F58010C00F70470B4661B1B1F1004F09D04FF6B6
:40280000FF72A3F58011C7F6DF72914205D8042070470028F3D10220704703F1FF4101F5E0019142F3D94FF6FF72C0F20F02934201D80320704703F100419142F9D90022F9
:40284000C7F6F072934204D013F5801F01D000207047D0F1010038BF002070470020704700210020C7F6F871704700BF2DE9F041C1F30A58A8F2FF37132F82B002460B46C3
:4028800004460D468C464FEAD17635DC002F51DB4FF6FF71C0F20F0141FA07F101EA0300104324D04A0813401C430BD04FF4802141FA07F125EA0205132F0CBF4FF0004442
:4028C00000240D432246324C2B4604EBC606D6E900452046294600F0F5F8CDE90001DDE9000122462B4600F0EBF802460B461046194602B0BDE8F081332F07DDB7F5806F7B
:40290000F5D100F0DFF802460B46F0E7A8F213484FF0FF3121FA08F01042E8D042082242D0D04FF0804343FA08F824EA020444EA0804C7E721F0004050EA0201D7D023F048
:402940007F4525F4700343EA0204614241EA04000F4C050B4FEA5C4E05F4002304EBC601D1E9004543EA4E432046294600F0AAF8CDE90001DDE9000122462B4600F0A0F8DF
:402980000446024621F000400D4640EAC673AEE7B041000000000000C1F30A532DE9F04104460D4606460F4690467BBB21F0004353EA000C26D000230022C4F2503300F055
:4029C00033FA43F6B042CFF6FF72904504460D4606460F463BDBC1F30A53363B03EB080040F2FE7290421BDD22462B4628A1D1E9000100F055F826A3D3E9002300F014FAFC
:402A000004460D4620462946BDE8F08140F2FF72934224D003EB080040F2FE729042E3DC002806DD21F0FF4222F4E00545EA0055E8E710F1350F19DA4CF2503080452246AB
:402A40002B46D3DC14A1D1E9000100F029F812A3D3E9002300F0E8F904460D46D2E702460B4600F02FF804460D46CBE721F0FF4525F4E001363041EA0053194600232046E0
:402A80000022C3F6904300F0CFF904460D46B9E79C7500883CE4377E59F3F8C21F6EA50103F0004321F0004230B40D46044643EA020130BC704700BF81F0004102E000BFDD
:402AC00083F0004330B54FEA41044FEA430594EA050F08BF90EA020F1FBF54EA000C55EA020C7FEA645C7FEA655C00F0E2804FEA5454D4EB5555B8BF6D420CDD2C4480EA0B
:402B0000020281EA030382EA000083EA010180EA020281EA0303362D88BF30BD11F0004F4FEA01314FF4801C4CEA113102D0404261EB410113F0004F4FEA03334CEA13339E
:402B400002D0524263EB430394EA050F00F0A780A4F10104D5F1200E0DDB02FA0EFC22FA05F2801841F1000103FA0EF2801843FA05F359410EE0A5F120050EF1200E012AF3
:402B800003FA0EFC28BF4CF0020C43FA05F3C01851EBE37101F0004507D54FF0000EDCF1000C7EEB00006EEB0101B1F5801F1BD3B1F5001F0CD349085FEA30004FEA3C0C22
:402BC00004F101044FEA445212F5800F80F09A80BCF1004F08BF5FEA500C50F1000041EB045141EA050130BD5FEA4C0C404141EB010111F4801FA4F10104E9D191F0000FCC
:402C000004BF01460020B1FA81F308BF2033A3F10B03B3F120020CDA0C3208DD02F1140CC2F10C0201FA0CF021FA02F10CE002F11402D8BFC2F1200C01FA02F120FA0CFC6C
:402C4000DCBF41EA0C019040E41AA2BF01EB0451294330BD6FEA04041F3C1CDA0C340EDC04F11404C4F1200220FA04F001FA02F340EA030021FA04F345EA030130BDC4F1E6
:402C80000C04C4F1200220FA02F001FA04F340EA0300294630BD21FA04F0294630BD94F0000F83F4801306BF81F480110134013D4EE77FEA645C18BF7FEA655C29D094EA8A
:402CC000050F08BF90EA020F05D054EA000C04BF1946104630BD91EA030F1EBF0021002030BD5FEA545C05D14000494128BF41F0004130BD14F580043CBF01F5801130BD77
:402D000001F0004545F0FE4141F470014FF0000030BD7FEA645C1ABF194610467FEA655C1CBF0B46024650EA013406BF52EA033591EA030F41F4002130BD00BF90F0000FFC
:402D400004BF0021704730B54FF4806404F132044FF000054FF0000150E700BF90F0000F04BF0021704730B54FF4806404F1320410F0004548BF40424FF000013EE700BFB4
:402D800042004FEAE2014FEA31014FEA02701FBF12F07F4393F07F4F81F06051704792F0000F14BF93F07F4F704730B54FF4607401F0004521F0004120E700BF50EA0102E0
:402DC00008BF704730B54FF000050AE050EA010208BF704730B511F0004502D5404261EB41014FF4806404F132045FEA915C3FF4DCAE4FF003025FEADC0C18BF03325FEA66
:402E0000DC0C18BF033202EBDC02C2F1200300FA03FC20FA02F001FA03FE40EA0E0021FA02F11444C1E600BF70B54FF0FF0C4CF4E06C1CEA11541DBF1CEA135594EA0C0FAF
:402E400095EA0C0F00F0DEF82C4481EA030621EA4C5123EA4C5350EA013518BF52EA033541F4801143F4801338D0A0FB02CE4FF00005E1FB02E506F00042E0FB03E54FF0BB
:402E80000006E1FB03569CF0000F18BF4EF0010EA4F1FF04B6F5007F64F5407404D25FEA4E0E6D4146EB060642EAC62141EA55514FEAC52040EA5E504FEACE2EB4F1FD0C26
:402EC00088BFBCF5E06F1ED8BEF1004F08BF5FEA500E50F1000041EB045170BD06F0004646EA010140EA020081EA0301B4EB5C04C2BFD4EB0C0541EA045170BD41F480116E
:402F00004FF0000E013C00F3AB8014F1360FDEBF002001F0004170BDC4F10004203C35DA0C341BDC04F11404C4F1200500FA05F320FA04F001FA05F240EA020001F00042F0
:402F400021F0004110EBD37021FA04F642EB06015EEA430E08BF20EAD37070BDC4F10C04C4F1200500FA04F320FA05F001FA04F240EA020001F0004110EBD37041F100013F
:402F80005EEA430E08BF20EAD37070BDC4F1200500FA05F24EEA020E20FA04F301FA05F243EA020321FA04F001F0004121FA04F220EA020000EBD3705EEA430E08BF20EAF9
:402FC000D37070BD94F0000F0FD101F00046400041EB010111F4801F08BF013CF7D041EA060195F0000F18BF704703F00046520043EB030313F4801F08BF013DF7D043EA28
:403000000603704794EA0C0F0CEA135518BF95EA0C0F0CD050EA410618BF52EA4306D1D181EA030101F000414FF0000070BD50EA410606BF1046194652EA430619D094EA19
:403040000C0F02D150EA013613D195EA0C0F05D152EA03361CBF104619460AD181EA030101F0004141F0FE4141F470014FF0000070BD41F0FE4141F4780170BD70B54FF0EB
:40308000FF0C4CF4E06C1CEA11541DBF1CEA135594EA0C0F95EA0C0F00F0A7F8A4EB050481EA030E52EA03354FEA013100F088804FEA03334FF0805545EA131343EA12639D
:4030C0004FEA022245EA111545EA10654FEA00260EF000419D4208BF964244F1FD0404F5407402D25B084FEA3202B61A65EB03055B084FEA32024FF480104FF4002CB6EBFC
:40310000020E75EB030E22BFB61A754640EA0C005B084FEA3202B6EB020E75EB030E22BFB61A754640EA5C005B084FEA3202B6EB020E75EB030E22BFB61A754640EA9C0064
:403140005B084FEA3202B6EB020E75EB030E22BFB61A754640EADC0055EA060E18D04FEA051545EA16754FEA06164FEAC30343EA52734FEAC2025FEA1C1CC0D111F4801FAA
:403180000BD141EA00014FF000004FF0004CB6E711F4801F04BF01430020B4F1FD0C88BFBCF5E06F3FF6AFAEB5EB030C04BFB6EB020C5FEA500C50F1000041EB045170BD99
:4031C0000EF0004E4EEA113114EB5C04C2BFD4EB0C0541EA045170BD41F480114FF0000E013C90E645EA060E8DE60CEA135594EA0C0F08BF95EA0C0F3FF43BAF94EA0C0F22
:403200000AD150EA01347FF434AF95EA0C0F7FF425AF104619462CE795EA0C0F06D152EA03353FF4FDAE1046194622E750EA410618BF52EA43067FF4C5AE50EA41047FF40F
:403240000DAF52EA43057FF4EBAE12E74FF0FF3C06E000BF4FF0010C02E000BF4FF0010C4DF804CD4FEA410C7FEA6C5C4FEA430C18BF7FEA6C5C1BD001B050EA410C0CBF66
:4032800052EA430C91EA030F02BF90EA020F0020704710F1000F91EA030F58BF994208BF90422CBFD8176FEAE37040F0010070474FEA410C7FEA6C5C02D150EA013C07D164
:4032C0004FEA430C7FEA6C5CD6D152EA033CD3D05DF8040B704700BF8446104662468C461946634600E000BF01B5FFF7B7FF002848BF10F1000F01BD4DF808EDFFF7F4FFB3
:403300000CBF012000205DF808FB00BF4DF808EDFFF7EAFF34BF012000205DF808FB00BF4DF808EDFFF7E0FF94BF012000205DF808FB00BF4DF808EDFFF7CEFF94BF0120DB
:4033400000205DF808FB00BF4DF808EDFFF7C4FF34BF012000205DF808FB00BF4FEA4102B2F1E04324BFB3F5001CDCF1FE5C0DD901F0004C4FEAC0024CEA5070B2F1004FC2
:4033800040EB830008BF20F00100704711F0804F21D113F13872BCBF01F00040704741F480114FEA5252C2F11802C2F1200C10FA0CF320FA02F018BF40F001004FEAC12374
:4033C0004FEAD32303FA0CFC40EA0C0023FA02F34FEA4303CCE77FEA625307D150EA01331EBF4FF0FE4040F44000704701F0004040F0FE4040F40000704700BF4FF0FF0CA3
:403400001CEAD0521EBF1CEAD15392EA0C0F93EA0C0F6FD01A4480EA010C400218BF5FEA41211ED04FF0006343EA501043EA5111A0FB01310CF00040B1F5000F3EBF4900A6
:4034400041EAD3715B0040EA010062F17F02FD2A1DD8B3F1004F40EBC25008BF20F00100704790F0000F0CF0004C08BF49024CEA502040EA51207F3AC2BFD2F1FF0340EA55
:40348000C250704740F400004FF00003013A5DDC12F1190FDCBF00F000407047C2F10002410021FA02F1C2F1200200FA02FC5FEA310040F1000053EA4C0308BF20EADC7087
:4034C000704792F0000F00F0004C02BF400010F4000F013AF9D040EA0C0093F0000F01F0004C02BF490011F4000F013BF9D041EA0C018FE70CEAD15392EA0C0F18BF93EA55
:403500000C0F0AD030F0004C18BF31F0004CD8D180EA010000F00040704790F0000F17BF90F0004F084691F0000F91F0004F14D092EA0C0F01D142020FD193EA0C0F03D12C
:403540004B0218BF084608D180EA010000F0004040F0FE4040F40000704740F0FE4040F4400070474FF0FF0C1CEAD0521EBF1CEAD15392EA0C0F93EA0C0F69D0A2EB030200
:4035800080EA010C49024FEA402037D04FF0805343EA111143EA10130CF000408B4238BF5B0042F17D024FF4000C8B4224BF5B1A40EA0C00B3EB510F24BFA3EB510340EA54
:4035C0005C00B3EB910F24BFA3EB910340EA9C00B3EBD10F24BFA3EBD10340EADC001B0118BF5FEA1C1CE0D1FD2A3FF650AF8B4240EBC25008BF20F0010070470CF0004C3C
:403600004CEA50207F32C2BFD2F1FF0340EAC250704740F400004FF00003013A37E792F0000F00F0004C02BF400010F4000F013AF9D040EA0C0093F0000F01F0004C02BF80
:40364000490011F4000F013BF9D041EA0C0195E70CEAD15392EA0C0F08D142027FF47DAF93EA0C0F7FF470AF084676E793EA0C0F04D14B023FF44CAF08466EE730F0004CFB
:4036800018BF31F0004CCAD130F000427FF45CAF31F000437FF43CAF5FE700BF42000ED2B2F1FE4F0BD34FF09E03B3EB126209D44FEA002343F0004323FA02F070474FF0EE
:4036C0000000704712F1610F01D1420202D14FF0FF3070474FF00000704700BF014B1868704700BF8481FF1F38B50E4D0E4B0024E81A8510AC4205D00B4951F824209047A1
:403700000134F7E700F078FD0849094A541AA5100024AC4205D0054B53F8240080470134F7E738BD0442000004420000044200000C42000010B50023934203D0CC5CC454E5
:403740000133F9E710BD82180346934202D003F8011BFAE7704700000EB400B59CB0029006906FF000401DAB049007904FF402710A4853F8042BADF814104FF6FF71ADF80D
:403780001610006802A9019300F0DCF8029B00221A701CB05DF804EB03B070478481FF1FC9B2034610F8012B12B18A42F9D102E0002918BF002318467047034611F8012BA9
:4037C00003F8012B002AF9D1704700002DE9F041184D07462E688846F46D0CBB502000F083FB2B68F065DA6D9460D86D14600461D96D54608C61DA6DC460D462D86D4C61D9
:403800004463D96D9462CC63DA6D04635464D86D8C63C464D96D14640C77DB6D84645C62044A384613684146DA6D0123BDE8F04100F002B88481FF1FF0B510B9106800289B
:4038400028D004462746387801340E4616F8015B45B1A842FAD1002BF4D11460384604F8013CF0BD234638B91060F0BD17F8015B854206D0002DF9D113F8010B0F461E463D
:40388000F4E718B1002103F8011C00E006461660601EF0BDF0BD2DE9F8439368064689461446002B41D1928912F4906F3DD0616903254D43236927680220FF1A95FBF0F539
:4038C000791C02F48062A94211B2A8BF3D18304679B1294600F010FB8046A0B13A462169FFF728FFA38923F4906040F08002A28113E019462A4600F057FB804668B9304640
:40390000216900F0ADFAA0890C2340F0400233604FF0FF30A281BDE8F88308EB07016561ED1BC4F810802160A560A368002B06DD206800F8019BA2682060511EA16000206E
:40394000BDE8F8832DE9F0479CB003938B890D4603F0800114460AB2064662B12B6953B9402100F0C9FA2860286110B90C213160D3E04020686100272021302209978DF8A1
:4039800029108DF82A2023461F4613F8010B28B9B7EB040A16D04FF000090DE02528F3D1F6E7304614F809102A46FFF774FF013000F0AC8009F10109D145F2DB099901EB4A
:4039C0000A0209923B78002B00F0A08000244FF0FF3004940794059006948DF853401A9407F101094F4F4C4638462178052200F0CDFA09F10109049B30B1C41B012707FAC5
:403A000004F73B430493EDE7D90602D520218DF853101A0702D52B228DF8532020782A2802D0079B27460EE0039A1768101D002F039001DB079704E0794243F002030791D9
:403A4000049301340AE03C46217801373039092903D80A2404FB0313F5E7079322782E2A19D160782A2809D1039802340368021D002B0392B8BF4FF0FF330BE0671C00239A
:403A80003C46217801373039092903D80A2404FB0313F5E70593244F21783846032200F075FA38B1C71B402101FA07F1049B01340B43049314F8011B1C4806228DF828102F
:403AC00000F064FA88B11A4A32B9039FFB1D23F007000830039014E003A90091304604A92A46144BAFF3008007E003A8009004A930462A460F4B00F08FF8B0F1FF3F8046E1
:403B000004D0099A02EB080109913CE7AB8903F0400002B20AB9099801E04FF0FF301CB0BDE8F087C2410000C8410000CC41000000000000973800002DE9F0471546994636
:403B40008A680B6980469A42A8BF13462B6091F843000C46DDF820A008B1591C29602668B20602D52A68931C2B60206810F0060618D094F8437020683E1C18BF012683067B
:403B80001AD5A119302281F8432094F84530023681F8443010E04046617E4A46D047013006D00136E1682A688B1A9E42F3DBE0E74FF0FF30BDE8F0870027B74209DAE11952
:403BC000404691F843104A46D0470130F0D00137F3E721682868E66801F00602042A08BFC0EB06052369A6680CBF25EAE57500259E42C4BFC3EB0603ED180026AE4207DAA5
:403C00004046A17E4A46D0470130D1D00136F5E70020BDE8F08700002DE9F0430C46257E85B06E2D9046074699460C9904F1430200F0AA8012D8632D24D009D8002D00F0A2
:403C4000BB80582D40F0CB8084F84550824D57E0642D20D0692D40F0C2801CE0732D00F0AF8009D86F2D2FD0702D40F0B880256845F0200626603FE0752D25D0782D40F034
:403C8000AE8039E0086804F14206021D0A60016884F84210A7E020680B6810F0800F02D01E1D0E6008E003F1040510F0400F0D6002D0B3F9001000E0196800293CDA2D20A8
:403CC000494284F8430037E025680E6815F0800F02D0331D0B6007E006F1040015F0400F086001D0318800E03168267E5A4D6F2E14BF0A2308231BE07820584D84F8450092
:403D000020680B6810F0800F03F104060E6003D1410601D5198800E01968C60744BF40F02000206019B9206820F0200323601023002084F8430001E0474D0A236668002E3A
:403D4000A66003DB206820F00400206001B96EB104F14200B1FBF3FE03FB1E11695C064600F8011971460029F4D100E01646921B082B22613CD12368D80739D560689042E3
:403D800036DC511C616033E026680B6816F0800F05D01E1D0E601968606908600CE003F1040016F0400F086003D018686369038002E061691E68316000232361164617E0EA
:403DC0000E68321D0A603668304600F021F963682061984288BF23612069606005E004F1420684F8425001232361002184F84310CDF800903846214603AA4346FFF79CFE74
:403E0000013002D14FF0FF3022E000252269954207DA3846715D4246C8470130F2D00135F4E72168890705D4E06803998842B8BF08460DE00025E068039BC21A9542F3DAE2
:403E40003846617E4246C8470130DBD00135F2E705B0BDE8F08300BFD3410000E441000030B500293CD051F8042C0B1F1D49002AB8BF9B180A6812B95A600B6030BD934203
:403E80000ED219685818904203D15A5889184268196014485A60036030BD994203D80A4651680029F9D1146815199D420AD118682318D0188842136012D108681B181360C0
:403EC0004B680CE002D90C23036030BD18681C188C4203D10C684968001918605960536030BD00BFC481FF1F024B0146186800F003B800BF8481FF1F70B5CD1C25F0030576
:403F000008350C2D38BF0C25002D06462DDB8D422BD31D4B1B681C469CB12268501B0DD40B2802D92060241817E0A34203D16068154A10601DE0616859601AE02346646866
:403F4000EAE72946304600F053F8431C01460CD0CC1C24F003048C4201D1256009E03046611A00F045F80130F7D10C203060002070BD04F10B01231D21F00700C31A02D095
:403F80005A42E25070BD70BDC481FF1F10B5C9B2034682189342184604D0047801338C42F8D100E0002010BDF8B5064615460C4621B91146BDE8F840FFF79EBF1AB9FFF768
:403FC0004FFF2C4612E000F02BF8A8420ED230462946FFF791FF074638B121462A46FFF7A9FB30462146FFF73BFF3C462046F8BD38B5064C002305460846236000F01AF8F6
:40400000431C02D1216801B1296038BDF885FF1F034613F8012B002AFBD1181A0138704751F8040C002802DA04390B58C018043870470000094A13686BB118186946884207
:4040400002D8106018467047054B0C221A604FF0FF3318467047034B1360EEE7C881FF1FF885FF1F0086FF1F00000000000000002450414D54580D0A000000002450414D60
:4040800054432C454E2C414C4C2C300D0A0000002450414D54432C454E2C524D432C312C35300D0A000000002450414D54432C454E2C4D57442C312C35300D0A0000000056
:4040C0002450414D54582C310D0A00002C0000002450414D54432C454E2C4D44412C312C350D0A002450414D54432C454E2C4D57442C312C350D0A0041542D57534D4F53AB
:40410000543D25732C25732C25732C25732C25732C25640D0A00000041542D575345504F46460D0A00000000105100402000505100402000F051004010008000014000046F
:4041400000050140000B00140140000800400140000A004C014000020050014020000000000001404C070048800080040140CC0700488000706F77000000000000000000B4
:404180000000004003B8E23F000000000000000006D0CF43EBFD4C3E000000000000F03F000000000000F83F0000000000000000000000000000304300000000000030C3BD
:4041C0004300232D302B2000686C4C006566674546470030313233343536373839414243444546003031323334353637383961626364656600000000F8B500BFF8BC08BCA5
:404200009E4670475100000031090000F8B500BFF8BC08BC9E4670472D000000304200000881FF1F8000000078040000000000000000000000366E01C05D000018000000BD
:404240000000E02E010000000000000000000000000000000000000000000000000000000000000000000000C041000000000000000000000000000000000000000000002E
:4042800000000000000000000000000000000000000000000000000000000000000000000000000000000000000000002081FF1F000000000000000000000000000000003F
:4042C00000000000000000000000000000000000000000000000000000000000000000000000000000000000000000000000000000000000000000000000000000000000BE
:40430000000000000000000000000000000000000000000000000000000000000000000000000000000000000000000000000000000000000000000000000000000000007D
:40434000000000000000000000000000000000000000000000000000000000000000000000000000000000000000000000000000000000000000000000000000000000003D
:4043800000000000000000000000000000000000000000000000000000000000000000000000000000000000000000000000000000000000000000000000000000000000FD
:020000040003F7
:0200000480007A
:400000000852004005640040026500402600014036010140580201404D0301400F0401403E05014062060140470701400109014065140140411501404716014040170140E9
:40004000094001401141014005420140054301400246014003470140054801400949014005500140015101400008012A181019122004210C248064048238831B8572860F2D
:400080008738850F87729002920DA009A206A403A60CA805AA0AB00FBA02C024C105C260C403C5B0C802C93FCAFFCBFFCC23CED0CF08D004D804DA04DF01E2C0E440E50152
:4000C000E610E711E8C0E901EB11EC40ED01EE40EF01009A0101020108180AA40E801140126814401728181019401A401B101C401E8020022228233828182A41300832A077
:4001000039413B104088422044404620472049044A884B404E404F605210530859145A405B026140844886208740C00FC21EC47FCA0FCC0ECE0DD0E7D23CD60FD80803018F
:4001400007020B0212021C041F012001250429042D043002310433013401350236043E503F14403441064205440247EC483049FF4AFF4BFF4C624DA04EF04F41500C54184C
:400180005604580459045A045B045C225D225F016640670269106A306B106D106E106F12801B8404852486708748892E8A018B518C1B9240940495709668981B99199B2214
:4001C0009C049D049E1AA422A604A81BAC1AAE01B060B378B401B507B61EB908BA80BB20BE10D602D72CD804D904DB04DF01008402400308052006040A850B100F421008D4
:4002000011401220150119201A811E4A200422182480250526102D102F2232A83603374038043B103C223F08441045114C044D80540157045F026040624063016540662298
:40024000684C69406A0473018242841085C0861089028A0890409310954096249A109E40A2A0A308A44CA880AA20AB12B510B680C00FC29FC417CA70CC1ECEE6D0E0D23049
:40028000D680D8B1E280E680240225012E0130023201330135013E013F045440580459045B045C115F010488054007140C150E250F401140122016811728190A1C201E8568
:4002C0002110220424102610275229042C042E8534013540360837243C103E4A45084F0254025E80600262146D186F22760B7728908092409408951197409A149C109D02C9
:400300009F42A206A308A410A510A723B504B620C0E0C2F0C4F5CAF2CCF0CEF0D040D610D80E02270503071408300A031002131E1513170C19091B101C0824302513260563
:4003400027042816300832303407350F371038083A203B203E043F404035410245EC470B481349FF4AFF4BFF4EF04F44500C5401580459045A045B045C225D225F0166C012
:400380006A406B02808084E78B019001920E930194449631A4E7AC22AE51B007B260B480B501B618BE40BF10C056C102C203C401C6ECC80CC9FFCAFFCBFFCC62CDA0CEF088
:4003C000CF41D00CD418D604D804D904DA04DB04DC01DD11DF01E640E702E910EA30EB10ED10EE10EF12000A0511060408200A900B040C020F0211C41718180119201A90F7
:400400001D191F202004264027082F203201350137183B203F044001420443084604470849A04D014E024F045140531056085A015C205D015E8860846140804081108B4096
:40044000917092089501974099089D049E80A002A104A206A301A518A628A940B002B308C05CC29CC465CA40CCE1CE44D06ED21CD6F1D80DE22004100510060C0A100B1EDC
:400480000E03101C111112021304140C15071611171819071B08201428092A10301F311C330339083B023F04400345014705481149FF4A074BFF4C404D204EF04F055008B7
:4004C000580459045A045C115D015F01604061A8624063208102838584408537881389378A2C8C808D118F62941395249664975298039A14A049A108A210AA7EB010B1C00C
:40050000B268B330B40FB508B680B707BA28BE41BF11C026C103C5ECC6C0C7B0C82BC9FFCAFFCBFFCEF0CF44D00CD401D804D904DA04DB04DC21DD11DF01E6C0EA40EB0273
:40054000004002040310044905100680090A0D080F08100411021404152218401C021D181E4021072481260C27082D01311A33103604380839203C013D183F40410445081C
:40058000471049044D014E044F0850045204550157105D015E405F18633084018B4091309208934094809D049E80A104A608C0E7C26CC45ACA80CC47CEF6D062D220D6F091
:4005C000E22005050B18110A13E41524174319871A011B30252327CC2D802E012F0433E0351F36013B083E40580459045C205F01801F81108260851889088A638C738D2406
:400600008E0C90039140945C951C962397E2987F99FF9C019D60A008A11CA3E1A404A704A80CAB63AC02ADE7AF18B02CB180B24CB31FB410B60FB760B902BA82BB28BE1074
:40064000D602D711D804D904DB04DC11DD10DF0101A209680A840F0810A81202158019921B0C1D4021282201230125102620271029AA2C022F2031283242350137183828DB
:4006800039403A023D203E093F0159106805690470BC720282128D1091F09298934094809504960799299A089B089DC49E809F10A002A144A320A405A628A708B080C00B25
:4006C000C24FC48FCA5FCCEFCE6FD604E610EA200D203010351056025B80C280CC30D480D6205402584060108010811088028A029C109D109E029F80A920D480D620D84056
:40070000E6A0E82003209A029C509F80C0109A029C509F80AB20EC200308C0028B08A308E2048F809A029C409F80B01051016602844089019A029C40D480D880E610000793
:4007400008050A0710061A06000F0000043800C080000400012100D88498000260000000560209988413006400020000849A0000079838020AFC1003049A800008007F0F64
:40078000801302E008000088000051006205400003CEF00D1BFFFFFF02007008040000000900000004040404000000010000C00040011011C0010011400140010000000048
:4007C000000000000000000000000000001000007F08000002FF000000006304012400005C40230073180C001F006063031C00E104E700180C1C00E20860000010804C004C
:400800000F1F2C600002A02800000100030000000010005022FF07FF4020F0050800000000000210040404042222000140A84020000000000000000000000000000000009D
:400840000000000000000000000000000200002A2A002A000000000004000000000000000012120012000400800C0C000C0002000000000000000000000000000000000014
:400880000000000000000000000000000000000000000000000000000000000000000000000000000000000000000000000000000000000000000000000000000000000038
:4008C00000000000000000000000000000000000000000000000000000000000000000000000000000000000000000000000000000000000000000000000000000000000F8
:4009000000000000000000000000000000000000000000000000000000000000000000000000000000000000000000000000000000000000000000000000000000000000B7
:400940000000000000000000000000000000000000000000000000000000000000000000000000000000000000000000000000000000000000000000000000000000000077
:0200000490006A
:0400000000004005B7
:0200000490105A
:04000000BC90ACAF55
:0200000490303A
:02000000AAE272
:0200000490402A
:4000000000000000000000000000000000000000000000000000000000000000000000000000000000000000000000000000000000000000000000000000000000000000C0
:400040000000000000000000000000000000000000000000000000000000000000000000000000000000000000000000000000000000000000000000000000000000000080
:400080000000000000000000000000000000000000000000000000000000000000000000000000000000000000000000000000000000000000000000000000000000000040
:4000C0000000000000000000000000000000000000000000000000000000000000000000000000000000000000000000000000000000000000000000000000000000000000
:0200000490501A
:0C00000000012E12306900012E30DB4B95
:00000001FF