:400000000080002011000000CD010000CD01000080B500AF47F2BC63C4F2000344F2FA62C4F2000212681A6000F0D4F810B5054C237833B9044810B10448AFF3008001214A
:40004000217010BD2881FF1F000000005823000008B5064B1BB106480649AFF300800648016811B1054A02B1904708BD00000000582300002C81FF1F0881FF1F0000000043
:4000800080B584B000AF00F003FE01F09BFE62B63B46184600F004F84FF00003FB73F7E780B586B000AF78604FF000033B7400F00DFE4FF0000001F0A3FE4FF0640001F0F9
:4000C000F3FD4FF00003FB7528E04FF0000000F011FE0346002B19D000F036FE0346184600F07AFE0346BB82BB8A184601F054FF034618464FF00001C4F2482102F058F8D3
:400100000346FB604FF001033B740AE04FF0050001F0CAFDFB7D03F10103FB75FB7D632BD3D94FF0010001F06BFE4FF0640001F0BBFD4FF00003FB753AE04FF0000000F0D0
:40014000D9FD0346002B2BD000F0FEFD0346184600F042FE0346BB82BB8A184601F01CFF034618464FF00001C4F2F02101F06CFF034618464FF48041C4F29C5102F018F8E9
:40018000034618464FF00001C4F2202101F052FE0346BB603B7C03F00103DBB23B740AE04FF0050001F080FDFB7D03F10103FB75FB7D632BC1D97B6807F1080207CA83E895
:4001C0000700786807F11807BD4680BD80B400AFFEE700BF80B586B000AF40F20103C0F200037B6142F2C433C0F200033B6140F20103C0F200037B6142F2C433C0F2000336
:400200003B613BE03B691B68FB603B695B68BB603B699B683B604FF000037B600FE0FB681A68BB681A60BB6803F10403BB60FB6803F10403FB607B6803F104037B607A68A6
:400240003B689A42EBD13B69DB683B604FF000037B600BE0BB684FF000021A60BB6803F10403BB607B6803F104037B607A683B689A42EFD13B6903F110033B617B69002B72
:400280000CBF00230123DBB27A6902F1FF327A61002BB7D102F028F8FFF7F2FEFEE700BF80B582B000AF4EF60C53CEF200034FF48062C0F2FA521A604EF61453CEF20003E7
:4002C0004EF61452CEF20002126842F400721A604FF000037B6019E07B68032B07D840F20003C0F200037A6853F8223003E040F2CD13C0F2000348F20002C1F6FF72796898
:4003000042F821307B6803F101037B607B682F2BE2D947F2BC63C4F200031B78DAB248F20413C1F6FF731A704EF60853CEF2000348F20002C1F6FF721A6000F009FA48F2E3
:400340000013C1F6FF734FF000021A6007F10807BD4680BD80B582B000AF7860396078684FF000013A6801F0EEFF07F10807BD4680BD00BF80B584B000AFF860B9607A60AF
:40038000F868B9687A6801F0D5FF07F11007BD4680BD00BF80B483B000AF0346FB71FEE780B487B000AF786039604FF000033B614FF000037B612CE07B694FEA83037A683F
:4003C000D3181B68BB60BB68FB73BB6823F0FF03BB6017E03B694FEA43033A68D3181B781A46BB68D3183A694FEA420239688A1852781A703B6903F101033B61FB7B03F18F
:40040000FF33FB73FB7B002BE4D17B6903F101037B617B690C2BCFD907F11C07BD4680BC704700BF80B582B000AF4FF48143C4F200034FF000021A8044F28203C4F2000356
:400440004FF050021A704FF48240C4F200004FF06C01C4F600014FF00402FFF78BFF4FF48643C4F200034FF002021A704FF040234FF008021A704FF48443C4F200034FF071
:4004800003021A7044F2A163C4F200034FF48472C4F600121278D2B21A7044F22223C4F200034FF008021A8044F22023C4F2000341F251221A804FF00003FB704FF019038C
:4004C0007B6019E0FB784FEA4303DAB244F22523C4F200031B78DBB203F00103DBB21343DBB203F00303FB704FF4F07001F0BCFB7B6803F1FF337B607B68002B02D0FB7806
:40050000032BDFD17B68002B03D14FF00300FFF741FF44F20403C4F200034FF480721A8044F20403C4F200034FF007021A7044F20603C4F200034FF000021A7044F20803F2
:40054000C4F200034FF048021A7044F20403C4F200034FF000021A7044F20103C4F200034FF002021A7044F20B03C4F200034FF004021A7044F2A233C4F2000344F2A23294
:40058000C4F200021278D2B242F00102D2B21A7044F2A133C4F2000344F2A132C4F200021278D2B242F00102D2B21A7044F2A033C4F2000344F2A032C4F200021278D2B2CD
:4005C00062F07F02D2B21A7007F10807BD4680BD80B483B000AF40F2CF13C4F600131B78FB7145F66E03C4F20003FA7902F00702D2B21A7045F66F03C4F20003FA794FEAEA
:400600001212D2B21A7045F60333C4F200034FF040021A7045F67603C4F200034FF044021A7007F10C07BD4680BC704780B483B000AF0346FB71FB79012B37D8FA79FB7975
:40064000D318FB71FA7942F25C33C0F2000353F82220F97942F25C33C0F2000353F821301978F87942F26C33C0F200031B5C0B43DBB21370FB7903F10103FB71FA7942F247
:400680005C33C0F2000353F82220F97942F25C33C0F2000353F821301978F87942F26C33C0F200031B5C0B43DBB2137007F10C07BD4680BC704700BF80B483B000AF034665
:4006C000FB71FB79012B3DD8FA79FB79D318FB71FA7942F25C33C0F2000353F82220F97942F25C33C0F2000353F821301978F87942F26C33C0F200031B5C6FEA0303DBB2B0
:400700000B40DBB21370FB7903F10103FB71FA7942F25C33C0F2000353F82220F97942F25C33C0F2000353F821301978F87942F26C33C0F200031B5C6FEA0303DBB20B4050
:40074000DBB2137007F10C07BD4680BC704700BF80B582B000AF72B644F2E863C4F2000344F2E862C4F200021278D2B242F00402D2B21A704FF00003FB7119E0FA79134632
:400780004FEA43039B184FEA430342F27032C0F200029B183B603B681A683B689B889BB210461946FFF7D6FDFB7903F10103FB71FB79072BE2D94FF090404FF03401C4F684
:4007C0000001FFF7EDFD45F68303C4F200034FF00A021A7045F20303C4F2010345F20302C4F201021278D2B242F00202D2B21A7045F21303C4F2010345F21302C4F201027F
:400800001278D2B242F00202D2B21A7044F2A033C4F2000344F2A032C4F200021278D2B242F04002D2B21A7044F2C233C4F2000344F2C232C4F200021278D2B242F010023C
:40084000D2B21A7045F20210C4F200004FF06401C4F600014FF00802FFF78CFD44F22233C4F2000344F22232C4F200021278D2B242F00802D2B21A704FF49043C4F2000397
:400880004FF001021A70FFF7CDFD4FF49043C4F200034FF081021A704FF00403C4F208034FF001021A70FFF793FE44F2B030C4F2000044F2A031C4F200014FF00E02FFF768
:4008C00059FD07F10807BD4680BD00BF80B582B002AF48F20C13C1F6FF734FF001021A7048F24413C1F6FF734FF000021A704FF0100001F05DF84FF0100001F087F94FF01D
:400900001D004FF0070101F037FA45F69603C4F200034FF007021A7045F69703C4F200034FF000021A7045F69E03C4F200034FF000021A7045F60733C4F2000345F6073277
:40094000C4F200021278D2B242F01802D2B21A7045F69303C4F200034FF000021A7045F68833C4F200034FF000021A7045F68933C4F200034FF000021A704FF4B143C4F220
:4009800000034FF00A021A7045F68103C4F200034FF000021A7045F68303C4F200034FF000021A7045F68803C4F200034FF05B021A7045F68903C4F200034FF05E021A7089
:4009C00045F68D03C4F200034FF000021A7044F60163C4F200034FF014021A704FF0010300934FF0060047F602714FF400424FF0100300F0A3FD4FF0020300934FF0040026
:400A000049F2DA014FF400424FF0100300F096FD4FF0030300934FF0040049F2DA014FF400424FF0100300F089FD4FF0040300934FF0040049F2DA014FF400424FF01003BF
:400A400000F07CFD44F60E63C4F2000348F20C12C1F6FF721278D2B202F1FF3248F24811C1F6FF714FEA82028A1892781A7044F60C63C4F2000348F20C12C1F6FF721278DE
:400A8000D2B202F1FF3148F24812C1F6FF7232F821201A8048F20C13C1F6FF731B78DBB2184600F0BBF9BD4680BD00BF80B582B000AF01F0E3F80346FB7148F20C13C1F684
:400AC000FF731B78BB7144F2AA33C4F2000344F2AA32C4F200021278D2B242F00102D2B21A7044F2AA33C4F2000344F2AA32C4F200021278D2B242F01002D2B21A7044F2B2
:400B0000BA33C4F2000344F2BA32C4F200021278D2B242F00102D2B21A7044F2BA33C4F2000344F2BA32C4F200021278D2B242F01002D2B21A7044F2F863C4F2000344F24E
:400B4000F862C4F200021278D2B242F00202D2B21A7044F2F963C4F2000344F2F962C4F200021278D2B242F00202D2B21A7045F69103C4F2000345F69102C4F20002127893
:400B8000D2B242F00302D2B21A704FF0030001F0AFF844F2F863C4F2000344F2F862C4F200021278D2B222F00202D2B21A7044F2F963C4F2000344F2F962C4F200021278B0
:400BC000D2B222F00202D2B21A7045F67703C4F2000345F67702C4F200021278D2B242F00602D2B21A7045F68203C4F200034FF07A021A7044F2A133C4F2000344F2A13293
:400C0000C4F200021278D2B242F00102D2B21A7044F2B133C4F2000344F2B132C4F200021278D2B242F00102D2B21A7044F2A233C4F2000344F2A232C4F200021278D2B222
:400C400042F00102D2B21A7044F2B233C4F2000344F2B232C4F200021278D2B242F00102D2B21A704EF28023CEF200034FF000521A604FF46143CEF200034FF000521A60D4
:400C8000FB79184600F0FEFF07F10807BD4680BD80B500AF48F24613C1F6FF731B78002B10D148F24713C1F6FF731B78DBB2002B01D1FFF70BFE48F24613C1F6FF734FF01B
:400CC00001021A70FFF7F2FE80BD00BF80B400AF4FF49C43C4F200034FF49C42C4F200021278D2B242F00102D2B21A70BD4680BC704700BF80B485B000AF0346FB7148F2E1
:400D00004513C1F6FF731B78DBB2002B06D048F24413C1F6FF731B78FB7308E044F60163C4F200031B78DBB203F00103FB73FB7B012B02D0FB79002BE1D0FB7B184607F102
:400D40001407BD4680BC704780B483B000AF44F61463C4F200031B78DBB203F003037B717B79012B06D844F61063C4F200031B88FB801AE044F61063C4F200031B78DBB2DB
:400D8000FB8044F61163C4F200031B78DBB24FEA03239AB2FB881343FB807B79032B04D144F61263C4F200031B7848F24513C1F6FF731B78DBB2002B06D048F24413C1F61C
:400DC000FF734FF000021A70FB881BB2184607F10C07BD4680BC704780B485B000AF786048F25C13C1F6FF731B687A68D31A7B607B684FF47A7202FB03F248F25813C1F6B8
:400E0000FF731B6892FBF3F3FB81FB891BB2184607F11407BD4680BC704700BF80B582B000AF0346FB7148F24513C1F6FF734FF000021A70FB79012B40F0DC804FF49C43B8
:400E4000C4F200034FF038021A7044F60263C4F200034FF004021A7044F60363C4F200034FF007021A7044F60463C4F200034FF000021A7044F60563C4F200034FF00002A3
:400E80001A7044F60663C4F200034FF03F021A7044F60863C4F200034FF000021A7044F60963C4F200034FF000021A7044F60A63C4F200034FF000021A7044F61463C4F25D
:400EC00000034FF001021A7045F68403C4F200034FF050021A7045F68503C4F200034FF007021A7045F68603C4F200034FF029021A7045F68703C4F200034FF000021A7085
:400F000045F68A03C4F200034FF055021A7045F68B03C4F200034FF05A021A7045F68C03C4F200034FF000021A7045F68E03C4F200034FF000021A7045F68F03C4F2000345
:400F40004FF000021A7045F69003C4F200034FF00A021A7045F69103C4F200034FF043021A704FF0440000F0B7FB45F69403C4F200034FF058021A7045F69503C4F2000355
:400F80004FF000021A7045F69A03C4F200034FF001021A7045F69B03C4F200034FF001021A7045F69C03C4F200034FF000021A7045F69D03C4F200034FF00A021A7048F2AA
:400FC0005813C1F6FF7341F2D5421A604FF02D004FF0010100F0ECFB4FF0BA004FF0010100F014FD4FF01D0041F28171C0F2000100F092FEFB79022B40F0DC804FF49C43D7
:40100000C4F200034FF038021A7044F60263C4F200034FF004021A7044F60363C4F200034FF007021A7044F60463C4F200034FF000021A7044F60563C4F200034FF00002E1
:401040001A7044F60663C4F200034FF03F021A7044F60863C4F200034FF000021A7044F60963C4F200034FF000021A7044F60A63C4F200034FF000021A7044F61463C4F29B
:4010800000034FF001021A7045F68403C4F200034FF050021A7045F68503C4F200034FF027021A7045F68603C4F200034FF02C021A7045F68703C4F200034FF000021A70A0
:4010C00045F68A03C4F200034FF055021A7045F68B03C4F200034FF05A021A7045F68C03C4F200034FF005021A7045F68E03C4F200034FF001021A7045F68F03C4F200037E
:401100004FF011021A7045F69003C4F200034FF019021A7045F69103C4F200034FF097021A704FF0440000F0D7FA45F69403C4F200034FF058021A7045F69503C4F2000300
:401140004FF000021A7045F69A03C4F200034FF001021A7045F69B03C4F200034FF001021A7045F69C03C4F200034FF000021A7045F69D03C4F200034FF00A021A7048F2E8
:401180005813C1F6FF734FF4FA421A604FF008004FF0010100F00CFB4FF025004FF0010100F034FC4FF01D0041F28D71C0F2000100F0B2FDFB79032B40F0DC804FF49C432F
:4011C000C4F200034FF038021A7044F60263C4F200034FF004021A7044F60363C4F200034FF007021A7044F60463C4F200034FF000021A7044F60563C4F200034FF0000220
:401200001A7044F60663C4F200034FF03F021A7044F60863C4F200034FF000021A7044F60963C4F200034FF000021A7044F60A63C4F200034FF000021A7044F61463C4F2D9
:4012400000034FF001021A7045F68403C4F200034FF050021A7045F68503C4F200034FF027021A7045F68603C4F200034FF02C021A7045F68703C4F200034FF000021A70DE
:4012800045F68A03C4F200034FF055021A7045F68B03C4F200034FF05A021A7045F68C03C4F200034FF005021A7045F68E03C4F200034FF001021A7045F68F03C4F20003BC
:4012C0004FF011021A7045F69003C4F200034FF019021A7045F69103C4F200034FF097021A704FF0440000F0F7F945F69403C4F200034FF058021A7045F69503C4F2000320
:401300004FF000021A7045F69A03C4F200034FF005021A7045F69B03C4F200034FF001021A7045F69C03C4F200034FF000021A7045F69D03C4F200034FF00A021A7048F222
:401340005813C1F6FF734FF4FA421A604FF008004FF0010100F02CFA4FF025004FF0010100F054FB4FF01D0041F29971C0F2000100F0D2FCFB79042B40F0DC804FF49C4303
:40138000C4F200034FF038021A7044F60263C4F200034FF004021A7044F60363C4F200034FF007021A7044F60463C4F200034FF000021A7044F60563C4F200034FF000025E
:4013C0001A7044F60663C4F200034FF03F021A7044F60863C4F200034FF000021A7044F60963C4F200034FF000021A7044F60A63C4F200034FF000021A7044F61463C4F218
:4014000000034FF001021A7045F68403C4F200034FF050021A7045F68503C4F200034FF027021A7045F68603C4F200034FF02C021A7045F68703C4F200034FF000021A701C
:4014400045F68A03C4F200034FF055021A7045F68B03C4F200034FF05A021A7045F68C03C4F200034FF005021A7045F68E03C4F200034FF001021A7045F68F03C4F20003FA
:401480004FF011021A7045F69003C4F200034FF019021A7045F69103C4F200034FF097021A704FF0440000F017F945F69403C4F200034FF058021A7045F69503C4F200033E
:4014C0004FF000021A7045F69A03C4F200034FF005021A7045F69B03C4F200034FF001021A7045F69C03C4F200034FF000021A7045F69D03C4F200034FF00A021A7048F261
:401500005813C1F6FF734FF4FA421A604FF008004FF0010100F04CF94FF025004FF0010100F074FA4FF01D0041F2A571C0F2000100F0F2FB07F10807BD4680BD80B586B077
:4015400000AFF871B9807A80BB7197F82030002B00F0BA8097F82030042B00F2B580FB7903F1FF33092B63D801A252F823F000BF99150000311600003116000099150000D9
:401580003116000031160000BF150000E5150000311600000B160000BB790F2B07D94FF48C73C4F600131B78DBB2FB7544E04FF48E73C4F600131B78DBB2FB753CE0BB7965
:4015C0000F2B07D940F21913C4F600131B78DBB2FB7531E040F21D13C4F600131B78DBB2FB7529E0BB790F2B07D94FF48D73C4F600131B78DBB2FB751EE04FF48F73C4F652
:4016000000131B78DBB2FB7516E0BB790F2B07D940F21B13C4F600131B78DBB2FB750BE040F21F13C4F600131B78DBB2FB7503E04FF00003FB7500BFBA8897F917304FEAB4
:401640004313D3183B617B883A6902FB03F3FB60FB684FEAD333BB82BB790D2B1AD8BA8ABB796FEA030303F10F0342FA03F3BB8297F8203003F1FF33BA7902F10102D1B25F
:4016800048F24812C1F6FF724FEA8303D3180A469A700DE097F8203003F1FF3348F24812C1F6FF724FEA8303D3184FF00F029A7097F8203003F1FF3248F24813C1F6FF73F6
:4016C000B98A23F8221003E04FF0000000F0E0FA07F11807BD4680BD80B584B000AF0346FB7100F0CBFA0346FB7344F2F863C4F2000344F2F862C4F200021278D2B242F00C
:401700000302D2B21A7044F2F963C4F2000344F2F962C4F200021278D2B242F00302D2B21A7045F69203C4F20003FA791A704FF0030000F0DDFA44F2F863C4F2000344F2A0
:40174000F862C4F200021278D2B222F00302D2B21A7044F2F963C4F2000344F2F962C4F200021278D2B222F00302D2B21A70FB7B184600F087FA07F11007BD4680BD00BF0A
:4017800080B400AFBD4680BC704700BF80B400AFBD4680BC704700BF80B400AFBD4680BC704700BF80B400AFBD4680BC704700BF80B584B000AF02460B46FA807B7100F0C2
:4017C00015F90346FB7300F0E7F80346BB81FA88BB899A4200F0DC8044F2A233C4F200031B78DBB203F00103FB72FB7B002B32D1BB89002B02D0FB88002B2CD1BB89002B9B
:4018000014D14FF48143C4F20003FA881A8044F28203C4F2000344F28202C4F200021278D2B222F04002D2B21A70B1E044F28203C4F2000344F28202C4F200021278D2B20C
:4018400042F04002D2B21A704FF48143C4F20003FA881A809CE0FB7A002B5CD044F20103C4F200034FF000021A7044F21003C4F200034FF001021A7044F21403C4F2000330
:401880004FF000021A7044F20803C4F2000344F20802C4F200021278D2B202F07F02D2B21A7044F28203C4F200031B78DBB203F00803002B02D0FB88002B2CD144F2020367
:4018C000C4F20003BA891A8044F20103C4F200034FF007021A7000BF44F20103C4F200031B78DBB203F00103002BF5D144F2A233C4F2000344F2A232C4F200021278D2B23F
:4019000022F00102D2B21A7044F20103C4F200034FF000021A7044F2A233C4F200031B78DBB203F00103002B1ED044F20203C4F20003FA881A8044F20103C4F200037A79DC
:40194000002A02D04FF0030201E04FF001021A7000BF44F20103C4F200031B78DBB203F00103002BF5D113E04FF48143C4F20003FA881A8044F2A233C4F2000344F2A23223
:40198000C4F200021278D1B2FA7A0A43D2B21A7007F11007BD4680BD80B400AF4FF48143C4F200031B889BB21846BD4680BC704780B483B000AF0346FB7144F28203C4F221
:4019C000000344F28202C4F200021278D2B2D1B2FA7922F00702D2B20A43D2B2D2B21A7007F10C07BD4680BC704700BF80B400AF44F28203C4F200031B78DBB203F00703BC
:401A0000DBB21846BD4680BC704700BF80B584B000AF02460B46FA807B7100F015F90346FB7300F0E7F80346BB81FA88BB899A4200F0DC8044F2A133C4F200031B78DBB215
:401A400003F00103FB72FB7B002B32D1BB89002B02D0FB88002B2CD1BB89002B14D14FF48243C4F20003FA881A8044F20213C4F2000344F20212C4F200021278D2B222F01B
:401A80004002D2B21A70B1E044F20213C4F2000344F20212C4F200021278D2B242F04002D2B21A704FF48243C4F20003FA881A809CE0FB7A002B5CD044F20103C4F2000397
:401AC0004FF000021A7044F21403C4F200034FF001021A7044F21003C4F200034FF000021A7044F20803C4F2000344F20802C4F200021278D2B202F07F02D2B21A7044F2C5
:401B00000213C4F200031B78DBB203F00803002B02D0FB88002B2CD144F20203C4F20003BA891A8044F20103C4F200034FF007021A7000BF44F20103C4F200031B78DBB2A9
:401B400003F00103002BF5D144F2A133C4F2000344F2A132C4F200021278D2B222F00102D2B21A7044F20103C4F200034FF000021A7044F2A133C4F200031B78DBB203F034
:401B80000103002B1ED044F20203C4F20003FA881A8044F20103C4F200037A79002A02D04FF0030201E04FF001021A7000BF44F20103C4F200031B78DBB203F00103002B31
:401BC000F5D113E04FF48243C4F20003FA881A8044F2A133C4F2000344F2A132C4F200021278D1B2FA7A0A43D2B21A7007F11007BD4680BD80B400AF4FF48243C4F20003FC
:401C00001B889BB21846BD4680BC704780B483B000AF0346FB7144F20213C4F2000344F20212C4F200021278D2B2D1B2FA7922F00702D2B20A43D2B2D2B21A7007F10C0702
:401C4000BD4680BC704700BF80B400AF44F20213C4F200031B78DBB203F00703DBB21846BD4680BC704700BF0230800800F0058000BF013800467FF4FCAF7047EFF3108057
:401C800072B6704780F31088704700BFAFF3008080B483B000AF0346FB7101BE07F10C07BD4680BC704700BF80B582B000AF78600BE048F21C13C1F6FF731B681846FFF716
:401CC000D3FF7B68A3F500437B607B68B3F5004FEFD848F21413C1F6FF731B687A6802FB03F31846FFF7C0FF07F10807BD4680BD80B582B000AF0346FB80FA8848F21813DB
:401D0000C1F6FF731B7803FB02F31846FFF7ACFF07F10807BD4680BD80B584B000AF03463960FB714EF60853CEF200031B68FB60FB791F2B03D94FF00000FFF7A9FFFB791D
:401D400003F01F0303F110034FEA8303FA68D3181B68BB60FB7903F01F0303F110034FEA8303FA68D3183A681A60BB68184607F11007BD4680BD00BF80B582B000AF0246F8
:401D80000B46FA71BB71BB79072B03D94FF00000FFF77EFFFB791F2B03D94FF00000FFF777FFFB7903F01F0303F1604303F56443BA794FEA4212D2B21A7007F10807BD466B
:401DC00080BD00BF80B582B000AF4FF00003FB7107E0FB791846FEF76FFCFB7903F10103FB71FB79012BF4D948F22013C1F6FF734FF0FF021A7007F10807BD4680BD00BF5F
:401E000080B582B000AF0346FB71FFF7DBFFFB791846FEF70BFC48F22013C1F6FF73FA791A7007F10807BD4680BD00BF80F0004002E000BF81F0004142001FBF5FEA4103F0
:401E400092EA030F7FEA226C7FEA236C6AD04FEA1262D2EB1363C1BFD218414048404140B8BF5B42192B88BF704710F0004F40F4000020F07F4018BF404211F0004F41F451
:401E8000000121F07F4118BF494292EA030F3FD0A2F1010241FA03FC10EB0C00C3F1200301FA03F100F0004302D5494260EB4000B0F5000F13D3B0F1807F06D340084FEA00
:401EC000310102F10102FE2A51D2B1F1004F40EBC25008BF20F0010040EA03007047490040EB000010F4000FA2F10102EDD1B0FA80FCACF1080CB2EB0C0200FA0CF0AABFC9
:401F000000EBC25052421843BCBFD0401843704792F0000F81F4000106BF80F400000132013BB5E74FEA41037FEA226C18BF7FEA236C21D092EA030F04D092F0000F08BFDF
:401F40000846704790EA010F1CBF0020704712F07F4F04D1400028BF40F00040704712F100723CBF00F50000704700F0004343F0FE4040F4000070477FEA226216BF084672
:401F80007FEA23630146420206BF5FEA412390EA010F40F4800070474FF0000304E000BF10F0004348BF40425FEA000C08BF704743F0964301464FF000001CE050EA0102F1
:401FC00008BF70474FF000030AE000BF50EA010208BF704711F0004302D5404261EB41015FEA010C02BF84460146002043F0B64308BFA3F18053A3F50003BCFA8CF2083ADF
:40200000A3EBC25310DB01FA02FC634400FA02FCC2F12002BCF1004F20FA02F243EB020008BF20F00100704702F1200201FA02FCC2F1200250EA4C0021FA02F243EB020034
:4020400008BF20EADC7070474FF0FF0C1CEAD0521EBF1CEAD15392EA0C0F93EA0C0F6FD01A4480EA010C400218BF5FEA41211ED04FF0006343EA501043EA5111A0FB013193
:402080000CF00040B1F5000F3EBF490041EAD3715B0040EA010062F17F02FD2A1DD8B3F1004F40EBC25008BF20F00100704790F0000F0CF0004C08BF49024CEA502040EA8C
:4020C00051207F3AC2BFD2F1FF0340EAC250704740F400004FF00003013A5DDC12F1190FDCBF00F000407047C2F10002410021FA02F1C2F1200200FA02FC5FEA310040F16A
:40210000000053EA4C0308BF20EADC70704792F0000F00F0004C02BF400010F4000F013AF9D040EA0C0093F0000F01F0004C02BF490011F4000F013BF9D041EA0C018FE784
:402140000CEAD15392EA0C0F18BF93EA0C0F0AD030F0004C18BF31F0004CD8D180EA010000F00040704790F0000F17BF90F0004F084691F0000F91F0004F14D092EA0C0F5D
:4021800001D142020FD193EA0C0F03D14B0218BF084608D180EA010000F0004040F0FE4040F40000704740F0FE4040F4400070474FF0FF0C1CEAD0521EBF1CEAD15392EAF0
:4021C0000C0F93EA0C0F69D0A2EB030280EA010C49024FEA402037D04FF0805343EA111143EA10130CF000408B4238BF5B0042F17D024FF4000C8B4224BF5B1A40EA0C0097
:40220000B3EB510F24BFA3EB510340EA5C00B3EB910F24BFA3EB910340EA9C00B3EBD10F24BFA3EBD10340EADC001B0118BF5FEA1C1CE0D1FD2A3FF650AF8B4240EBC250F9
:4022400008BF20F0010070470CF0004C4CEA50207F32C2BFD2F1FF0340EAC250704740F400004FF00003013A37E792F0000F00F0004C02BF400010F4000F013AF9D040EA19
:402280000C0093F0000F01F0004C02BF490011F4000F013BF9D041EA0C0195E70CEAD15392EA0C0F08D142027FF47DAF93EA0C0F7FF470AF084676E793EA0C0F04D14B0270
:4022C0003FF44CAF08466EE730F0004C18BF31F0004CCAD130F000427FF45CAF31F000437FF43CAF5FE700BF38B50E4D0E4B0024E81A8510AC4205D00B4951F82420904744
:402300000134F7E700F04CF80849094A541AA5100024AC4205D0054B53F8240080470134F7E738BDAC230000AC230000AC230000B423000010B50023934203D0CC5CC45406
:402340000133F9E710BD82180346934202D003F8011BFAE770470000000000000D510040005B00400D510040005B004001100220105100406000C05100401000F0510040BB
:40238000100000000140001000140140000800400140000A004C01400002005001402000F8B500BFF8BC08BC9E46704751000000A1020000F8B500BFF8BC08BC9E467047A2
:4023C0002D000000D82300000881FF1F200000003800000000000000000000000100000000366E01C05D0000180000000000E02EFF000000000000000000000000000000CE
:40240000000000000000000000000000000000000000000000000000000000000000000000000000000000000000000000000000000000000000000000000000000000009C
:40244000000000000000000000000000000000000000000000000000000000000000000000000000000000000000000000000000000000000000000000000000000000005C
:40248000000000000000000000000000000000000000000000000000000000000000000000000000000000000000000000000000000000000000000000000000000000001C
:4024C00000000000000000000000000000000000000000000000000000000000000000000000000000000000000000000000000000000000000000000000000000000000DC
:020000040003F7
:0200000480007A
:4000000001090140040A0140010B014001150140011B0140024401400145014003460140034701400248014001490140014C0140024D0140B502B802BE01D804DF011D02C3
:40004000EC10EC107C01DE01940145089401D001A508B401EC082510C820B510A508B508EC0800000000000000000300BB0018010000000000000000000000000000000077
:400080000000000000000000000000000000000000000000000000000000000000000000000000000000000000000000000000000000000000000000000000000000000040
:4000C0000000000000000000000000000000000000000000000000000000000000000000000000000000000000000000000000000000000000000000000000000000000000
:4001000000000000000000000000000000000000000000000000000000000000000000000000000000000000000000000000000000000000000000000000000000000000BF
:40014000000000000000000000000000000000000000000000000000000000000000000000000000000000000000000000000000000000000000000000000000000000007F
:0200000490006A
:0400000000004005B7
:0200000490105A
:04000000BC90ACAF55
:0200000490303A
:02000000644357
:0200000490402A
:4000000000000000000000000000000000000000000000000000000000000000000000000000000000000000000000000000000000000000000000000000000000000000C0
:400040000000000000000000000000000000000000000000000000000000000000000000000000000000000000000000000000000000000000000000000000000000000080
:400080000000000000000000000000000000000000000000000000000000000000000000000000000000000000000000000000000000000000000000000000000000000040
:4000C0000000000000000000000000000000000000000000000000000000000000000000000000000000000000000000000000000000000000000000000000000000000000
:0200000490501A
:0C00000000012E12306900012E2194AC8A
:00000001FF